{
	"data": {
		"bytecode": {
			"linkReferences": {},
			"object": "608060405273a0b86991c6218b36c1d19d4a2e9eb0ce3606eb48600860006101000a81548173ffffffffffffffffffffffffffffffffffffffff021916908373ffffffffffffffffffffffffffffffffffffffff1602179055506000600860146101000a81548160ff0219169083151502179055506000600860156101000a81548160ff021916908315150217905550737ea9114092ec4379ffdf51ba6b72c71265f33e96601060006101000a81548173ffffffffffffffffffffffffffffffffffffffff021916908373ffffffffffffffffffffffffffffffffffffffff160217905550348015620000f157600080fd5b50600e8054620001019062000369565b80601f01602080910402602001604051908101604052809291908181526020018280546200012f9062000369565b8015620001805780601f10620001545761010080835404028352916020019162000180565b820191906000526020600020905b8154815290600101906020018083116200016257829003601f168201915b5050505050600f8054620001949062000369565b80601f0160208091040260200160405190810160405280929190818152602001828054620001c29062000369565b8015620002135780601f10620001e75761010080835404028352916020019162000213565b820191906000526020600020905b815481529060010190602001808311620001f557829003601f168201915b50505050508160009081620002299190620005b4565b5080600190816200023b9190620005b4565b5050506200025e620002526200026c60201b60201c565b6200027460201b60201c565b60016007819055506200069b565b600033905090565b6000600660009054906101000a900473ffffffffffffffffffffffffffffffffffffffff16905081600660006101000a81548173ffffffffffffffffffffffffffffffffffffffff021916908373ffffffffffffffffffffffffffffffffffffffff1602179055508173ffffffffffffffffffffffffffffffffffffffff168173ffffffffffffffffffffffffffffffffffffffff167f8be0079c531659141344cd1fd0a4f28419497f9722a3daafe3b4186f6b6457e060405160405180910390a35050565b7f4e487b7100000000000000000000000000000000000000000000000000000000600052602260045260246000fd5b600060028204905060018216806200038257607f821691505b6020821081036200039857620003976200033a565b5b50919050565b600081519050919050565b7f4e487b7100000000000000000000000000000000000000000000000000000000600052604160045260246000fd5b60008190508160005260206000209050919050565b60006020601f8301049050919050565b600082821b905092915050565b6000600883026200043c7fffffffffffffffffffffffffffffffffffffffffffffffffffffffffffffffff82620003fd565b620004488683620003fd565b95508019841693508086168417925050509392505050565b6000819050919050565b6000819050919050565b6000620004956200048f620004898462000460565b6200046a565b62000460565b9050919050565b6000819050919050565b620004b18362000474565b620004c9620004c0826200049c565b8484546200040a565b825550505050565b600090565b620004e0620004d1565b620004ed818484620004a6565b505050565b5b81811015620005155762000509600082620004d6565b600181019050620004f3565b5050565b601f82111562000564576200052e81620003d8565b6200053984620003ed565b8101602085101562000549578190505b620005616200055885620003ed565b830182620004f2565b50505b505050565b600082821c905092915050565b6000620005896000198460080262000569565b1980831691505092915050565b6000620005a4838362000576565b9150826002028217905092915050565b620005bf826200039e565b67ffffffffffffffff811115620005db57620005da620003a9565b5b620005e7825462000369565b620005f482828562000519565b600060209050601f8311600181146200062c576000841562000617578287015190505b62000623858262000596565b86555062000693565b601f1984166200063c86620003d8565b60005b8281101562000666578489015182556001820191506020850194506020810190506200063f565b8683101562000686578489015162000682601f89168262000576565b8355505b6001600288020188555050505b505050505050565b61513880620006ab6000396000f3fe60806040526004361061023b5760003560e01c8063715018a61161012e578063b88d4fde116100ab578063d547cfb71161006f578063d547cfb714610804578063e030565e1461082f578063e985e9c514610858578063f2fde38b14610895578063f418ae6d146108be5761023b565b8063b88d4fde1461070b578063bf2b23ea14610734578063c2f1f14a1461075f578063c87b56dd1461079c578063d28d8852146107d95761023b565b806395d89b41116100f257806395d89b411461064a5780639b3ebbaa14610675578063a22cb4651461068c578063a389d62b146106b5578063b09f1266146106e05761023b565b8063715018a61461058457806381e8525b1461059b5780638aed64cd146105c65780638da5cb5b146105e25780638fc88c481461060d5761023b565b80633790cce1116101bc578063504334c211610180578063504334c21461048d57806361d027b3146104b65780636352211e146104e15780636605bfda1461051e57806370a08231146105475761023b565b80633790cce1146103e45780633ccfd60b146103fb57806342842e0e14610412578063496713471461043b5780634ee5c2f5146104645761023b565b806323b872dd1161020357806323b872dd146103395780632dda6e4e146103625780632ed6d5e81461037957806330176e131461039057806335918417146103b95761023b565b806301ffc9a71461024057806306fdde031461027d578063081812fc146102a8578063095ea7b3146102e557806318160ddd1461030e575b600080fd5b34801561024c57600080fd5b5061026760048036038101906102629190613421565b6108e9565b6040516102749190613469565b60405180910390f35b34801561028957600080fd5b50610292610963565b60405161029f9190613514565b60405180910390f35b3480156102b457600080fd5b506102cf60048036038101906102ca919061356c565b6109f5565b6040516102dc91906135da565b60405180910390f35b3480156102f157600080fd5b5061030c60048036038101906103079190613621565b610a3b565b005b34801561031a57600080fd5b50610323610b52565b6040516103309190613670565b60405180910390f35b34801561034557600080fd5b50610360600480360381019061035b919061368b565b610b58565b005b34801561036e57600080fd5b50610377610bb8565b005b34801561038557600080fd5b5061038e610bec565b005b34801561039c57600080fd5b506103b760048036038101906103b29190613813565b610f50565b005b3480156103c557600080fd5b506103ce610f6b565b6040516103db9190613469565b60405180910390f35b3480156103f057600080fd5b506103f9610f7e565b005b34801561040757600080fd5b50610410611032565b005b34801561041e57600080fd5b506104396004803603810190610434919061368b565b6112ac565b005b34801561044757600080fd5b50610462600480360381019061045d919061385c565b6112cc565b005b34801561047057600080fd5b5061048b600480360381019061048691906138ed565b6112ee565b005b34801561049957600080fd5b506104b460048036038101906104af919061391a565b61133a565b005b3480156104c257600080fd5b506104cb611366565b6040516104d891906139a1565b60405180910390f35b3480156104ed57600080fd5b506105086004803603810190610503919061356c565b61138c565b60405161051591906135da565b60405180910390f35b34801561052a57600080fd5b50610545600480360381019061054091906138ed565b611412565b005b34801561055357600080fd5b5061056e600480360381019061056991906139bc565b6114e6565b60405161057b9190613670565b60405180910390f35b34801561059057600080fd5b5061059961159d565b005b3480156105a757600080fd5b506105b06115b1565b6040516105bd9190613670565b60405180910390f35b6105e060048036038101906105db9190613a29565b6115b7565b005b3480156105ee57600080fd5b506105f7611870565b60405161060491906135da565b60405180910390f35b34801561061957600080fd5b50610634600480360381019061062f919061356c565b61189a565b6040516106419190613670565b60405180910390f35b34801561065657600080fd5b5061065f611935565b60405161066c9190613514565b60405180910390f35b34801561068157600080fd5b5061068a6119c7565b005b34801561069857600080fd5b506106b360048036038101906106ae9190613aa8565b6119fb565b005b3480156106c157600080fd5b506106ca611a11565b6040516106d79190613469565b60405180910390f35b3480156106ec57600080fd5b506106f5611a24565b6040516107029190613514565b60405180910390f35b34801561071757600080fd5b50610732600480360381019061072d9190613b89565b611ab2565b005b34801561074057600080fd5b50610749611b14565b6040516107569190613670565b60405180910390f35b34801561076b57600080fd5b506107866004803603810190610781919061356c565b611b1a565b60405161079391906135da565b60405180910390f35b3480156107a857600080fd5b506107c360048036038101906107be919061356c565b611b9f565b6040516107d09190613514565b60405180910390f35b3480156107e557600080fd5b506107ee611c27565b6040516107fb9190613514565b60405180910390f35b34801561081057600080fd5b50610819611cb5565b6040516108269190613514565b60405180910390f35b34801561083b57600080fd5b5061085660048036038101906108519190613a29565b611d43565b005b34801561086457600080fd5b5061087f600480360381019061087a9190613c0c565b61212a565b60405161088c9190613469565b60405180910390f35b3480156108a157600080fd5b506108bc60048036038101906108b791906139bc565b6121be565b005b3480156108ca57600080fd5b506108d3612241565b6040516108e09190613670565b60405180910390f35b60007fad092b5c000000000000000000000000000000000000000000000000000000007bffffffffffffffffffffffffffffffffffffffffffffffffffffffff1916827bffffffffffffffffffffffffffffffffffffffffffffffffffffffff1916148061095c575061095b82612247565b5b9050919050565b60606000805461097290613c7b565b80601f016020809104026020016040519081016040528092919081815260200182805461099e90613c7b565b80156109eb5780601f106109c0576101008083540402835291602001916109eb565b820191906000526020600020905b8154815290600101906020018083116109ce57829003601f168201915b5050505050905090565b6000610a0082612329565b6004600083815260200190815260200160002060009054906101000a900473ffffffffffffffffffffffffffffffffffffffff169050919050565b6000610a468261138c565b90508073ffffffffffffffffffffffffffffffffffffffff168373ffffffffffffffffffffffffffffffffffffffff1603610ab6576040517f08c379a0000000000000000000000000000000000000000000000000000000008152600401610aad90613d1e565b60405180910390fd5b8073ffffffffffffffffffffffffffffffffffffffff16610ad5612374565b73ffffffffffffffffffffffffffffffffffffffff161480610b045750610b0381610afe612374565b61212a565b5b610b43576040517f08c379a0000000000000000000000000000000000000000000000000000000008152600401610b3a90613db0565b60405180910390fd5b610b4d838361237c565b505050565b600c5481565b610b69610b63612374565b82612435565b610ba8576040517f08c379a0000000000000000000000000000000000000000000000000000000008152600401610b9f90613e42565b60405180910390fd5b610bb38383836124ca565b505050565b610bc06127c3565b600860149054906101000a900460ff1615600860146101000a81548160ff021916908315150217905550565b610bf4612841565b601060009054906101000a900473ffffffffffffffffffffffffffffffffffffffff1673ffffffffffffffffffffffffffffffffffffffff163373ffffffffffffffffffffffffffffffffffffffff161480610c825750610c53611870565b73ffffffffffffffffffffffffffffffffffffffff163373ffffffffffffffffffffffffffffffffffffffff16145b610cc1576040517f08c379a0000000000000000000000000000000000000000000000000000000008152600401610cb890613eae565b60405180910390fd5b6000600860009054906101000a900473ffffffffffffffffffffffffffffffffffffffff16905060008173ffffffffffffffffffffffffffffffffffffffff166370a08231306040518263ffffffff1660e01b8152600401610d2391906135da565b602060405180830381865afa158015610d40573d6000803e3d6000fd5b505050506040513d601f19601f82011682018060405250810190610d649190613ee3565b905060006001606483610d779190613f6e565b610d819190613f9f565b905060008183610d919190613fe1565b905060008473ffffffffffffffffffffffffffffffffffffffff1663a9059cbb601060009054906101000a900473ffffffffffffffffffffffffffffffffffffffff16856040518363ffffffff1660e01b8152600401610df2929190614074565b6020604051808303816000875af1158015610e11573d6000803e3d6000fd5b505050506040513d601f19601f82011682018060405250810190610e3591906140b2565b905060008573ffffffffffffffffffffffffffffffffffffffff1663a9059cbb610e5d611870565b856040518363ffffffff1660e01b8152600401610e7b9291906140df565b6020604051808303816000875af1158015610e9a573d6000803e3d6000fd5b505050506040513d601f19601f82011682018060405250810190610ebe91906140b2565b905081610f00576040517f08c379a0000000000000000000000000000000000000000000000000000000008152600401610ef790614154565b60405180910390fd5b80610f40576040517f08c379a0000000000000000000000000000000000000000000000000000000008152600401610f37906141c0565b60405180910390fd5b505050505050610f4e612890565b565b610f586127c3565b80600d9081610f679190614382565b5050565b600860159054906101000a900460ff1681565b610f86612841565b610f8e6127c3565b3273ffffffffffffffffffffffffffffffffffffffff163373ffffffffffffffffffffffffffffffffffffffff1614610ffc576040517f08c379a0000000000000000000000000000000000000000000000000000000008152600401610ff3906144a0565b60405180910390fd5b6000600c54905061100d338261289a565b6001600c600082825461102091906144c0565b9250508190555050611030612890565b565b61103a612841565b601060009054906101000a900473ffffffffffffffffffffffffffffffffffffffff1673ffffffffffffffffffffffffffffffffffffffff163373ffffffffffffffffffffffffffffffffffffffff1614806110c85750611099611870565b73ffffffffffffffffffffffffffffffffffffffff163373ffffffffffffffffffffffffffffffffffffffff16145b611107576040517f08c379a00000000000000000000000000000000000000000000000000000000081526004016110fe90613eae565b60405180910390fd5b6000601060009054906101000a900473ffffffffffffffffffffffffffffffffffffffff1673ffffffffffffffffffffffffffffffffffffffff1660016064476111519190613f6e565b61115b9190613f9f565b60405161116790614525565b60006040518083038185875af1925050503d80600081146111a4576040519150601f19603f3d011682016040523d82523d6000602084013e6111a9565b606091505b5050905060006111b7611870565b73ffffffffffffffffffffffffffffffffffffffff16476040516111da90614525565b60006040518083038185875af1925050503d8060008114611217576040519150601f19603f3d011682016040523d82523d6000602084013e61121c565b606091505b5050905081611260576040517f08c379a000000000000000000000000000000000000000000000000000000000815260040161125790614154565b60405180910390fd5b806112a0576040517f08c379a0000000000000000000000000000000000000000000000000000000008152600401611297906141c0565b60405180910390fd5b50506112aa612890565b565b6112c783838360405180602001604052806000815250611ab2565b505050565b6112d46127c3565b82600a8190555081600b8190555080600981905550505050565b6112f66127c3565b80600860006101000a81548173ffffffffffffffffffffffffffffffffffffffff021916908373ffffffffffffffffffffffffffffffffffffffff16021790555050565b6113426127c3565b81600e90816113519190614382565b5080600f90816113619190614382565b505050565b601060009054906101000a900473ffffffffffffffffffffffffffffffffffffffff1681565b600080611398836128b8565b9050600073ffffffffffffffffffffffffffffffffffffffff168173ffffffffffffffffffffffffffffffffffffffff1603611409576040517f08c379a000000000000000000000000000000000000000000000000000000000815260040161140090614586565b60405180910390fd5b80915050919050565b601060009054906101000a900473ffffffffffffffffffffffffffffffffffffffff1673ffffffffffffffffffffffffffffffffffffffff163373ffffffffffffffffffffffffffffffffffffffff16146114a2576040517f08c379a000000000000000000000000000000000000000000000000000000000815260040161149990613eae565b60405180910390fd5b80601060006101000a81548173ffffffffffffffffffffffffffffffffffffffff021916908373ffffffffffffffffffffffffffffffffffffffff16021790555050565b60008073ffffffffffffffffffffffffffffffffffffffff168273ffffffffffffffffffffffffffffffffffffffff1603611556576040517f08c379a000000000000000000000000000000000000000000000000000000000815260040161154d90614618565b60405180910390fd5b600360008373ffffffffffffffffffffffffffffffffffffffff1673ffffffffffffffffffffffffffffffffffffffff168152602001908152602001600020549050919050565b6115a56127c3565b6115af60006128f5565b565b60095481565b6115c13384612435565b611600576040517f08c379a00000000000000000000000000000000000000000000000000000000081526004016115f790614684565b60405180910390fd5b600860159054906101000a900460ff1615611650576040517f08c379a0000000000000000000000000000000000000000000000000000000008152600401611647906146f0565b60405180910390fd5b6009548167ffffffffffffffff16111561169f576040517f08c379a00000000000000000000000000000000000000000000000000000000081526004016116969061475c565b60405180910390fd5b34600b548267ffffffffffffffff166116b89190613f9f565b146116f8576040517f08c379a00000000000000000000000000000000000000000000000000000000081526004016116ef906147ee565b60405180910390fd5b600062278d0082611709919061480e565b9050600042905060006011600087815260200190815260200160002090508167ffffffffffffffff168160000160149054906101000a900467ffffffffffffffff1667ffffffffffffffff1610611795576040517f08c379a000000000000000000000000000000000000000000000000000000000815260040161178c90614897565b60405180910390fd5b848160000160006101000a81548173ffffffffffffffffffffffffffffffffffffffff021916908373ffffffffffffffffffffffffffffffffffffffff16021790555081836117e491906148b7565b8160000160146101000a81548167ffffffffffffffff021916908367ffffffffffffffff1602179055508473ffffffffffffffffffffffffffffffffffffffff16867f4e06b4e7000e659094299b3533b47b6aa8ad048e95e872d23d1f4ee55af89cfe848661185391906148b7565b6040516118609190614902565b60405180910390a3505050505050565b6000600660009054906101000a900473ffffffffffffffffffffffffffffffffffffffff16905090565b6000426011600084815260200190815260200160002060000160149054906101000a900467ffffffffffffffff1667ffffffffffffffff1610611913576011600083815260200190815260200160002060000160149054906101000a900467ffffffffffffffff1667ffffffffffffffff169050611930565b780fee50b7025c36a0802f236d04753d5b48e7ffffffffffffff90505b919050565b60606001805461194490613c7b565b80601f016020809104026020016040519081016040528092919081815260200182805461197090613c7b565b80156119bd5780601f10611992576101008083540402835291602001916119bd565b820191906000526020600020905b8154815290600101906020018083116119a057829003601f168201915b5050505050905090565b6119cf6127c3565b600860159054906101000a900460ff1615600860156101000a81548160ff021916908315150217905550565b611a0d611a06612374565b83836129bb565b5050565b600860149054906101000a900460ff1681565b600f8054611a3190613c7b565b80601f0160208091040260200160405190810160405280929190818152602001828054611a5d90613c7b565b8015611aaa5780601f10611a7f57610100808354040283529160200191611aaa565b820191906000526020600020905b815481529060010190602001808311611a8d57829003601f168201915b505050505081565b611ac3611abd612374565b83612435565b611b02576040517f08c379a0000000000000000000000000000000000000000000000000000000008152600401611af990613e42565b60405180910390fd5b611b0e84848484612b27565b50505050565b600a5481565b6000426011600084815260200190815260200160002060000160149054906101000a900467ffffffffffffffff1667ffffffffffffffff1610611b95576011600083815260200190815260200160002060000160009054906101000a900473ffffffffffffffffffffffffffffffffffffffff169050611b9a565b600090505b919050565b6060611baa82612b83565b611be9576040517f08c379a0000000000000000000000000000000000000000000000000000000008152600401611be090614969565b60405180910390fd5b6000611bf3612bc4565b905080611bff84612c56565b604051602001611c10929190614a11565b604051602081830303815290604052915050919050565b600e8054611c3490613c7b565b80601f0160208091040260200160405190810160405280929190818152602001828054611c6090613c7b565b8015611cad5780601f10611c8257610100808354040283529160200191611cad565b820191906000526020600020905b815481529060010190602001808311611c9057829003601f168201915b505050505081565b600d8054611cc290613c7b565b80601f0160208091040260200160405190810160405280929190818152602001828054611cee90613c7b565b8015611d3b5780601f10611d1057610100808354040283529160200191611d3b565b820191906000526020600020905b815481529060010190602001808311611d1e57829003601f168201915b505050505081565b611d4d3384612435565b611d8c576040517f08c379a0000000000000000000000000000000000000000000000000000000008152600401611d8390614684565b60405180910390fd5b600860149054906101000a900460ff1615611ddc576040517f08c379a0000000000000000000000000000000000000000000000000000000008152600401611dd3906146f0565b60405180910390fd5b6009548167ffffffffffffffff161115611e2b576040517f08c379a0000000000000000000000000000000000000000000000000000000008152600401611e229061475c565b60405180910390fd5b611e33611870565b73ffffffffffffffffffffffffffffffffffffffff16611e528461138c565b73ffffffffffffffffffffffffffffffffffffffff1614611ea8576040517f08c379a0000000000000000000000000000000000000000000000000000000008152600401611e9f90614a8c565b60405180910390fd5b6000600860009054906101000a900473ffffffffffffffffffffffffffffffffffffffff16905060008267ffffffffffffffff16600a54611ee99190613f9f565b905060008273ffffffffffffffffffffffffffffffffffffffff166323b872dd3330856040518463ffffffff1660e01b8152600401611f2a93929190614aac565b6020604051808303816000875af1158015611f49573d6000803e3d6000fd5b505050506040513d601f19601f82011682018060405250810190611f6d91906140b2565b905080611faf576040517f08c379a0000000000000000000000000000000000000000000000000000000008152600401611fa690614b2f565b60405180910390fd5b600062278d0085611fc0919061480e565b905060004290506000601160008a815260200190815260200160002090508167ffffffffffffffff168160000160149054906101000a900467ffffffffffffffff1667ffffffffffffffff161061204c576040517f08c379a000000000000000000000000000000000000000000000000000000000815260040161204390614897565b60405180910390fd5b878160000160006101000a81548173ffffffffffffffffffffffffffffffffffffffff021916908373ffffffffffffffffffffffffffffffffffffffff160217905550818361209b91906148b7565b8160000160146101000a81548167ffffffffffffffff021916908367ffffffffffffffff1602179055508773ffffffffffffffffffffffffffffffffffffffff16897f4e06b4e7000e659094299b3533b47b6aa8ad048e95e872d23d1f4ee55af89cfe848661210a91906148b7565b6040516121179190614902565b60405180910390a3505050505050505050565b6000600560008473ffffffffffffffffffffffffffffffffffffffff1673ffffffffffffffffffffffffffffffffffffffff16815260200190815260200160002060008373ffffffffffffffffffffffffffffffffffffffff1673ffffffffffffffffffffffffffffffffffffffff16815260200190815260200160002060009054906101000a900460ff16905092915050565b6121c66127c3565b600073ffffffffffffffffffffffffffffffffffffffff168173ffffffffffffffffffffffffffffffffffffffff1603612235576040517f08c379a000000000000000000000000000000000000000000000000000000000815260040161222c90614bc1565b60405180910390fd5b61223e816128f5565b50565b600b5481565b60007f80ac58cd000000000000000000000000000000000000000000000000000000007bffffffffffffffffffffffffffffffffffffffffffffffffffffffff1916827bffffffffffffffffffffffffffffffffffffffffffffffffffffffff1916148061231257507f5b5e139f000000000000000000000000000000000000000000000000000000007bffffffffffffffffffffffffffffffffffffffffffffffffffffffff1916827bffffffffffffffffffffffffffffffffffffffffffffffffffffffff1916145b80612322575061232182612d24565b5b9050919050565b61233281612b83565b612371576040517f08c379a000000000000000000000000000000000000000000000000000000000815260040161236890614586565b60405180910390fd5b50565b600033905090565b816004600083815260200190815260200160002060006101000a81548173ffffffffffffffffffffffffffffffffffffffff021916908373ffffffffffffffffffffffffffffffffffffffff160217905550808273ffffffffffffffffffffffffffffffffffffffff166123ef8361138c565b73ffffffffffffffffffffffffffffffffffffffff167f8c5be1e5ebec7d5bd14f71427d1e84f3dd0314c0f7b2291e5b200ac8c7c3b92560405160405180910390a45050565b6000806124418361138c565b90508073ffffffffffffffffffffffffffffffffffffffff168473ffffffffffffffffffffffffffffffffffffffff1614806124835750612482818561212a565b5b806124c157508373ffffffffffffffffffffffffffffffffffffffff166124a9846109f5565b73ffffffffffffffffffffffffffffffffffffffff16145b91505092915050565b8273ffffffffffffffffffffffffffffffffffffffff166124ea8261138c565b73ffffffffffffffffffffffffffffffffffffffff1614612540576040517f08c379a000000000000000000000000000000000000000000000000000000000815260040161253790614c53565b60405180910390fd5b600073ffffffffffffffffffffffffffffffffffffffff168273ffffffffffffffffffffffffffffffffffffffff16036125af576040517f08c379a00000000000000000000000000000000000000000000000000000000081526004016125a690614ce5565b60405180910390fd5b6125bc8383836001612d8e565b8273ffffffffffffffffffffffffffffffffffffffff166125dc8261138c565b73ffffffffffffffffffffffffffffffffffffffff1614612632576040517f08c379a000000000000000000000000000000000000000000000000000000000815260040161262990614c53565b60405180910390fd5b6004600082815260200190815260200160002060006101000a81549073ffffffffffffffffffffffffffffffffffffffff02191690556001600360008573ffffffffffffffffffffffffffffffffffffffff1673ffffffffffffffffffffffffffffffffffffffff168152602001908152602001600020600082825403925050819055506001600360008473ffffffffffffffffffffffffffffffffffffffff1673ffffffffffffffffffffffffffffffffffffffff16815260200190815260200160002060008282540192505081905550816002600083815260200190815260200160002060006101000a81548173ffffffffffffffffffffffffffffffffffffffff021916908373ffffffffffffffffffffffffffffffffffffffff160217905550808273ffffffffffffffffffffffffffffffffffffffff168473ffffffffffffffffffffffffffffffffffffffff167fddf252ad1be2c89b69c2b068fc378daa952ba7f163c4a11628f55a4df523b3ef60405160405180910390a46127be8383836001612e3a565b505050565b6127cb612374565b73ffffffffffffffffffffffffffffffffffffffff166127e9611870565b73ffffffffffffffffffffffffffffffffffffffff161461283f576040517f08c379a000000000000000000000000000000000000000000000000000000000815260040161283690614d51565b60405180910390fd5b565b600260075403612886576040517f08c379a000000000000000000000000000000000000000000000000000000000815260040161287d90614dbd565b60405180910390fd5b6002600781905550565b6001600781905550565b6128b4828260405180602001604052806000815250612e40565b5050565b60006002600083815260200190815260200160002060009054906101000a900473ffffffffffffffffffffffffffffffffffffffff169050919050565b6000600660009054906101000a900473ffffffffffffffffffffffffffffffffffffffff16905081600660006101000a81548173ffffffffffffffffffffffffffffffffffffffff021916908373ffffffffffffffffffffffffffffffffffffffff1602179055508173ffffffffffffffffffffffffffffffffffffffff168173ffffffffffffffffffffffffffffffffffffffff167f8be0079c531659141344cd1fd0a4f28419497f9722a3daafe3b4186f6b6457e060405160405180910390a35050565b8173ffffffffffffffffffffffffffffffffffffffff168373ffffffffffffffffffffffffffffffffffffffff1603612a29576040517f08c379a0000000000000000000000000000000000000000000000000000000008152600401612a2090614e29565b60405180910390fd5b80600560008573ffffffffffffffffffffffffffffffffffffffff1673ffffffffffffffffffffffffffffffffffffffff16815260200190815260200160002060008473ffffffffffffffffffffffffffffffffffffffff1673ffffffffffffffffffffffffffffffffffffffff16815260200190815260200160002060006101000a81548160ff0219169083151502179055508173ffffffffffffffffffffffffffffffffffffffff168373ffffffffffffffffffffffffffffffffffffffff167f17307eab39ab6107e8899845ad3d59bd9653f200f220920489ca2b5937696c3183604051612b1a9190613469565b60405180910390a3505050565b612b328484846124ca565b612b3e84848484612e9b565b612b7d576040517f08c379a0000000000000000000000000000000000000000000000000000000008152600401612b7490614ebb565b60405180910390fd5b50505050565b60008073ffffffffffffffffffffffffffffffffffffffff16612ba5836128b8565b73ffffffffffffffffffffffffffffffffffffffff1614159050919050565b6060600d8054612bd390613c7b565b80601f0160208091040260200160405190810160405280929190818152602001828054612bff90613c7b565b8015612c4c5780601f10612c2157610100808354040283529160200191612c4c565b820191906000526020600020905b815481529060010190602001808311612c2f57829003601f168201915b5050505050905090565b606060006001612c6584613022565b01905060008167ffffffffffffffff811115612c8457612c836136e8565b5b6040519080825280601f01601f191660200182016040528015612cb65781602001600182028036833780820191505090505b509050600082602001820190505b600115612d19578080600190039150507f3031323334353637383961626364656600000000000000000000000000000000600a86061a8153600a8581612d0d57612d0c613f10565b5b04945060008503612cc4575b819350505050919050565b60007f01ffc9a7000000000000000000000000000000000000000000000000000000007bffffffffffffffffffffffffffffffffffffffffffffffffffffffff1916827bffffffffffffffffffffffffffffffffffffffffffffffffffffffff1916149050919050565b600073ffffffffffffffffffffffffffffffffffffffff168473ffffffffffffffffffffffffffffffffffffffff161480612df55750600073ffffffffffffffffffffffffffffffffffffffff168373ffffffffffffffffffffffffffffffffffffffff16145b612e34576040517f08c379a0000000000000000000000000000000000000000000000000000000008152600401612e2b90614f27565b60405180910390fd5b50505050565b50505050565b612e4a8383613175565b612e576000848484612e9b565b612e96576040517f08c379a0000000000000000000000000000000000000000000000000000000008152600401612e8d90614ebb565b60405180910390fd5b505050565b6000612ebc8473ffffffffffffffffffffffffffffffffffffffff16613392565b15613015578373ffffffffffffffffffffffffffffffffffffffff1663150b7a02612ee5612374565b8786866040518563ffffffff1660e01b8152600401612f079493929190614f9c565b6020604051808303816000875af1925050508015612f4357506040513d601f19601f82011682018060405250810190612f409190614ffd565b60015b612fc5573d8060008114612f73576040519150601f19603f3d011682016040523d82523d6000602084013e612f78565b606091505b506000815103612fbd576040517f08c379a0000000000000000000000000000000000000000000000000000000008152600401612fb490614ebb565b60405180910390fd5b805181602001fd5b63150b7a0260e01b7bffffffffffffffffffffffffffffffffffffffffffffffffffffffff1916817bffffffffffffffffffffffffffffffffffffffffffffffffffffffff19161491505061301a565b600190505b949350505050565b600080600090507a184f03e93ff9f4daa797ed6e38ed64bf6a1f0100000000000000008310613080577a184f03e93ff9f4daa797ed6e38ed64bf6a1f010000000000000000838161307657613075613f10565b5b0492506040810190505b6d04ee2d6d415b85acef810000000083106130bd576d04ee2d6d415b85acef810000000083816130b3576130b2613f10565b5b0492506020810190505b662386f26fc1000083106130ec57662386f26fc1000083816130e2576130e1613f10565b5b0492506010810190505b6305f5e1008310613115576305f5e100838161310b5761310a613f10565b5b0492506008810190505b612710831061313a5761271083816131305761312f613f10565b5b0492506004810190505b6064831061315d576064838161315357613152613f10565b5b0492506002810190505b600a831061316c576001810190505b80915050919050565b600073ffffffffffffffffffffffffffffffffffffffff168273ffffffffffffffffffffffffffffffffffffffff16036131e4576040517f08c379a00000000000000000000000000000000000000000000000000000000081526004016131db90615076565b60405180910390fd5b6131ed81612b83565b1561322d576040517f08c379a0000000000000000000000000000000000000000000000000000000008152600401613224906150e2565b60405180910390fd5b61323b600083836001612d8e565b61324481612b83565b15613284576040517f08c379a000000000000000000000000000000000000000000000000000000000815260040161327b906150e2565b60405180910390fd5b6001600360008473ffffffffffffffffffffffffffffffffffffffff1673ffffffffffffffffffffffffffffffffffffffff16815260200190815260200160002060008282540192505081905550816002600083815260200190815260200160002060006101000a81548173ffffffffffffffffffffffffffffffffffffffff021916908373ffffffffffffffffffffffffffffffffffffffff160217905550808273ffffffffffffffffffffffffffffffffffffffff16600073ffffffffffffffffffffffffffffffffffffffff167fddf252ad1be2c89b69c2b068fc378daa952ba7f163c4a11628f55a4df523b3ef60405160405180910390a461338e600083836001612e3a565b5050565b6000808273ffffffffffffffffffffffffffffffffffffffff163b119050919050565b6000604051905090565b600080fd5b600080fd5b60007fffffffff0000000000000000000000000000000000000000000000000000000082169050919050565b6133fe816133c9565b811461340957600080fd5b50565b60008135905061341b816133f5565b92915050565b600060208284031215613437576134366133bf565b5b60006134458482850161340c565b91505092915050565b60008115159050919050565b6134638161344e565b82525050565b600060208201905061347e600083018461345a565b92915050565b600081519050919050565b600082825260208201905092915050565b60005b838110156134be5780820151818401526020810190506134a3565b60008484015250505050565b6000601f19601f8301169050919050565b60006134e682613484565b6134f0818561348f565b93506135008185602086016134a0565b613509816134ca565b840191505092915050565b6000602082019050818103600083015261352e81846134db565b905092915050565b6000819050919050565b61354981613536565b811461355457600080fd5b50565b60008135905061356681613540565b92915050565b600060208284031215613582576135816133bf565b5b600061359084828501613557565b91505092915050565b600073ffffffffffffffffffffffffffffffffffffffff82169050919050565b60006135c482613599565b9050919050565b6135d4816135b9565b82525050565b60006020820190506135ef60008301846135cb565b92915050565b6135fe816135b9565b811461360957600080fd5b50565b60008135905061361b816135f5565b92915050565b60008060408385031215613638576136376133bf565b5b60006136468582860161360c565b925050602061365785828601613557565b9150509250929050565b61366a81613536565b82525050565b60006020820190506136856000830184613661565b92915050565b6000806000606084860312156136a4576136a36133bf565b5b60006136b28682870161360c565b93505060206136c38682870161360c565b92505060406136d486828701613557565b9150509250925092565b600080fd5b600080fd5b7f4e487b7100000000000000000000000000000000000000000000000000000000600052604160045260246000fd5b613720826134ca565b810181811067ffffffffffffffff8211171561373f5761373e6136e8565b5b80604052505050565b60006137526133b5565b905061375e8282613717565b919050565b600067ffffffffffffffff82111561377e5761377d6136e8565b5b613787826134ca565b9050602081019050919050565b82818337600083830152505050565b60006137b66137b184613763565b613748565b9050828152602081018484840111156137d2576137d16136e3565b5b6137dd848285613794565b509392505050565b600082601f8301126137fa576137f96136de565b5b813561380a8482602086016137a3565b91505092915050565b600060208284031215613829576138286133bf565b5b600082013567ffffffffffffffff811115613847576138466133c4565b5b613853848285016137e5565b91505092915050565b600080600060608486031215613875576138746133bf565b5b600061388386828701613557565b935050602061389486828701613557565b92505060406138a586828701613557565b9150509250925092565b60006138ba82613599565b9050919050565b6138ca816138af565b81146138d557600080fd5b50565b6000813590506138e7816138c1565b92915050565b600060208284031215613903576139026133bf565b5b6000613911848285016138d8565b91505092915050565b60008060408385031215613931576139306133bf565b5b600083013567ffffffffffffffff81111561394f5761394e6133c4565b5b61395b858286016137e5565b925050602083013567ffffffffffffffff81111561397c5761397b6133c4565b5b613988858286016137e5565b9150509250929050565b61399b816138af565b82525050565b60006020820190506139b66000830184613992565b92915050565b6000602082840312156139d2576139d16133bf565b5b60006139e08482850161360c565b91505092915050565b600067ffffffffffffffff82169050919050565b613a06816139e9565b8114613a1157600080fd5b50565b600081359050613a23816139fd565b92915050565b600080600060608486031215613a4257613a416133bf565b5b6000613a5086828701613557565b9350506020613a618682870161360c565b9250506040613a7286828701613a14565b9150509250925092565b613a858161344e565b8114613a9057600080fd5b50565b600081359050613aa281613a7c565b92915050565b60008060408385031215613abf57613abe6133bf565b5b6000613acd8582860161360c565b9250506020613ade85828601613a93565b9150509250929050565b600067ffffffffffffffff821115613b0357613b026136e8565b5b613b0c826134ca565b9050602081019050919050565b6000613b2c613b2784613ae8565b613748565b905082815260208101848484011115613b4857613b476136e3565b5b613b53848285613794565b509392505050565b600082601f830112613b7057613b6f6136de565b5b8135613b80848260208601613b19565b91505092915050565b60008060008060808587031215613ba357613ba26133bf565b5b6000613bb18782880161360c565b9450506020613bc28782880161360c565b9350506040613bd387828801613557565b925050606085013567ffffffffffffffff811115613bf457613bf36133c4565b5b613c0087828801613b5b565b91505092959194509250565b60008060408385031215613c2357613c226133bf565b5b6000613c318582860161360c565b9250506020613c428582860161360c565b9150509250929050565b7f4e487b7100000000000000000000000000000000000000000000000000000000600052602260045260246000fd5b60006002820490506001821680613c9357607f821691505b602082108103613ca657613ca5613c4c565b5b50919050565b7f4552433732313a20617070726f76616c20746f2063757272656e74206f776e6560008201527f7200000000000000000000000000000000000000000000000000000000000000602082015250565b6000613d0860218361348f565b9150613d1382613cac565b604082019050919050565b60006020820190508181036000830152613d3781613cfb565b9050919050565b7f4552433732313a20617070726f76652063616c6c6572206973206e6f7420746f60008201527f6b656e206f776e6572206f7220617070726f76656420666f7220616c6c000000602082015250565b6000613d9a603d8361348f565b9150613da582613d3e565b604082019050919050565b60006020820190508181036000830152613dc981613d8d565b9050919050565b7f4552433732313a2063616c6c6572206973206e6f7420746f6b656e206f776e6560008201527f72206f7220617070726f76656400000000000000000000000000000000000000602082015250565b6000613e2c602d8361348f565b9150613e3782613dd0565b604082019050919050565b60006020820190508181036000830152613e5b81613e1f565b9050919050565b7f496e76616c69642073656e646572000000000000000000000000000000000000600082015250565b6000613e98600e8361348f565b9150613ea382613e62565b602082019050919050565b60006020820190508181036000830152613ec781613e8b565b9050919050565b600081519050613edd81613540565b92915050565b600060208284031215613ef957613ef86133bf565b5b6000613f0784828501613ece565b91505092915050565b7f4e487b7100000000000000000000000000000000000000000000000000000000600052601260045260246000fd5b7f4e487b7100000000000000000000000000000000000000000000000000000000600052601160045260246000fd5b6000613f7982613536565b9150613f8483613536565b925082613f9457613f93613f10565b5b828204905092915050565b6000613faa82613536565b9150613fb583613536565b9250828202613fc381613536565b91508282048414831517613fda57613fd9613f3f565b5b5092915050565b6000613fec82613536565b9150613ff783613536565b925082820390508181111561400f5761400e613f3f565b5b92915050565b6000819050919050565b600061403a61403561403084613599565b614015565b613599565b9050919050565b600061404c8261401f565b9050919050565b600061405e82614041565b9050919050565b61406e81614053565b82525050565b60006040820190506140896000830185614065565b6140966020830184613661565b9392505050565b6000815190506140ac81613a7c565b92915050565b6000602082840312156140c8576140c76133bf565b5b60006140d68482850161409d565b91505092915050565b60006040820190506140f460008301856135cb565b6141016020830184613661565b9392505050565b7f5472616e736665722031206661696c6564000000000000000000000000000000600082015250565b600061413e60118361348f565b915061414982614108565b602082019050919050565b6000602082019050818103600083015261416d81614131565b9050919050565b7f5472616e736665722032206661696c6564000000000000000000000000000000600082015250565b60006141aa60118361348f565b91506141b582614174565b602082019050919050565b600060208201905081810360008301526141d98161419d565b9050919050565b60008190508160005260206000209050919050565b60006020601f8301049050919050565b600082821b905092915050565b6000600883026142427fffffffffffffffffffffffffffffffffffffffffffffffffffffffffffffffff82614205565b61424c8683614205565b95508019841693508086168417925050509392505050565b600061427f61427a61427584613536565b614015565b613536565b9050919050565b6000819050919050565b61429983614264565b6142ad6142a582614286565b848454614212565b825550505050565b600090565b6142c26142b5565b6142cd818484614290565b505050565b5b818110156142f1576142e66000826142ba565b6001810190506142d3565b5050565b601f82111561433657614307816141e0565b614310846141f5565b8101602085101561431f578190505b61433361432b856141f5565b8301826142d2565b50505b505050565b600082821c905092915050565b60006143596000198460080261433b565b1980831691505092915050565b60006143728383614348565b9150826002028217905092915050565b61438b82613484565b67ffffffffffffffff8111156143a4576143a36136e8565b5b6143ae8254613c7b565b6143b98282856142f5565b600060209050601f8311600181146143ec57600084156143da578287015190505b6143e48582614366565b86555061444c565b601f1984166143fa866141e0565b60005b82811015614422578489015182556001820191506020850194506020810190506143fd565b8683101561443f578489015161443b601f891682614348565b8355505b6001600288020188555050505b505050505050565b7f4e6f20636f6e7472616374207472616e73616374696f6e732100000000000000600082015250565b600061448a60198361348f565b915061449582614454565b602082019050919050565b600060208201905081810360008301526144b98161447d565b9050919050565b60006144cb82613536565b91506144d683613536565b92508282019050808211156144ee576144ed613f3f565b5b92915050565b600081905092915050565b50565b600061450f6000836144f4565b915061451a826144ff565b600082019050919050565b600061453082614502565b9150819050919050565b7f4552433732313a20696e76616c696420746f6b656e2049440000000000000000600082015250565b600061457060188361348f565b915061457b8261453a565b602082019050919050565b6000602082019050818103600083015261459f81614563565b9050919050565b7f4552433732313a2061646472657373207a65726f206973206e6f74206120766160008201527f6c6964206f776e65720000000000000000000000000000000000000000000000602082015250565b600061460260298361348f565b915061460d826145a6565b604082019050919050565b60006020820190508181036000830152614631816145f5565b9050919050565b7f796f2c2063616e7420646f20746861742073686974206c6f6c00000000000000600082015250565b600061466e60198361348f565b915061467982614638565b602082019050919050565b6000602082019050818103600083015261469d81614661565b9050919050565b7f72656e7420616374697665000000000000000000000000000000000000000000600082015250565b60006146da600b8361348f565b91506146e5826146a4565b602082019050919050565b60006020820190508181036000830152614709816146cd565b9050919050565b7f45786365656473206d61782073756220706572696f6400000000000000000000600082015250565b600061474660168361348f565b915061475182614710565b602082019050919050565b6000602082019050818103600083015261477581614739565b9050919050565b7f6e617469766520746f6b656e2076616c75652073656e74206973206e6f74206360008201527f6f72726563740000000000000000000000000000000000000000000000000000602082015250565b60006147d860268361348f565b91506147e38261477c565b604082019050919050565b60006020820190508181036000830152614807816147cb565b9050919050565b6000614819826139e9565b9150614824836139e9565b9250828202614832816139e9565b915080821461484457614843613f3f565b5b5092915050565b7f7573657220616c72656164792073756273637269626564000000000000000000600082015250565b600061488160178361348f565b915061488c8261484b565b602082019050919050565b600060208201905081810360008301526148b081614874565b9050919050565b60006148c2826139e9565b91506148cd836139e9565b9250828201905067ffffffffffffffff8111156148ed576148ec613f3f565b5b92915050565b6148fc816139e9565b82525050565b600060208201905061491760008301846148f3565b92915050565b7f6e6f6e6578697374656e7420746f6b656e000000000000000000000000000000600082015250565b600061495360118361348f565b915061495e8261491d565b602082019050919050565b6000602082019050818103600083015261498281614946565b9050919050565b600081905092915050565b600061499f82613484565b6149a98185614989565b93506149b98185602086016134a0565b80840191505092915050565b7f2e6a736f6e000000000000000000000000000000000000000000000000000000600082015250565b60006149fb600583614989565b9150614a06826149c5565b600582019050919050565b6000614a1d8285614994565b9150614a298284614994565b9150614a34826149ee565b91508190509392505050565b7f70726f706572747920736f6c642c2063616e27742072656e7400000000000000600082015250565b6000614a7660198361348f565b9150614a8182614a40565b602082019050919050565b60006020820190508181036000830152614aa581614a69565b9050919050565b6000606082019050614ac160008301866135cb565b614ace60208301856135cb565b614adb6040830184613661565b949350505050565b7f6661696c6564207472616e736665720000000000000000000000000000000000600082015250565b6000614b19600f8361348f565b9150614b2482614ae3565b602082019050919050565b60006020820190508181036000830152614b4881614b0c565b9050919050565b7f4f776e61626c653a206e6577206f776e657220697320746865207a65726f206160008201527f6464726573730000000000000000000000000000000000000000000000000000602082015250565b6000614bab60268361348f565b9150614bb682614b4f565b604082019050919050565b60006020820190508181036000830152614bda81614b9e565b9050919050565b7f4552433732313a207472616e736665722066726f6d20696e636f72726563742060008201527f6f776e6572000000000000000000000000000000000000000000000000000000602082015250565b6000614c3d60258361348f565b9150614c4882614be1565b604082019050919050565b60006020820190508181036000830152614c6c81614c30565b9050919050565b7f4552433732313a207472616e7366657220746f20746865207a65726f2061646460008201527f7265737300000000000000000000000000000000000000000000000000000000602082015250565b6000614ccf60248361348f565b9150614cda82614c73565b604082019050919050565b60006020820190508181036000830152614cfe81614cc2565b9050919050565b7f4f776e61626c653a2063616c6c6572206973206e6f7420746865206f776e6572600082015250565b6000614d3b60208361348f565b9150614d4682614d05565b602082019050919050565b60006020820190508181036000830152614d6a81614d2e565b9050919050565b7f5265656e7472616e637947756172643a207265656e7472616e742063616c6c00600082015250565b6000614da7601f8361348f565b9150614db282614d71565b602082019050919050565b60006020820190508181036000830152614dd681614d9a565b9050919050565b7f4552433732313a20617070726f766520746f2063616c6c657200000000000000600082015250565b6000614e1360198361348f565b9150614e1e82614ddd565b602082019050919050565b60006020820190508181036000830152614e4281614e06565b9050919050565b7f4552433732313a207472616e7366657220746f206e6f6e20455243373231526560008201527f63656976657220696d706c656d656e7465720000000000000000000000000000602082015250565b6000614ea560328361348f565b9150614eb082614e49565b604082019050919050565b60006020820190508181036000830152614ed481614e98565b9050919050565b7f63616e2774207472616e7366657220746f6b656e000000000000000000000000600082015250565b6000614f1160148361348f565b9150614f1c82614edb565b602082019050919050565b60006020820190508181036000830152614f4081614f04565b9050919050565b600081519050919050565b600082825260208201905092915050565b6000614f6e82614f47565b614f788185614f52565b9350614f888185602086016134a0565b614f91816134ca565b840191505092915050565b6000608082019050614fb160008301876135cb565b614fbe60208301866135cb565b614fcb6040830185613661565b8181036060830152614fdd8184614f63565b905095945050505050565b600081519050614ff7816133f5565b92915050565b600060208284031215615013576150126133bf565b5b600061502184828501614fe8565b91505092915050565b7f4552433732313a206d696e7420746f20746865207a65726f2061646472657373600082015250565b600061506060208361348f565b915061506b8261502a565b602082019050919050565b6000602082019050818103600083015261508f81615053565b9050919050565b7f4552433732313a20746f6b656e20616c7265616479206d696e74656400000000600082015250565b60006150cc601c8361348f565b91506150d782615096565b602082019050919050565b600060208201905081810360008301526150fb816150bf565b905091905056fea2646970667358221220f3ea026472450ed7c5be9bedd93303285f5316c17b36dc09c827feb9d8d9d14f64736f6c63430008110033",
			"opcodes": "PUSH1 0x80 PUSH1 0x40 MSTORE PUSH20 0xA0B86991C6218B36C1D19D4A2E9EB0CE3606EB48 PUSH1 0x8 PUSH1 0x0 PUSH2 0x100 EXP DUP2 SLOAD DUP2 PUSH20 0xFFFFFFFFFFFFFFFFFFFFFFFFFFFFFFFFFFFFFFFF MUL NOT AND SWAP1 DUP4 PUSH20 0xFFFFFFFFFFFFFFFFFFFFFFFFFFFFFFFFFFFFFFFF AND MUL OR SWAP1 SSTORE POP PUSH1 0x0 PUSH1 0x8 PUSH1 0x14 PUSH2 0x100 EXP DUP2 SLOAD DUP2 PUSH1 0xFF MUL NOT AND SWAP1 DUP4 ISZERO ISZERO MUL OR SWAP1 SSTORE POP PUSH1 0x0 PUSH1 0x8 PUSH1 0x15 PUSH2 0x100 EXP DUP2 SLOAD DUP2 PUSH1 0xFF MUL NOT AND SWAP1 DUP4 ISZERO ISZERO MUL OR SWAP1 SSTORE POP PUSH20 0x7EA9114092EC4379FFDF51BA6B72C71265F33E96 PUSH1 0x10 PUSH1 0x0 PUSH2 0x100 EXP DUP2 SLOAD DUP2 PUSH20 0xFFFFFFFFFFFFFFFFFFFFFFFFFFFFFFFFFFFFFFFF MUL NOT AND SWAP1 DUP4 PUSH20 0xFFFFFFFFFFFFFFFFFFFFFFFFFFFFFFFFFFFFFFFF AND MUL OR SWAP1 SSTORE POP CALLVALUE DUP1 ISZERO PUSH3 0xF1 JUMPI PUSH1 0x0 DUP1 REVERT JUMPDEST POP PUSH1 0xE DUP1 SLOAD PUSH3 0x101 SWAP1 PUSH3 0x369 JUMP JUMPDEST DUP1 PUSH1 0x1F ADD PUSH1 0x20 DUP1 SWAP2 DIV MUL PUSH1 0x20 ADD PUSH1 0x40 MLOAD SWAP1 DUP2 ADD PUSH1 0x40 MSTORE DUP1 SWAP3 SWAP2 SWAP1 DUP2 DUP2 MSTORE PUSH1 0x20 ADD DUP3 DUP1 SLOAD PUSH3 0x12F SWAP1 PUSH3 0x369 JUMP JUMPDEST DUP1 ISZERO PUSH3 0x180 JUMPI DUP1 PUSH1 0x1F LT PUSH3 0x154 JUMPI PUSH2 0x100 DUP1 DUP4 SLOAD DIV MUL DUP4 MSTORE SWAP2 PUSH1 0x20 ADD SWAP2 PUSH3 0x180 JUMP JUMPDEST DUP3 ADD SWAP2 SWAP1 PUSH1 0x0 MSTORE PUSH1 0x20 PUSH1 0x0 KECCAK256 SWAP1 JUMPDEST DUP2 SLOAD DUP2 MSTORE SWAP1 PUSH1 0x1 ADD SWAP1 PUSH1 0x20 ADD DUP1 DUP4 GT PUSH3 0x162 JUMPI DUP3 SWAP1 SUB PUSH1 0x1F AND DUP3 ADD SWAP2 JUMPDEST POP POP POP POP POP PUSH1 0xF DUP1 SLOAD PUSH3 0x194 SWAP1 PUSH3 0x369 JUMP JUMPDEST DUP1 PUSH1 0x1F ADD PUSH1 0x20 DUP1 SWAP2 DIV MUL PUSH1 0x20 ADD PUSH1 0x40 MLOAD SWAP1 DUP2 ADD PUSH1 0x40 MSTORE DUP1 SWAP3 SWAP2 SWAP1 DUP2 DUP2 MSTORE PUSH1 0x20 ADD DUP3 DUP1 SLOAD PUSH3 0x1C2 SWAP1 PUSH3 0x369 JUMP JUMPDEST DUP1 ISZERO PUSH3 0x213 JUMPI DUP1 PUSH1 0x1F LT PUSH3 0x1E7 JUMPI PUSH2 0x100 DUP1 DUP4 SLOAD DIV MUL DUP4 MSTORE SWAP2 PUSH1 0x20 ADD SWAP2 PUSH3 0x213 JUMP JUMPDEST DUP3 ADD SWAP2 SWAP1 PUSH1 0x0 MSTORE PUSH1 0x20 PUSH1 0x0 KECCAK256 SWAP1 JUMPDEST DUP2 SLOAD DUP2 MSTORE SWAP1 PUSH1 0x1 ADD SWAP1 PUSH1 0x20 ADD DUP1 DUP4 GT PUSH3 0x1F5 JUMPI DUP3 SWAP1 SUB PUSH1 0x1F AND DUP3 ADD SWAP2 JUMPDEST POP POP POP POP POP DUP2 PUSH1 0x0 SWAP1 DUP2 PUSH3 0x229 SWAP2 SWAP1 PUSH3 0x5B4 JUMP JUMPDEST POP DUP1 PUSH1 0x1 SWAP1 DUP2 PUSH3 0x23B SWAP2 SWAP1 PUSH3 0x5B4 JUMP JUMPDEST POP POP POP PUSH3 0x25E PUSH3 0x252 PUSH3 0x26C PUSH1 0x20 SHL PUSH1 0x20 SHR JUMP JUMPDEST PUSH3 0x274 PUSH1 0x20 SHL PUSH1 0x20 SHR JUMP JUMPDEST PUSH1 0x1 PUSH1 0x7 DUP2 SWAP1 SSTORE POP PUSH3 0x69B JUMP JUMPDEST PUSH1 0x0 CALLER SWAP1 POP SWAP1 JUMP JUMPDEST PUSH1 0x0 PUSH1 0x6 PUSH1 0x0 SWAP1 SLOAD SWAP1 PUSH2 0x100 EXP SWAP1 DIV PUSH20 0xFFFFFFFFFFFFFFFFFFFFFFFFFFFFFFFFFFFFFFFF AND SWAP1 POP DUP2 PUSH1 0x6 PUSH1 0x0 PUSH2 0x100 EXP DUP2 SLOAD DUP2 PUSH20 0xFFFFFFFFFFFFFFFFFFFFFFFFFFFFFFFFFFFFFFFF MUL NOT AND SWAP1 DUP4 PUSH20 0xFFFFFFFFFFFFFFFFFFFFFFFFFFFFFFFFFFFFFFFF AND MUL OR SWAP1 SSTORE POP DUP2 PUSH20 0xFFFFFFFFFFFFFFFFFFFFFFFFFFFFFFFFFFFFFFFF AND DUP2 PUSH20 0xFFFFFFFFFFFFFFFFFFFFFFFFFFFFFFFFFFFFFFFF AND PUSH32 0x8BE0079C531659141344CD1FD0A4F28419497F9722A3DAAFE3B4186F6B6457E0 PUSH1 0x40 MLOAD PUSH1 0x40 MLOAD DUP1 SWAP2 SUB SWAP1 LOG3 POP POP JUMP JUMPDEST PUSH32 0x4E487B7100000000000000000000000000000000000000000000000000000000 PUSH1 0x0 MSTORE PUSH1 0x22 PUSH1 0x4 MSTORE PUSH1 0x24 PUSH1 0x0 REVERT JUMPDEST PUSH1 0x0 PUSH1 0x2 DUP3 DIV SWAP1 POP PUSH1 0x1 DUP3 AND DUP1 PUSH3 0x382 JUMPI PUSH1 0x7F DUP3 AND SWAP2 POP JUMPDEST PUSH1 0x20 DUP3 LT DUP2 SUB PUSH3 0x398 JUMPI PUSH3 0x397 PUSH3 0x33A JUMP JUMPDEST JUMPDEST POP SWAP2 SWAP1 POP JUMP JUMPDEST PUSH1 0x0 DUP2 MLOAD SWAP1 POP SWAP2 SWAP1 POP JUMP JUMPDEST PUSH32 0x4E487B7100000000000000000000000000000000000000000000000000000000 PUSH1 0x0 MSTORE PUSH1 0x41 PUSH1 0x4 MSTORE PUSH1 0x24 PUSH1 0x0 REVERT JUMPDEST PUSH1 0x0 DUP2 SWAP1 POP DUP2 PUSH1 0x0 MSTORE PUSH1 0x20 PUSH1 0x0 KECCAK256 SWAP1 POP SWAP2 SWAP1 POP JUMP JUMPDEST PUSH1 0x0 PUSH1 0x20 PUSH1 0x1F DUP4 ADD DIV SWAP1 POP SWAP2 SWAP1 POP JUMP JUMPDEST PUSH1 0x0 DUP3 DUP3 SHL SWAP1 POP SWAP3 SWAP2 POP POP JUMP JUMPDEST PUSH1 0x0 PUSH1 0x8 DUP4 MUL PUSH3 0x43C PUSH32 0xFFFFFFFFFFFFFFFFFFFFFFFFFFFFFFFFFFFFFFFFFFFFFFFFFFFFFFFFFFFFFFFF DUP3 PUSH3 0x3FD JUMP JUMPDEST PUSH3 0x448 DUP7 DUP4 PUSH3 0x3FD JUMP JUMPDEST SWAP6 POP DUP1 NOT DUP5 AND SWAP4 POP DUP1 DUP7 AND DUP5 OR SWAP3 POP POP POP SWAP4 SWAP3 POP POP POP JUMP JUMPDEST PUSH1 0x0 DUP2 SWAP1 POP SWAP2 SWAP1 POP JUMP JUMPDEST PUSH1 0x0 DUP2 SWAP1 POP SWAP2 SWAP1 POP JUMP JUMPDEST PUSH1 0x0 PUSH3 0x495 PUSH3 0x48F PUSH3 0x489 DUP5 PUSH3 0x460 JUMP JUMPDEST PUSH3 0x46A JUMP JUMPDEST PUSH3 0x460 JUMP JUMPDEST SWAP1 POP SWAP2 SWAP1 POP JUMP JUMPDEST PUSH1 0x0 DUP2 SWAP1 POP SWAP2 SWAP1 POP JUMP JUMPDEST PUSH3 0x4B1 DUP4 PUSH3 0x474 JUMP JUMPDEST PUSH3 0x4C9 PUSH3 0x4C0 DUP3 PUSH3 0x49C JUMP JUMPDEST DUP5 DUP5 SLOAD PUSH3 0x40A JUMP JUMPDEST DUP3 SSTORE POP POP POP POP JUMP JUMPDEST PUSH1 0x0 SWAP1 JUMP JUMPDEST PUSH3 0x4E0 PUSH3 0x4D1 JUMP JUMPDEST PUSH3 0x4ED DUP2 DUP5 DUP5 PUSH3 0x4A6 JUMP JUMPDEST POP POP POP JUMP JUMPDEST JUMPDEST DUP2 DUP2 LT ISZERO PUSH3 0x515 JUMPI PUSH3 0x509 PUSH1 0x0 DUP3 PUSH3 0x4D6 JUMP JUMPDEST PUSH1 0x1 DUP2 ADD SWAP1 POP PUSH3 0x4F3 JUMP JUMPDEST POP POP JUMP JUMPDEST PUSH1 0x1F DUP3 GT ISZERO PUSH3 0x564 JUMPI PUSH3 0x52E DUP2 PUSH3 0x3D8 JUMP JUMPDEST PUSH3 0x539 DUP5 PUSH3 0x3ED JUMP JUMPDEST DUP2 ADD PUSH1 0x20 DUP6 LT ISZERO PUSH3 0x549 JUMPI DUP2 SWAP1 POP JUMPDEST PUSH3 0x561 PUSH3 0x558 DUP6 PUSH3 0x3ED JUMP JUMPDEST DUP4 ADD DUP3 PUSH3 0x4F2 JUMP JUMPDEST POP POP JUMPDEST POP POP POP JUMP JUMPDEST PUSH1 0x0 DUP3 DUP3 SHR SWAP1 POP SWAP3 SWAP2 POP POP JUMP JUMPDEST PUSH1 0x0 PUSH3 0x589 PUSH1 0x0 NOT DUP5 PUSH1 0x8 MUL PUSH3 0x569 JUMP JUMPDEST NOT DUP1 DUP4 AND SWAP2 POP POP SWAP3 SWAP2 POP POP JUMP JUMPDEST PUSH1 0x0 PUSH3 0x5A4 DUP4 DUP4 PUSH3 0x576 JUMP JUMPDEST SWAP2 POP DUP3 PUSH1 0x2 MUL DUP3 OR SWAP1 POP SWAP3 SWAP2 POP POP JUMP JUMPDEST PUSH3 0x5BF DUP3 PUSH3 0x39E JUMP JUMPDEST PUSH8 0xFFFFFFFFFFFFFFFF DUP2 GT ISZERO PUSH3 0x5DB JUMPI PUSH3 0x5DA PUSH3 0x3A9 JUMP JUMPDEST JUMPDEST PUSH3 0x5E7 DUP3 SLOAD PUSH3 0x369 JUMP JUMPDEST PUSH3 0x5F4 DUP3 DUP3 DUP6 PUSH3 0x519 JUMP JUMPDEST PUSH1 0x0 PUSH1 0x20 SWAP1 POP PUSH1 0x1F DUP4 GT PUSH1 0x1 DUP2 EQ PUSH3 0x62C JUMPI PUSH1 0x0 DUP5 ISZERO PUSH3 0x617 JUMPI DUP3 DUP8 ADD MLOAD SWAP1 POP JUMPDEST PUSH3 0x623 DUP6 DUP3 PUSH3 0x596 JUMP JUMPDEST DUP7 SSTORE POP PUSH3 0x693 JUMP JUMPDEST PUSH1 0x1F NOT DUP5 AND PUSH3 0x63C DUP7 PUSH3 0x3D8 JUMP JUMPDEST PUSH1 0x0 JUMPDEST DUP3 DUP2 LT ISZERO PUSH3 0x666 JUMPI DUP5 DUP10 ADD MLOAD DUP3 SSTORE PUSH1 0x1 DUP3 ADD SWAP2 POP PUSH1 0x20 DUP6 ADD SWAP5 POP PUSH1 0x20 DUP2 ADD SWAP1 POP PUSH3 0x63F JUMP JUMPDEST DUP7 DUP4 LT ISZERO PUSH3 0x686 JUMPI DUP5 DUP10 ADD MLOAD PUSH3 0x682 PUSH1 0x1F DUP10 AND DUP3 PUSH3 0x576 JUMP JUMPDEST DUP4 SSTORE POP JUMPDEST PUSH1 0x1 PUSH1 0x2 DUP9 MUL ADD DUP9 SSTORE POP POP POP JUMPDEST POP POP POP POP POP POP JUMP JUMPDEST PUSH2 0x5138 DUP1 PUSH3 0x6AB PUSH1 0x0 CODECOPY PUSH1 0x0 RETURN INVALID PUSH1 0x80 PUSH1 0x40 MSTORE PUSH1 0x4 CALLDATASIZE LT PUSH2 0x23B JUMPI PUSH1 0x0 CALLDATALOAD PUSH1 0xE0 SHR DUP1 PUSH4 0x715018A6 GT PUSH2 0x12E JUMPI DUP1 PUSH4 0xB88D4FDE GT PUSH2 0xAB JUMPI DUP1 PUSH4 0xD547CFB7 GT PUSH2 0x6F JUMPI DUP1 PUSH4 0xD547CFB7 EQ PUSH2 0x804 JUMPI DUP1 PUSH4 0xE030565E EQ PUSH2 0x82F JUMPI DUP1 PUSH4 0xE985E9C5 EQ PUSH2 0x858 JUMPI DUP1 PUSH4 0xF2FDE38B EQ PUSH2 0x895 JUMPI DUP1 PUSH4 0xF418AE6D EQ PUSH2 0x8BE JUMPI PUSH2 0x23B JUMP JUMPDEST DUP1 PUSH4 0xB88D4FDE EQ PUSH2 0x70B JUMPI DUP1 PUSH4 0xBF2B23EA EQ PUSH2 0x734 JUMPI DUP1 PUSH4 0xC2F1F14A EQ PUSH2 0x75F JUMPI DUP1 PUSH4 0xC87B56DD EQ PUSH2 0x79C JUMPI DUP1 PUSH4 0xD28D8852 EQ PUSH2 0x7D9 JUMPI PUSH2 0x23B JUMP JUMPDEST DUP1 PUSH4 0x95D89B41 GT PUSH2 0xF2 JUMPI DUP1 PUSH4 0x95D89B41 EQ PUSH2 0x64A JUMPI DUP1 PUSH4 0x9B3EBBAA EQ PUSH2 0x675 JUMPI DUP1 PUSH4 0xA22CB465 EQ PUSH2 0x68C JUMPI DUP1 PUSH4 0xA389D62B EQ PUSH2 0x6B5 JUMPI DUP1 PUSH4 0xB09F1266 EQ PUSH2 0x6E0 JUMPI PUSH2 0x23B JUMP JUMPDEST DUP1 PUSH4 0x715018A6 EQ PUSH2 0x584 JUMPI DUP1 PUSH4 0x81E8525B EQ PUSH2 0x59B JUMPI DUP1 PUSH4 0x8AED64CD EQ PUSH2 0x5C6 JUMPI DUP1 PUSH4 0x8DA5CB5B EQ PUSH2 0x5E2 JUMPI DUP1 PUSH4 0x8FC88C48 EQ PUSH2 0x60D JUMPI PUSH2 0x23B JUMP JUMPDEST DUP1 PUSH4 0x3790CCE1 GT PUSH2 0x1BC JUMPI DUP1 PUSH4 0x504334C2 GT PUSH2 0x180 JUMPI DUP1 PUSH4 0x504334C2 EQ PUSH2 0x48D JUMPI DUP1 PUSH4 0x61D027B3 EQ PUSH2 0x4B6 JUMPI DUP1 PUSH4 0x6352211E EQ PUSH2 0x4E1 JUMPI DUP1 PUSH4 0x6605BFDA EQ PUSH2 0x51E JUMPI DUP1 PUSH4 0x70A08231 EQ PUSH2 0x547 JUMPI PUSH2 0x23B JUMP JUMPDEST DUP1 PUSH4 0x3790CCE1 EQ PUSH2 0x3E4 JUMPI DUP1 PUSH4 0x3CCFD60B EQ PUSH2 0x3FB JUMPI DUP1 PUSH4 0x42842E0E EQ PUSH2 0x412 JUMPI DUP1 PUSH4 0x49671347 EQ PUSH2 0x43B JUMPI DUP1 PUSH4 0x4EE5C2F5 EQ PUSH2 0x464 JUMPI PUSH2 0x23B JUMP JUMPDEST DUP1 PUSH4 0x23B872DD GT PUSH2 0x203 JUMPI DUP1 PUSH4 0x23B872DD EQ PUSH2 0x339 JUMPI DUP1 PUSH4 0x2DDA6E4E EQ PUSH2 0x362 JUMPI DUP1 PUSH4 0x2ED6D5E8 EQ PUSH2 0x379 JUMPI DUP1 PUSH4 0x30176E13 EQ PUSH2 0x390 JUMPI DUP1 PUSH4 0x35918417 EQ PUSH2 0x3B9 JUMPI PUSH2 0x23B JUMP JUMPDEST DUP1 PUSH4 0x1FFC9A7 EQ PUSH2 0x240 JUMPI DUP1 PUSH4 0x6FDDE03 EQ PUSH2 0x27D JUMPI DUP1 PUSH4 0x81812FC EQ PUSH2 0x2A8 JUMPI DUP1 PUSH4 0x95EA7B3 EQ PUSH2 0x2E5 JUMPI DUP1 PUSH4 0x18160DDD EQ PUSH2 0x30E JUMPI JUMPDEST PUSH1 0x0 DUP1 REVERT JUMPDEST CALLVALUE DUP1 ISZERO PUSH2 0x24C JUMPI PUSH1 0x0 DUP1 REVERT JUMPDEST POP PUSH2 0x267 PUSH1 0x4 DUP1 CALLDATASIZE SUB DUP2 ADD SWAP1 PUSH2 0x262 SWAP2 SWAP1 PUSH2 0x3421 JUMP JUMPDEST PUSH2 0x8E9 JUMP JUMPDEST PUSH1 0x40 MLOAD PUSH2 0x274 SWAP2 SWAP1 PUSH2 0x3469 JUMP JUMPDEST PUSH1 0x40 MLOAD DUP1 SWAP2 SUB SWAP1 RETURN JUMPDEST CALLVALUE DUP1 ISZERO PUSH2 0x289 JUMPI PUSH1 0x0 DUP1 REVERT JUMPDEST POP PUSH2 0x292 PUSH2 0x963 JUMP JUMPDEST PUSH1 0x40 MLOAD PUSH2 0x29F SWAP2 SWAP1 PUSH2 0x3514 JUMP JUMPDEST PUSH1 0x40 MLOAD DUP1 SWAP2 SUB SWAP1 RETURN JUMPDEST CALLVALUE DUP1 ISZERO PUSH2 0x2B4 JUMPI PUSH1 0x0 DUP1 REVERT JUMPDEST POP PUSH2 0x2CF PUSH1 0x4 DUP1 CALLDATASIZE SUB DUP2 ADD SWAP1 PUSH2 0x2CA SWAP2 SWAP1 PUSH2 0x356C JUMP JUMPDEST PUSH2 0x9F5 JUMP JUMPDEST PUSH1 0x40 MLOAD PUSH2 0x2DC SWAP2 SWAP1 PUSH2 0x35DA JUMP JUMPDEST PUSH1 0x40 MLOAD DUP1 SWAP2 SUB SWAP1 RETURN JUMPDEST CALLVALUE DUP1 ISZERO PUSH2 0x2F1 JUMPI PUSH1 0x0 DUP1 REVERT JUMPDEST POP PUSH2 0x30C PUSH1 0x4 DUP1 CALLDATASIZE SUB DUP2 ADD SWAP1 PUSH2 0x307 SWAP2 SWAP1 PUSH2 0x3621 JUMP JUMPDEST PUSH2 0xA3B JUMP JUMPDEST STOP JUMPDEST CALLVALUE DUP1 ISZERO PUSH2 0x31A JUMPI PUSH1 0x0 DUP1 REVERT JUMPDEST POP PUSH2 0x323 PUSH2 0xB52 JUMP JUMPDEST PUSH1 0x40 MLOAD PUSH2 0x330 SWAP2 SWAP1 PUSH2 0x3670 JUMP JUMPDEST PUSH1 0x40 MLOAD DUP1 SWAP2 SUB SWAP1 RETURN JUMPDEST CALLVALUE DUP1 ISZERO PUSH2 0x345 JUMPI PUSH1 0x0 DUP1 REVERT JUMPDEST POP PUSH2 0x360 PUSH1 0x4 DUP1 CALLDATASIZE SUB DUP2 ADD SWAP1 PUSH2 0x35B SWAP2 SWAP1 PUSH2 0x368B JUMP JUMPDEST PUSH2 0xB58 JUMP JUMPDEST STOP JUMPDEST CALLVALUE DUP1 ISZERO PUSH2 0x36E JUMPI PUSH1 0x0 DUP1 REVERT JUMPDEST POP PUSH2 0x377 PUSH2 0xBB8 JUMP JUMPDEST STOP JUMPDEST CALLVALUE DUP1 ISZERO PUSH2 0x385 JUMPI PUSH1 0x0 DUP1 REVERT JUMPDEST POP PUSH2 0x38E PUSH2 0xBEC JUMP JUMPDEST STOP JUMPDEST CALLVALUE DUP1 ISZERO PUSH2 0x39C JUMPI PUSH1 0x0 DUP1 REVERT JUMPDEST POP PUSH2 0x3B7 PUSH1 0x4 DUP1 CALLDATASIZE SUB DUP2 ADD SWAP1 PUSH2 0x3B2 SWAP2 SWAP1 PUSH2 0x3813 JUMP JUMPDEST PUSH2 0xF50 JUMP JUMPDEST STOP JUMPDEST CALLVALUE DUP1 ISZERO PUSH2 0x3C5 JUMPI PUSH1 0x0 DUP1 REVERT JUMPDEST POP PUSH2 0x3CE PUSH2 0xF6B JUMP JUMPDEST PUSH1 0x40 MLOAD PUSH2 0x3DB SWAP2 SWAP1 PUSH2 0x3469 JUMP JUMPDEST PUSH1 0x40 MLOAD DUP1 SWAP2 SUB SWAP1 RETURN JUMPDEST CALLVALUE DUP1 ISZERO PUSH2 0x3F0 JUMPI PUSH1 0x0 DUP1 REVERT JUMPDEST POP PUSH2 0x3F9 PUSH2 0xF7E JUMP JUMPDEST STOP JUMPDEST CALLVALUE DUP1 ISZERO PUSH2 0x407 JUMPI PUSH1 0x0 DUP1 REVERT JUMPDEST POP PUSH2 0x410 PUSH2 0x1032 JUMP JUMPDEST STOP JUMPDEST CALLVALUE DUP1 ISZERO PUSH2 0x41E JUMPI PUSH1 0x0 DUP1 REVERT JUMPDEST POP PUSH2 0x439 PUSH1 0x4 DUP1 CALLDATASIZE SUB DUP2 ADD SWAP1 PUSH2 0x434 SWAP2 SWAP1 PUSH2 0x368B JUMP JUMPDEST PUSH2 0x12AC JUMP JUMPDEST STOP JUMPDEST CALLVALUE DUP1 ISZERO PUSH2 0x447 JUMPI PUSH1 0x0 DUP1 REVERT JUMPDEST POP PUSH2 0x462 PUSH1 0x4 DUP1 CALLDATASIZE SUB DUP2 ADD SWAP1 PUSH2 0x45D SWAP2 SWAP1 PUSH2 0x385C JUMP JUMPDEST PUSH2 0x12CC JUMP JUMPDEST STOP JUMPDEST CALLVALUE DUP1 ISZERO PUSH2 0x470 JUMPI PUSH1 0x0 DUP1 REVERT JUMPDEST POP PUSH2 0x48B PUSH1 0x4 DUP1 CALLDATASIZE SUB DUP2 ADD SWAP1 PUSH2 0x486 SWAP2 SWAP1 PUSH2 0x38ED JUMP JUMPDEST PUSH2 0x12EE JUMP JUMPDEST STOP JUMPDEST CALLVALUE DUP1 ISZERO PUSH2 0x499 JUMPI PUSH1 0x0 DUP1 REVERT JUMPDEST POP PUSH2 0x4B4 PUSH1 0x4 DUP1 CALLDATASIZE SUB DUP2 ADD SWAP1 PUSH2 0x4AF SWAP2 SWAP1 PUSH2 0x391A JUMP JUMPDEST PUSH2 0x133A JUMP JUMPDEST STOP JUMPDEST CALLVALUE DUP1 ISZERO PUSH2 0x4C2 JUMPI PUSH1 0x0 DUP1 REVERT JUMPDEST POP PUSH2 0x4CB PUSH2 0x1366 JUMP JUMPDEST PUSH1 0x40 MLOAD PUSH2 0x4D8 SWAP2 SWAP1 PUSH2 0x39A1 JUMP JUMPDEST PUSH1 0x40 MLOAD DUP1 SWAP2 SUB SWAP1 RETURN JUMPDEST CALLVALUE DUP1 ISZERO PUSH2 0x4ED JUMPI PUSH1 0x0 DUP1 REVERT JUMPDEST POP PUSH2 0x508 PUSH1 0x4 DUP1 CALLDATASIZE SUB DUP2 ADD SWAP1 PUSH2 0x503 SWAP2 SWAP1 PUSH2 0x356C JUMP JUMPDEST PUSH2 0x138C JUMP JUMPDEST PUSH1 0x40 MLOAD PUSH2 0x515 SWAP2 SWAP1 PUSH2 0x35DA JUMP JUMPDEST PUSH1 0x40 MLOAD DUP1 SWAP2 SUB SWAP1 RETURN JUMPDEST CALLVALUE DUP1 ISZERO PUSH2 0x52A JUMPI PUSH1 0x0 DUP1 REVERT JUMPDEST POP PUSH2 0x545 PUSH1 0x4 DUP1 CALLDATASIZE SUB DUP2 ADD SWAP1 PUSH2 0x540 SWAP2 SWAP1 PUSH2 0x38ED JUMP JUMPDEST PUSH2 0x1412 JUMP JUMPDEST STOP JUMPDEST CALLVALUE DUP1 ISZERO PUSH2 0x553 JUMPI PUSH1 0x0 DUP1 REVERT JUMPDEST POP PUSH2 0x56E PUSH1 0x4 DUP1 CALLDATASIZE SUB DUP2 ADD SWAP1 PUSH2 0x569 SWAP2 SWAP1 PUSH2 0x39BC JUMP JUMPDEST PUSH2 0x14E6 JUMP JUMPDEST PUSH1 0x40 MLOAD PUSH2 0x57B SWAP2 SWAP1 PUSH2 0x3670 JUMP JUMPDEST PUSH1 0x40 MLOAD DUP1 SWAP2 SUB SWAP1 RETURN JUMPDEST CALLVALUE DUP1 ISZERO PUSH2 0x590 JUMPI PUSH1 0x0 DUP1 REVERT JUMPDEST POP PUSH2 0x599 PUSH2 0x159D JUMP JUMPDEST STOP JUMPDEST CALLVALUE DUP1 ISZERO PUSH2 0x5A7 JUMPI PUSH1 0x0 DUP1 REVERT JUMPDEST POP PUSH2 0x5B0 PUSH2 0x15B1 JUMP JUMPDEST PUSH1 0x40 MLOAD PUSH2 0x5BD SWAP2 SWAP1 PUSH2 0x3670 JUMP JUMPDEST PUSH1 0x40 MLOAD DUP1 SWAP2 SUB SWAP1 RETURN JUMPDEST PUSH2 0x5E0 PUSH1 0x4 DUP1 CALLDATASIZE SUB DUP2 ADD SWAP1 PUSH2 0x5DB SWAP2 SWAP1 PUSH2 0x3A29 JUMP JUMPDEST PUSH2 0x15B7 JUMP JUMPDEST STOP JUMPDEST CALLVALUE DUP1 ISZERO PUSH2 0x5EE JUMPI PUSH1 0x0 DUP1 REVERT JUMPDEST POP PUSH2 0x5F7 PUSH2 0x1870 JUMP JUMPDEST PUSH1 0x40 MLOAD PUSH2 0x604 SWAP2 SWAP1 PUSH2 0x35DA JUMP JUMPDEST PUSH1 0x40 MLOAD DUP1 SWAP2 SUB SWAP1 RETURN JUMPDEST CALLVALUE DUP1 ISZERO PUSH2 0x619 JUMPI PUSH1 0x0 DUP1 REVERT JUMPDEST POP PUSH2 0x634 PUSH1 0x4 DUP1 CALLDATASIZE SUB DUP2 ADD SWAP1 PUSH2 0x62F SWAP2 SWAP1 PUSH2 0x356C JUMP JUMPDEST PUSH2 0x189A JUMP JUMPDEST PUSH1 0x40 MLOAD PUSH2 0x641 SWAP2 SWAP1 PUSH2 0x3670 JUMP JUMPDEST PUSH1 0x40 MLOAD DUP1 SWAP2 SUB SWAP1 RETURN JUMPDEST CALLVALUE DUP1 ISZERO PUSH2 0x656 JUMPI PUSH1 0x0 DUP1 REVERT JUMPDEST POP PUSH2 0x65F PUSH2 0x1935 JUMP JUMPDEST PUSH1 0x40 MLOAD PUSH2 0x66C SWAP2 SWAP1 PUSH2 0x3514 JUMP JUMPDEST PUSH1 0x40 MLOAD DUP1 SWAP2 SUB SWAP1 RETURN JUMPDEST CALLVALUE DUP1 ISZERO PUSH2 0x681 JUMPI PUSH1 0x0 DUP1 REVERT JUMPDEST POP PUSH2 0x68A PUSH2 0x19C7 JUMP JUMPDEST STOP JUMPDEST CALLVALUE DUP1 ISZERO PUSH2 0x698 JUMPI PUSH1 0x0 DUP1 REVERT JUMPDEST POP PUSH2 0x6B3 PUSH1 0x4 DUP1 CALLDATASIZE SUB DUP2 ADD SWAP1 PUSH2 0x6AE SWAP2 SWAP1 PUSH2 0x3AA8 JUMP JUMPDEST PUSH2 0x19FB JUMP JUMPDEST STOP JUMPDEST CALLVALUE DUP1 ISZERO PUSH2 0x6C1 JUMPI PUSH1 0x0 DUP1 REVERT JUMPDEST POP PUSH2 0x6CA PUSH2 0x1A11 JUMP JUMPDEST PUSH1 0x40 MLOAD PUSH2 0x6D7 SWAP2 SWAP1 PUSH2 0x3469 JUMP JUMPDEST PUSH1 0x40 MLOAD DUP1 SWAP2 SUB SWAP1 RETURN JUMPDEST CALLVALUE DUP1 ISZERO PUSH2 0x6EC JUMPI PUSH1 0x0 DUP1 REVERT JUMPDEST POP PUSH2 0x6F5 PUSH2 0x1A24 JUMP JUMPDEST PUSH1 0x40 MLOAD PUSH2 0x702 SWAP2 SWAP1 PUSH2 0x3514 JUMP JUMPDEST PUSH1 0x40 MLOAD DUP1 SWAP2 SUB SWAP1 RETURN JUMPDEST CALLVALUE DUP1 ISZERO PUSH2 0x717 JUMPI PUSH1 0x0 DUP1 REVERT JUMPDEST POP PUSH2 0x732 PUSH1 0x4 DUP1 CALLDATASIZE SUB DUP2 ADD SWAP1 PUSH2 0x72D SWAP2 SWAP1 PUSH2 0x3B89 JUMP JUMPDEST PUSH2 0x1AB2 JUMP JUMPDEST STOP JUMPDEST CALLVALUE DUP1 ISZERO PUSH2 0x740 JUMPI PUSH1 0x0 DUP1 REVERT JUMPDEST POP PUSH2 0x749 PUSH2 0x1B14 JUMP JUMPDEST PUSH1 0x40 MLOAD PUSH2 0x756 SWAP2 SWAP1 PUSH2 0x3670 JUMP JUMPDEST PUSH1 0x40 MLOAD DUP1 SWAP2 SUB SWAP1 RETURN JUMPDEST CALLVALUE DUP1 ISZERO PUSH2 0x76B JUMPI PUSH1 0x0 DUP1 REVERT JUMPDEST POP PUSH2 0x786 PUSH1 0x4 DUP1 CALLDATASIZE SUB DUP2 ADD SWAP1 PUSH2 0x781 SWAP2 SWAP1 PUSH2 0x356C JUMP JUMPDEST PUSH2 0x1B1A JUMP JUMPDEST PUSH1 0x40 MLOAD PUSH2 0x793 SWAP2 SWAP1 PUSH2 0x35DA JUMP JUMPDEST PUSH1 0x40 MLOAD DUP1 SWAP2 SUB SWAP1 RETURN JUMPDEST CALLVALUE DUP1 ISZERO PUSH2 0x7A8 JUMPI PUSH1 0x0 DUP1 REVERT JUMPDEST POP PUSH2 0x7C3 PUSH1 0x4 DUP1 CALLDATASIZE SUB DUP2 ADD SWAP1 PUSH2 0x7BE SWAP2 SWAP1 PUSH2 0x356C JUMP JUMPDEST PUSH2 0x1B9F JUMP JUMPDEST PUSH1 0x40 MLOAD PUSH2 0x7D0 SWAP2 SWAP1 PUSH2 0x3514 JUMP JUMPDEST PUSH1 0x40 MLOAD DUP1 SWAP2 SUB SWAP1 RETURN JUMPDEST CALLVALUE DUP1 ISZERO PUSH2 0x7E5 JUMPI PUSH1 0x0 DUP1 REVERT JUMPDEST POP PUSH2 0x7EE PUSH2 0x1C27 JUMP JUMPDEST PUSH1 0x40 MLOAD PUSH2 0x7FB SWAP2 SWAP1 PUSH2 0x3514 JUMP JUMPDEST PUSH1 0x40 MLOAD DUP1 SWAP2 SUB SWAP1 RETURN JUMPDEST CALLVALUE DUP1 ISZERO PUSH2 0x810 JUMPI PUSH1 0x0 DUP1 REVERT JUMPDEST POP PUSH2 0x819 PUSH2 0x1CB5 JUMP JUMPDEST PUSH1 0x40 MLOAD PUSH2 0x826 SWAP2 SWAP1 PUSH2 0x3514 JUMP JUMPDEST PUSH1 0x40 MLOAD DUP1 SWAP2 SUB SWAP1 RETURN JUMPDEST CALLVALUE DUP1 ISZERO PUSH2 0x83B JUMPI PUSH1 0x0 DUP1 REVERT JUMPDEST POP PUSH2 0x856 PUSH1 0x4 DUP1 CALLDATASIZE SUB DUP2 ADD SWAP1 PUSH2 0x851 SWAP2 SWAP1 PUSH2 0x3A29 JUMP JUMPDEST PUSH2 0x1D43 JUMP JUMPDEST STOP JUMPDEST CALLVALUE DUP1 ISZERO PUSH2 0x864 JUMPI PUSH1 0x0 DUP1 REVERT JUMPDEST POP PUSH2 0x87F PUSH1 0x4 DUP1 CALLDATASIZE SUB DUP2 ADD SWAP1 PUSH2 0x87A SWAP2 SWAP1 PUSH2 0x3C0C JUMP JUMPDEST PUSH2 0x212A JUMP JUMPDEST PUSH1 0x40 MLOAD PUSH2 0x88C SWAP2 SWAP1 PUSH2 0x3469 JUMP JUMPDEST PUSH1 0x40 MLOAD DUP1 SWAP2 SUB SWAP1 RETURN JUMPDEST CALLVALUE DUP1 ISZERO PUSH2 0x8A1 JUMPI PUSH1 0x0 DUP1 REVERT JUMPDEST POP PUSH2 0x8BC PUSH1 0x4 DUP1 CALLDATASIZE SUB DUP2 ADD SWAP1 PUSH2 0x8B7 SWAP2 SWAP1 PUSH2 0x39BC JUMP JUMPDEST PUSH2 0x21BE JUMP JUMPDEST STOP JUMPDEST CALLVALUE DUP1 ISZERO PUSH2 0x8CA JUMPI PUSH1 0x0 DUP1 REVERT JUMPDEST POP PUSH2 0x8D3 PUSH2 0x2241 JUMP JUMPDEST PUSH1 0x40 MLOAD PUSH2 0x8E0 SWAP2 SWAP1 PUSH2 0x3670 JUMP JUMPDEST PUSH1 0x40 MLOAD DUP1 SWAP2 SUB SWAP1 RETURN JUMPDEST PUSH1 0x0 PUSH32 0xAD092B5C00000000000000000000000000000000000000000000000000000000 PUSH28 0xFFFFFFFFFFFFFFFFFFFFFFFFFFFFFFFFFFFFFFFFFFFFFFFFFFFFFFFF NOT AND DUP3 PUSH28 0xFFFFFFFFFFFFFFFFFFFFFFFFFFFFFFFFFFFFFFFFFFFFFFFFFFFFFFFF NOT AND EQ DUP1 PUSH2 0x95C JUMPI POP PUSH2 0x95B DUP3 PUSH2 0x2247 JUMP JUMPDEST JUMPDEST SWAP1 POP SWAP2 SWAP1 POP JUMP JUMPDEST PUSH1 0x60 PUSH1 0x0 DUP1 SLOAD PUSH2 0x972 SWAP1 PUSH2 0x3C7B JUMP JUMPDEST DUP1 PUSH1 0x1F ADD PUSH1 0x20 DUP1 SWAP2 DIV MUL PUSH1 0x20 ADD PUSH1 0x40 MLOAD SWAP1 DUP2 ADD PUSH1 0x40 MSTORE DUP1 SWAP3 SWAP2 SWAP1 DUP2 DUP2 MSTORE PUSH1 0x20 ADD DUP3 DUP1 SLOAD PUSH2 0x99E SWAP1 PUSH2 0x3C7B JUMP JUMPDEST DUP1 ISZERO PUSH2 0x9EB JUMPI DUP1 PUSH1 0x1F LT PUSH2 0x9C0 JUMPI PUSH2 0x100 DUP1 DUP4 SLOAD DIV MUL DUP4 MSTORE SWAP2 PUSH1 0x20 ADD SWAP2 PUSH2 0x9EB JUMP JUMPDEST DUP3 ADD SWAP2 SWAP1 PUSH1 0x0 MSTORE PUSH1 0x20 PUSH1 0x0 KECCAK256 SWAP1 JUMPDEST DUP2 SLOAD DUP2 MSTORE SWAP1 PUSH1 0x1 ADD SWAP1 PUSH1 0x20 ADD DUP1 DUP4 GT PUSH2 0x9CE JUMPI DUP3 SWAP1 SUB PUSH1 0x1F AND DUP3 ADD SWAP2 JUMPDEST POP POP POP POP POP SWAP1 POP SWAP1 JUMP JUMPDEST PUSH1 0x0 PUSH2 0xA00 DUP3 PUSH2 0x2329 JUMP JUMPDEST PUSH1 0x4 PUSH1 0x0 DUP4 DUP2 MSTORE PUSH1 0x20 ADD SWAP1 DUP2 MSTORE PUSH1 0x20 ADD PUSH1 0x0 KECCAK256 PUSH1 0x0 SWAP1 SLOAD SWAP1 PUSH2 0x100 EXP SWAP1 DIV PUSH20 0xFFFFFFFFFFFFFFFFFFFFFFFFFFFFFFFFFFFFFFFF AND SWAP1 POP SWAP2 SWAP1 POP JUMP JUMPDEST PUSH1 0x0 PUSH2 0xA46 DUP3 PUSH2 0x138C JUMP JUMPDEST SWAP1 POP DUP1 PUSH20 0xFFFFFFFFFFFFFFFFFFFFFFFFFFFFFFFFFFFFFFFF AND DUP4 PUSH20 0xFFFFFFFFFFFFFFFFFFFFFFFFFFFFFFFFFFFFFFFF AND SUB PUSH2 0xAB6 JUMPI PUSH1 0x40 MLOAD PUSH32 0x8C379A000000000000000000000000000000000000000000000000000000000 DUP2 MSTORE PUSH1 0x4 ADD PUSH2 0xAAD SWAP1 PUSH2 0x3D1E JUMP JUMPDEST PUSH1 0x40 MLOAD DUP1 SWAP2 SUB SWAP1 REVERT JUMPDEST DUP1 PUSH20 0xFFFFFFFFFFFFFFFFFFFFFFFFFFFFFFFFFFFFFFFF AND PUSH2 0xAD5 PUSH2 0x2374 JUMP JUMPDEST PUSH20 0xFFFFFFFFFFFFFFFFFFFFFFFFFFFFFFFFFFFFFFFF AND EQ DUP1 PUSH2 0xB04 JUMPI POP PUSH2 0xB03 DUP2 PUSH2 0xAFE PUSH2 0x2374 JUMP JUMPDEST PUSH2 0x212A JUMP JUMPDEST JUMPDEST PUSH2 0xB43 JUMPI PUSH1 0x40 MLOAD PUSH32 0x8C379A000000000000000000000000000000000000000000000000000000000 DUP2 MSTORE PUSH1 0x4 ADD PUSH2 0xB3A SWAP1 PUSH2 0x3DB0 JUMP JUMPDEST PUSH1 0x40 MLOAD DUP1 SWAP2 SUB SWAP1 REVERT JUMPDEST PUSH2 0xB4D DUP4 DUP4 PUSH2 0x237C JUMP JUMPDEST POP POP POP JUMP JUMPDEST PUSH1 0xC SLOAD DUP2 JUMP JUMPDEST PUSH2 0xB69 PUSH2 0xB63 PUSH2 0x2374 JUMP JUMPDEST DUP3 PUSH2 0x2435 JUMP JUMPDEST PUSH2 0xBA8 JUMPI PUSH1 0x40 MLOAD PUSH32 0x8C379A000000000000000000000000000000000000000000000000000000000 DUP2 MSTORE PUSH1 0x4 ADD PUSH2 0xB9F SWAP1 PUSH2 0x3E42 JUMP JUMPDEST PUSH1 0x40 MLOAD DUP1 SWAP2 SUB SWAP1 REVERT JUMPDEST PUSH2 0xBB3 DUP4 DUP4 DUP4 PUSH2 0x24CA JUMP JUMPDEST POP POP POP JUMP JUMPDEST PUSH2 0xBC0 PUSH2 0x27C3 JUMP JUMPDEST PUSH1 0x8 PUSH1 0x14 SWAP1 SLOAD SWAP1 PUSH2 0x100 EXP SWAP1 DIV PUSH1 0xFF AND ISZERO PUSH1 0x8 PUSH1 0x14 PUSH2 0x100 EXP DUP2 SLOAD DUP2 PUSH1 0xFF MUL NOT AND SWAP1 DUP4 ISZERO ISZERO MUL OR SWAP1 SSTORE POP JUMP JUMPDEST PUSH2 0xBF4 PUSH2 0x2841 JUMP JUMPDEST PUSH1 0x10 PUSH1 0x0 SWAP1 SLOAD SWAP1 PUSH2 0x100 EXP SWAP1 DIV PUSH20 0xFFFFFFFFFFFFFFFFFFFFFFFFFFFFFFFFFFFFFFFF AND PUSH20 0xFFFFFFFFFFFFFFFFFFFFFFFFFFFFFFFFFFFFFFFF AND CALLER PUSH20 0xFFFFFFFFFFFFFFFFFFFFFFFFFFFFFFFFFFFFFFFF AND EQ DUP1 PUSH2 0xC82 JUMPI POP PUSH2 0xC53 PUSH2 0x1870 JUMP JUMPDEST PUSH20 0xFFFFFFFFFFFFFFFFFFFFFFFFFFFFFFFFFFFFFFFF AND CALLER PUSH20 0xFFFFFFFFFFFFFFFFFFFFFFFFFFFFFFFFFFFFFFFF AND EQ JUMPDEST PUSH2 0xCC1 JUMPI PUSH1 0x40 MLOAD PUSH32 0x8C379A000000000000000000000000000000000000000000000000000000000 DUP2 MSTORE PUSH1 0x4 ADD PUSH2 0xCB8 SWAP1 PUSH2 0x3EAE JUMP JUMPDEST PUSH1 0x40 MLOAD DUP1 SWAP2 SUB SWAP1 REVERT JUMPDEST PUSH1 0x0 PUSH1 0x8 PUSH1 0x0 SWAP1 SLOAD SWAP1 PUSH2 0x100 EXP SWAP1 DIV PUSH20 0xFFFFFFFFFFFFFFFFFFFFFFFFFFFFFFFFFFFFFFFF AND SWAP1 POP PUSH1 0x0 DUP2 PUSH20 0xFFFFFFFFFFFFFFFFFFFFFFFFFFFFFFFFFFFFFFFF AND PUSH4 0x70A08231 ADDRESS PUSH1 0x40 MLOAD DUP3 PUSH4 0xFFFFFFFF AND PUSH1 0xE0 SHL DUP2 MSTORE PUSH1 0x4 ADD PUSH2 0xD23 SWAP2 SWAP1 PUSH2 0x35DA JUMP JUMPDEST PUSH1 0x20 PUSH1 0x40 MLOAD DUP1 DUP4 SUB DUP2 DUP7 GAS STATICCALL ISZERO DUP1 ISZERO PUSH2 0xD40 JUMPI RETURNDATASIZE PUSH1 0x0 DUP1 RETURNDATACOPY RETURNDATASIZE PUSH1 0x0 REVERT JUMPDEST POP POP POP POP PUSH1 0x40 MLOAD RETURNDATASIZE PUSH1 0x1F NOT PUSH1 0x1F DUP3 ADD AND DUP3 ADD DUP1 PUSH1 0x40 MSTORE POP DUP2 ADD SWAP1 PUSH2 0xD64 SWAP2 SWAP1 PUSH2 0x3EE3 JUMP JUMPDEST SWAP1 POP PUSH1 0x0 PUSH1 0x1 PUSH1 0x64 DUP4 PUSH2 0xD77 SWAP2 SWAP1 PUSH2 0x3F6E JUMP JUMPDEST PUSH2 0xD81 SWAP2 SWAP1 PUSH2 0x3F9F JUMP JUMPDEST SWAP1 POP PUSH1 0x0 DUP2 DUP4 PUSH2 0xD91 SWAP2 SWAP1 PUSH2 0x3FE1 JUMP JUMPDEST SWAP1 POP PUSH1 0x0 DUP5 PUSH20 0xFFFFFFFFFFFFFFFFFFFFFFFFFFFFFFFFFFFFFFFF AND PUSH4 0xA9059CBB PUSH1 0x10 PUSH1 0x0 SWAP1 SLOAD SWAP1 PUSH2 0x100 EXP SWAP1 DIV PUSH20 0xFFFFFFFFFFFFFFFFFFFFFFFFFFFFFFFFFFFFFFFF AND DUP6 PUSH1 0x40 MLOAD DUP4 PUSH4 0xFFFFFFFF AND PUSH1 0xE0 SHL DUP2 MSTORE PUSH1 0x4 ADD PUSH2 0xDF2 SWAP3 SWAP2 SWAP1 PUSH2 0x4074 JUMP JUMPDEST PUSH1 0x20 PUSH1 0x40 MLOAD DUP1 DUP4 SUB DUP2 PUSH1 0x0 DUP8 GAS CALL ISZERO DUP1 ISZERO PUSH2 0xE11 JUMPI RETURNDATASIZE PUSH1 0x0 DUP1 RETURNDATACOPY RETURNDATASIZE PUSH1 0x0 REVERT JUMPDEST POP POP POP POP PUSH1 0x40 MLOAD RETURNDATASIZE PUSH1 0x1F NOT PUSH1 0x1F DUP3 ADD AND DUP3 ADD DUP1 PUSH1 0x40 MSTORE POP DUP2 ADD SWAP1 PUSH2 0xE35 SWAP2 SWAP1 PUSH2 0x40B2 JUMP JUMPDEST SWAP1 POP PUSH1 0x0 DUP6 PUSH20 0xFFFFFFFFFFFFFFFFFFFFFFFFFFFFFFFFFFFFFFFF AND PUSH4 0xA9059CBB PUSH2 0xE5D PUSH2 0x1870 JUMP JUMPDEST DUP6 PUSH1 0x40 MLOAD DUP4 PUSH4 0xFFFFFFFF AND PUSH1 0xE0 SHL DUP2 MSTORE PUSH1 0x4 ADD PUSH2 0xE7B SWAP3 SWAP2 SWAP1 PUSH2 0x40DF JUMP JUMPDEST PUSH1 0x20 PUSH1 0x40 MLOAD DUP1 DUP4 SUB DUP2 PUSH1 0x0 DUP8 GAS CALL ISZERO DUP1 ISZERO PUSH2 0xE9A JUMPI RETURNDATASIZE PUSH1 0x0 DUP1 RETURNDATACOPY RETURNDATASIZE PUSH1 0x0 REVERT JUMPDEST POP POP POP POP PUSH1 0x40 MLOAD RETURNDATASIZE PUSH1 0x1F NOT PUSH1 0x1F DUP3 ADD AND DUP3 ADD DUP1 PUSH1 0x40 MSTORE POP DUP2 ADD SWAP1 PUSH2 0xEBE SWAP2 SWAP1 PUSH2 0x40B2 JUMP JUMPDEST SWAP1 POP DUP2 PUSH2 0xF00 JUMPI PUSH1 0x40 MLOAD PUSH32 0x8C379A000000000000000000000000000000000000000000000000000000000 DUP2 MSTORE PUSH1 0x4 ADD PUSH2 0xEF7 SWAP1 PUSH2 0x4154 JUMP JUMPDEST PUSH1 0x40 MLOAD DUP1 SWAP2 SUB SWAP1 REVERT JUMPDEST DUP1 PUSH2 0xF40 JUMPI PUSH1 0x40 MLOAD PUSH32 0x8C379A000000000000000000000000000000000000000000000000000000000 DUP2 MSTORE PUSH1 0x4 ADD PUSH2 0xF37 SWAP1 PUSH2 0x41C0 JUMP JUMPDEST PUSH1 0x40 MLOAD DUP1 SWAP2 SUB SWAP1 REVERT JUMPDEST POP POP POP POP POP POP PUSH2 0xF4E PUSH2 0x2890 JUMP JUMPDEST JUMP JUMPDEST PUSH2 0xF58 PUSH2 0x27C3 JUMP JUMPDEST DUP1 PUSH1 0xD SWAP1 DUP2 PUSH2 0xF67 SWAP2 SWAP1 PUSH2 0x4382 JUMP JUMPDEST POP POP JUMP JUMPDEST PUSH1 0x8 PUSH1 0x15 SWAP1 SLOAD SWAP1 PUSH2 0x100 EXP SWAP1 DIV PUSH1 0xFF AND DUP2 JUMP JUMPDEST PUSH2 0xF86 PUSH2 0x2841 JUMP JUMPDEST PUSH2 0xF8E PUSH2 0x27C3 JUMP JUMPDEST ORIGIN PUSH20 0xFFFFFFFFFFFFFFFFFFFFFFFFFFFFFFFFFFFFFFFF AND CALLER PUSH20 0xFFFFFFFFFFFFFFFFFFFFFFFFFFFFFFFFFFFFFFFF AND EQ PUSH2 0xFFC JUMPI PUSH1 0x40 MLOAD PUSH32 0x8C379A000000000000000000000000000000000000000000000000000000000 DUP2 MSTORE PUSH1 0x4 ADD PUSH2 0xFF3 SWAP1 PUSH2 0x44A0 JUMP JUMPDEST PUSH1 0x40 MLOAD DUP1 SWAP2 SUB SWAP1 REVERT JUMPDEST PUSH1 0x0 PUSH1 0xC SLOAD SWAP1 POP PUSH2 0x100D CALLER DUP3 PUSH2 0x289A JUMP JUMPDEST PUSH1 0x1 PUSH1 0xC PUSH1 0x0 DUP3 DUP3 SLOAD PUSH2 0x1020 SWAP2 SWAP1 PUSH2 0x44C0 JUMP JUMPDEST SWAP3 POP POP DUP2 SWAP1 SSTORE POP POP PUSH2 0x1030 PUSH2 0x2890 JUMP JUMPDEST JUMP JUMPDEST PUSH2 0x103A PUSH2 0x2841 JUMP JUMPDEST PUSH1 0x10 PUSH1 0x0 SWAP1 SLOAD SWAP1 PUSH2 0x100 EXP SWAP1 DIV PUSH20 0xFFFFFFFFFFFFFFFFFFFFFFFFFFFFFFFFFFFFFFFF AND PUSH20 0xFFFFFFFFFFFFFFFFFFFFFFFFFFFFFFFFFFFFFFFF AND CALLER PUSH20 0xFFFFFFFFFFFFFFFFFFFFFFFFFFFFFFFFFFFFFFFF AND EQ DUP1 PUSH2 0x10C8 JUMPI POP PUSH2 0x1099 PUSH2 0x1870 JUMP JUMPDEST PUSH20 0xFFFFFFFFFFFFFFFFFFFFFFFFFFFFFFFFFFFFFFFF AND CALLER PUSH20 0xFFFFFFFFFFFFFFFFFFFFFFFFFFFFFFFFFFFFFFFF AND EQ JUMPDEST PUSH2 0x1107 JUMPI PUSH1 0x40 MLOAD PUSH32 0x8C379A000000000000000000000000000000000000000000000000000000000 DUP2 MSTORE PUSH1 0x4 ADD PUSH2 0x10FE SWAP1 PUSH2 0x3EAE JUMP JUMPDEST PUSH1 0x40 MLOAD DUP1 SWAP2 SUB SWAP1 REVERT JUMPDEST PUSH1 0x0 PUSH1 0x10 PUSH1 0x0 SWAP1 SLOAD SWAP1 PUSH2 0x100 EXP SWAP1 DIV PUSH20 0xFFFFFFFFFFFFFFFFFFFFFFFFFFFFFFFFFFFFFFFF AND PUSH20 0xFFFFFFFFFFFFFFFFFFFFFFFFFFFFFFFFFFFFFFFF AND PUSH1 0x1 PUSH1 0x64 SELFBALANCE PUSH2 0x1151 SWAP2 SWAP1 PUSH2 0x3F6E JUMP JUMPDEST PUSH2 0x115B SWAP2 SWAP1 PUSH2 0x3F9F JUMP JUMPDEST PUSH1 0x40 MLOAD PUSH2 0x1167 SWAP1 PUSH2 0x4525 JUMP JUMPDEST PUSH1 0x0 PUSH1 0x40 MLOAD DUP1 DUP4 SUB DUP2 DUP6 DUP8 GAS CALL SWAP3 POP POP POP RETURNDATASIZE DUP1 PUSH1 0x0 DUP2 EQ PUSH2 0x11A4 JUMPI PUSH1 0x40 MLOAD SWAP2 POP PUSH1 0x1F NOT PUSH1 0x3F RETURNDATASIZE ADD AND DUP3 ADD PUSH1 0x40 MSTORE RETURNDATASIZE DUP3 MSTORE RETURNDATASIZE PUSH1 0x0 PUSH1 0x20 DUP5 ADD RETURNDATACOPY PUSH2 0x11A9 JUMP JUMPDEST PUSH1 0x60 SWAP2 POP JUMPDEST POP POP SWAP1 POP PUSH1 0x0 PUSH2 0x11B7 PUSH2 0x1870 JUMP JUMPDEST PUSH20 0xFFFFFFFFFFFFFFFFFFFFFFFFFFFFFFFFFFFFFFFF AND SELFBALANCE PUSH1 0x40 MLOAD PUSH2 0x11DA SWAP1 PUSH2 0x4525 JUMP JUMPDEST PUSH1 0x0 PUSH1 0x40 MLOAD DUP1 DUP4 SUB DUP2 DUP6 DUP8 GAS CALL SWAP3 POP POP POP RETURNDATASIZE DUP1 PUSH1 0x0 DUP2 EQ PUSH2 0x1217 JUMPI PUSH1 0x40 MLOAD SWAP2 POP PUSH1 0x1F NOT PUSH1 0x3F RETURNDATASIZE ADD AND DUP3 ADD PUSH1 0x40 MSTORE RETURNDATASIZE DUP3 MSTORE RETURNDATASIZE PUSH1 0x0 PUSH1 0x20 DUP5 ADD RETURNDATACOPY PUSH2 0x121C JUMP JUMPDEST PUSH1 0x60 SWAP2 POP JUMPDEST POP POP SWAP1 POP DUP2 PUSH2 0x1260 JUMPI PUSH1 0x40 MLOAD PUSH32 0x8C379A000000000000000000000000000000000000000000000000000000000 DUP2 MSTORE PUSH1 0x4 ADD PUSH2 0x1257 SWAP1 PUSH2 0x4154 JUMP JUMPDEST PUSH1 0x40 MLOAD DUP1 SWAP2 SUB SWAP1 REVERT JUMPDEST DUP1 PUSH2 0x12A0 JUMPI PUSH1 0x40 MLOAD PUSH32 0x8C379A000000000000000000000000000000000000000000000000000000000 DUP2 MSTORE PUSH1 0x4 ADD PUSH2 0x1297 SWAP1 PUSH2 0x41C0 JUMP JUMPDEST PUSH1 0x40 MLOAD DUP1 SWAP2 SUB SWAP1 REVERT JUMPDEST POP POP PUSH2 0x12AA PUSH2 0x2890 JUMP JUMPDEST JUMP JUMPDEST PUSH2 0x12C7 DUP4 DUP4 DUP4 PUSH1 0x40 MLOAD DUP1 PUSH1 0x20 ADD PUSH1 0x40 MSTORE DUP1 PUSH1 0x0 DUP2 MSTORE POP PUSH2 0x1AB2 JUMP JUMPDEST POP POP POP JUMP JUMPDEST PUSH2 0x12D4 PUSH2 0x27C3 JUMP JUMPDEST DUP3 PUSH1 0xA DUP2 SWAP1 SSTORE POP DUP2 PUSH1 0xB DUP2 SWAP1 SSTORE POP DUP1 PUSH1 0x9 DUP2 SWAP1 SSTORE POP POP POP POP JUMP JUMPDEST PUSH2 0x12F6 PUSH2 0x27C3 JUMP JUMPDEST DUP1 PUSH1 0x8 PUSH1 0x0 PUSH2 0x100 EXP DUP2 SLOAD DUP2 PUSH20 0xFFFFFFFFFFFFFFFFFFFFFFFFFFFFFFFFFFFFFFFF MUL NOT AND SWAP1 DUP4 PUSH20 0xFFFFFFFFFFFFFFFFFFFFFFFFFFFFFFFFFFFFFFFF AND MUL OR SWAP1 SSTORE POP POP JUMP JUMPDEST PUSH2 0x1342 PUSH2 0x27C3 JUMP JUMPDEST DUP2 PUSH1 0xE SWAP1 DUP2 PUSH2 0x1351 SWAP2 SWAP1 PUSH2 0x4382 JUMP JUMPDEST POP DUP1 PUSH1 0xF SWAP1 DUP2 PUSH2 0x1361 SWAP2 SWAP1 PUSH2 0x4382 JUMP JUMPDEST POP POP POP JUMP JUMPDEST PUSH1 0x10 PUSH1 0x0 SWAP1 SLOAD SWAP1 PUSH2 0x100 EXP SWAP1 DIV PUSH20 0xFFFFFFFFFFFFFFFFFFFFFFFFFFFFFFFFFFFFFFFF AND DUP2 JUMP JUMPDEST PUSH1 0x0 DUP1 PUSH2 0x1398 DUP4 PUSH2 0x28B8 JUMP JUMPDEST SWAP1 POP PUSH1 0x0 PUSH20 0xFFFFFFFFFFFFFFFFFFFFFFFFFFFFFFFFFFFFFFFF AND DUP2 PUSH20 0xFFFFFFFFFFFFFFFFFFFFFFFFFFFFFFFFFFFFFFFF AND SUB PUSH2 0x1409 JUMPI PUSH1 0x40 MLOAD PUSH32 0x8C379A000000000000000000000000000000000000000000000000000000000 DUP2 MSTORE PUSH1 0x4 ADD PUSH2 0x1400 SWAP1 PUSH2 0x4586 JUMP JUMPDEST PUSH1 0x40 MLOAD DUP1 SWAP2 SUB SWAP1 REVERT JUMPDEST DUP1 SWAP2 POP POP SWAP2 SWAP1 POP JUMP JUMPDEST PUSH1 0x10 PUSH1 0x0 SWAP1 SLOAD SWAP1 PUSH2 0x100 EXP SWAP1 DIV PUSH20 0xFFFFFFFFFFFFFFFFFFFFFFFFFFFFFFFFFFFFFFFF AND PUSH20 0xFFFFFFFFFFFFFFFFFFFFFFFFFFFFFFFFFFFFFFFF AND CALLER PUSH20 0xFFFFFFFFFFFFFFFFFFFFFFFFFFFFFFFFFFFFFFFF AND EQ PUSH2 0x14A2 JUMPI PUSH1 0x40 MLOAD PUSH32 0x8C379A000000000000000000000000000000000000000000000000000000000 DUP2 MSTORE PUSH1 0x4 ADD PUSH2 0x1499 SWAP1 PUSH2 0x3EAE JUMP JUMPDEST PUSH1 0x40 MLOAD DUP1 SWAP2 SUB SWAP1 REVERT JUMPDEST DUP1 PUSH1 0x10 PUSH1 0x0 PUSH2 0x100 EXP DUP2 SLOAD DUP2 PUSH20 0xFFFFFFFFFFFFFFFFFFFFFFFFFFFFFFFFFFFFFFFF MUL NOT AND SWAP1 DUP4 PUSH20 0xFFFFFFFFFFFFFFFFFFFFFFFFFFFFFFFFFFFFFFFF AND MUL OR SWAP1 SSTORE POP POP JUMP JUMPDEST PUSH1 0x0 DUP1 PUSH20 0xFFFFFFFFFFFFFFFFFFFFFFFFFFFFFFFFFFFFFFFF AND DUP3 PUSH20 0xFFFFFFFFFFFFFFFFFFFFFFFFFFFFFFFFFFFFFFFF AND SUB PUSH2 0x1556 JUMPI PUSH1 0x40 MLOAD PUSH32 0x8C379A000000000000000000000000000000000000000000000000000000000 DUP2 MSTORE PUSH1 0x4 ADD PUSH2 0x154D SWAP1 PUSH2 0x4618 JUMP JUMPDEST PUSH1 0x40 MLOAD DUP1 SWAP2 SUB SWAP1 REVERT JUMPDEST PUSH1 0x3 PUSH1 0x0 DUP4 PUSH20 0xFFFFFFFFFFFFFFFFFFFFFFFFFFFFFFFFFFFFFFFF AND PUSH20 0xFFFFFFFFFFFFFFFFFFFFFFFFFFFFFFFFFFFFFFFF AND DUP2 MSTORE PUSH1 0x20 ADD SWAP1 DUP2 MSTORE PUSH1 0x20 ADD PUSH1 0x0 KECCAK256 SLOAD SWAP1 POP SWAP2 SWAP1 POP JUMP JUMPDEST PUSH2 0x15A5 PUSH2 0x27C3 JUMP JUMPDEST PUSH2 0x15AF PUSH1 0x0 PUSH2 0x28F5 JUMP JUMPDEST JUMP JUMPDEST PUSH1 0x9 SLOAD DUP2 JUMP JUMPDEST PUSH2 0x15C1 CALLER DUP5 PUSH2 0x2435 JUMP JUMPDEST PUSH2 0x1600 JUMPI PUSH1 0x40 MLOAD PUSH32 0x8C379A000000000000000000000000000000000000000000000000000000000 DUP2 MSTORE PUSH1 0x4 ADD PUSH2 0x15F7 SWAP1 PUSH2 0x4684 JUMP JUMPDEST PUSH1 0x40 MLOAD DUP1 SWAP2 SUB SWAP1 REVERT JUMPDEST PUSH1 0x8 PUSH1 0x15 SWAP1 SLOAD SWAP1 PUSH2 0x100 EXP SWAP1 DIV PUSH1 0xFF AND ISZERO PUSH2 0x1650 JUMPI PUSH1 0x40 MLOAD PUSH32 0x8C379A000000000000000000000000000000000000000000000000000000000 DUP2 MSTORE PUSH1 0x4 ADD PUSH2 0x1647 SWAP1 PUSH2 0x46F0 JUMP JUMPDEST PUSH1 0x40 MLOAD DUP1 SWAP2 SUB SWAP1 REVERT JUMPDEST PUSH1 0x9 SLOAD DUP2 PUSH8 0xFFFFFFFFFFFFFFFF AND GT ISZERO PUSH2 0x169F JUMPI PUSH1 0x40 MLOAD PUSH32 0x8C379A000000000000000000000000000000000000000000000000000000000 DUP2 MSTORE PUSH1 0x4 ADD PUSH2 0x1696 SWAP1 PUSH2 0x475C JUMP JUMPDEST PUSH1 0x40 MLOAD DUP1 SWAP2 SUB SWAP1 REVERT JUMPDEST CALLVALUE PUSH1 0xB SLOAD DUP3 PUSH8 0xFFFFFFFFFFFFFFFF AND PUSH2 0x16B8 SWAP2 SWAP1 PUSH2 0x3F9F JUMP JUMPDEST EQ PUSH2 0x16F8 JUMPI PUSH1 0x40 MLOAD PUSH32 0x8C379A000000000000000000000000000000000000000000000000000000000 DUP2 MSTORE PUSH1 0x4 ADD PUSH2 0x16EF SWAP1 PUSH2 0x47EE JUMP JUMPDEST PUSH1 0x40 MLOAD DUP1 SWAP2 SUB SWAP1 REVERT JUMPDEST PUSH1 0x0 PUSH3 0x278D00 DUP3 PUSH2 0x1709 SWAP2 SWAP1 PUSH2 0x480E JUMP JUMPDEST SWAP1 POP PUSH1 0x0 TIMESTAMP SWAP1 POP PUSH1 0x0 PUSH1 0x11 PUSH1 0x0 DUP8 DUP2 MSTORE PUSH1 0x20 ADD SWAP1 DUP2 MSTORE PUSH1 0x20 ADD PUSH1 0x0 KECCAK256 SWAP1 POP DUP2 PUSH8 0xFFFFFFFFFFFFFFFF AND DUP2 PUSH1 0x0 ADD PUSH1 0x14 SWAP1 SLOAD SWAP1 PUSH2 0x100 EXP SWAP1 DIV PUSH8 0xFFFFFFFFFFFFFFFF AND PUSH8 0xFFFFFFFFFFFFFFFF AND LT PUSH2 0x1795 JUMPI PUSH1 0x40 MLOAD PUSH32 0x8C379A000000000000000000000000000000000000000000000000000000000 DUP2 MSTORE PUSH1 0x4 ADD PUSH2 0x178C SWAP1 PUSH2 0x4897 JUMP JUMPDEST PUSH1 0x40 MLOAD DUP1 SWAP2 SUB SWAP1 REVERT JUMPDEST DUP5 DUP2 PUSH1 0x0 ADD PUSH1 0x0 PUSH2 0x100 EXP DUP2 SLOAD DUP2 PUSH20 0xFFFFFFFFFFFFFFFFFFFFFFFFFFFFFFFFFFFFFFFF MUL NOT AND SWAP1 DUP4 PUSH20 0xFFFFFFFFFFFFFFFFFFFFFFFFFFFFFFFFFFFFFFFF AND MUL OR SWAP1 SSTORE POP DUP2 DUP4 PUSH2 0x17E4 SWAP2 SWAP1 PUSH2 0x48B7 JUMP JUMPDEST DUP2 PUSH1 0x0 ADD PUSH1 0x14 PUSH2 0x100 EXP DUP2 SLOAD DUP2 PUSH8 0xFFFFFFFFFFFFFFFF MUL NOT AND SWAP1 DUP4 PUSH8 0xFFFFFFFFFFFFFFFF AND MUL OR SWAP1 SSTORE POP DUP5 PUSH20 0xFFFFFFFFFFFFFFFFFFFFFFFFFFFFFFFFFFFFFFFF AND DUP7 PUSH32 0x4E06B4E7000E659094299B3533B47B6AA8AD048E95E872D23D1F4EE55AF89CFE DUP5 DUP7 PUSH2 0x1853 SWAP2 SWAP1 PUSH2 0x48B7 JUMP JUMPDEST PUSH1 0x40 MLOAD PUSH2 0x1860 SWAP2 SWAP1 PUSH2 0x4902 JUMP JUMPDEST PUSH1 0x40 MLOAD DUP1 SWAP2 SUB SWAP1 LOG3 POP POP POP POP POP POP JUMP JUMPDEST PUSH1 0x0 PUSH1 0x6 PUSH1 0x0 SWAP1 SLOAD SWAP1 PUSH2 0x100 EXP SWAP1 DIV PUSH20 0xFFFFFFFFFFFFFFFFFFFFFFFFFFFFFFFFFFFFFFFF AND SWAP1 POP SWAP1 JUMP JUMPDEST PUSH1 0x0 TIMESTAMP PUSH1 0x11 PUSH1 0x0 DUP5 DUP2 MSTORE PUSH1 0x20 ADD SWAP1 DUP2 MSTORE PUSH1 0x20 ADD PUSH1 0x0 KECCAK256 PUSH1 0x0 ADD PUSH1 0x14 SWAP1 SLOAD SWAP1 PUSH2 0x100 EXP SWAP1 DIV PUSH8 0xFFFFFFFFFFFFFFFF AND PUSH8 0xFFFFFFFFFFFFFFFF AND LT PUSH2 0x1913 JUMPI PUSH1 0x11 PUSH1 0x0 DUP4 DUP2 MSTORE PUSH1 0x20 ADD SWAP1 DUP2 MSTORE PUSH1 0x20 ADD PUSH1 0x0 KECCAK256 PUSH1 0x0 ADD PUSH1 0x14 SWAP1 SLOAD SWAP1 PUSH2 0x100 EXP SWAP1 DIV PUSH8 0xFFFFFFFFFFFFFFFF AND PUSH8 0xFFFFFFFFFFFFFFFF AND SWAP1 POP PUSH2 0x1930 JUMP JUMPDEST PUSH25 0xFEE50B7025C36A0802F236D04753D5B48E7FFFFFFFFFFFFFF SWAP1 POP JUMPDEST SWAP2 SWAP1 POP JUMP JUMPDEST PUSH1 0x60 PUSH1 0x1 DUP1 SLOAD PUSH2 0x1944 SWAP1 PUSH2 0x3C7B JUMP JUMPDEST DUP1 PUSH1 0x1F ADD PUSH1 0x20 DUP1 SWAP2 DIV MUL PUSH1 0x20 ADD PUSH1 0x40 MLOAD SWAP1 DUP2 ADD PUSH1 0x40 MSTORE DUP1 SWAP3 SWAP2 SWAP1 DUP2 DUP2 MSTORE PUSH1 0x20 ADD DUP3 DUP1 SLOAD PUSH2 0x1970 SWAP1 PUSH2 0x3C7B JUMP JUMPDEST DUP1 ISZERO PUSH2 0x19BD JUMPI DUP1 PUSH1 0x1F LT PUSH2 0x1992 JUMPI PUSH2 0x100 DUP1 DUP4 SLOAD DIV MUL DUP4 MSTORE SWAP2 PUSH1 0x20 ADD SWAP2 PUSH2 0x19BD JUMP JUMPDEST DUP3 ADD SWAP2 SWAP1 PUSH1 0x0 MSTORE PUSH1 0x20 PUSH1 0x0 KECCAK256 SWAP1 JUMPDEST DUP2 SLOAD DUP2 MSTORE SWAP1 PUSH1 0x1 ADD SWAP1 PUSH1 0x20 ADD DUP1 DUP4 GT PUSH2 0x19A0 JUMPI DUP3 SWAP1 SUB PUSH1 0x1F AND DUP3 ADD SWAP2 JUMPDEST POP POP POP POP POP SWAP1 POP SWAP1 JUMP JUMPDEST PUSH2 0x19CF PUSH2 0x27C3 JUMP JUMPDEST PUSH1 0x8 PUSH1 0x15 SWAP1 SLOAD SWAP1 PUSH2 0x100 EXP SWAP1 DIV PUSH1 0xFF AND ISZERO PUSH1 0x8 PUSH1 0x15 PUSH2 0x100 EXP DUP2 SLOAD DUP2 PUSH1 0xFF MUL NOT AND SWAP1 DUP4 ISZERO ISZERO MUL OR SWAP1 SSTORE POP JUMP JUMPDEST PUSH2 0x1A0D PUSH2 0x1A06 PUSH2 0x2374 JUMP JUMPDEST DUP4 DUP4 PUSH2 0x29BB JUMP JUMPDEST POP POP JUMP JUMPDEST PUSH1 0x8 PUSH1 0x14 SWAP1 SLOAD SWAP1 PUSH2 0x100 EXP SWAP1 DIV PUSH1 0xFF AND DUP2 JUMP JUMPDEST PUSH1 0xF DUP1 SLOAD PUSH2 0x1A31 SWAP1 PUSH2 0x3C7B JUMP JUMPDEST DUP1 PUSH1 0x1F ADD PUSH1 0x20 DUP1 SWAP2 DIV MUL PUSH1 0x20 ADD PUSH1 0x40 MLOAD SWAP1 DUP2 ADD PUSH1 0x40 MSTORE DUP1 SWAP3 SWAP2 SWAP1 DUP2 DUP2 MSTORE PUSH1 0x20 ADD DUP3 DUP1 SLOAD PUSH2 0x1A5D SWAP1 PUSH2 0x3C7B JUMP JUMPDEST DUP1 ISZERO PUSH2 0x1AAA JUMPI DUP1 PUSH1 0x1F LT PUSH2 0x1A7F JUMPI PUSH2 0x100 DUP1 DUP4 SLOAD DIV MUL DUP4 MSTORE SWAP2 PUSH1 0x20 ADD SWAP2 PUSH2 0x1AAA JUMP JUMPDEST DUP3 ADD SWAP2 SWAP1 PUSH1 0x0 MSTORE PUSH1 0x20 PUSH1 0x0 KECCAK256 SWAP1 JUMPDEST DUP2 SLOAD DUP2 MSTORE SWAP1 PUSH1 0x1 ADD SWAP1 PUSH1 0x20 ADD DUP1 DUP4 GT PUSH2 0x1A8D JUMPI DUP3 SWAP1 SUB PUSH1 0x1F AND DUP3 ADD SWAP2 JUMPDEST POP POP POP POP POP DUP2 JUMP JUMPDEST PUSH2 0x1AC3 PUSH2 0x1ABD PUSH2 0x2374 JUMP JUMPDEST DUP4 PUSH2 0x2435 JUMP JUMPDEST PUSH2 0x1B02 JUMPI PUSH1 0x40 MLOAD PUSH32 0x8C379A000000000000000000000000000000000000000000000000000000000 DUP2 MSTORE PUSH1 0x4 ADD PUSH2 0x1AF9 SWAP1 PUSH2 0x3E42 JUMP JUMPDEST PUSH1 0x40 MLOAD DUP1 SWAP2 SUB SWAP1 REVERT JUMPDEST PUSH2 0x1B0E DUP5 DUP5 DUP5 DUP5 PUSH2 0x2B27 JUMP JUMPDEST POP POP POP POP JUMP JUMPDEST PUSH1 0xA SLOAD DUP2 JUMP JUMPDEST PUSH1 0x0 TIMESTAMP PUSH1 0x11 PUSH1 0x0 DUP5 DUP2 MSTORE PUSH1 0x20 ADD SWAP1 DUP2 MSTORE PUSH1 0x20 ADD PUSH1 0x0 KECCAK256 PUSH1 0x0 ADD PUSH1 0x14 SWAP1 SLOAD SWAP1 PUSH2 0x100 EXP SWAP1 DIV PUSH8 0xFFFFFFFFFFFFFFFF AND PUSH8 0xFFFFFFFFFFFFFFFF AND LT PUSH2 0x1B95 JUMPI PUSH1 0x11 PUSH1 0x0 DUP4 DUP2 MSTORE PUSH1 0x20 ADD SWAP1 DUP2 MSTORE PUSH1 0x20 ADD PUSH1 0x0 KECCAK256 PUSH1 0x0 ADD PUSH1 0x0 SWAP1 SLOAD SWAP1 PUSH2 0x100 EXP SWAP1 DIV PUSH20 0xFFFFFFFFFFFFFFFFFFFFFFFFFFFFFFFFFFFFFFFF AND SWAP1 POP PUSH2 0x1B9A JUMP JUMPDEST PUSH1 0x0 SWAP1 POP JUMPDEST SWAP2 SWAP1 POP JUMP JUMPDEST PUSH1 0x60 PUSH2 0x1BAA DUP3 PUSH2 0x2B83 JUMP JUMPDEST PUSH2 0x1BE9 JUMPI PUSH1 0x40 MLOAD PUSH32 0x8C379A000000000000000000000000000000000000000000000000000000000 DUP2 MSTORE PUSH1 0x4 ADD PUSH2 0x1BE0 SWAP1 PUSH2 0x4969 JUMP JUMPDEST PUSH1 0x40 MLOAD DUP1 SWAP2 SUB SWAP1 REVERT JUMPDEST PUSH1 0x0 PUSH2 0x1BF3 PUSH2 0x2BC4 JUMP JUMPDEST SWAP1 POP DUP1 PUSH2 0x1BFF DUP5 PUSH2 0x2C56 JUMP JUMPDEST PUSH1 0x40 MLOAD PUSH1 0x20 ADD PUSH2 0x1C10 SWAP3 SWAP2 SWAP1 PUSH2 0x4A11 JUMP JUMPDEST PUSH1 0x40 MLOAD PUSH1 0x20 DUP2 DUP4 SUB SUB DUP2 MSTORE SWAP1 PUSH1 0x40 MSTORE SWAP2 POP POP SWAP2 SWAP1 POP JUMP JUMPDEST PUSH1 0xE DUP1 SLOAD PUSH2 0x1C34 SWAP1 PUSH2 0x3C7B JUMP JUMPDEST DUP1 PUSH1 0x1F ADD PUSH1 0x20 DUP1 SWAP2 DIV MUL PUSH1 0x20 ADD PUSH1 0x40 MLOAD SWAP1 DUP2 ADD PUSH1 0x40 MSTORE DUP1 SWAP3 SWAP2 SWAP1 DUP2 DUP2 MSTORE PUSH1 0x20 ADD DUP3 DUP1 SLOAD PUSH2 0x1C60 SWAP1 PUSH2 0x3C7B JUMP JUMPDEST DUP1 ISZERO PUSH2 0x1CAD JUMPI DUP1 PUSH1 0x1F LT PUSH2 0x1C82 JUMPI PUSH2 0x100 DUP1 DUP4 SLOAD DIV MUL DUP4 MSTORE SWAP2 PUSH1 0x20 ADD SWAP2 PUSH2 0x1CAD JUMP JUMPDEST DUP3 ADD SWAP2 SWAP1 PUSH1 0x0 MSTORE PUSH1 0x20 PUSH1 0x0 KECCAK256 SWAP1 JUMPDEST DUP2 SLOAD DUP2 MSTORE SWAP1 PUSH1 0x1 ADD SWAP1 PUSH1 0x20 ADD DUP1 DUP4 GT PUSH2 0x1C90 JUMPI DUP3 SWAP1 SUB PUSH1 0x1F AND DUP3 ADD SWAP2 JUMPDEST POP POP POP POP POP DUP2 JUMP JUMPDEST PUSH1 0xD DUP1 SLOAD PUSH2 0x1CC2 SWAP1 PUSH2 0x3C7B JUMP JUMPDEST DUP1 PUSH1 0x1F ADD PUSH1 0x20 DUP1 SWAP2 DIV MUL PUSH1 0x20 ADD PUSH1 0x40 MLOAD SWAP1 DUP2 ADD PUSH1 0x40 MSTORE DUP1 SWAP3 SWAP2 SWAP1 DUP2 DUP2 MSTORE PUSH1 0x20 ADD DUP3 DUP1 SLOAD PUSH2 0x1CEE SWAP1 PUSH2 0x3C7B JUMP JUMPDEST DUP1 ISZERO PUSH2 0x1D3B JUMPI DUP1 PUSH1 0x1F LT PUSH2 0x1D10 JUMPI PUSH2 0x100 DUP1 DUP4 SLOAD DIV MUL DUP4 MSTORE SWAP2 PUSH1 0x20 ADD SWAP2 PUSH2 0x1D3B JUMP JUMPDEST DUP3 ADD SWAP2 SWAP1 PUSH1 0x0 MSTORE PUSH1 0x20 PUSH1 0x0 KECCAK256 SWAP1 JUMPDEST DUP2 SLOAD DUP2 MSTORE SWAP1 PUSH1 0x1 ADD SWAP1 PUSH1 0x20 ADD DUP1 DUP4 GT PUSH2 0x1D1E JUMPI DUP3 SWAP1 SUB PUSH1 0x1F AND DUP3 ADD SWAP2 JUMPDEST POP POP POP POP POP DUP2 JUMP JUMPDEST PUSH2 0x1D4D CALLER DUP5 PUSH2 0x2435 JUMP JUMPDEST PUSH2 0x1D8C JUMPI PUSH1 0x40 MLOAD PUSH32 0x8C379A000000000000000000000000000000000000000000000000000000000 DUP2 MSTORE PUSH1 0x4 ADD PUSH2 0x1D83 SWAP1 PUSH2 0x4684 JUMP JUMPDEST PUSH1 0x40 MLOAD DUP1 SWAP2 SUB SWAP1 REVERT JUMPDEST PUSH1 0x8 PUSH1 0x14 SWAP1 SLOAD SWAP1 PUSH2 0x100 EXP SWAP1 DIV PUSH1 0xFF AND ISZERO PUSH2 0x1DDC JUMPI PUSH1 0x40 MLOAD PUSH32 0x8C379A000000000000000000000000000000000000000000000000000000000 DUP2 MSTORE PUSH1 0x4 ADD PUSH2 0x1DD3 SWAP1 PUSH2 0x46F0 JUMP JUMPDEST PUSH1 0x40 MLOAD DUP1 SWAP2 SUB SWAP1 REVERT JUMPDEST PUSH1 0x9 SLOAD DUP2 PUSH8 0xFFFFFFFFFFFFFFFF AND GT ISZERO PUSH2 0x1E2B JUMPI PUSH1 0x40 MLOAD PUSH32 0x8C379A000000000000000000000000000000000000000000000000000000000 DUP2 MSTORE PUSH1 0x4 ADD PUSH2 0x1E22 SWAP1 PUSH2 0x475C JUMP JUMPDEST PUSH1 0x40 MLOAD DUP1 SWAP2 SUB SWAP1 REVERT JUMPDEST PUSH2 0x1E33 PUSH2 0x1870 JUMP JUMPDEST PUSH20 0xFFFFFFFFFFFFFFFFFFFFFFFFFFFFFFFFFFFFFFFF AND PUSH2 0x1E52 DUP5 PUSH2 0x138C JUMP JUMPDEST PUSH20 0xFFFFFFFFFFFFFFFFFFFFFFFFFFFFFFFFFFFFFFFF AND EQ PUSH2 0x1EA8 JUMPI PUSH1 0x40 MLOAD PUSH32 0x8C379A000000000000000000000000000000000000000000000000000000000 DUP2 MSTORE PUSH1 0x4 ADD PUSH2 0x1E9F SWAP1 PUSH2 0x4A8C JUMP JUMPDEST PUSH1 0x40 MLOAD DUP1 SWAP2 SUB SWAP1 REVERT JUMPDEST PUSH1 0x0 PUSH1 0x8 PUSH1 0x0 SWAP1 SLOAD SWAP1 PUSH2 0x100 EXP SWAP1 DIV PUSH20 0xFFFFFFFFFFFFFFFFFFFFFFFFFFFFFFFFFFFFFFFF AND SWAP1 POP PUSH1 0x0 DUP3 PUSH8 0xFFFFFFFFFFFFFFFF AND PUSH1 0xA SLOAD PUSH2 0x1EE9 SWAP2 SWAP1 PUSH2 0x3F9F JUMP JUMPDEST SWAP1 POP PUSH1 0x0 DUP3 PUSH20 0xFFFFFFFFFFFFFFFFFFFFFFFFFFFFFFFFFFFFFFFF AND PUSH4 0x23B872DD CALLER ADDRESS DUP6 PUSH1 0x40 MLOAD DUP5 PUSH4 0xFFFFFFFF AND PUSH1 0xE0 SHL DUP2 MSTORE PUSH1 0x4 ADD PUSH2 0x1F2A SWAP4 SWAP3 SWAP2 SWAP1 PUSH2 0x4AAC JUMP JUMPDEST PUSH1 0x20 PUSH1 0x40 MLOAD DUP1 DUP4 SUB DUP2 PUSH1 0x0 DUP8 GAS CALL ISZERO DUP1 ISZERO PUSH2 0x1F49 JUMPI RETURNDATASIZE PUSH1 0x0 DUP1 RETURNDATACOPY RETURNDATASIZE PUSH1 0x0 REVERT JUMPDEST POP POP POP POP PUSH1 0x40 MLOAD RETURNDATASIZE PUSH1 0x1F NOT PUSH1 0x1F DUP3 ADD AND DUP3 ADD DUP1 PUSH1 0x40 MSTORE POP DUP2 ADD SWAP1 PUSH2 0x1F6D SWAP2 SWAP1 PUSH2 0x40B2 JUMP JUMPDEST SWAP1 POP DUP1 PUSH2 0x1FAF JUMPI PUSH1 0x40 MLOAD PUSH32 0x8C379A000000000000000000000000000000000000000000000000000000000 DUP2 MSTORE PUSH1 0x4 ADD PUSH2 0x1FA6 SWAP1 PUSH2 0x4B2F JUMP JUMPDEST PUSH1 0x40 MLOAD DUP1 SWAP2 SUB SWAP1 REVERT JUMPDEST PUSH1 0x0 PUSH3 0x278D00 DUP6 PUSH2 0x1FC0 SWAP2 SWAP1 PUSH2 0x480E JUMP JUMPDEST SWAP1 POP PUSH1 0x0 TIMESTAMP SWAP1 POP PUSH1 0x0 PUSH1 0x11 PUSH1 0x0 DUP11 DUP2 MSTORE PUSH1 0x20 ADD SWAP1 DUP2 MSTORE PUSH1 0x20 ADD PUSH1 0x0 KECCAK256 SWAP1 POP DUP2 PUSH8 0xFFFFFFFFFFFFFFFF AND DUP2 PUSH1 0x0 ADD PUSH1 0x14 SWAP1 SLOAD SWAP1 PUSH2 0x100 EXP SWAP1 DIV PUSH8 0xFFFFFFFFFFFFFFFF AND PUSH8 0xFFFFFFFFFFFFFFFF AND LT PUSH2 0x204C JUMPI PUSH1 0x40 MLOAD PUSH32 0x8C379A000000000000000000000000000000000000000000000000000000000 DUP2 MSTORE PUSH1 0x4 ADD PUSH2 0x2043 SWAP1 PUSH2 0x4897 JUMP JUMPDEST PUSH1 0x40 MLOAD DUP1 SWAP2 SUB SWAP1 REVERT JUMPDEST DUP8 DUP2 PUSH1 0x0 ADD PUSH1 0x0 PUSH2 0x100 EXP DUP2 SLOAD DUP2 PUSH20 0xFFFFFFFFFFFFFFFFFFFFFFFFFFFFFFFFFFFFFFFF MUL NOT AND SWAP1 DUP4 PUSH20 0xFFFFFFFFFFFFFFFFFFFFFFFFFFFFFFFFFFFFFFFF AND MUL OR SWAP1 SSTORE POP DUP2 DUP4 PUSH2 0x209B SWAP2 SWAP1 PUSH2 0x48B7 JUMP JUMPDEST DUP2 PUSH1 0x0 ADD PUSH1 0x14 PUSH2 0x100 EXP DUP2 SLOAD DUP2 PUSH8 0xFFFFFFFFFFFFFFFF MUL NOT AND SWAP1 DUP4 PUSH8 0xFFFFFFFFFFFFFFFF AND MUL OR SWAP1 SSTORE POP DUP8 PUSH20 0xFFFFFFFFFFFFFFFFFFFFFFFFFFFFFFFFFFFFFFFF AND DUP10 PUSH32 0x4E06B4E7000E659094299B3533B47B6AA8AD048E95E872D23D1F4EE55AF89CFE DUP5 DUP7 PUSH2 0x210A SWAP2 SWAP1 PUSH2 0x48B7 JUMP JUMPDEST PUSH1 0x40 MLOAD PUSH2 0x2117 SWAP2 SWAP1 PUSH2 0x4902 JUMP JUMPDEST PUSH1 0x40 MLOAD DUP1 SWAP2 SUB SWAP1 LOG3 POP POP POP POP POP POP POP POP POP JUMP JUMPDEST PUSH1 0x0 PUSH1 0x5 PUSH1 0x0 DUP5 PUSH20 0xFFFFFFFFFFFFFFFFFFFFFFFFFFFFFFFFFFFFFFFF AND PUSH20 0xFFFFFFFFFFFFFFFFFFFFFFFFFFFFFFFFFFFFFFFF AND DUP2 MSTORE PUSH1 0x20 ADD SWAP1 DUP2 MSTORE PUSH1 0x20 ADD PUSH1 0x0 KECCAK256 PUSH1 0x0 DUP4 PUSH20 0xFFFFFFFFFFFFFFFFFFFFFFFFFFFFFFFFFFFFFFFF AND PUSH20 0xFFFFFFFFFFFFFFFFFFFFFFFFFFFFFFFFFFFFFFFF AND DUP2 MSTORE PUSH1 0x20 ADD SWAP1 DUP2 MSTORE PUSH1 0x20 ADD PUSH1 0x0 KECCAK256 PUSH1 0x0 SWAP1 SLOAD SWAP1 PUSH2 0x100 EXP SWAP1 DIV PUSH1 0xFF AND SWAP1 POP SWAP3 SWAP2 POP POP JUMP JUMPDEST PUSH2 0x21C6 PUSH2 0x27C3 JUMP JUMPDEST PUSH1 0x0 PUSH20 0xFFFFFFFFFFFFFFFFFFFFFFFFFFFFFFFFFFFFFFFF AND DUP2 PUSH20 0xFFFFFFFFFFFFFFFFFFFFFFFFFFFFFFFFFFFFFFFF AND SUB PUSH2 0x2235 JUMPI PUSH1 0x40 MLOAD PUSH32 0x8C379A000000000000000000000000000000000000000000000000000000000 DUP2 MSTORE PUSH1 0x4 ADD PUSH2 0x222C SWAP1 PUSH2 0x4BC1 JUMP JUMPDEST PUSH1 0x40 MLOAD DUP1 SWAP2 SUB SWAP1 REVERT JUMPDEST PUSH2 0x223E DUP2 PUSH2 0x28F5 JUMP JUMPDEST POP JUMP JUMPDEST PUSH1 0xB SLOAD DUP2 JUMP JUMPDEST PUSH1 0x0 PUSH32 0x80AC58CD00000000000000000000000000000000000000000000000000000000 PUSH28 0xFFFFFFFFFFFFFFFFFFFFFFFFFFFFFFFFFFFFFFFFFFFFFFFFFFFFFFFF NOT AND DUP3 PUSH28 0xFFFFFFFFFFFFFFFFFFFFFFFFFFFFFFFFFFFFFFFFFFFFFFFFFFFFFFFF NOT AND EQ DUP1 PUSH2 0x2312 JUMPI POP PUSH32 0x5B5E139F00000000000000000000000000000000000000000000000000000000 PUSH28 0xFFFFFFFFFFFFFFFFFFFFFFFFFFFFFFFFFFFFFFFFFFFFFFFFFFFFFFFF NOT AND DUP3 PUSH28 0xFFFFFFFFFFFFFFFFFFFFFFFFFFFFFFFFFFFFFFFFFFFFFFFFFFFFFFFF NOT AND EQ JUMPDEST DUP1 PUSH2 0x2322 JUMPI POP PUSH2 0x2321 DUP3 PUSH2 0x2D24 JUMP JUMPDEST JUMPDEST SWAP1 POP SWAP2 SWAP1 POP JUMP JUMPDEST PUSH2 0x2332 DUP2 PUSH2 0x2B83 JUMP JUMPDEST PUSH2 0x2371 JUMPI PUSH1 0x40 MLOAD PUSH32 0x8C379A000000000000000000000000000000000000000000000000000000000 DUP2 MSTORE PUSH1 0x4 ADD PUSH2 0x2368 SWAP1 PUSH2 0x4586 JUMP JUMPDEST PUSH1 0x40 MLOAD DUP1 SWAP2 SUB SWAP1 REVERT JUMPDEST POP JUMP JUMPDEST PUSH1 0x0 CALLER SWAP1 POP SWAP1 JUMP JUMPDEST DUP2 PUSH1 0x4 PUSH1 0x0 DUP4 DUP2 MSTORE PUSH1 0x20 ADD SWAP1 DUP2 MSTORE PUSH1 0x20 ADD PUSH1 0x0 KECCAK256 PUSH1 0x0 PUSH2 0x100 EXP DUP2 SLOAD DUP2 PUSH20 0xFFFFFFFFFFFFFFFFFFFFFFFFFFFFFFFFFFFFFFFF MUL NOT AND SWAP1 DUP4 PUSH20 0xFFFFFFFFFFFFFFFFFFFFFFFFFFFFFFFFFFFFFFFF AND MUL OR SWAP1 SSTORE POP DUP1 DUP3 PUSH20 0xFFFFFFFFFFFFFFFFFFFFFFFFFFFFFFFFFFFFFFFF AND PUSH2 0x23EF DUP4 PUSH2 0x138C JUMP JUMPDEST PUSH20 0xFFFFFFFFFFFFFFFFFFFFFFFFFFFFFFFFFFFFFFFF AND PUSH32 0x8C5BE1E5EBEC7D5BD14F71427D1E84F3DD0314C0F7B2291E5B200AC8C7C3B925 PUSH1 0x40 MLOAD PUSH1 0x40 MLOAD DUP1 SWAP2 SUB SWAP1 LOG4 POP POP JUMP JUMPDEST PUSH1 0x0 DUP1 PUSH2 0x2441 DUP4 PUSH2 0x138C JUMP JUMPDEST SWAP1 POP DUP1 PUSH20 0xFFFFFFFFFFFFFFFFFFFFFFFFFFFFFFFFFFFFFFFF AND DUP5 PUSH20 0xFFFFFFFFFFFFFFFFFFFFFFFFFFFFFFFFFFFFFFFF AND EQ DUP1 PUSH2 0x2483 JUMPI POP PUSH2 0x2482 DUP2 DUP6 PUSH2 0x212A JUMP JUMPDEST JUMPDEST DUP1 PUSH2 0x24C1 JUMPI POP DUP4 PUSH20 0xFFFFFFFFFFFFFFFFFFFFFFFFFFFFFFFFFFFFFFFF AND PUSH2 0x24A9 DUP5 PUSH2 0x9F5 JUMP JUMPDEST PUSH20 0xFFFFFFFFFFFFFFFFFFFFFFFFFFFFFFFFFFFFFFFF AND EQ JUMPDEST SWAP2 POP POP SWAP3 SWAP2 POP POP JUMP JUMPDEST DUP3 PUSH20 0xFFFFFFFFFFFFFFFFFFFFFFFFFFFFFFFFFFFFFFFF AND PUSH2 0x24EA DUP3 PUSH2 0x138C JUMP JUMPDEST PUSH20 0xFFFFFFFFFFFFFFFFFFFFFFFFFFFFFFFFFFFFFFFF AND EQ PUSH2 0x2540 JUMPI PUSH1 0x40 MLOAD PUSH32 0x8C379A000000000000000000000000000000000000000000000000000000000 DUP2 MSTORE PUSH1 0x4 ADD PUSH2 0x2537 SWAP1 PUSH2 0x4C53 JUMP JUMPDEST PUSH1 0x40 MLOAD DUP1 SWAP2 SUB SWAP1 REVERT JUMPDEST PUSH1 0x0 PUSH20 0xFFFFFFFFFFFFFFFFFFFFFFFFFFFFFFFFFFFFFFFF AND DUP3 PUSH20 0xFFFFFFFFFFFFFFFFFFFFFFFFFFFFFFFFFFFFFFFF AND SUB PUSH2 0x25AF JUMPI PUSH1 0x40 MLOAD PUSH32 0x8C379A000000000000000000000000000000000000000000000000000000000 DUP2 MSTORE PUSH1 0x4 ADD PUSH2 0x25A6 SWAP1 PUSH2 0x4CE5 JUMP JUMPDEST PUSH1 0x40 MLOAD DUP1 SWAP2 SUB SWAP1 REVERT JUMPDEST PUSH2 0x25BC DUP4 DUP4 DUP4 PUSH1 0x1 PUSH2 0x2D8E JUMP JUMPDEST DUP3 PUSH20 0xFFFFFFFFFFFFFFFFFFFFFFFFFFFFFFFFFFFFFFFF AND PUSH2 0x25DC DUP3 PUSH2 0x138C JUMP JUMPDEST PUSH20 0xFFFFFFFFFFFFFFFFFFFFFFFFFFFFFFFFFFFFFFFF AND EQ PUSH2 0x2632 JUMPI PUSH1 0x40 MLOAD PUSH32 0x8C379A000000000000000000000000000000000000000000000000000000000 DUP2 MSTORE PUSH1 0x4 ADD PUSH2 0x2629 SWAP1 PUSH2 0x4C53 JUMP JUMPDEST PUSH1 0x40 MLOAD DUP1 SWAP2 SUB SWAP1 REVERT JUMPDEST PUSH1 0x4 PUSH1 0x0 DUP3 DUP2 MSTORE PUSH1 0x20 ADD SWAP1 DUP2 MSTORE PUSH1 0x20 ADD PUSH1 0x0 KECCAK256 PUSH1 0x0 PUSH2 0x100 EXP DUP2 SLOAD SWAP1 PUSH20 0xFFFFFFFFFFFFFFFFFFFFFFFFFFFFFFFFFFFFFFFF MUL NOT AND SWAP1 SSTORE PUSH1 0x1 PUSH1 0x3 PUSH1 0x0 DUP6 PUSH20 0xFFFFFFFFFFFFFFFFFFFFFFFFFFFFFFFFFFFFFFFF AND PUSH20 0xFFFFFFFFFFFFFFFFFFFFFFFFFFFFFFFFFFFFFFFF AND DUP2 MSTORE PUSH1 0x20 ADD SWAP1 DUP2 MSTORE PUSH1 0x20 ADD PUSH1 0x0 KECCAK256 PUSH1 0x0 DUP3 DUP3 SLOAD SUB SWAP3 POP POP DUP2 SWAP1 SSTORE POP PUSH1 0x1 PUSH1 0x3 PUSH1 0x0 DUP5 PUSH20 0xFFFFFFFFFFFFFFFFFFFFFFFFFFFFFFFFFFFFFFFF AND PUSH20 0xFFFFFFFFFFFFFFFFFFFFFFFFFFFFFFFFFFFFFFFF AND DUP2 MSTORE PUSH1 0x20 ADD SWAP1 DUP2 MSTORE PUSH1 0x20 ADD PUSH1 0x0 KECCAK256 PUSH1 0x0 DUP3 DUP3 SLOAD ADD SWAP3 POP POP DUP2 SWAP1 SSTORE POP DUP2 PUSH1 0x2 PUSH1 0x0 DUP4 DUP2 MSTORE PUSH1 0x20 ADD SWAP1 DUP2 MSTORE PUSH1 0x20 ADD PUSH1 0x0 KECCAK256 PUSH1 0x0 PUSH2 0x100 EXP DUP2 SLOAD DUP2 PUSH20 0xFFFFFFFFFFFFFFFFFFFFFFFFFFFFFFFFFFFFFFFF MUL NOT AND SWAP1 DUP4 PUSH20 0xFFFFFFFFFFFFFFFFFFFFFFFFFFFFFFFFFFFFFFFF AND MUL OR SWAP1 SSTORE POP DUP1 DUP3 PUSH20 0xFFFFFFFFFFFFFFFFFFFFFFFFFFFFFFFFFFFFFFFF AND DUP5 PUSH20 0xFFFFFFFFFFFFFFFFFFFFFFFFFFFFFFFFFFFFFFFF AND PUSH32 0xDDF252AD1BE2C89B69C2B068FC378DAA952BA7F163C4A11628F55A4DF523B3EF PUSH1 0x40 MLOAD PUSH1 0x40 MLOAD DUP1 SWAP2 SUB SWAP1 LOG4 PUSH2 0x27BE DUP4 DUP4 DUP4 PUSH1 0x1 PUSH2 0x2E3A JUMP JUMPDEST POP POP POP JUMP JUMPDEST PUSH2 0x27CB PUSH2 0x2374 JUMP JUMPDEST PUSH20 0xFFFFFFFFFFFFFFFFFFFFFFFFFFFFFFFFFFFFFFFF AND PUSH2 0x27E9 PUSH2 0x1870 JUMP JUMPDEST PUSH20 0xFFFFFFFFFFFFFFFFFFFFFFFFFFFFFFFFFFFFFFFF AND EQ PUSH2 0x283F JUMPI PUSH1 0x40 MLOAD PUSH32 0x8C379A000000000000000000000000000000000000000000000000000000000 DUP2 MSTORE PUSH1 0x4 ADD PUSH2 0x2836 SWAP1 PUSH2 0x4D51 JUMP JUMPDEST PUSH1 0x40 MLOAD DUP1 SWAP2 SUB SWAP1 REVERT JUMPDEST JUMP JUMPDEST PUSH1 0x2 PUSH1 0x7 SLOAD SUB PUSH2 0x2886 JUMPI PUSH1 0x40 MLOAD PUSH32 0x8C379A000000000000000000000000000000000000000000000000000000000 DUP2 MSTORE PUSH1 0x4 ADD PUSH2 0x287D SWAP1 PUSH2 0x4DBD JUMP JUMPDEST PUSH1 0x40 MLOAD DUP1 SWAP2 SUB SWAP1 REVERT JUMPDEST PUSH1 0x2 PUSH1 0x7 DUP2 SWAP1 SSTORE POP JUMP JUMPDEST PUSH1 0x1 PUSH1 0x7 DUP2 SWAP1 SSTORE POP JUMP JUMPDEST PUSH2 0x28B4 DUP3 DUP3 PUSH1 0x40 MLOAD DUP1 PUSH1 0x20 ADD PUSH1 0x40 MSTORE DUP1 PUSH1 0x0 DUP2 MSTORE POP PUSH2 0x2E40 JUMP JUMPDEST POP POP JUMP JUMPDEST PUSH1 0x0 PUSH1 0x2 PUSH1 0x0 DUP4 DUP2 MSTORE PUSH1 0x20 ADD SWAP1 DUP2 MSTORE PUSH1 0x20 ADD PUSH1 0x0 KECCAK256 PUSH1 0x0 SWAP1 SLOAD SWAP1 PUSH2 0x100 EXP SWAP1 DIV PUSH20 0xFFFFFFFFFFFFFFFFFFFFFFFFFFFFFFFFFFFFFFFF AND SWAP1 POP SWAP2 SWAP1 POP JUMP JUMPDEST PUSH1 0x0 PUSH1 0x6 PUSH1 0x0 SWAP1 SLOAD SWAP1 PUSH2 0x100 EXP SWAP1 DIV PUSH20 0xFFFFFFFFFFFFFFFFFFFFFFFFFFFFFFFFFFFFFFFF AND SWAP1 POP DUP2 PUSH1 0x6 PUSH1 0x0 PUSH2 0x100 EXP DUP2 SLOAD DUP2 PUSH20 0xFFFFFFFFFFFFFFFFFFFFFFFFFFFFFFFFFFFFFFFF MUL NOT AND SWAP1 DUP4 PUSH20 0xFFFFFFFFFFFFFFFFFFFFFFFFFFFFFFFFFFFFFFFF AND MUL OR SWAP1 SSTORE POP DUP2 PUSH20 0xFFFFFFFFFFFFFFFFFFFFFFFFFFFFFFFFFFFFFFFF AND DUP2 PUSH20 0xFFFFFFFFFFFFFFFFFFFFFFFFFFFFFFFFFFFFFFFF AND PUSH32 0x8BE0079C531659141344CD1FD0A4F28419497F9722A3DAAFE3B4186F6B6457E0 PUSH1 0x40 MLOAD PUSH1 0x40 MLOAD DUP1 SWAP2 SUB SWAP1 LOG3 POP POP JUMP JUMPDEST DUP2 PUSH20 0xFFFFFFFFFFFFFFFFFFFFFFFFFFFFFFFFFFFFFFFF AND DUP4 PUSH20 0xFFFFFFFFFFFFFFFFFFFFFFFFFFFFFFFFFFFFFFFF AND SUB PUSH2 0x2A29 JUMPI PUSH1 0x40 MLOAD PUSH32 0x8C379A000000000000000000000000000000000000000000000000000000000 DUP2 MSTORE PUSH1 0x4 ADD PUSH2 0x2A20 SWAP1 PUSH2 0x4E29 JUMP JUMPDEST PUSH1 0x40 MLOAD DUP1 SWAP2 SUB SWAP1 REVERT JUMPDEST DUP1 PUSH1 0x5 PUSH1 0x0 DUP6 PUSH20 0xFFFFFFFFFFFFFFFFFFFFFFFFFFFFFFFFFFFFFFFF AND PUSH20 0xFFFFFFFFFFFFFFFFFFFFFFFFFFFFFFFFFFFFFFFF AND DUP2 MSTORE PUSH1 0x20 ADD SWAP1 DUP2 MSTORE PUSH1 0x20 ADD PUSH1 0x0 KECCAK256 PUSH1 0x0 DUP5 PUSH20 0xFFFFFFFFFFFFFFFFFFFFFFFFFFFFFFFFFFFFFFFF AND PUSH20 0xFFFFFFFFFFFFFFFFFFFFFFFFFFFFFFFFFFFFFFFF AND DUP2 MSTORE PUSH1 0x20 ADD SWAP1 DUP2 MSTORE PUSH1 0x20 ADD PUSH1 0x0 KECCAK256 PUSH1 0x0 PUSH2 0x100 EXP DUP2 SLOAD DUP2 PUSH1 0xFF MUL NOT AND SWAP1 DUP4 ISZERO ISZERO MUL OR SWAP1 SSTORE POP DUP2 PUSH20 0xFFFFFFFFFFFFFFFFFFFFFFFFFFFFFFFFFFFFFFFF AND DUP4 PUSH20 0xFFFFFFFFFFFFFFFFFFFFFFFFFFFFFFFFFFFFFFFF AND PUSH32 0x17307EAB39AB6107E8899845AD3D59BD9653F200F220920489CA2B5937696C31 DUP4 PUSH1 0x40 MLOAD PUSH2 0x2B1A SWAP2 SWAP1 PUSH2 0x3469 JUMP JUMPDEST PUSH1 0x40 MLOAD DUP1 SWAP2 SUB SWAP1 LOG3 POP POP POP JUMP JUMPDEST PUSH2 0x2B32 DUP5 DUP5 DUP5 PUSH2 0x24CA JUMP JUMPDEST PUSH2 0x2B3E DUP5 DUP5 DUP5 DUP5 PUSH2 0x2E9B JUMP JUMPDEST PUSH2 0x2B7D JUMPI PUSH1 0x40 MLOAD PUSH32 0x8C379A000000000000000000000000000000000000000000000000000000000 DUP2 MSTORE PUSH1 0x4 ADD PUSH2 0x2B74 SWAP1 PUSH2 0x4EBB JUMP JUMPDEST PUSH1 0x40 MLOAD DUP1 SWAP2 SUB SWAP1 REVERT JUMPDEST POP POP POP POP JUMP JUMPDEST PUSH1 0x0 DUP1 PUSH20 0xFFFFFFFFFFFFFFFFFFFFFFFFFFFFFFFFFFFFFFFF AND PUSH2 0x2BA5 DUP4 PUSH2 0x28B8 JUMP JUMPDEST PUSH20 0xFFFFFFFFFFFFFFFFFFFFFFFFFFFFFFFFFFFFFFFF AND EQ ISZERO SWAP1 POP SWAP2 SWAP1 POP JUMP JUMPDEST PUSH1 0x60 PUSH1 0xD DUP1 SLOAD PUSH2 0x2BD3 SWAP1 PUSH2 0x3C7B JUMP JUMPDEST DUP1 PUSH1 0x1F ADD PUSH1 0x20 DUP1 SWAP2 DIV MUL PUSH1 0x20 ADD PUSH1 0x40 MLOAD SWAP1 DUP2 ADD PUSH1 0x40 MSTORE DUP1 SWAP3 SWAP2 SWAP1 DUP2 DUP2 MSTORE PUSH1 0x20 ADD DUP3 DUP1 SLOAD PUSH2 0x2BFF SWAP1 PUSH2 0x3C7B JUMP JUMPDEST DUP1 ISZERO PUSH2 0x2C4C JUMPI DUP1 PUSH1 0x1F LT PUSH2 0x2C21 JUMPI PUSH2 0x100 DUP1 DUP4 SLOAD DIV MUL DUP4 MSTORE SWAP2 PUSH1 0x20 ADD SWAP2 PUSH2 0x2C4C JUMP JUMPDEST DUP3 ADD SWAP2 SWAP1 PUSH1 0x0 MSTORE PUSH1 0x20 PUSH1 0x0 KECCAK256 SWAP1 JUMPDEST DUP2 SLOAD DUP2 MSTORE SWAP1 PUSH1 0x1 ADD SWAP1 PUSH1 0x20 ADD DUP1 DUP4 GT PUSH2 0x2C2F JUMPI DUP3 SWAP1 SUB PUSH1 0x1F AND DUP3 ADD SWAP2 JUMPDEST POP POP POP POP POP SWAP1 POP SWAP1 JUMP JUMPDEST PUSH1 0x60 PUSH1 0x0 PUSH1 0x1 PUSH2 0x2C65 DUP5 PUSH2 0x3022 JUMP JUMPDEST ADD SWAP1 POP PUSH1 0x0 DUP2 PUSH8 0xFFFFFFFFFFFFFFFF DUP2 GT ISZERO PUSH2 0x2C84 JUMPI PUSH2 0x2C83 PUSH2 0x36E8 JUMP JUMPDEST JUMPDEST PUSH1 0x40 MLOAD SWAP1 DUP1 DUP3 MSTORE DUP1 PUSH1 0x1F ADD PUSH1 0x1F NOT AND PUSH1 0x20 ADD DUP3 ADD PUSH1 0x40 MSTORE DUP1 ISZERO PUSH2 0x2CB6 JUMPI DUP2 PUSH1 0x20 ADD PUSH1 0x1 DUP3 MUL DUP1 CALLDATASIZE DUP4 CALLDATACOPY DUP1 DUP3 ADD SWAP2 POP POP SWAP1 POP JUMPDEST POP SWAP1 POP PUSH1 0x0 DUP3 PUSH1 0x20 ADD DUP3 ADD SWAP1 POP JUMPDEST PUSH1 0x1 ISZERO PUSH2 0x2D19 JUMPI DUP1 DUP1 PUSH1 0x1 SWAP1 SUB SWAP2 POP POP PUSH32 0x3031323334353637383961626364656600000000000000000000000000000000 PUSH1 0xA DUP7 MOD BYTE DUP2 MSTORE8 PUSH1 0xA DUP6 DUP2 PUSH2 0x2D0D JUMPI PUSH2 0x2D0C PUSH2 0x3F10 JUMP JUMPDEST JUMPDEST DIV SWAP5 POP PUSH1 0x0 DUP6 SUB PUSH2 0x2CC4 JUMPI JUMPDEST DUP2 SWAP4 POP POP POP POP SWAP2 SWAP1 POP JUMP JUMPDEST PUSH1 0x0 PUSH32 0x1FFC9A700000000000000000000000000000000000000000000000000000000 PUSH28 0xFFFFFFFFFFFFFFFFFFFFFFFFFFFFFFFFFFFFFFFFFFFFFFFFFFFFFFFF NOT AND DUP3 PUSH28 0xFFFFFFFFFFFFFFFFFFFFFFFFFFFFFFFFFFFFFFFFFFFFFFFFFFFFFFFF NOT AND EQ SWAP1 POP SWAP2 SWAP1 POP JUMP JUMPDEST PUSH1 0x0 PUSH20 0xFFFFFFFFFFFFFFFFFFFFFFFFFFFFFFFFFFFFFFFF AND DUP5 PUSH20 0xFFFFFFFFFFFFFFFFFFFFFFFFFFFFFFFFFFFFFFFF AND EQ DUP1 PUSH2 0x2DF5 JUMPI POP PUSH1 0x0 PUSH20 0xFFFFFFFFFFFFFFFFFFFFFFFFFFFFFFFFFFFFFFFF AND DUP4 PUSH20 0xFFFFFFFFFFFFFFFFFFFFFFFFFFFFFFFFFFFFFFFF AND EQ JUMPDEST PUSH2 0x2E34 JUMPI PUSH1 0x40 MLOAD PUSH32 0x8C379A000000000000000000000000000000000000000000000000000000000 DUP2 MSTORE PUSH1 0x4 ADD PUSH2 0x2E2B SWAP1 PUSH2 0x4F27 JUMP JUMPDEST PUSH1 0x40 MLOAD DUP1 SWAP2 SUB SWAP1 REVERT JUMPDEST POP POP POP POP JUMP JUMPDEST POP POP POP POP JUMP JUMPDEST PUSH2 0x2E4A DUP4 DUP4 PUSH2 0x3175 JUMP JUMPDEST PUSH2 0x2E57 PUSH1 0x0 DUP5 DUP5 DUP5 PUSH2 0x2E9B JUMP JUMPDEST PUSH2 0x2E96 JUMPI PUSH1 0x40 MLOAD PUSH32 0x8C379A000000000000000000000000000000000000000000000000000000000 DUP2 MSTORE PUSH1 0x4 ADD PUSH2 0x2E8D SWAP1 PUSH2 0x4EBB JUMP JUMPDEST PUSH1 0x40 MLOAD DUP1 SWAP2 SUB SWAP1 REVERT JUMPDEST POP POP POP JUMP JUMPDEST PUSH1 0x0 PUSH2 0x2EBC DUP5 PUSH20 0xFFFFFFFFFFFFFFFFFFFFFFFFFFFFFFFFFFFFFFFF AND PUSH2 0x3392 JUMP JUMPDEST ISZERO PUSH2 0x3015 JUMPI DUP4 PUSH20 0xFFFFFFFFFFFFFFFFFFFFFFFFFFFFFFFFFFFFFFFF AND PUSH4 0x150B7A02 PUSH2 0x2EE5 PUSH2 0x2374 JUMP JUMPDEST DUP8 DUP7 DUP7 PUSH1 0x40 MLOAD DUP6 PUSH4 0xFFFFFFFF AND PUSH1 0xE0 SHL DUP2 MSTORE PUSH1 0x4 ADD PUSH2 0x2F07 SWAP5 SWAP4 SWAP3 SWAP2 SWAP1 PUSH2 0x4F9C JUMP JUMPDEST PUSH1 0x20 PUSH1 0x40 MLOAD DUP1 DUP4 SUB DUP2 PUSH1 0x0 DUP8 GAS CALL SWAP3 POP POP POP DUP1 ISZERO PUSH2 0x2F43 JUMPI POP PUSH1 0x40 MLOAD RETURNDATASIZE PUSH1 0x1F NOT PUSH1 0x1F DUP3 ADD AND DUP3 ADD DUP1 PUSH1 0x40 MSTORE POP DUP2 ADD SWAP1 PUSH2 0x2F40 SWAP2 SWAP1 PUSH2 0x4FFD JUMP JUMPDEST PUSH1 0x1 JUMPDEST PUSH2 0x2FC5 JUMPI RETURNDATASIZE DUP1 PUSH1 0x0 DUP2 EQ PUSH2 0x2F73 JUMPI PUSH1 0x40 MLOAD SWAP2 POP PUSH1 0x1F NOT PUSH1 0x3F RETURNDATASIZE ADD AND DUP3 ADD PUSH1 0x40 MSTORE RETURNDATASIZE DUP3 MSTORE RETURNDATASIZE PUSH1 0x0 PUSH1 0x20 DUP5 ADD RETURNDATACOPY PUSH2 0x2F78 JUMP JUMPDEST PUSH1 0x60 SWAP2 POP JUMPDEST POP PUSH1 0x0 DUP2 MLOAD SUB PUSH2 0x2FBD JUMPI PUSH1 0x40 MLOAD PUSH32 0x8C379A000000000000000000000000000000000000000000000000000000000 DUP2 MSTORE PUSH1 0x4 ADD PUSH2 0x2FB4 SWAP1 PUSH2 0x4EBB JUMP JUMPDEST PUSH1 0x40 MLOAD DUP1 SWAP2 SUB SWAP1 REVERT JUMPDEST DUP1 MLOAD DUP2 PUSH1 0x20 ADD REVERT JUMPDEST PUSH4 0x150B7A02 PUSH1 0xE0 SHL PUSH28 0xFFFFFFFFFFFFFFFFFFFFFFFFFFFFFFFFFFFFFFFFFFFFFFFFFFFFFFFF NOT AND DUP2 PUSH28 0xFFFFFFFFFFFFFFFFFFFFFFFFFFFFFFFFFFFFFFFFFFFFFFFFFFFFFFFF NOT AND EQ SWAP2 POP POP PUSH2 0x301A JUMP JUMPDEST PUSH1 0x1 SWAP1 POP JUMPDEST SWAP5 SWAP4 POP POP POP POP JUMP JUMPDEST PUSH1 0x0 DUP1 PUSH1 0x0 SWAP1 POP PUSH27 0x184F03E93FF9F4DAA797ED6E38ED64BF6A1F010000000000000000 DUP4 LT PUSH2 0x3080 JUMPI PUSH27 0x184F03E93FF9F4DAA797ED6E38ED64BF6A1F010000000000000000 DUP4 DUP2 PUSH2 0x3076 JUMPI PUSH2 0x3075 PUSH2 0x3F10 JUMP JUMPDEST JUMPDEST DIV SWAP3 POP PUSH1 0x40 DUP2 ADD SWAP1 POP JUMPDEST PUSH14 0x4EE2D6D415B85ACEF8100000000 DUP4 LT PUSH2 0x30BD JUMPI PUSH14 0x4EE2D6D415B85ACEF8100000000 DUP4 DUP2 PUSH2 0x30B3 JUMPI PUSH2 0x30B2 PUSH2 0x3F10 JUMP JUMPDEST JUMPDEST DIV SWAP3 POP PUSH1 0x20 DUP2 ADD SWAP1 POP JUMPDEST PUSH7 0x2386F26FC10000 DUP4 LT PUSH2 0x30EC JUMPI PUSH7 0x2386F26FC10000 DUP4 DUP2 PUSH2 0x30E2 JUMPI PUSH2 0x30E1 PUSH2 0x3F10 JUMP JUMPDEST JUMPDEST DIV SWAP3 POP PUSH1 0x10 DUP2 ADD SWAP1 POP JUMPDEST PUSH4 0x5F5E100 DUP4 LT PUSH2 0x3115 JUMPI PUSH4 0x5F5E100 DUP4 DUP2 PUSH2 0x310B JUMPI PUSH2 0x310A PUSH2 0x3F10 JUMP JUMPDEST JUMPDEST DIV SWAP3 POP PUSH1 0x8 DUP2 ADD SWAP1 POP JUMPDEST PUSH2 0x2710 DUP4 LT PUSH2 0x313A JUMPI PUSH2 0x2710 DUP4 DUP2 PUSH2 0x3130 JUMPI PUSH2 0x312F PUSH2 0x3F10 JUMP JUMPDEST JUMPDEST DIV SWAP3 POP PUSH1 0x4 DUP2 ADD SWAP1 POP JUMPDEST PUSH1 0x64 DUP4 LT PUSH2 0x315D JUMPI PUSH1 0x64 DUP4 DUP2 PUSH2 0x3153 JUMPI PUSH2 0x3152 PUSH2 0x3F10 JUMP JUMPDEST JUMPDEST DIV SWAP3 POP PUSH1 0x2 DUP2 ADD SWAP1 POP JUMPDEST PUSH1 0xA DUP4 LT PUSH2 0x316C JUMPI PUSH1 0x1 DUP2 ADD SWAP1 POP JUMPDEST DUP1 SWAP2 POP POP SWAP2 SWAP1 POP JUMP JUMPDEST PUSH1 0x0 PUSH20 0xFFFFFFFFFFFFFFFFFFFFFFFFFFFFFFFFFFFFFFFF AND DUP3 PUSH20 0xFFFFFFFFFFFFFFFFFFFFFFFFFFFFFFFFFFFFFFFF AND SUB PUSH2 0x31E4 JUMPI PUSH1 0x40 MLOAD PUSH32 0x8C379A000000000000000000000000000000000000000000000000000000000 DUP2 MSTORE PUSH1 0x4 ADD PUSH2 0x31DB SWAP1 PUSH2 0x5076 JUMP JUMPDEST PUSH1 0x40 MLOAD DUP1 SWAP2 SUB SWAP1 REVERT JUMPDEST PUSH2 0x31ED DUP2 PUSH2 0x2B83 JUMP JUMPDEST ISZERO PUSH2 0x322D JUMPI PUSH1 0x40 MLOAD PUSH32 0x8C379A000000000000000000000000000000000000000000000000000000000 DUP2 MSTORE PUSH1 0x4 ADD PUSH2 0x3224 SWAP1 PUSH2 0x50E2 JUMP JUMPDEST PUSH1 0x40 MLOAD DUP1 SWAP2 SUB SWAP1 REVERT JUMPDEST PUSH2 0x323B PUSH1 0x0 DUP4 DUP4 PUSH1 0x1 PUSH2 0x2D8E JUMP JUMPDEST PUSH2 0x3244 DUP2 PUSH2 0x2B83 JUMP JUMPDEST ISZERO PUSH2 0x3284 JUMPI PUSH1 0x40 MLOAD PUSH32 0x8C379A000000000000000000000000000000000000000000000000000000000 DUP2 MSTORE PUSH1 0x4 ADD PUSH2 0x327B SWAP1 PUSH2 0x50E2 JUMP JUMPDEST PUSH1 0x40 MLOAD DUP1 SWAP2 SUB SWAP1 REVERT JUMPDEST PUSH1 0x1 PUSH1 0x3 PUSH1 0x0 DUP5 PUSH20 0xFFFFFFFFFFFFFFFFFFFFFFFFFFFFFFFFFFFFFFFF AND PUSH20 0xFFFFFFFFFFFFFFFFFFFFFFFFFFFFFFFFFFFFFFFF AND DUP2 MSTORE PUSH1 0x20 ADD SWAP1 DUP2 MSTORE PUSH1 0x20 ADD PUSH1 0x0 KECCAK256 PUSH1 0x0 DUP3 DUP3 SLOAD ADD SWAP3 POP POP DUP2 SWAP1 SSTORE POP DUP2 PUSH1 0x2 PUSH1 0x0 DUP4 DUP2 MSTORE PUSH1 0x20 ADD SWAP1 DUP2 MSTORE PUSH1 0x20 ADD PUSH1 0x0 KECCAK256 PUSH1 0x0 PUSH2 0x100 EXP DUP2 SLOAD DUP2 PUSH20 0xFFFFFFFFFFFFFFFFFFFFFFFFFFFFFFFFFFFFFFFF MUL NOT AND SWAP1 DUP4 PUSH20 0xFFFFFFFFFFFFFFFFFFFFFFFFFFFFFFFFFFFFFFFF AND MUL OR SWAP1 SSTORE POP DUP1 DUP3 PUSH20 0xFFFFFFFFFFFFFFFFFFFFFFFFFFFFFFFFFFFFFFFF AND PUSH1 0x0 PUSH20 0xFFFFFFFFFFFFFFFFFFFFFFFFFFFFFFFFFFFFFFFF AND PUSH32 0xDDF252AD1BE2C89B69C2B068FC378DAA952BA7F163C4A11628F55A4DF523B3EF PUSH1 0x40 MLOAD PUSH1 0x40 MLOAD DUP1 SWAP2 SUB SWAP1 LOG4 PUSH2 0x338E PUSH1 0x0 DUP4 DUP4 PUSH1 0x1 PUSH2 0x2E3A JUMP JUMPDEST POP POP JUMP JUMPDEST PUSH1 0x0 DUP1 DUP3 PUSH20 0xFFFFFFFFFFFFFFFFFFFFFFFFFFFFFFFFFFFFFFFF AND EXTCODESIZE GT SWAP1 POP SWAP2 SWAP1 POP JUMP JUMPDEST PUSH1 0x0 PUSH1 0x40 MLOAD SWAP1 POP SWAP1 JUMP JUMPDEST PUSH1 0x0 DUP1 REVERT JUMPDEST PUSH1 0x0 DUP1 REVERT JUMPDEST PUSH1 0x0 PUSH32 0xFFFFFFFF00000000000000000000000000000000000000000000000000000000 DUP3 AND SWAP1 POP SWAP2 SWAP1 POP JUMP JUMPDEST PUSH2 0x33FE DUP2 PUSH2 0x33C9 JUMP JUMPDEST DUP2 EQ PUSH2 0x3409 JUMPI PUSH1 0x0 DUP1 REVERT JUMPDEST POP JUMP JUMPDEST PUSH1 0x0 DUP2 CALLDATALOAD SWAP1 POP PUSH2 0x341B DUP2 PUSH2 0x33F5 JUMP JUMPDEST SWAP3 SWAP2 POP POP JUMP JUMPDEST PUSH1 0x0 PUSH1 0x20 DUP3 DUP5 SUB SLT ISZERO PUSH2 0x3437 JUMPI PUSH2 0x3436 PUSH2 0x33BF JUMP JUMPDEST JUMPDEST PUSH1 0x0 PUSH2 0x3445 DUP5 DUP3 DUP6 ADD PUSH2 0x340C JUMP JUMPDEST SWAP2 POP POP SWAP3 SWAP2 POP POP JUMP JUMPDEST PUSH1 0x0 DUP2 ISZERO ISZERO SWAP1 POP SWAP2 SWAP1 POP JUMP JUMPDEST PUSH2 0x3463 DUP2 PUSH2 0x344E JUMP JUMPDEST DUP3 MSTORE POP POP JUMP JUMPDEST PUSH1 0x0 PUSH1 0x20 DUP3 ADD SWAP1 POP PUSH2 0x347E PUSH1 0x0 DUP4 ADD DUP5 PUSH2 0x345A JUMP JUMPDEST SWAP3 SWAP2 POP POP JUMP JUMPDEST PUSH1 0x0 DUP2 MLOAD SWAP1 POP SWAP2 SWAP1 POP JUMP JUMPDEST PUSH1 0x0 DUP3 DUP3 MSTORE PUSH1 0x20 DUP3 ADD SWAP1 POP SWAP3 SWAP2 POP POP JUMP JUMPDEST PUSH1 0x0 JUMPDEST DUP4 DUP2 LT ISZERO PUSH2 0x34BE JUMPI DUP1 DUP3 ADD MLOAD DUP2 DUP5 ADD MSTORE PUSH1 0x20 DUP2 ADD SWAP1 POP PUSH2 0x34A3 JUMP JUMPDEST PUSH1 0x0 DUP5 DUP5 ADD MSTORE POP POP POP POP JUMP JUMPDEST PUSH1 0x0 PUSH1 0x1F NOT PUSH1 0x1F DUP4 ADD AND SWAP1 POP SWAP2 SWAP1 POP JUMP JUMPDEST PUSH1 0x0 PUSH2 0x34E6 DUP3 PUSH2 0x3484 JUMP JUMPDEST PUSH2 0x34F0 DUP2 DUP6 PUSH2 0x348F JUMP JUMPDEST SWAP4 POP PUSH2 0x3500 DUP2 DUP6 PUSH1 0x20 DUP7 ADD PUSH2 0x34A0 JUMP JUMPDEST PUSH2 0x3509 DUP2 PUSH2 0x34CA JUMP JUMPDEST DUP5 ADD SWAP2 POP POP SWAP3 SWAP2 POP POP JUMP JUMPDEST PUSH1 0x0 PUSH1 0x20 DUP3 ADD SWAP1 POP DUP2 DUP2 SUB PUSH1 0x0 DUP4 ADD MSTORE PUSH2 0x352E DUP2 DUP5 PUSH2 0x34DB JUMP JUMPDEST SWAP1 POP SWAP3 SWAP2 POP POP JUMP JUMPDEST PUSH1 0x0 DUP2 SWAP1 POP SWAP2 SWAP1 POP JUMP JUMPDEST PUSH2 0x3549 DUP2 PUSH2 0x3536 JUMP JUMPDEST DUP2 EQ PUSH2 0x3554 JUMPI PUSH1 0x0 DUP1 REVERT JUMPDEST POP JUMP JUMPDEST PUSH1 0x0 DUP2 CALLDATALOAD SWAP1 POP PUSH2 0x3566 DUP2 PUSH2 0x3540 JUMP JUMPDEST SWAP3 SWAP2 POP POP JUMP JUMPDEST PUSH1 0x0 PUSH1 0x20 DUP3 DUP5 SUB SLT ISZERO PUSH2 0x3582 JUMPI PUSH2 0x3581 PUSH2 0x33BF JUMP JUMPDEST JUMPDEST PUSH1 0x0 PUSH2 0x3590 DUP5 DUP3 DUP6 ADD PUSH2 0x3557 JUMP JUMPDEST SWAP2 POP POP SWAP3 SWAP2 POP POP JUMP JUMPDEST PUSH1 0x0 PUSH20 0xFFFFFFFFFFFFFFFFFFFFFFFFFFFFFFFFFFFFFFFF DUP3 AND SWAP1 POP SWAP2 SWAP1 POP JUMP JUMPDEST PUSH1 0x0 PUSH2 0x35C4 DUP3 PUSH2 0x3599 JUMP JUMPDEST SWAP1 POP SWAP2 SWAP1 POP JUMP JUMPDEST PUSH2 0x35D4 DUP2 PUSH2 0x35B9 JUMP JUMPDEST DUP3 MSTORE POP POP JUMP JUMPDEST PUSH1 0x0 PUSH1 0x20 DUP3 ADD SWAP1 POP PUSH2 0x35EF PUSH1 0x0 DUP4 ADD DUP5 PUSH2 0x35CB JUMP JUMPDEST SWAP3 SWAP2 POP POP JUMP JUMPDEST PUSH2 0x35FE DUP2 PUSH2 0x35B9 JUMP JUMPDEST DUP2 EQ PUSH2 0x3609 JUMPI PUSH1 0x0 DUP1 REVERT JUMPDEST POP JUMP JUMPDEST PUSH1 0x0 DUP2 CALLDATALOAD SWAP1 POP PUSH2 0x361B DUP2 PUSH2 0x35F5 JUMP JUMPDEST SWAP3 SWAP2 POP POP JUMP JUMPDEST PUSH1 0x0 DUP1 PUSH1 0x40 DUP4 DUP6 SUB SLT ISZERO PUSH2 0x3638 JUMPI PUSH2 0x3637 PUSH2 0x33BF JUMP JUMPDEST JUMPDEST PUSH1 0x0 PUSH2 0x3646 DUP6 DUP3 DUP7 ADD PUSH2 0x360C JUMP JUMPDEST SWAP3 POP POP PUSH1 0x20 PUSH2 0x3657 DUP6 DUP3 DUP7 ADD PUSH2 0x3557 JUMP JUMPDEST SWAP2 POP POP SWAP3 POP SWAP3 SWAP1 POP JUMP JUMPDEST PUSH2 0x366A DUP2 PUSH2 0x3536 JUMP JUMPDEST DUP3 MSTORE POP POP JUMP JUMPDEST PUSH1 0x0 PUSH1 0x20 DUP3 ADD SWAP1 POP PUSH2 0x3685 PUSH1 0x0 DUP4 ADD DUP5 PUSH2 0x3661 JUMP JUMPDEST SWAP3 SWAP2 POP POP JUMP JUMPDEST PUSH1 0x0 DUP1 PUSH1 0x0 PUSH1 0x60 DUP5 DUP7 SUB SLT ISZERO PUSH2 0x36A4 JUMPI PUSH2 0x36A3 PUSH2 0x33BF JUMP JUMPDEST JUMPDEST PUSH1 0x0 PUSH2 0x36B2 DUP7 DUP3 DUP8 ADD PUSH2 0x360C JUMP JUMPDEST SWAP4 POP POP PUSH1 0x20 PUSH2 0x36C3 DUP7 DUP3 DUP8 ADD PUSH2 0x360C JUMP JUMPDEST SWAP3 POP POP PUSH1 0x40 PUSH2 0x36D4 DUP7 DUP3 DUP8 ADD PUSH2 0x3557 JUMP JUMPDEST SWAP2 POP POP SWAP3 POP SWAP3 POP SWAP3 JUMP JUMPDEST PUSH1 0x0 DUP1 REVERT JUMPDEST PUSH1 0x0 DUP1 REVERT JUMPDEST PUSH32 0x4E487B7100000000000000000000000000000000000000000000000000000000 PUSH1 0x0 MSTORE PUSH1 0x41 PUSH1 0x4 MSTORE PUSH1 0x24 PUSH1 0x0 REVERT JUMPDEST PUSH2 0x3720 DUP3 PUSH2 0x34CA JUMP JUMPDEST DUP2 ADD DUP2 DUP2 LT PUSH8 0xFFFFFFFFFFFFFFFF DUP3 GT OR ISZERO PUSH2 0x373F JUMPI PUSH2 0x373E PUSH2 0x36E8 JUMP JUMPDEST JUMPDEST DUP1 PUSH1 0x40 MSTORE POP POP POP JUMP JUMPDEST PUSH1 0x0 PUSH2 0x3752 PUSH2 0x33B5 JUMP JUMPDEST SWAP1 POP PUSH2 0x375E DUP3 DUP3 PUSH2 0x3717 JUMP JUMPDEST SWAP2 SWAP1 POP JUMP JUMPDEST PUSH1 0x0 PUSH8 0xFFFFFFFFFFFFFFFF DUP3 GT ISZERO PUSH2 0x377E JUMPI PUSH2 0x377D PUSH2 0x36E8 JUMP JUMPDEST JUMPDEST PUSH2 0x3787 DUP3 PUSH2 0x34CA JUMP JUMPDEST SWAP1 POP PUSH1 0x20 DUP2 ADD SWAP1 POP SWAP2 SWAP1 POP JUMP JUMPDEST DUP3 DUP2 DUP4 CALLDATACOPY PUSH1 0x0 DUP4 DUP4 ADD MSTORE POP POP POP JUMP JUMPDEST PUSH1 0x0 PUSH2 0x37B6 PUSH2 0x37B1 DUP5 PUSH2 0x3763 JUMP JUMPDEST PUSH2 0x3748 JUMP JUMPDEST SWAP1 POP DUP3 DUP2 MSTORE PUSH1 0x20 DUP2 ADD DUP5 DUP5 DUP5 ADD GT ISZERO PUSH2 0x37D2 JUMPI PUSH2 0x37D1 PUSH2 0x36E3 JUMP JUMPDEST JUMPDEST PUSH2 0x37DD DUP5 DUP3 DUP6 PUSH2 0x3794 JUMP JUMPDEST POP SWAP4 SWAP3 POP POP POP JUMP JUMPDEST PUSH1 0x0 DUP3 PUSH1 0x1F DUP4 ADD SLT PUSH2 0x37FA JUMPI PUSH2 0x37F9 PUSH2 0x36DE JUMP JUMPDEST JUMPDEST DUP2 CALLDATALOAD PUSH2 0x380A DUP5 DUP3 PUSH1 0x20 DUP7 ADD PUSH2 0x37A3 JUMP JUMPDEST SWAP2 POP POP SWAP3 SWAP2 POP POP JUMP JUMPDEST PUSH1 0x0 PUSH1 0x20 DUP3 DUP5 SUB SLT ISZERO PUSH2 0x3829 JUMPI PUSH2 0x3828 PUSH2 0x33BF JUMP JUMPDEST JUMPDEST PUSH1 0x0 DUP3 ADD CALLDATALOAD PUSH8 0xFFFFFFFFFFFFFFFF DUP2 GT ISZERO PUSH2 0x3847 JUMPI PUSH2 0x3846 PUSH2 0x33C4 JUMP JUMPDEST JUMPDEST PUSH2 0x3853 DUP5 DUP3 DUP6 ADD PUSH2 0x37E5 JUMP JUMPDEST SWAP2 POP POP SWAP3 SWAP2 POP POP JUMP JUMPDEST PUSH1 0x0 DUP1 PUSH1 0x0 PUSH1 0x60 DUP5 DUP7 SUB SLT ISZERO PUSH2 0x3875 JUMPI PUSH2 0x3874 PUSH2 0x33BF JUMP JUMPDEST JUMPDEST PUSH1 0x0 PUSH2 0x3883 DUP7 DUP3 DUP8 ADD PUSH2 0x3557 JUMP JUMPDEST SWAP4 POP POP PUSH1 0x20 PUSH2 0x3894 DUP7 DUP3 DUP8 ADD PUSH2 0x3557 JUMP JUMPDEST SWAP3 POP POP PUSH1 0x40 PUSH2 0x38A5 DUP7 DUP3 DUP8 ADD PUSH2 0x3557 JUMP JUMPDEST SWAP2 POP POP SWAP3 POP SWAP3 POP SWAP3 JUMP JUMPDEST PUSH1 0x0 PUSH2 0x38BA DUP3 PUSH2 0x3599 JUMP JUMPDEST SWAP1 POP SWAP2 SWAP1 POP JUMP JUMPDEST PUSH2 0x38CA DUP2 PUSH2 0x38AF JUMP JUMPDEST DUP2 EQ PUSH2 0x38D5 JUMPI PUSH1 0x0 DUP1 REVERT JUMPDEST POP JUMP JUMPDEST PUSH1 0x0 DUP2 CALLDATALOAD SWAP1 POP PUSH2 0x38E7 DUP2 PUSH2 0x38C1 JUMP JUMPDEST SWAP3 SWAP2 POP POP JUMP JUMPDEST PUSH1 0x0 PUSH1 0x20 DUP3 DUP5 SUB SLT ISZERO PUSH2 0x3903 JUMPI PUSH2 0x3902 PUSH2 0x33BF JUMP JUMPDEST JUMPDEST PUSH1 0x0 PUSH2 0x3911 DUP5 DUP3 DUP6 ADD PUSH2 0x38D8 JUMP JUMPDEST SWAP2 POP POP SWAP3 SWAP2 POP POP JUMP JUMPDEST PUSH1 0x0 DUP1 PUSH1 0x40 DUP4 DUP6 SUB SLT ISZERO PUSH2 0x3931 JUMPI PUSH2 0x3930 PUSH2 0x33BF JUMP JUMPDEST JUMPDEST PUSH1 0x0 DUP4 ADD CALLDATALOAD PUSH8 0xFFFFFFFFFFFFFFFF DUP2 GT ISZERO PUSH2 0x394F JUMPI PUSH2 0x394E PUSH2 0x33C4 JUMP JUMPDEST JUMPDEST PUSH2 0x395B DUP6 DUP3 DUP7 ADD PUSH2 0x37E5 JUMP JUMPDEST SWAP3 POP POP PUSH1 0x20 DUP4 ADD CALLDATALOAD PUSH8 0xFFFFFFFFFFFFFFFF DUP2 GT ISZERO PUSH2 0x397C JUMPI PUSH2 0x397B PUSH2 0x33C4 JUMP JUMPDEST JUMPDEST PUSH2 0x3988 DUP6 DUP3 DUP7 ADD PUSH2 0x37E5 JUMP JUMPDEST SWAP2 POP POP SWAP3 POP SWAP3 SWAP1 POP JUMP JUMPDEST PUSH2 0x399B DUP2 PUSH2 0x38AF JUMP JUMPDEST DUP3 MSTORE POP POP JUMP JUMPDEST PUSH1 0x0 PUSH1 0x20 DUP3 ADD SWAP1 POP PUSH2 0x39B6 PUSH1 0x0 DUP4 ADD DUP5 PUSH2 0x3992 JUMP JUMPDEST SWAP3 SWAP2 POP POP JUMP JUMPDEST PUSH1 0x0 PUSH1 0x20 DUP3 DUP5 SUB SLT ISZERO PUSH2 0x39D2 JUMPI PUSH2 0x39D1 PUSH2 0x33BF JUMP JUMPDEST JUMPDEST PUSH1 0x0 PUSH2 0x39E0 DUP5 DUP3 DUP6 ADD PUSH2 0x360C JUMP JUMPDEST SWAP2 POP POP SWAP3 SWAP2 POP POP JUMP JUMPDEST PUSH1 0x0 PUSH8 0xFFFFFFFFFFFFFFFF DUP3 AND SWAP1 POP SWAP2 SWAP1 POP JUMP JUMPDEST PUSH2 0x3A06 DUP2 PUSH2 0x39E9 JUMP JUMPDEST DUP2 EQ PUSH2 0x3A11 JUMPI PUSH1 0x0 DUP1 REVERT JUMPDEST POP JUMP JUMPDEST PUSH1 0x0 DUP2 CALLDATALOAD SWAP1 POP PUSH2 0x3A23 DUP2 PUSH2 0x39FD JUMP JUMPDEST SWAP3 SWAP2 POP POP JUMP JUMPDEST PUSH1 0x0 DUP1 PUSH1 0x0 PUSH1 0x60 DUP5 DUP7 SUB SLT ISZERO PUSH2 0x3A42 JUMPI PUSH2 0x3A41 PUSH2 0x33BF JUMP JUMPDEST JUMPDEST PUSH1 0x0 PUSH2 0x3A50 DUP7 DUP3 DUP8 ADD PUSH2 0x3557 JUMP JUMPDEST SWAP4 POP POP PUSH1 0x20 PUSH2 0x3A61 DUP7 DUP3 DUP8 ADD PUSH2 0x360C JUMP JUMPDEST SWAP3 POP POP PUSH1 0x40 PUSH2 0x3A72 DUP7 DUP3 DUP8 ADD PUSH2 0x3A14 JUMP JUMPDEST SWAP2 POP POP SWAP3 POP SWAP3 POP SWAP3 JUMP JUMPDEST PUSH2 0x3A85 DUP2 PUSH2 0x344E JUMP JUMPDEST DUP2 EQ PUSH2 0x3A90 JUMPI PUSH1 0x0 DUP1 REVERT JUMPDEST POP JUMP JUMPDEST PUSH1 0x0 DUP2 CALLDATALOAD SWAP1 POP PUSH2 0x3AA2 DUP2 PUSH2 0x3A7C JUMP JUMPDEST SWAP3 SWAP2 POP POP JUMP JUMPDEST PUSH1 0x0 DUP1 PUSH1 0x40 DUP4 DUP6 SUB SLT ISZERO PUSH2 0x3ABF JUMPI PUSH2 0x3ABE PUSH2 0x33BF JUMP JUMPDEST JUMPDEST PUSH1 0x0 PUSH2 0x3ACD DUP6 DUP3 DUP7 ADD PUSH2 0x360C JUMP JUMPDEST SWAP3 POP POP PUSH1 0x20 PUSH2 0x3ADE DUP6 DUP3 DUP7 ADD PUSH2 0x3A93 JUMP JUMPDEST SWAP2 POP POP SWAP3 POP SWAP3 SWAP1 POP JUMP JUMPDEST PUSH1 0x0 PUSH8 0xFFFFFFFFFFFFFFFF DUP3 GT ISZERO PUSH2 0x3B03 JUMPI PUSH2 0x3B02 PUSH2 0x36E8 JUMP JUMPDEST JUMPDEST PUSH2 0x3B0C DUP3 PUSH2 0x34CA JUMP JUMPDEST SWAP1 POP PUSH1 0x20 DUP2 ADD SWAP1 POP SWAP2 SWAP1 POP JUMP JUMPDEST PUSH1 0x0 PUSH2 0x3B2C PUSH2 0x3B27 DUP5 PUSH2 0x3AE8 JUMP JUMPDEST PUSH2 0x3748 JUMP JUMPDEST SWAP1 POP DUP3 DUP2 MSTORE PUSH1 0x20 DUP2 ADD DUP5 DUP5 DUP5 ADD GT ISZERO PUSH2 0x3B48 JUMPI PUSH2 0x3B47 PUSH2 0x36E3 JUMP JUMPDEST JUMPDEST PUSH2 0x3B53 DUP5 DUP3 DUP6 PUSH2 0x3794 JUMP JUMPDEST POP SWAP4 SWAP3 POP POP POP JUMP JUMPDEST PUSH1 0x0 DUP3 PUSH1 0x1F DUP4 ADD SLT PUSH2 0x3B70 JUMPI PUSH2 0x3B6F PUSH2 0x36DE JUMP JUMPDEST JUMPDEST DUP2 CALLDATALOAD PUSH2 0x3B80 DUP5 DUP3 PUSH1 0x20 DUP7 ADD PUSH2 0x3B19 JUMP JUMPDEST SWAP2 POP POP SWAP3 SWAP2 POP POP JUMP JUMPDEST PUSH1 0x0 DUP1 PUSH1 0x0 DUP1 PUSH1 0x80 DUP6 DUP8 SUB SLT ISZERO PUSH2 0x3BA3 JUMPI PUSH2 0x3BA2 PUSH2 0x33BF JUMP JUMPDEST JUMPDEST PUSH1 0x0 PUSH2 0x3BB1 DUP8 DUP3 DUP9 ADD PUSH2 0x360C JUMP JUMPDEST SWAP5 POP POP PUSH1 0x20 PUSH2 0x3BC2 DUP8 DUP3 DUP9 ADD PUSH2 0x360C JUMP JUMPDEST SWAP4 POP POP PUSH1 0x40 PUSH2 0x3BD3 DUP8 DUP3 DUP9 ADD PUSH2 0x3557 JUMP JUMPDEST SWAP3 POP POP PUSH1 0x60 DUP6 ADD CALLDATALOAD PUSH8 0xFFFFFFFFFFFFFFFF DUP2 GT ISZERO PUSH2 0x3BF4 JUMPI PUSH2 0x3BF3 PUSH2 0x33C4 JUMP JUMPDEST JUMPDEST PUSH2 0x3C00 DUP8 DUP3 DUP9 ADD PUSH2 0x3B5B JUMP JUMPDEST SWAP2 POP POP SWAP3 SWAP6 SWAP2 SWAP5 POP SWAP3 POP JUMP JUMPDEST PUSH1 0x0 DUP1 PUSH1 0x40 DUP4 DUP6 SUB SLT ISZERO PUSH2 0x3C23 JUMPI PUSH2 0x3C22 PUSH2 0x33BF JUMP JUMPDEST JUMPDEST PUSH1 0x0 PUSH2 0x3C31 DUP6 DUP3 DUP7 ADD PUSH2 0x360C JUMP JUMPDEST SWAP3 POP POP PUSH1 0x20 PUSH2 0x3C42 DUP6 DUP3 DUP7 ADD PUSH2 0x360C JUMP JUMPDEST SWAP2 POP POP SWAP3 POP SWAP3 SWAP1 POP JUMP JUMPDEST PUSH32 0x4E487B7100000000000000000000000000000000000000000000000000000000 PUSH1 0x0 MSTORE PUSH1 0x22 PUSH1 0x4 MSTORE PUSH1 0x24 PUSH1 0x0 REVERT JUMPDEST PUSH1 0x0 PUSH1 0x2 DUP3 DIV SWAP1 POP PUSH1 0x1 DUP3 AND DUP1 PUSH2 0x3C93 JUMPI PUSH1 0x7F DUP3 AND SWAP2 POP JUMPDEST PUSH1 0x20 DUP3 LT DUP2 SUB PUSH2 0x3CA6 JUMPI PUSH2 0x3CA5 PUSH2 0x3C4C JUMP JUMPDEST JUMPDEST POP SWAP2 SWAP1 POP JUMP JUMPDEST PUSH32 0x4552433732313A20617070726F76616C20746F2063757272656E74206F776E65 PUSH1 0x0 DUP3 ADD MSTORE PUSH32 0x7200000000000000000000000000000000000000000000000000000000000000 PUSH1 0x20 DUP3 ADD MSTORE POP JUMP JUMPDEST PUSH1 0x0 PUSH2 0x3D08 PUSH1 0x21 DUP4 PUSH2 0x348F JUMP JUMPDEST SWAP2 POP PUSH2 0x3D13 DUP3 PUSH2 0x3CAC JUMP JUMPDEST PUSH1 0x40 DUP3 ADD SWAP1 POP SWAP2 SWAP1 POP JUMP JUMPDEST PUSH1 0x0 PUSH1 0x20 DUP3 ADD SWAP1 POP DUP2 DUP2 SUB PUSH1 0x0 DUP4 ADD MSTORE PUSH2 0x3D37 DUP2 PUSH2 0x3CFB JUMP JUMPDEST SWAP1 POP SWAP2 SWAP1 POP JUMP JUMPDEST PUSH32 0x4552433732313A20617070726F76652063616C6C6572206973206E6F7420746F PUSH1 0x0 DUP3 ADD MSTORE PUSH32 0x6B656E206F776E6572206F7220617070726F76656420666F7220616C6C000000 PUSH1 0x20 DUP3 ADD MSTORE POP JUMP JUMPDEST PUSH1 0x0 PUSH2 0x3D9A PUSH1 0x3D DUP4 PUSH2 0x348F JUMP JUMPDEST SWAP2 POP PUSH2 0x3DA5 DUP3 PUSH2 0x3D3E JUMP JUMPDEST PUSH1 0x40 DUP3 ADD SWAP1 POP SWAP2 SWAP1 POP JUMP JUMPDEST PUSH1 0x0 PUSH1 0x20 DUP3 ADD SWAP1 POP DUP2 DUP2 SUB PUSH1 0x0 DUP4 ADD MSTORE PUSH2 0x3DC9 DUP2 PUSH2 0x3D8D JUMP JUMPDEST SWAP1 POP SWAP2 SWAP1 POP JUMP JUMPDEST PUSH32 0x4552433732313A2063616C6C6572206973206E6F7420746F6B656E206F776E65 PUSH1 0x0 DUP3 ADD MSTORE PUSH32 0x72206F7220617070726F76656400000000000000000000000000000000000000 PUSH1 0x20 DUP3 ADD MSTORE POP JUMP JUMPDEST PUSH1 0x0 PUSH2 0x3E2C PUSH1 0x2D DUP4 PUSH2 0x348F JUMP JUMPDEST SWAP2 POP PUSH2 0x3E37 DUP3 PUSH2 0x3DD0 JUMP JUMPDEST PUSH1 0x40 DUP3 ADD SWAP1 POP SWAP2 SWAP1 POP JUMP JUMPDEST PUSH1 0x0 PUSH1 0x20 DUP3 ADD SWAP1 POP DUP2 DUP2 SUB PUSH1 0x0 DUP4 ADD MSTORE PUSH2 0x3E5B DUP2 PUSH2 0x3E1F JUMP JUMPDEST SWAP1 POP SWAP2 SWAP1 POP JUMP JUMPDEST PUSH32 0x496E76616C69642073656E646572000000000000000000000000000000000000 PUSH1 0x0 DUP3 ADD MSTORE POP JUMP JUMPDEST PUSH1 0x0 PUSH2 0x3E98 PUSH1 0xE DUP4 PUSH2 0x348F JUMP JUMPDEST SWAP2 POP PUSH2 0x3EA3 DUP3 PUSH2 0x3E62 JUMP JUMPDEST PUSH1 0x20 DUP3 ADD SWAP1 POP SWAP2 SWAP1 POP JUMP JUMPDEST PUSH1 0x0 PUSH1 0x20 DUP3 ADD SWAP1 POP DUP2 DUP2 SUB PUSH1 0x0 DUP4 ADD MSTORE PUSH2 0x3EC7 DUP2 PUSH2 0x3E8B JUMP JUMPDEST SWAP1 POP SWAP2 SWAP1 POP JUMP JUMPDEST PUSH1 0x0 DUP2 MLOAD SWAP1 POP PUSH2 0x3EDD DUP2 PUSH2 0x3540 JUMP JUMPDEST SWAP3 SWAP2 POP POP JUMP JUMPDEST PUSH1 0x0 PUSH1 0x20 DUP3 DUP5 SUB SLT ISZERO PUSH2 0x3EF9 JUMPI PUSH2 0x3EF8 PUSH2 0x33BF JUMP JUMPDEST JUMPDEST PUSH1 0x0 PUSH2 0x3F07 DUP5 DUP3 DUP6 ADD PUSH2 0x3ECE JUMP JUMPDEST SWAP2 POP POP SWAP3 SWAP2 POP POP JUMP JUMPDEST PUSH32 0x4E487B7100000000000000000000000000000000000000000000000000000000 PUSH1 0x0 MSTORE PUSH1 0x12 PUSH1 0x4 MSTORE PUSH1 0x24 PUSH1 0x0 REVERT JUMPDEST PUSH32 0x4E487B7100000000000000000000000000000000000000000000000000000000 PUSH1 0x0 MSTORE PUSH1 0x11 PUSH1 0x4 MSTORE PUSH1 0x24 PUSH1 0x0 REVERT JUMPDEST PUSH1 0x0 PUSH2 0x3F79 DUP3 PUSH2 0x3536 JUMP JUMPDEST SWAP2 POP PUSH2 0x3F84 DUP4 PUSH2 0x3536 JUMP JUMPDEST SWAP3 POP DUP3 PUSH2 0x3F94 JUMPI PUSH2 0x3F93 PUSH2 0x3F10 JUMP JUMPDEST JUMPDEST DUP3 DUP3 DIV SWAP1 POP SWAP3 SWAP2 POP POP JUMP JUMPDEST PUSH1 0x0 PUSH2 0x3FAA DUP3 PUSH2 0x3536 JUMP JUMPDEST SWAP2 POP PUSH2 0x3FB5 DUP4 PUSH2 0x3536 JUMP JUMPDEST SWAP3 POP DUP3 DUP3 MUL PUSH2 0x3FC3 DUP2 PUSH2 0x3536 JUMP JUMPDEST SWAP2 POP DUP3 DUP3 DIV DUP5 EQ DUP4 ISZERO OR PUSH2 0x3FDA JUMPI PUSH2 0x3FD9 PUSH2 0x3F3F JUMP JUMPDEST JUMPDEST POP SWAP3 SWAP2 POP POP JUMP JUMPDEST PUSH1 0x0 PUSH2 0x3FEC DUP3 PUSH2 0x3536 JUMP JUMPDEST SWAP2 POP PUSH2 0x3FF7 DUP4 PUSH2 0x3536 JUMP JUMPDEST SWAP3 POP DUP3 DUP3 SUB SWAP1 POP DUP2 DUP2 GT ISZERO PUSH2 0x400F JUMPI PUSH2 0x400E PUSH2 0x3F3F JUMP JUMPDEST JUMPDEST SWAP3 SWAP2 POP POP JUMP JUMPDEST PUSH1 0x0 DUP2 SWAP1 POP SWAP2 SWAP1 POP JUMP JUMPDEST PUSH1 0x0 PUSH2 0x403A PUSH2 0x4035 PUSH2 0x4030 DUP5 PUSH2 0x3599 JUMP JUMPDEST PUSH2 0x4015 JUMP JUMPDEST PUSH2 0x3599 JUMP JUMPDEST SWAP1 POP SWAP2 SWAP1 POP JUMP JUMPDEST PUSH1 0x0 PUSH2 0x404C DUP3 PUSH2 0x401F JUMP JUMPDEST SWAP1 POP SWAP2 SWAP1 POP JUMP JUMPDEST PUSH1 0x0 PUSH2 0x405E DUP3 PUSH2 0x4041 JUMP JUMPDEST SWAP1 POP SWAP2 SWAP1 POP JUMP JUMPDEST PUSH2 0x406E DUP2 PUSH2 0x4053 JUMP JUMPDEST DUP3 MSTORE POP POP JUMP JUMPDEST PUSH1 0x0 PUSH1 0x40 DUP3 ADD SWAP1 POP PUSH2 0x4089 PUSH1 0x0 DUP4 ADD DUP6 PUSH2 0x4065 JUMP JUMPDEST PUSH2 0x4096 PUSH1 0x20 DUP4 ADD DUP5 PUSH2 0x3661 JUMP JUMPDEST SWAP4 SWAP3 POP POP POP JUMP JUMPDEST PUSH1 0x0 DUP2 MLOAD SWAP1 POP PUSH2 0x40AC DUP2 PUSH2 0x3A7C JUMP JUMPDEST SWAP3 SWAP2 POP POP JUMP JUMPDEST PUSH1 0x0 PUSH1 0x20 DUP3 DUP5 SUB SLT ISZERO PUSH2 0x40C8 JUMPI PUSH2 0x40C7 PUSH2 0x33BF JUMP JUMPDEST JUMPDEST PUSH1 0x0 PUSH2 0x40D6 DUP5 DUP3 DUP6 ADD PUSH2 0x409D JUMP JUMPDEST SWAP2 POP POP SWAP3 SWAP2 POP POP JUMP JUMPDEST PUSH1 0x0 PUSH1 0x40 DUP3 ADD SWAP1 POP PUSH2 0x40F4 PUSH1 0x0 DUP4 ADD DUP6 PUSH2 0x35CB JUMP JUMPDEST PUSH2 0x4101 PUSH1 0x20 DUP4 ADD DUP5 PUSH2 0x3661 JUMP JUMPDEST SWAP4 SWAP3 POP POP POP JUMP JUMPDEST PUSH32 0x5472616E736665722031206661696C6564000000000000000000000000000000 PUSH1 0x0 DUP3 ADD MSTORE POP JUMP JUMPDEST PUSH1 0x0 PUSH2 0x413E PUSH1 0x11 DUP4 PUSH2 0x348F JUMP JUMPDEST SWAP2 POP PUSH2 0x4149 DUP3 PUSH2 0x4108 JUMP JUMPDEST PUSH1 0x20 DUP3 ADD SWAP1 POP SWAP2 SWAP1 POP JUMP JUMPDEST PUSH1 0x0 PUSH1 0x20 DUP3 ADD SWAP1 POP DUP2 DUP2 SUB PUSH1 0x0 DUP4 ADD MSTORE PUSH2 0x416D DUP2 PUSH2 0x4131 JUMP JUMPDEST SWAP1 POP SWAP2 SWAP1 POP JUMP JUMPDEST PUSH32 0x5472616E736665722032206661696C6564000000000000000000000000000000 PUSH1 0x0 DUP3 ADD MSTORE POP JUMP JUMPDEST PUSH1 0x0 PUSH2 0x41AA PUSH1 0x11 DUP4 PUSH2 0x348F JUMP JUMPDEST SWAP2 POP PUSH2 0x41B5 DUP3 PUSH2 0x4174 JUMP JUMPDEST PUSH1 0x20 DUP3 ADD SWAP1 POP SWAP2 SWAP1 POP JUMP JUMPDEST PUSH1 0x0 PUSH1 0x20 DUP3 ADD SWAP1 POP DUP2 DUP2 SUB PUSH1 0x0 DUP4 ADD MSTORE PUSH2 0x41D9 DUP2 PUSH2 0x419D JUMP JUMPDEST SWAP1 POP SWAP2 SWAP1 POP JUMP JUMPDEST PUSH1 0x0 DUP2 SWAP1 POP DUP2 PUSH1 0x0 MSTORE PUSH1 0x20 PUSH1 0x0 KECCAK256 SWAP1 POP SWAP2 SWAP1 POP JUMP JUMPDEST PUSH1 0x0 PUSH1 0x20 PUSH1 0x1F DUP4 ADD DIV SWAP1 POP SWAP2 SWAP1 POP JUMP JUMPDEST PUSH1 0x0 DUP3 DUP3 SHL SWAP1 POP SWAP3 SWAP2 POP POP JUMP JUMPDEST PUSH1 0x0 PUSH1 0x8 DUP4 MUL PUSH2 0x4242 PUSH32 0xFFFFFFFFFFFFFFFFFFFFFFFFFFFFFFFFFFFFFFFFFFFFFFFFFFFFFFFFFFFFFFFF DUP3 PUSH2 0x4205 JUMP JUMPDEST PUSH2 0x424C DUP7 DUP4 PUSH2 0x4205 JUMP JUMPDEST SWAP6 POP DUP1 NOT DUP5 AND SWAP4 POP DUP1 DUP7 AND DUP5 OR SWAP3 POP POP POP SWAP4 SWAP3 POP POP POP JUMP JUMPDEST PUSH1 0x0 PUSH2 0x427F PUSH2 0x427A PUSH2 0x4275 DUP5 PUSH2 0x3536 JUMP JUMPDEST PUSH2 0x4015 JUMP JUMPDEST PUSH2 0x3536 JUMP JUMPDEST SWAP1 POP SWAP2 SWAP1 POP JUMP JUMPDEST PUSH1 0x0 DUP2 SWAP1 POP SWAP2 SWAP1 POP JUMP JUMPDEST PUSH2 0x4299 DUP4 PUSH2 0x4264 JUMP JUMPDEST PUSH2 0x42AD PUSH2 0x42A5 DUP3 PUSH2 0x4286 JUMP JUMPDEST DUP5 DUP5 SLOAD PUSH2 0x4212 JUMP JUMPDEST DUP3 SSTORE POP POP POP POP JUMP JUMPDEST PUSH1 0x0 SWAP1 JUMP JUMPDEST PUSH2 0x42C2 PUSH2 0x42B5 JUMP JUMPDEST PUSH2 0x42CD DUP2 DUP5 DUP5 PUSH2 0x4290 JUMP JUMPDEST POP POP POP JUMP JUMPDEST JUMPDEST DUP2 DUP2 LT ISZERO PUSH2 0x42F1 JUMPI PUSH2 0x42E6 PUSH1 0x0 DUP3 PUSH2 0x42BA JUMP JUMPDEST PUSH1 0x1 DUP2 ADD SWAP1 POP PUSH2 0x42D3 JUMP JUMPDEST POP POP JUMP JUMPDEST PUSH1 0x1F DUP3 GT ISZERO PUSH2 0x4336 JUMPI PUSH2 0x4307 DUP2 PUSH2 0x41E0 JUMP JUMPDEST PUSH2 0x4310 DUP5 PUSH2 0x41F5 JUMP JUMPDEST DUP2 ADD PUSH1 0x20 DUP6 LT ISZERO PUSH2 0x431F JUMPI DUP2 SWAP1 POP JUMPDEST PUSH2 0x4333 PUSH2 0x432B DUP6 PUSH2 0x41F5 JUMP JUMPDEST DUP4 ADD DUP3 PUSH2 0x42D2 JUMP JUMPDEST POP POP JUMPDEST POP POP POP JUMP JUMPDEST PUSH1 0x0 DUP3 DUP3 SHR SWAP1 POP SWAP3 SWAP2 POP POP JUMP JUMPDEST PUSH1 0x0 PUSH2 0x4359 PUSH1 0x0 NOT DUP5 PUSH1 0x8 MUL PUSH2 0x433B JUMP JUMPDEST NOT DUP1 DUP4 AND SWAP2 POP POP SWAP3 SWAP2 POP POP JUMP JUMPDEST PUSH1 0x0 PUSH2 0x4372 DUP4 DUP4 PUSH2 0x4348 JUMP JUMPDEST SWAP2 POP DUP3 PUSH1 0x2 MUL DUP3 OR SWAP1 POP SWAP3 SWAP2 POP POP JUMP JUMPDEST PUSH2 0x438B DUP3 PUSH2 0x3484 JUMP JUMPDEST PUSH8 0xFFFFFFFFFFFFFFFF DUP2 GT ISZERO PUSH2 0x43A4 JUMPI PUSH2 0x43A3 PUSH2 0x36E8 JUMP JUMPDEST JUMPDEST PUSH2 0x43AE DUP3 SLOAD PUSH2 0x3C7B JUMP JUMPDEST PUSH2 0x43B9 DUP3 DUP3 DUP6 PUSH2 0x42F5 JUMP JUMPDEST PUSH1 0x0 PUSH1 0x20 SWAP1 POP PUSH1 0x1F DUP4 GT PUSH1 0x1 DUP2 EQ PUSH2 0x43EC JUMPI PUSH1 0x0 DUP5 ISZERO PUSH2 0x43DA JUMPI DUP3 DUP8 ADD MLOAD SWAP1 POP JUMPDEST PUSH2 0x43E4 DUP6 DUP3 PUSH2 0x4366 JUMP JUMPDEST DUP7 SSTORE POP PUSH2 0x444C JUMP JUMPDEST PUSH1 0x1F NOT DUP5 AND PUSH2 0x43FA DUP7 PUSH2 0x41E0 JUMP JUMPDEST PUSH1 0x0 JUMPDEST DUP3 DUP2 LT ISZERO PUSH2 0x4422 JUMPI DUP5 DUP10 ADD MLOAD DUP3 SSTORE PUSH1 0x1 DUP3 ADD SWAP2 POP PUSH1 0x20 DUP6 ADD SWAP5 POP PUSH1 0x20 DUP2 ADD SWAP1 POP PUSH2 0x43FD JUMP JUMPDEST DUP7 DUP4 LT ISZERO PUSH2 0x443F JUMPI DUP5 DUP10 ADD MLOAD PUSH2 0x443B PUSH1 0x1F DUP10 AND DUP3 PUSH2 0x4348 JUMP JUMPDEST DUP4 SSTORE POP JUMPDEST PUSH1 0x1 PUSH1 0x2 DUP9 MUL ADD DUP9 SSTORE POP POP POP JUMPDEST POP POP POP POP POP POP JUMP JUMPDEST PUSH32 0x4E6F20636F6E7472616374207472616E73616374696F6E732100000000000000 PUSH1 0x0 DUP3 ADD MSTORE POP JUMP JUMPDEST PUSH1 0x0 PUSH2 0x448A PUSH1 0x19 DUP4 PUSH2 0x348F JUMP JUMPDEST SWAP2 POP PUSH2 0x4495 DUP3 PUSH2 0x4454 JUMP JUMPDEST PUSH1 0x20 DUP3 ADD SWAP1 POP SWAP2 SWAP1 POP JUMP JUMPDEST PUSH1 0x0 PUSH1 0x20 DUP3 ADD SWAP1 POP DUP2 DUP2 SUB PUSH1 0x0 DUP4 ADD MSTORE PUSH2 0x44B9 DUP2 PUSH2 0x447D JUMP JUMPDEST SWAP1 POP SWAP2 SWAP1 POP JUMP JUMPDEST PUSH1 0x0 PUSH2 0x44CB DUP3 PUSH2 0x3536 JUMP JUMPDEST SWAP2 POP PUSH2 0x44D6 DUP4 PUSH2 0x3536 JUMP JUMPDEST SWAP3 POP DUP3 DUP3 ADD SWAP1 POP DUP1 DUP3 GT ISZERO PUSH2 0x44EE JUMPI PUSH2 0x44ED PUSH2 0x3F3F JUMP JUMPDEST JUMPDEST SWAP3 SWAP2 POP POP JUMP JUMPDEST PUSH1 0x0 DUP2 SWAP1 POP SWAP3 SWAP2 POP POP JUMP JUMPDEST POP JUMP JUMPDEST PUSH1 0x0 PUSH2 0x450F PUSH1 0x0 DUP4 PUSH2 0x44F4 JUMP JUMPDEST SWAP2 POP PUSH2 0x451A DUP3 PUSH2 0x44FF JUMP JUMPDEST PUSH1 0x0 DUP3 ADD SWAP1 POP SWAP2 SWAP1 POP JUMP JUMPDEST PUSH1 0x0 PUSH2 0x4530 DUP3 PUSH2 0x4502 JUMP JUMPDEST SWAP2 POP DUP2 SWAP1 POP SWAP2 SWAP1 POP JUMP JUMPDEST PUSH32 0x4552433732313A20696E76616C696420746F6B656E2049440000000000000000 PUSH1 0x0 DUP3 ADD MSTORE POP JUMP JUMPDEST PUSH1 0x0 PUSH2 0x4570 PUSH1 0x18 DUP4 PUSH2 0x348F JUMP JUMPDEST SWAP2 POP PUSH2 0x457B DUP3 PUSH2 0x453A JUMP JUMPDEST PUSH1 0x20 DUP3 ADD SWAP1 POP SWAP2 SWAP1 POP JUMP JUMPDEST PUSH1 0x0 PUSH1 0x20 DUP3 ADD SWAP1 POP DUP2 DUP2 SUB PUSH1 0x0 DUP4 ADD MSTORE PUSH2 0x459F DUP2 PUSH2 0x4563 JUMP JUMPDEST SWAP1 POP SWAP2 SWAP1 POP JUMP JUMPDEST PUSH32 0x4552433732313A2061646472657373207A65726F206973206E6F742061207661 PUSH1 0x0 DUP3 ADD MSTORE PUSH32 0x6C6964206F776E65720000000000000000000000000000000000000000000000 PUSH1 0x20 DUP3 ADD MSTORE POP JUMP JUMPDEST PUSH1 0x0 PUSH2 0x4602 PUSH1 0x29 DUP4 PUSH2 0x348F JUMP JUMPDEST SWAP2 POP PUSH2 0x460D DUP3 PUSH2 0x45A6 JUMP JUMPDEST PUSH1 0x40 DUP3 ADD SWAP1 POP SWAP2 SWAP1 POP JUMP JUMPDEST PUSH1 0x0 PUSH1 0x20 DUP3 ADD SWAP1 POP DUP2 DUP2 SUB PUSH1 0x0 DUP4 ADD MSTORE PUSH2 0x4631 DUP2 PUSH2 0x45F5 JUMP JUMPDEST SWAP1 POP SWAP2 SWAP1 POP JUMP JUMPDEST PUSH32 0x796F2C2063616E7420646F20746861742073686974206C6F6C00000000000000 PUSH1 0x0 DUP3 ADD MSTORE POP JUMP JUMPDEST PUSH1 0x0 PUSH2 0x466E PUSH1 0x19 DUP4 PUSH2 0x348F JUMP JUMPDEST SWAP2 POP PUSH2 0x4679 DUP3 PUSH2 0x4638 JUMP JUMPDEST PUSH1 0x20 DUP3 ADD SWAP1 POP SWAP2 SWAP1 POP JUMP JUMPDEST PUSH1 0x0 PUSH1 0x20 DUP3 ADD SWAP1 POP DUP2 DUP2 SUB PUSH1 0x0 DUP4 ADD MSTORE PUSH2 0x469D DUP2 PUSH2 0x4661 JUMP JUMPDEST SWAP1 POP SWAP2 SWAP1 POP JUMP JUMPDEST PUSH32 0x72656E7420616374697665000000000000000000000000000000000000000000 PUSH1 0x0 DUP3 ADD MSTORE POP JUMP JUMPDEST PUSH1 0x0 PUSH2 0x46DA PUSH1 0xB DUP4 PUSH2 0x348F JUMP JUMPDEST SWAP2 POP PUSH2 0x46E5 DUP3 PUSH2 0x46A4 JUMP JUMPDEST PUSH1 0x20 DUP3 ADD SWAP1 POP SWAP2 SWAP1 POP JUMP JUMPDEST PUSH1 0x0 PUSH1 0x20 DUP3 ADD SWAP1 POP DUP2 DUP2 SUB PUSH1 0x0 DUP4 ADD MSTORE PUSH2 0x4709 DUP2 PUSH2 0x46CD JUMP JUMPDEST SWAP1 POP SWAP2 SWAP1 POP JUMP JUMPDEST PUSH32 0x45786365656473206D61782073756220706572696F6400000000000000000000 PUSH1 0x0 DUP3 ADD MSTORE POP JUMP JUMPDEST PUSH1 0x0 PUSH2 0x4746 PUSH1 0x16 DUP4 PUSH2 0x348F JUMP JUMPDEST SWAP2 POP PUSH2 0x4751 DUP3 PUSH2 0x4710 JUMP JUMPDEST PUSH1 0x20 DUP3 ADD SWAP1 POP SWAP2 SWAP1 POP JUMP JUMPDEST PUSH1 0x0 PUSH1 0x20 DUP3 ADD SWAP1 POP DUP2 DUP2 SUB PUSH1 0x0 DUP4 ADD MSTORE PUSH2 0x4775 DUP2 PUSH2 0x4739 JUMP JUMPDEST SWAP1 POP SWAP2 SWAP1 POP JUMP JUMPDEST PUSH32 0x6E617469766520746F6B656E2076616C75652073656E74206973206E6F742063 PUSH1 0x0 DUP3 ADD MSTORE PUSH32 0x6F72726563740000000000000000000000000000000000000000000000000000 PUSH1 0x20 DUP3 ADD MSTORE POP JUMP JUMPDEST PUSH1 0x0 PUSH2 0x47D8 PUSH1 0x26 DUP4 PUSH2 0x348F JUMP JUMPDEST SWAP2 POP PUSH2 0x47E3 DUP3 PUSH2 0x477C JUMP JUMPDEST PUSH1 0x40 DUP3 ADD SWAP1 POP SWAP2 SWAP1 POP JUMP JUMPDEST PUSH1 0x0 PUSH1 0x20 DUP3 ADD SWAP1 POP DUP2 DUP2 SUB PUSH1 0x0 DUP4 ADD MSTORE PUSH2 0x4807 DUP2 PUSH2 0x47CB JUMP JUMPDEST SWAP1 POP SWAP2 SWAP1 POP JUMP JUMPDEST PUSH1 0x0 PUSH2 0x4819 DUP3 PUSH2 0x39E9 JUMP JUMPDEST SWAP2 POP PUSH2 0x4824 DUP4 PUSH2 0x39E9 JUMP JUMPDEST SWAP3 POP DUP3 DUP3 MUL PUSH2 0x4832 DUP2 PUSH2 0x39E9 JUMP JUMPDEST SWAP2 POP DUP1 DUP3 EQ PUSH2 0x4844 JUMPI PUSH2 0x4843 PUSH2 0x3F3F JUMP JUMPDEST JUMPDEST POP SWAP3 SWAP2 POP POP JUMP JUMPDEST PUSH32 0x7573657220616C72656164792073756273637269626564000000000000000000 PUSH1 0x0 DUP3 ADD MSTORE POP JUMP JUMPDEST PUSH1 0x0 PUSH2 0x4881 PUSH1 0x17 DUP4 PUSH2 0x348F JUMP JUMPDEST SWAP2 POP PUSH2 0x488C DUP3 PUSH2 0x484B JUMP JUMPDEST PUSH1 0x20 DUP3 ADD SWAP1 POP SWAP2 SWAP1 POP JUMP JUMPDEST PUSH1 0x0 PUSH1 0x20 DUP3 ADD SWAP1 POP DUP2 DUP2 SUB PUSH1 0x0 DUP4 ADD MSTORE PUSH2 0x48B0 DUP2 PUSH2 0x4874 JUMP JUMPDEST SWAP1 POP SWAP2 SWAP1 POP JUMP JUMPDEST PUSH1 0x0 PUSH2 0x48C2 DUP3 PUSH2 0x39E9 JUMP JUMPDEST SWAP2 POP PUSH2 0x48CD DUP4 PUSH2 0x39E9 JUMP JUMPDEST SWAP3 POP DUP3 DUP3 ADD SWAP1 POP PUSH8 0xFFFFFFFFFFFFFFFF DUP2 GT ISZERO PUSH2 0x48ED JUMPI PUSH2 0x48EC PUSH2 0x3F3F JUMP JUMPDEST JUMPDEST SWAP3 SWAP2 POP POP JUMP JUMPDEST PUSH2 0x48FC DUP2 PUSH2 0x39E9 JUMP JUMPDEST DUP3 MSTORE POP POP JUMP JUMPDEST PUSH1 0x0 PUSH1 0x20 DUP3 ADD SWAP1 POP PUSH2 0x4917 PUSH1 0x0 DUP4 ADD DUP5 PUSH2 0x48F3 JUMP JUMPDEST SWAP3 SWAP2 POP POP JUMP JUMPDEST PUSH32 0x6E6F6E6578697374656E7420746F6B656E000000000000000000000000000000 PUSH1 0x0 DUP3 ADD MSTORE POP JUMP JUMPDEST PUSH1 0x0 PUSH2 0x4953 PUSH1 0x11 DUP4 PUSH2 0x348F JUMP JUMPDEST SWAP2 POP PUSH2 0x495E DUP3 PUSH2 0x491D JUMP JUMPDEST PUSH1 0x20 DUP3 ADD SWAP1 POP SWAP2 SWAP1 POP JUMP JUMPDEST PUSH1 0x0 PUSH1 0x20 DUP3 ADD SWAP1 POP DUP2 DUP2 SUB PUSH1 0x0 DUP4 ADD MSTORE PUSH2 0x4982 DUP2 PUSH2 0x4946 JUMP JUMPDEST SWAP1 POP SWAP2 SWAP1 POP JUMP JUMPDEST PUSH1 0x0 DUP2 SWAP1 POP SWAP3 SWAP2 POP POP JUMP JUMPDEST PUSH1 0x0 PUSH2 0x499F DUP3 PUSH2 0x3484 JUMP JUMPDEST PUSH2 0x49A9 DUP2 DUP6 PUSH2 0x4989 JUMP JUMPDEST SWAP4 POP PUSH2 0x49B9 DUP2 DUP6 PUSH1 0x20 DUP7 ADD PUSH2 0x34A0 JUMP JUMPDEST DUP1 DUP5 ADD SWAP2 POP POP SWAP3 SWAP2 POP POP JUMP JUMPDEST PUSH32 0x2E6A736F6E000000000000000000000000000000000000000000000000000000 PUSH1 0x0 DUP3 ADD MSTORE POP JUMP JUMPDEST PUSH1 0x0 PUSH2 0x49FB PUSH1 0x5 DUP4 PUSH2 0x4989 JUMP JUMPDEST SWAP2 POP PUSH2 0x4A06 DUP3 PUSH2 0x49C5 JUMP JUMPDEST PUSH1 0x5 DUP3 ADD SWAP1 POP SWAP2 SWAP1 POP JUMP JUMPDEST PUSH1 0x0 PUSH2 0x4A1D DUP3 DUP6 PUSH2 0x4994 JUMP JUMPDEST SWAP2 POP PUSH2 0x4A29 DUP3 DUP5 PUSH2 0x4994 JUMP JUMPDEST SWAP2 POP PUSH2 0x4A34 DUP3 PUSH2 0x49EE JUMP JUMPDEST SWAP2 POP DUP2 SWAP1 POP SWAP4 SWAP3 POP POP POP JUMP JUMPDEST PUSH32 0x70726F706572747920736F6C642C2063616E27742072656E7400000000000000 PUSH1 0x0 DUP3 ADD MSTORE POP JUMP JUMPDEST PUSH1 0x0 PUSH2 0x4A76 PUSH1 0x19 DUP4 PUSH2 0x348F JUMP JUMPDEST SWAP2 POP PUSH2 0x4A81 DUP3 PUSH2 0x4A40 JUMP JUMPDEST PUSH1 0x20 DUP3 ADD SWAP1 POP SWAP2 SWAP1 POP JUMP JUMPDEST PUSH1 0x0 PUSH1 0x20 DUP3 ADD SWAP1 POP DUP2 DUP2 SUB PUSH1 0x0 DUP4 ADD MSTORE PUSH2 0x4AA5 DUP2 PUSH2 0x4A69 JUMP JUMPDEST SWAP1 POP SWAP2 SWAP1 POP JUMP JUMPDEST PUSH1 0x0 PUSH1 0x60 DUP3 ADD SWAP1 POP PUSH2 0x4AC1 PUSH1 0x0 DUP4 ADD DUP7 PUSH2 0x35CB JUMP JUMPDEST PUSH2 0x4ACE PUSH1 0x20 DUP4 ADD DUP6 PUSH2 0x35CB JUMP JUMPDEST PUSH2 0x4ADB PUSH1 0x40 DUP4 ADD DUP5 PUSH2 0x3661 JUMP JUMPDEST SWAP5 SWAP4 POP POP POP POP JUMP JUMPDEST PUSH32 0x6661696C6564207472616E736665720000000000000000000000000000000000 PUSH1 0x0 DUP3 ADD MSTORE POP JUMP JUMPDEST PUSH1 0x0 PUSH2 0x4B19 PUSH1 0xF DUP4 PUSH2 0x348F JUMP JUMPDEST SWAP2 POP PUSH2 0x4B24 DUP3 PUSH2 0x4AE3 JUMP JUMPDEST PUSH1 0x20 DUP3 ADD SWAP1 POP SWAP2 SWAP1 POP JUMP JUMPDEST PUSH1 0x0 PUSH1 0x20 DUP3 ADD SWAP1 POP DUP2 DUP2 SUB PUSH1 0x0 DUP4 ADD MSTORE PUSH2 0x4B48 DUP2 PUSH2 0x4B0C JUMP JUMPDEST SWAP1 POP SWAP2 SWAP1 POP JUMP JUMPDEST PUSH32 0x4F776E61626C653A206E6577206F776E657220697320746865207A65726F2061 PUSH1 0x0 DUP3 ADD MSTORE PUSH32 0x6464726573730000000000000000000000000000000000000000000000000000 PUSH1 0x20 DUP3 ADD MSTORE POP JUMP JUMPDEST PUSH1 0x0 PUSH2 0x4BAB PUSH1 0x26 DUP4 PUSH2 0x348F JUMP JUMPDEST SWAP2 POP PUSH2 0x4BB6 DUP3 PUSH2 0x4B4F JUMP JUMPDEST PUSH1 0x40 DUP3 ADD SWAP1 POP SWAP2 SWAP1 POP JUMP JUMPDEST PUSH1 0x0 PUSH1 0x20 DUP3 ADD SWAP1 POP DUP2 DUP2 SUB PUSH1 0x0 DUP4 ADD MSTORE PUSH2 0x4BDA DUP2 PUSH2 0x4B9E JUMP JUMPDEST SWAP1 POP SWAP2 SWAP1 POP JUMP JUMPDEST PUSH32 0x4552433732313A207472616E736665722066726F6D20696E636F727265637420 PUSH1 0x0 DUP3 ADD MSTORE PUSH32 0x6F776E6572000000000000000000000000000000000000000000000000000000 PUSH1 0x20 DUP3 ADD MSTORE POP JUMP JUMPDEST PUSH1 0x0 PUSH2 0x4C3D PUSH1 0x25 DUP4 PUSH2 0x348F JUMP JUMPDEST SWAP2 POP PUSH2 0x4C48 DUP3 PUSH2 0x4BE1 JUMP JUMPDEST PUSH1 0x40 DUP3 ADD SWAP1 POP SWAP2 SWAP1 POP JUMP JUMPDEST PUSH1 0x0 PUSH1 0x20 DUP3 ADD SWAP1 POP DUP2 DUP2 SUB PUSH1 0x0 DUP4 ADD MSTORE PUSH2 0x4C6C DUP2 PUSH2 0x4C30 JUMP JUMPDEST SWAP1 POP SWAP2 SWAP1 POP JUMP JUMPDEST PUSH32 0x4552433732313A207472616E7366657220746F20746865207A65726F20616464 PUSH1 0x0 DUP3 ADD MSTORE PUSH32 0x7265737300000000000000000000000000000000000000000000000000000000 PUSH1 0x20 DUP3 ADD MSTORE POP JUMP JUMPDEST PUSH1 0x0 PUSH2 0x4CCF PUSH1 0x24 DUP4 PUSH2 0x348F JUMP JUMPDEST SWAP2 POP PUSH2 0x4CDA DUP3 PUSH2 0x4C73 JUMP JUMPDEST PUSH1 0x40 DUP3 ADD SWAP1 POP SWAP2 SWAP1 POP JUMP JUMPDEST PUSH1 0x0 PUSH1 0x20 DUP3 ADD SWAP1 POP DUP2 DUP2 SUB PUSH1 0x0 DUP4 ADD MSTORE PUSH2 0x4CFE DUP2 PUSH2 0x4CC2 JUMP JUMPDEST SWAP1 POP SWAP2 SWAP1 POP JUMP JUMPDEST PUSH32 0x4F776E61626C653A2063616C6C6572206973206E6F7420746865206F776E6572 PUSH1 0x0 DUP3 ADD MSTORE POP JUMP JUMPDEST PUSH1 0x0 PUSH2 0x4D3B PUSH1 0x20 DUP4 PUSH2 0x348F JUMP JUMPDEST SWAP2 POP PUSH2 0x4D46 DUP3 PUSH2 0x4D05 JUMP JUMPDEST PUSH1 0x20 DUP3 ADD SWAP1 POP SWAP2 SWAP1 POP JUMP JUMPDEST PUSH1 0x0 PUSH1 0x20 DUP3 ADD SWAP1 POP DUP2 DUP2 SUB PUSH1 0x0 DUP4 ADD MSTORE PUSH2 0x4D6A DUP2 PUSH2 0x4D2E JUMP JUMPDEST SWAP1 POP SWAP2 SWAP1 POP JUMP JUMPDEST PUSH32 0x5265656E7472616E637947756172643A207265656E7472616E742063616C6C00 PUSH1 0x0 DUP3 ADD MSTORE POP JUMP JUMPDEST PUSH1 0x0 PUSH2 0x4DA7 PUSH1 0x1F DUP4 PUSH2 0x348F JUMP JUMPDEST SWAP2 POP PUSH2 0x4DB2 DUP3 PUSH2 0x4D71 JUMP JUMPDEST PUSH1 0x20 DUP3 ADD SWAP1 POP SWAP2 SWAP1 POP JUMP JUMPDEST PUSH1 0x0 PUSH1 0x20 DUP3 ADD SWAP1 POP DUP2 DUP2 SUB PUSH1 0x0 DUP4 ADD MSTORE PUSH2 0x4DD6 DUP2 PUSH2 0x4D9A JUMP JUMPDEST SWAP1 POP SWAP2 SWAP1 POP JUMP JUMPDEST PUSH32 0x4552433732313A20617070726F766520746F2063616C6C657200000000000000 PUSH1 0x0 DUP3 ADD MSTORE POP JUMP JUMPDEST PUSH1 0x0 PUSH2 0x4E13 PUSH1 0x19 DUP4 PUSH2 0x348F JUMP JUMPDEST SWAP2 POP PUSH2 0x4E1E DUP3 PUSH2 0x4DDD JUMP JUMPDEST PUSH1 0x20 DUP3 ADD SWAP1 POP SWAP2 SWAP1 POP JUMP JUMPDEST PUSH1 0x0 PUSH1 0x20 DUP3 ADD SWAP1 POP DUP2 DUP2 SUB PUSH1 0x0 DUP4 ADD MSTORE PUSH2 0x4E42 DUP2 PUSH2 0x4E06 JUMP JUMPDEST SWAP1 POP SWAP2 SWAP1 POP JUMP JUMPDEST PUSH32 0x4552433732313A207472616E7366657220746F206E6F6E204552433732315265 PUSH1 0x0 DUP3 ADD MSTORE PUSH32 0x63656976657220696D706C656D656E7465720000000000000000000000000000 PUSH1 0x20 DUP3 ADD MSTORE POP JUMP JUMPDEST PUSH1 0x0 PUSH2 0x4EA5 PUSH1 0x32 DUP4 PUSH2 0x348F JUMP JUMPDEST SWAP2 POP PUSH2 0x4EB0 DUP3 PUSH2 0x4E49 JUMP JUMPDEST PUSH1 0x40 DUP3 ADD SWAP1 POP SWAP2 SWAP1 POP JUMP JUMPDEST PUSH1 0x0 PUSH1 0x20 DUP3 ADD SWAP1 POP DUP2 DUP2 SUB PUSH1 0x0 DUP4 ADD MSTORE PUSH2 0x4ED4 DUP2 PUSH2 0x4E98 JUMP JUMPDEST SWAP1 POP SWAP2 SWAP1 POP JUMP JUMPDEST PUSH32 0x63616E2774207472616E7366657220746F6B656E000000000000000000000000 PUSH1 0x0 DUP3 ADD MSTORE POP JUMP JUMPDEST PUSH1 0x0 PUSH2 0x4F11 PUSH1 0x14 DUP4 PUSH2 0x348F JUMP JUMPDEST SWAP2 POP PUSH2 0x4F1C DUP3 PUSH2 0x4EDB JUMP JUMPDEST PUSH1 0x20 DUP3 ADD SWAP1 POP SWAP2 SWAP1 POP JUMP JUMPDEST PUSH1 0x0 PUSH1 0x20 DUP3 ADD SWAP1 POP DUP2 DUP2 SUB PUSH1 0x0 DUP4 ADD MSTORE PUSH2 0x4F40 DUP2 PUSH2 0x4F04 JUMP JUMPDEST SWAP1 POP SWAP2 SWAP1 POP JUMP JUMPDEST PUSH1 0x0 DUP2 MLOAD SWAP1 POP SWAP2 SWAP1 POP JUMP JUMPDEST PUSH1 0x0 DUP3 DUP3 MSTORE PUSH1 0x20 DUP3 ADD SWAP1 POP SWAP3 SWAP2 POP POP JUMP JUMPDEST PUSH1 0x0 PUSH2 0x4F6E DUP3 PUSH2 0x4F47 JUMP JUMPDEST PUSH2 0x4F78 DUP2 DUP6 PUSH2 0x4F52 JUMP JUMPDEST SWAP4 POP PUSH2 0x4F88 DUP2 DUP6 PUSH1 0x20 DUP7 ADD PUSH2 0x34A0 JUMP JUMPDEST PUSH2 0x4F91 DUP2 PUSH2 0x34CA JUMP JUMPDEST DUP5 ADD SWAP2 POP POP SWAP3 SWAP2 POP POP JUMP JUMPDEST PUSH1 0x0 PUSH1 0x80 DUP3 ADD SWAP1 POP PUSH2 0x4FB1 PUSH1 0x0 DUP4 ADD DUP8 PUSH2 0x35CB JUMP JUMPDEST PUSH2 0x4FBE PUSH1 0x20 DUP4 ADD DUP7 PUSH2 0x35CB JUMP JUMPDEST PUSH2 0x4FCB PUSH1 0x40 DUP4 ADD DUP6 PUSH2 0x3661 JUMP JUMPDEST DUP2 DUP2 SUB PUSH1 0x60 DUP4 ADD MSTORE PUSH2 0x4FDD DUP2 DUP5 PUSH2 0x4F63 JUMP JUMPDEST SWAP1 POP SWAP6 SWAP5 POP POP POP POP POP JUMP JUMPDEST PUSH1 0x0 DUP2 MLOAD SWAP1 POP PUSH2 0x4FF7 DUP2 PUSH2 0x33F5 JUMP JUMPDEST SWAP3 SWAP2 POP POP JUMP JUMPDEST PUSH1 0x0 PUSH1 0x20 DUP3 DUP5 SUB SLT ISZERO PUSH2 0x5013 JUMPI PUSH2 0x5012 PUSH2 0x33BF JUMP JUMPDEST JUMPDEST PUSH1 0x0 PUSH2 0x5021 DUP5 DUP3 DUP6 ADD PUSH2 0x4FE8 JUMP JUMPDEST SWAP2 POP POP SWAP3 SWAP2 POP POP JUMP JUMPDEST PUSH32 0x4552433732313A206D696E7420746F20746865207A65726F2061646472657373 PUSH1 0x0 DUP3 ADD MSTORE POP JUMP JUMPDEST PUSH1 0x0 PUSH2 0x5060 PUSH1 0x20 DUP4 PUSH2 0x348F JUMP JUMPDEST SWAP2 POP PUSH2 0x506B DUP3 PUSH2 0x502A JUMP JUMPDEST PUSH1 0x20 DUP3 ADD SWAP1 POP SWAP2 SWAP1 POP JUMP JUMPDEST PUSH1 0x0 PUSH1 0x20 DUP3 ADD SWAP1 POP DUP2 DUP2 SUB PUSH1 0x0 DUP4 ADD MSTORE PUSH2 0x508F DUP2 PUSH2 0x5053 JUMP JUMPDEST SWAP1 POP SWAP2 SWAP1 POP JUMP JUMPDEST PUSH32 0x4552433732313A20746F6B656E20616C7265616479206D696E74656400000000 PUSH1 0x0 DUP3 ADD MSTORE POP JUMP JUMPDEST PUSH1 0x0 PUSH2 0x50CC PUSH1 0x1C DUP4 PUSH2 0x348F JUMP JUMPDEST SWAP2 POP PUSH2 0x50D7 DUP3 PUSH2 0x5096 JUMP JUMPDEST PUSH1 0x20 DUP3 ADD SWAP1 POP SWAP2 SWAP1 POP JUMP JUMPDEST PUSH1 0x0 PUSH1 0x20 DUP3 ADD SWAP1 POP DUP2 DUP2 SUB PUSH1 0x0 DUP4 ADD MSTORE PUSH2 0x50FB DUP2 PUSH2 0x50BF JUMP JUMPDEST SWAP1 POP SWAP2 SWAP1 POP JUMP INVALID LOG2 PUSH5 0x6970667358 0x22 SLT KECCAK256 RETURN 0xEA MUL PUSH5 0x72450ED7C5 0xBE SWAP12 0xED 0xD9 CALLER SUB 0x28 0x5F MSTORE8 AND 0xC1 PUSH28 0x36DC09C827FEB9D8D9D14F64736F6C63430008110033000000000000 "
		},
		"gasEstimates": {
			"creation": {
				"codeDepositCost": "4158400",
				"executionCost": "infinite",
				"totalCost": "infinite"
			},
			"external": {
				"_name()": "infinite",
				"_symbol()": "infinite",
				"approve(address,uint256)": "infinite",
				"balanceOf(address)": "3009",
				"baseTokenURI()": "infinite",
				"flipRentNativeState()": "28981",
				"flipRentState()": "28982",
				"getApproved(uint256)": "5323",
				"isApprovedForAll(address,address)": "infinite",
				"makeMetaEstateToken()": "infinite",
				"maxMonthlyRent()": "2497",
				"name()": "infinite",
				"owner()": "2634",
				"ownerOf(uint256)": "3088",
				"renounceOwnership()": "30444",
				"rentFee()": "2496",
				"rentFeeNative()": "2561",
				"rentIsActive()": "2632",
				"rentNativeIsActive()": "2655",
				"safeTransferFrom(address,address,uint256)": "infinite",
				"safeTransferFrom(address,address,uint256,bytes)": "infinite",
				"setApprovalForAll(address,bool)": "infinite",
				"setBaseTokenURI(string)": "infinite",
				"setFeesMaxMonth(uint256,uint256,uint256)": "infinite",
				"setNameSymbol(string,string)": "infinite",
				"setTreasuryAddress(address)": "27003",
				"setUSDAddress(address)": "27120",
				"setUser(uint256,address,uint64)": "infinite",
				"setUserNative(uint256,address,uint64)": "infinite",
				"supportsInterface(bytes4)": "909",
				"symbol()": "infinite",
				"tokenURI(uint256)": "infinite",
				"totalSupply()": "2564",
				"transferFrom(address,address,uint256)": "infinite",
				"transferOwnership(address)": "30854",
				"treasury()": "2581",
				"userExpires(uint256)": "infinite",
				"userOf(uint256)": "5269",
				"withdraw()": "infinite",
				"withdrawERC20()": "infinite"
			},
			"internal": {
				"_afterTokenTransfer(address,address,uint256,uint256)": "17",
				"_baseURI()": "infinite",
				"_beforeTokenTransfer(address,address,uint256,uint256)": "infinite"
			}
		},
		"methodIdentifiers": {
			"_name()": "d28d8852",
			"_symbol()": "b09f1266",
			"approve(address,uint256)": "095ea7b3",
			"balanceOf(address)": "70a08231",
			"baseTokenURI()": "d547cfb7",
			"flipRentNativeState()": "9b3ebbaa",
			"flipRentState()": "2dda6e4e",
			"getApproved(uint256)": "081812fc",
			"isApprovedForAll(address,address)": "e985e9c5",
			"makeMetaEstateToken()": "3790cce1",
			"maxMonthlyRent()": "81e8525b",
			"name()": "06fdde03",
			"owner()": "8da5cb5b",
			"ownerOf(uint256)": "6352211e",
			"renounceOwnership()": "715018a6",
			"rentFee()": "bf2b23ea",
			"rentFeeNative()": "f418ae6d",
			"rentIsActive()": "a389d62b",
			"rentNativeIsActive()": "35918417",
			"safeTransferFrom(address,address,uint256)": "42842e0e",
			"safeTransferFrom(address,address,uint256,bytes)": "b88d4fde",
			"setApprovalForAll(address,bool)": "a22cb465",
			"setBaseTokenURI(string)": "30176e13",
			"setFeesMaxMonth(uint256,uint256,uint256)": "49671347",
			"setNameSymbol(string,string)": "504334c2",
			"setTreasuryAddress(address)": "6605bfda",
			"setUSDAddress(address)": "4ee5c2f5",
			"setUser(uint256,address,uint64)": "e030565e",
			"setUserNative(uint256,address,uint64)": "8aed64cd",
			"supportsInterface(bytes4)": "01ffc9a7",
			"symbol()": "95d89b41",
			"tokenURI(uint256)": "c87b56dd",
			"totalSupply()": "18160ddd",
			"transferFrom(address,address,uint256)": "23b872dd",
			"transferOwnership(address)": "f2fde38b",
			"treasury()": "61d027b3",
			"userExpires(uint256)": "8fc88c48",
			"userOf(uint256)": "c2f1f14a",
			"withdraw()": "3ccfd60b",
			"withdrawERC20()": "2ed6d5e8"
		}
	},
	"abi": [
		{
			"inputs": [],
			"stateMutability": "nonpayable",
			"type": "constructor"
		},
		{
			"anonymous": false,
			"inputs": [
				{
					"indexed": true,
					"internalType": "address",
					"name": "owner",
					"type": "address"
				},
				{
					"indexed": true,
					"internalType": "address",
					"name": "approved",
					"type": "address"
				},
				{
					"indexed": true,
					"internalType": "uint256",
					"name": "tokenId",
					"type": "uint256"
				}
			],
			"name": "Approval",
			"type": "event"
		},
		{
			"anonymous": false,
			"inputs": [
				{
					"indexed": true,
					"internalType": "address",
					"name": "owner",
					"type": "address"
				},
				{
					"indexed": true,
					"internalType": "address",
					"name": "operator",
					"type": "address"
				},
				{
					"indexed": false,
					"internalType": "bool",
					"name": "approved",
					"type": "bool"
				}
			],
			"name": "ApprovalForAll",
			"type": "event"
		},
		{
			"anonymous": false,
			"inputs": [
				{
					"indexed": true,
					"internalType": "address",
					"name": "previousOwner",
					"type": "address"
				},
				{
					"indexed": true,
					"internalType": "address",
					"name": "newOwner",
					"type": "address"
				}
			],
			"name": "OwnershipTransferred",
			"type": "event"
		},
		{
			"anonymous": false,
			"inputs": [
				{
					"indexed": true,
					"internalType": "address",
					"name": "from",
					"type": "address"
				},
				{
					"indexed": true,
					"internalType": "address",
					"name": "to",
					"type": "address"
				},
				{
					"indexed": true,
					"internalType": "uint256",
					"name": "tokenId",
					"type": "uint256"
				}
			],
			"name": "Transfer",
			"type": "event"
		},
		{
			"anonymous": false,
			"inputs": [
				{
					"indexed": true,
					"internalType": "uint256",
					"name": "tokenId",
					"type": "uint256"
				},
				{
					"indexed": true,
					"internalType": "address",
					"name": "user",
					"type": "address"
				},
				{
					"indexed": false,
					"internalType": "uint64",
					"name": "expires",
					"type": "uint64"
				}
			],
			"name": "UpdateUser",
			"type": "event"
		},
		{
			"inputs": [],
			"name": "_name",
			"outputs": [
				{
					"internalType": "string",
					"name": "",
					"type": "string"
				}
			],
			"stateMutability": "view",
			"type": "function"
		},
		{
			"inputs": [],
			"name": "_symbol",
			"outputs": [
				{
					"internalType": "string",
					"name": "",
					"type": "string"
				}
			],
			"stateMutability": "view",
			"type": "function"
		},
		{
			"inputs": [
				{
					"internalType": "address",
					"name": "to",
					"type": "address"
				},
				{
					"internalType": "uint256",
					"name": "tokenId",
					"type": "uint256"
				}
			],
			"name": "approve",
			"outputs": [],
			"stateMutability": "nonpayable",
			"type": "function"
		},
		{
			"inputs": [
				{
					"internalType": "address",
					"name": "owner",
					"type": "address"
				}
			],
			"name": "balanceOf",
			"outputs": [
				{
					"internalType": "uint256",
					"name": "",
					"type": "uint256"
				}
			],
			"stateMutability": "view",
			"type": "function"
		},
		{
			"inputs": [],
			"name": "baseTokenURI",
			"outputs": [
				{
					"internalType": "string",
					"name": "",
					"type": "string"
				}
			],
			"stateMutability": "view",
			"type": "function"
		},
		{
			"inputs": [],
			"name": "flipRentNativeState",
			"outputs": [],
			"stateMutability": "nonpayable",
			"type": "function"
		},
		{
			"inputs": [],
			"name": "flipRentState",
			"outputs": [],
			"stateMutability": "nonpayable",
			"type": "function"
		},
		{
			"inputs": [
				{
					"internalType": "uint256",
					"name": "tokenId",
					"type": "uint256"
				}
			],
			"name": "getApproved",
			"outputs": [
				{
					"internalType": "address",
					"name": "",
					"type": "address"
				}
			],
			"stateMutability": "view",
			"type": "function"
		},
		{
			"inputs": [
				{
					"internalType": "address",
					"name": "owner",
					"type": "address"
				},
				{
					"internalType": "address",
					"name": "operator",
					"type": "address"
				}
			],
			"name": "isApprovedForAll",
			"outputs": [
				{
					"internalType": "bool",
					"name": "",
					"type": "bool"
				}
			],
			"stateMutability": "view",
			"type": "function"
		},
		{
			"inputs": [],
			"name": "makeMetaEstateToken",
			"outputs": [],
			"stateMutability": "nonpayable",
			"type": "function"
		},
		{
			"inputs": [],
			"name": "maxMonthlyRent",
			"outputs": [
				{
					"internalType": "uint256",
					"name": "",
					"type": "uint256"
				}
			],
			"stateMutability": "view",
			"type": "function"
		},
		{
			"inputs": [],
			"name": "name",
			"outputs": [
				{
					"internalType": "string",
					"name": "",
					"type": "string"
				}
			],
			"stateMutability": "view",
			"type": "function"
		},
		{
			"inputs": [],
			"name": "owner",
			"outputs": [
				{
					"internalType": "address",
					"name": "",
					"type": "address"
				}
			],
			"stateMutability": "view",
			"type": "function"
		},
		{
			"inputs": [
				{
					"internalType": "uint256",
					"name": "tokenId",
					"type": "uint256"
				}
			],
			"name": "ownerOf",
			"outputs": [
				{
					"internalType": "address",
					"name": "",
					"type": "address"
				}
			],
			"stateMutability": "view",
			"type": "function"
		},
		{
			"inputs": [],
			"name": "renounceOwnership",
			"outputs": [],
			"stateMutability": "nonpayable",
			"type": "function"
		},
		{
			"inputs": [],
			"name": "rentFee",
			"outputs": [
				{
					"internalType": "uint256",
					"name": "",
					"type": "uint256"
				}
			],
			"stateMutability": "view",
			"type": "function"
		},
		{
			"inputs": [],
			"name": "rentFeeNative",
			"outputs": [
				{
					"internalType": "uint256",
					"name": "",
					"type": "uint256"
				}
			],
			"stateMutability": "view",
			"type": "function"
		},
		{
			"inputs": [],
			"name": "rentIsActive",
			"outputs": [
				{
					"internalType": "bool",
					"name": "",
					"type": "bool"
				}
			],
			"stateMutability": "view",
			"type": "function"
		},
		{
			"inputs": [],
			"name": "rentNativeIsActive",
			"outputs": [
				{
					"internalType": "bool",
					"name": "",
					"type": "bool"
				}
			],
			"stateMutability": "view",
			"type": "function"
		},
		{
			"inputs": [
				{
					"internalType": "address",
					"name": "from",
					"type": "address"
				},
				{
					"internalType": "address",
					"name": "to",
					"type": "address"
				},
				{
					"internalType": "uint256",
					"name": "tokenId",
					"type": "uint256"
				}
			],
			"name": "safeTransferFrom",
			"outputs": [],
			"stateMutability": "nonpayable",
			"type": "function"
		},
		{
			"inputs": [
				{
					"internalType": "address",
					"name": "from",
					"type": "address"
				},
				{
					"internalType": "address",
					"name": "to",
					"type": "address"
				},
				{
					"internalType": "uint256",
					"name": "tokenId",
					"type": "uint256"
				},
				{
					"internalType": "bytes",
					"name": "data",
					"type": "bytes"
				}
			],
			"name": "safeTransferFrom",
			"outputs": [],
			"stateMutability": "nonpayable",
			"type": "function"
		},
		{
			"inputs": [
				{
					"internalType": "address",
					"name": "operator",
					"type": "address"
				},
				{
					"internalType": "bool",
					"name": "approved",
					"type": "bool"
				}
			],
			"name": "setApprovalForAll",
			"outputs": [],
			"stateMutability": "nonpayable",
			"type": "function"
		},
		{
			"inputs": [
				{
					"internalType": "string",
					"name": "newuri",
					"type": "string"
				}
			],
			"name": "setBaseTokenURI",
			"outputs": [],
			"stateMutability": "nonpayable",
			"type": "function"
		},
		{
			"inputs": [
				{
					"internalType": "uint256",
					"name": "newRentFee",
					"type": "uint256"
				},
				{
					"internalType": "uint256",
					"name": "newRentFeeNative",
					"type": "uint256"
				},
				{
					"internalType": "uint256",
					"name": "newMaxMonthlyRent",
					"type": "uint256"
				}
			],
			"name": "setFeesMaxMonth",
			"outputs": [],
			"stateMutability": "nonpayable",
			"type": "function"
		},
		{
			"inputs": [
				{
					"internalType": "string",
					"name": "name",
					"type": "string"
				},
				{
					"internalType": "string",
					"name": "symbol",
					"type": "string"
				}
			],
			"name": "setNameSymbol",
			"outputs": [],
			"stateMutability": "nonpayable",
			"type": "function"
		},
		{
			"inputs": [
				{
					"internalType": "address payable",
					"name": "newTreasuryAddress",
					"type": "address"
				}
			],
			"name": "setTreasuryAddress",
			"outputs": [],
			"stateMutability": "nonpayable",
			"type": "function"
		},
		{
			"inputs": [
				{
					"internalType": "address payable",
					"name": "newUSDAddress",
					"type": "address"
				}
			],
			"name": "setUSDAddress",
			"outputs": [],
			"stateMutability": "nonpayable",
			"type": "function"
		},
		{
			"inputs": [
				{
					"internalType": "uint256",
					"name": "tokenId",
					"type": "uint256"
				},
				{
					"internalType": "address",
					"name": "user",
					"type": "address"
				},
				{
					"internalType": "uint64",
					"name": "expires",
					"type": "uint64"
				}
			],
			"name": "setUser",
			"outputs": [],
			"stateMutability": "nonpayable",
			"type": "function"
		},
		{
			"inputs": [
				{
					"internalType": "uint256",
					"name": "tokenId",
					"type": "uint256"
				},
				{
					"internalType": "address",
					"name": "user",
					"type": "address"
				},
				{
					"internalType": "uint64",
					"name": "expires",
					"type": "uint64"
				}
			],
			"name": "setUserNative",
			"outputs": [],
			"stateMutability": "payable",
			"type": "function"
		},
		{
			"inputs": [
				{
					"internalType": "bytes4",
					"name": "interfaceId",
					"type": "bytes4"
				}
			],
			"name": "supportsInterface",
			"outputs": [
				{
					"internalType": "bool",
					"name": "",
					"type": "bool"
				}
			],
			"stateMutability": "view",
			"type": "function"
		},
		{
			"inputs": [],
			"name": "symbol",
			"outputs": [
				{
					"internalType": "string",
					"name": "",
					"type": "string"
				}
			],
			"stateMutability": "view",
			"type": "function"
		},
		{
			"inputs": [
				{
					"internalType": "uint256",
					"name": "tokenId",
					"type": "uint256"
				}
			],
			"name": "tokenURI",
			"outputs": [
				{
					"internalType": "string",
					"name": "",
					"type": "string"
				}
			],
			"stateMutability": "view",
			"type": "function"
		},
		{
			"inputs": [],
			"name": "totalSupply",
			"outputs": [
				{
					"internalType": "uint256",
					"name": "",
					"type": "uint256"
				}
			],
			"stateMutability": "view",
			"type": "function"
		},
		{
			"inputs": [
				{
					"internalType": "address",
					"name": "from",
					"type": "address"
				},
				{
					"internalType": "address",
					"name": "to",
					"type": "address"
				},
				{
					"internalType": "uint256",
					"name": "tokenId",
					"type": "uint256"
				}
			],
			"name": "transferFrom",
			"outputs": [],
			"stateMutability": "nonpayable",
			"type": "function"
		},
		{
			"inputs": [
				{
					"internalType": "address",
					"name": "newOwner",
					"type": "address"
				}
			],
			"name": "transferOwnership",
			"outputs": [],
			"stateMutability": "nonpayable",
			"type": "function"
		},
		{
			"inputs": [],
			"name": "treasury",
			"outputs": [
				{
					"internalType": "address payable",
					"name": "",
					"type": "address"
				}
			],
			"stateMutability": "view",
			"type": "function"
		},
		{
			"inputs": [
				{
					"internalType": "uint256",
					"name": "tokenId",
					"type": "uint256"
				}
			],
			"name": "userExpires",
			"outputs": [
				{
					"internalType": "uint256",
					"name": "",
					"type": "uint256"
				}
			],
			"stateMutability": "view",
			"type": "function"
		},
		{
			"inputs": [
				{
					"internalType": "uint256",
					"name": "tokenId",
					"type": "uint256"
				}
			],
			"name": "userOf",
			"outputs": [
				{
					"internalType": "address",
					"name": "",
					"type": "address"
				}
			],
			"stateMutability": "view",
			"type": "function"
		},
		{
			"inputs": [],
			"name": "withdraw",
			"outputs": [],
			"stateMutability": "nonpayable",
			"type": "function"
		},
		{
			"inputs": [],
			"name": "withdrawERC20",
			"outputs": [],
			"stateMutability": "nonpayable",
			"type": "function"
		}
	]
}