{
	"ClubAi.sol": {
		"ClubAI": {
			"abi": [
				{
					"inputs": [
						{
							"internalType": "string",
							"name": "_NAME",
							"type": "string"
						},
						{
							"internalType": "string",
							"name": "_SYMBOL",
							"type": "string"
						},
						{
							"internalType": "uint256",
							"name": "_DECIMALS",
							"type": "uint256"
						},
						{
							"internalType": "uint256",
							"name": "_supply",
							"type": "uint256"
						},
						{
							"internalType": "uint256",
							"name": "_txFee",
							"type": "uint256"
						},
						{
							"internalType": "uint256",
							"name": "_lpFee",
							"type": "uint256"
						},
						{
							"internalType": "uint256",
							"name": "_MAXAMOUNT",
							"type": "uint256"
						},
						{
							"internalType": "uint256",
							"name": "SELLMAXAMOUNT",
							"type": "uint256"
						},
						{
							"internalType": "address",
							"name": "routerAddress",
							"type": "address"
						},
						{
							"internalType": "address",
							"name": "tokenOwner",
							"type": "address"
						}
					],
					"stateMutability": "nonpayable",
					"type": "constructor"
				},
				{
					"anonymous": false,
					"inputs": [
						{
							"indexed": true,
							"internalType": "address",
							"name": "owner",
							"type": "address"
						},
						{
							"indexed": true,
							"internalType": "address",
							"name": "spender",
							"type": "address"
						},
						{
							"indexed": false,
							"internalType": "uint256",
							"name": "value",
							"type": "uint256"
						}
					],
					"name": "Approval",
					"type": "event"
				},
				{
					"anonymous": false,
					"inputs": [
						{
							"indexed": false,
							"internalType": "uint256",
							"name": "minTokensBeforeSwap",
							"type": "uint256"
						}
					],
					"name": "MinTokensBeforeSwapUpdated",
					"type": "event"
				},
				{
					"anonymous": false,
					"inputs": [
						{
							"indexed": true,
							"internalType": "address",
							"name": "previousOwner",
							"type": "address"
						},
						{
							"indexed": true,
							"internalType": "address",
							"name": "newOwner",
							"type": "address"
						}
					],
					"name": "OwnershipTransferred",
					"type": "event"
				},
				{
					"anonymous": false,
					"inputs": [
						{
							"indexed": false,
							"internalType": "uint256",
							"name": "tokensSwapped",
							"type": "uint256"
						},
						{
							"indexed": false,
							"internalType": "uint256",
							"name": "ethReceived",
							"type": "uint256"
						},
						{
							"indexed": false,
							"internalType": "uint256",
							"name": "tokensIntoLiqudity",
							"type": "uint256"
						}
					],
					"name": "SwapAndLiquify",
					"type": "event"
				},
				{
					"anonymous": false,
					"inputs": [
						{
							"indexed": false,
							"internalType": "bool",
							"name": "enabled",
							"type": "bool"
						}
					],
					"name": "SwapAndLiquifyEnabledUpdated",
					"type": "event"
				},
				{
					"anonymous": false,
					"inputs": [
						{
							"indexed": true,
							"internalType": "address",
							"name": "from",
							"type": "address"
						},
						{
							"indexed": true,
							"internalType": "address",
							"name": "to",
							"type": "address"
						},
						{
							"indexed": false,
							"internalType": "uint256",
							"name": "value",
							"type": "uint256"
						}
					],
					"name": "Transfer",
					"type": "event"
				},
				{
					"inputs": [],
					"name": "_liquidityFee",
					"outputs": [
						{
							"internalType": "uint256",
							"name": "",
							"type": "uint256"
						}
					],
					"stateMutability": "view",
					"type": "function"
				},
				{
					"inputs": [],
					"name": "_maxTxAmount",
					"outputs": [
						{
							"internalType": "uint256",
							"name": "",
							"type": "uint256"
						}
					],
					"stateMutability": "view",
					"type": "function"
				},
				{
					"inputs": [],
					"name": "_owner",
					"outputs": [
						{
							"internalType": "address",
							"name": "",
							"type": "address"
						}
					],
					"stateMutability": "view",
					"type": "function"
				},
				{
					"inputs": [],
					"name": "_taxFee",
					"outputs": [
						{
							"internalType": "uint256",
							"name": "",
							"type": "uint256"
						}
					],
					"stateMutability": "view",
					"type": "function"
				},
				{
					"inputs": [
						{
							"internalType": "address",
							"name": "owner",
							"type": "address"
						},
						{
							"internalType": "address",
							"name": "spender",
							"type": "address"
						}
					],
					"name": "allowance",
					"outputs": [
						{
							"internalType": "uint256",
							"name": "",
							"type": "uint256"
						}
					],
					"stateMutability": "view",
					"type": "function"
				},
				{
					"inputs": [
						{
							"internalType": "address",
							"name": "spender",
							"type": "address"
						},
						{
							"internalType": "uint256",
							"name": "amount",
							"type": "uint256"
						}
					],
					"name": "approve",
					"outputs": [
						{
							"internalType": "bool",
							"name": "",
							"type": "bool"
						}
					],
					"stateMutability": "nonpayable",
					"type": "function"
				},
				{
					"inputs": [
						{
							"internalType": "address",
							"name": "account",
							"type": "address"
						}
					],
					"name": "balanceOf",
					"outputs": [
						{
							"internalType": "uint256",
							"name": "",
							"type": "uint256"
						}
					],
					"stateMutability": "view",
					"type": "function"
				},
				{
					"inputs": [],
					"name": "claimTokens",
					"outputs": [],
					"stateMutability": "nonpayable",
					"type": "function"
				},
				{
					"inputs": [],
					"name": "decimals",
					"outputs": [
						{
							"internalType": "uint256",
							"name": "",
							"type": "uint256"
						}
					],
					"stateMutability": "view",
					"type": "function"
				},
				{
					"inputs": [
						{
							"internalType": "address",
							"name": "spender",
							"type": "address"
						},
						{
							"internalType": "uint256",
							"name": "subtractedValue",
							"type": "uint256"
						}
					],
					"name": "decreaseAllowance",
					"outputs": [
						{
							"internalType": "bool",
							"name": "",
							"type": "bool"
						}
					],
					"stateMutability": "nonpayable",
					"type": "function"
				},
				{
					"inputs": [
						{
							"internalType": "uint256",
							"name": "tAmount",
							"type": "uint256"
						}
					],
					"name": "deliver",
					"outputs": [],
					"stateMutability": "nonpayable",
					"type": "function"
				},
				{
					"inputs": [
						{
							"internalType": "address",
							"name": "account",
							"type": "address"
						}
					],
					"name": "excludeFromFee",
					"outputs": [],
					"stateMutability": "nonpayable",
					"type": "function"
				},
				{
					"inputs": [
						{
							"internalType": "address",
							"name": "account",
							"type": "address"
						}
					],
					"name": "excludeFromReward",
					"outputs": [],
					"stateMutability": "nonpayable",
					"type": "function"
				},
				{
					"inputs": [],
					"name": "geUnlockTime",
					"outputs": [
						{
							"internalType": "uint256",
							"name": "",
							"type": "uint256"
						}
					],
					"stateMutability": "view",
					"type": "function"
				},
				{
					"inputs": [
						{
							"internalType": "address",
							"name": "account",
							"type": "address"
						}
					],
					"name": "includeInFee",
					"outputs": [],
					"stateMutability": "nonpayable",
					"type": "function"
				},
				{
					"inputs": [
						{
							"internalType": "address",
							"name": "account",
							"type": "address"
						}
					],
					"name": "includeInReward",
					"outputs": [],
					"stateMutability": "nonpayable",
					"type": "function"
				},
				{
					"inputs": [
						{
							"internalType": "address",
							"name": "spender",
							"type": "address"
						},
						{
							"internalType": "uint256",
							"name": "addedValue",
							"type": "uint256"
						}
					],
					"name": "increaseAllowance",
					"outputs": [
						{
							"internalType": "bool",
							"name": "",
							"type": "bool"
						}
					],
					"stateMutability": "nonpayable",
					"type": "function"
				},
				{
					"inputs": [
						{
							"internalType": "address",
							"name": "account",
							"type": "address"
						}
					],
					"name": "isExcludedFromFee",
					"outputs": [
						{
							"internalType": "bool",
							"name": "",
							"type": "bool"
						}
					],
					"stateMutability": "view",
					"type": "function"
				},
				{
					"inputs": [
						{
							"internalType": "address",
							"name": "account",
							"type": "address"
						}
					],
					"name": "isExcludedFromReward",
					"outputs": [
						{
							"internalType": "bool",
							"name": "",
							"type": "bool"
						}
					],
					"stateMutability": "view",
					"type": "function"
				},
				{
					"inputs": [
						{
							"internalType": "uint256",
							"name": "time",
							"type": "uint256"
						}
					],
					"name": "lock",
					"outputs": [],
					"stateMutability": "nonpayable",
					"type": "function"
				},
				{
					"inputs": [],
					"name": "name",
					"outputs": [
						{
							"internalType": "string",
							"name": "",
							"type": "string"
						}
					],
					"stateMutability": "view",
					"type": "function"
				},
				{
					"inputs": [],
					"name": "numTokensSellToAddToLiquidity",
					"outputs": [
						{
							"internalType": "uint256",
							"name": "",
							"type": "uint256"
						}
					],
					"stateMutability": "view",
					"type": "function"
				},
				{
					"inputs": [],
					"name": "owner",
					"outputs": [
						{
							"internalType": "address",
							"name": "",
							"type": "address"
						}
					],
					"stateMutability": "view",
					"type": "function"
				},
				{
					"inputs": [
						{
							"internalType": "uint256",
							"name": "tAmount",
							"type": "uint256"
						},
						{
							"internalType": "bool",
							"name": "deductTransferFee",
							"type": "bool"
						}
					],
					"name": "reflectionFromToken",
					"outputs": [
						{
							"internalType": "uint256",
							"name": "",
							"type": "uint256"
						}
					],
					"stateMutability": "view",
					"type": "function"
				},
				{
					"inputs": [],
					"name": "renounceOwnership",
					"outputs": [],
					"stateMutability": "nonpayable",
					"type": "function"
				},
				{
					"inputs": [
						{
							"internalType": "uint256",
							"name": "liquidityFee",
							"type": "uint256"
						}
					],
					"name": "setLiquidityFeePercent",
					"outputs": [],
					"stateMutability": "nonpayable",
					"type": "function"
				},
				{
					"inputs": [
						{
							"internalType": "uint256",
							"name": "maxTxPercent",
							"type": "uint256"
						}
					],
					"name": "setMaxTxPercent",
					"outputs": [],
					"stateMutability": "nonpayable",
					"type": "function"
				},
				{
					"inputs": [
						{
							"internalType": "uint256",
							"name": "swapNumber",
							"type": "uint256"
						}
					],
					"name": "setNumTokensSellToAddToLiquidity",
					"outputs": [],
					"stateMutability": "nonpayable",
					"type": "function"
				},
				{
					"inputs": [
						{
							"internalType": "bool",
							"name": "_enabled",
							"type": "bool"
						}
					],
					"name": "setSwapAndLiquifyEnabled",
					"outputs": [],
					"stateMutability": "nonpayable",
					"type": "function"
				},
				{
					"inputs": [
						{
							"internalType": "uint256",
							"name": "taxFee",
							"type": "uint256"
						}
					],
					"name": "setTaxFeePercent",
					"outputs": [],
					"stateMutability": "nonpayable",
					"type": "function"
				},
				{
					"inputs": [],
					"name": "swapAndLiquifyEnabled",
					"outputs": [
						{
							"internalType": "bool",
							"name": "",
							"type": "bool"
						}
					],
					"stateMutability": "view",
					"type": "function"
				},
				{
					"inputs": [],
					"name": "symbol",
					"outputs": [
						{
							"internalType": "string",
							"name": "",
							"type": "string"
						}
					],
					"stateMutability": "view",
					"type": "function"
				},
				{
					"inputs": [
						{
							"internalType": "uint256",
							"name": "rAmount",
							"type": "uint256"
						}
					],
					"name": "tokenFromReflection",
					"outputs": [
						{
							"internalType": "uint256",
							"name": "",
							"type": "uint256"
						}
					],
					"stateMutability": "view",
					"type": "function"
				},
				{
					"inputs": [],
					"name": "totalFees",
					"outputs": [
						{
							"internalType": "uint256",
							"name": "",
							"type": "uint256"
						}
					],
					"stateMutability": "view",
					"type": "function"
				},
				{
					"inputs": [],
					"name": "totalSupply",
					"outputs": [
						{
							"internalType": "uint256",
							"name": "",
							"type": "uint256"
						}
					],
					"stateMutability": "view",
					"type": "function"
				},
				{
					"inputs": [
						{
							"internalType": "address",
							"name": "recipient",
							"type": "address"
						},
						{
							"internalType": "uint256",
							"name": "amount",
							"type": "uint256"
						}
					],
					"name": "transfer",
					"outputs": [
						{
							"internalType": "bool",
							"name": "",
							"type": "bool"
						}
					],
					"stateMutability": "nonpayable",
					"type": "function"
				},
				{
					"inputs": [
						{
							"internalType": "address",
							"name": "sender",
							"type": "address"
						},
						{
							"internalType": "address",
							"name": "recipient",
							"type": "address"
						},
						{
							"internalType": "uint256",
							"name": "amount",
							"type": "uint256"
						}
					],
					"name": "transferFrom",
					"outputs": [
						{
							"internalType": "bool",
							"name": "",
							"type": "bool"
						}
					],
					"stateMutability": "nonpayable",
					"type": "function"
				},
				{
					"inputs": [
						{
							"internalType": "address",
							"name": "newOwner",
							"type": "address"
						}
					],
					"name": "transferOwnership",
					"outputs": [],
					"stateMutability": "nonpayable",
					"type": "function"
				},
				{
					"inputs": [],
					"name": "uniswapV2Pair",
					"outputs": [
						{
							"internalType": "address",
							"name": "",
							"type": "address"
						}
					],
					"stateMutability": "view",
					"type": "function"
				},
				{
					"inputs": [],
					"name": "uniswapV2Router",
					"outputs": [
						{
							"internalType": "contract IUniswapV2Router02",
							"name": "",
							"type": "address"
						}
					],
					"stateMutability": "view",
					"type": "function"
				},
				{
					"inputs": [],
					"name": "unlock",
					"outputs": [],
					"stateMutability": "nonpayable",
					"type": "function"
				},
				{
					"stateMutability": "payable",
					"type": "receive"
				}
			],
			"devdoc": {
				"kind": "dev",
				"methods": {
					"allowance(address,address)": {
						"details": "Returns the remaining number of tokens that `spender` will be allowed to spend on behalf of `owner` through {transferFrom}. This is zero by default. This value changes when {approve} or {transferFrom} are called."
					},
					"approve(address,uint256)": {
						"details": "Sets `amount` as the allowance of `spender` over the caller's tokens. Returns a boolean value indicating whether the operation succeeded. IMPORTANT: Beware that changing an allowance with this method brings the risk that someone may use both the old and the new allowance by unfortunate transaction ordering. One possible solution to mitigate this race condition is to first reduce the spender's allowance to 0 and set the desired value afterwards: https://github.com/ethereum/EIPs/issues/20#issuecomment-263524729 Emits an {Approval} event."
					},
					"balanceOf(address)": {
						"details": "Returns the amount of tokens owned by `account`."
					},
					"owner()": {
						"details": "Returns the address of the current owner."
					},
					"renounceOwnership()": {
						"details": "Leaves the contract without owner. It will not be possible to call `onlyOwner` functions anymore. Can only be called by the current owner. NOTE: Renouncing ownership will leave the contract without an owner, thereby removing any functionality that is only available to the owner."
					},
					"transfer(address,uint256)": {
						"details": "Moves `amount` tokens from the caller's account to `recipient`. Returns a boolean value indicating whether the operation succeeded. Emits a {Transfer} event."
					},
					"transferFrom(address,address,uint256)": {
						"details": "Moves `amount` tokens from `sender` to `recipient` using the allowance mechanism. `amount` is then deducted from the caller's allowance. Returns a boolean value indicating whether the operation succeeded. Emits a {Transfer} event."
					},
					"transferOwnership(address)": {
						"details": "Transfers ownership of the contract to a new account (`newOwner`). Can only be called by the current owner."
					}
				},
				"version": 1
			},
			"evm": {
				"assembly": "    /* \"ClubAi.sol\":25414:44518  contract ClubAI is Context, IERC20, Ownable {\r... */\n  mstore(0x40, 0xc0)\n    /* \"ClubAi.sol\":26429:26433  true */\n  0x01\n    /* \"ClubAi.sol\":26393:26433  bool public swapAndLiquifyEnabled = true */\n  0x13\n  exp(0x0100, 0x01)\n  dup2\n  sload\n  dup2\n  0xff\n  mul\n  not\n  and\n  swap1\n  dup4\n  iszero\n  iszero\n  mul\n  or\n  swap1\n  sstore\n  pop\n    /* \"ClubAi.sol\":26921:28275  constructor (string memory _NAME, string memory _SYMBOL, uint256 _DECIMALS, uint256 _supply, uint256 _txFee,uint256 _lpFee,uint256 _MAXAMOUNT,uint256 SELLMAXAMOUNT,address routerAddress,address tokenOwner) public {\r... */\n  callvalue\n  dup1\n  iszero\n  tag_1\n  jumpi\n  0x00\n  dup1\n  revert\ntag_1:\n  pop\n  mload(0x40)\n  sub(codesize, bytecodeSize)\n  dup1\n  bytecodeSize\n  dup4\n  codecopy\n  dup2\n  dup2\n  add\n  0x40\n  mstore\n  0x0140\n  dup2\n  lt\n  iszero\n  tag_2\n  jumpi\n  0x00\n  dup1\n  revert\ntag_2:\n  dup2\n  add\n  swap1\n  dup1\n  dup1\n  mload\n  mload(0x40)\n  swap4\n  swap3\n  swap2\n  swap1\n  dup5\n  0x0100000000\n  dup3\n  gt\n  iszero\n  tag_3\n  jumpi\n  0x00\n  dup1\n  revert\ntag_3:\n  dup4\n  dup3\n  add\n  swap2\n  pop\n  0x20\n  dup3\n  add\n  dup6\n  dup2\n  gt\n  iszero\n  tag_4\n  jumpi\n  0x00\n  dup1\n  revert\ntag_4:\n  dup3\n  mload\n  dup7\n  0x01\n  dup3\n  mul\n  dup4\n  add\n  gt\n  0x0100000000\n  dup3\n  gt\n  or\n  iszero\n  tag_5\n  jumpi\n  0x00\n  dup1\n  revert\ntag_5:\n  dup1\n  dup4\n  mstore\n  0x20\n  dup4\n  add\n  swap3\n  pop\n  pop\n  pop\n  swap1\n  dup1\n  mload\n  swap1\n  0x20\n  add\n  swap1\n  dup1\n  dup4\n  dup4\n  0x00\ntag_6:\n  dup4\n  dup2\n  lt\n  iszero\n  tag_8\n  jumpi\n  dup1\n  dup3\n  add\n  mload\n  dup2\n  dup5\n  add\n  mstore\n  0x20\n  dup2\n  add\n  swap1\n  pop\n  jump(tag_6)\ntag_8:\n  pop\n  pop\n  pop\n  pop\n  swap1\n  pop\n  swap1\n  dup2\n  add\n  swap1\n  0x1f\n  and\n  dup1\n  iszero\n  tag_9\n  jumpi\n  dup1\n  dup3\n  sub\n  dup1\n  mload\n  0x01\n  dup4\n  0x20\n  sub\n  0x0100\n  exp\n  sub\n  not\n  and\n  dup2\n  mstore\n  0x20\n  add\n  swap2\n  pop\ntag_9:\n  pop\n  0x40\n  mstore\n  0x20\n  add\n  dup1\n  mload\n  mload(0x40)\n  swap4\n  swap3\n  swap2\n  swap1\n  dup5\n  0x0100000000\n  dup3\n  gt\n  iszero\n  tag_10\n  jumpi\n  0x00\n  dup1\n  revert\ntag_10:\n  dup4\n  dup3\n  add\n  swap2\n  pop\n  0x20\n  dup3\n  add\n  dup6\n  dup2\n  gt\n  iszero\n  tag_11\n  jumpi\n  0x00\n  dup1\n  revert\ntag_11:\n  dup3\n  mload\n  dup7\n  0x01\n  dup3\n  mul\n  dup4\n  add\n  gt\n  0x0100000000\n  dup3\n  gt\n  or\n  iszero\n  tag_12\n  jumpi\n  0x00\n  dup1\n  revert\ntag_12:\n  dup1\n  dup4\n  mstore\n  0x20\n  dup4\n  add\n  swap3\n  pop\n  pop\n  pop\n  swap1\n  dup1\n  mload\n  swap1\n  0x20\n  add\n  swap1\n  dup1\n  dup4\n  dup4\n  0x00\ntag_13:\n  dup4\n  dup2\n  lt\n  iszero\n  tag_15\n  jumpi\n  dup1\n  dup3\n  add\n  mload\n  dup2\n  dup5\n  add\n  mstore\n  0x20\n  dup2\n  add\n  swap1\n  pop\n  jump(tag_13)\ntag_15:\n  pop\n  pop\n  pop\n  pop\n  swap1\n  pop\n  swap1\n  dup2\n  add\n  swap1\n  0x1f\n  and\n  dup1\n  iszero\n  tag_16\n  jumpi\n  dup1\n  dup3\n  sub\n  dup1\n  mload\n  0x01\n  dup4\n  0x20\n  sub\n  0x0100\n  exp\n  sub\n  not\n  and\n  dup2\n  mstore\n  0x20\n  add\n  swap2\n  pop\ntag_16:\n  pop\n  0x40\n  mstore\n  0x20\n  add\n  dup1\n  mload\n  swap1\n  0x20\n  add\n  swap1\n  swap3\n  swap2\n  swap1\n  dup1\n  mload\n  swap1\n  0x20\n  add\n  swap1\n  swap3\n  swap2\n  swap1\n  dup1\n  mload\n  swap1\n  0x20\n  add\n  swap1\n  swap3\n  swap2\n  swap1\n  dup1\n  mload\n  swap1\n  0x20\n  add\n  swap1\n  swap3\n  swap2\n  swap1\n  dup1\n  mload\n  swap1\n  0x20\n  add\n  swap1\n  swap3\n  swap2\n  swap1\n  dup1\n  mload\n  swap1\n  0x20\n  add\n  swap1\n  swap3\n  swap2\n  swap1\n  dup1\n  mload\n  swap1\n  0x20\n  add\n  swap1\n  swap3\n  swap2\n  swap1\n  dup1\n  mload\n  swap1\n  0x20\n  add\n  swap1\n  swap3\n  swap2\n  swap1\n  pop\n  pop\n  pop\n    /* \"ClubAi.sol\":27153:27158  _NAME */\n  dup10\n    /* \"ClubAi.sol\":27145:27150  _name */\n  0x0c\n    /* \"ClubAi.sol\":27145:27158  _name = _NAME */\n  swap1\n  dup1\n  mload\n  swap1\n  0x20\n  add\n  swap1\n  tag_19\n  swap3\n  swap2\n  swap1\n  tag_20\n  jump\t// in\ntag_19:\n  pop\n    /* \"ClubAi.sol\":27179:27186  _SYMBOL */\n  dup9\n    /* \"ClubAi.sol\":27169:27176  _symbol */\n  0x0d\n    /* \"ClubAi.sol\":27169:27186  _symbol = _SYMBOL */\n  swap1\n  dup1\n  mload\n  swap1\n  0x20\n  add\n  swap1\n  tag_21\n  swap3\n  swap2\n  swap1\n  tag_20\n  jump\t// in\ntag_21:\n  pop\n    /* \"ClubAi.sol\":27209:27218  _DECIMALS */\n  dup8\n    /* \"ClubAi.sol\":27197:27206  _decimals */\n  0x0e\n    /* \"ClubAi.sol\":27197:27218  _decimals = _DECIMALS */\n  dup2\n  swap1\n  sstore\n  pop\n    /* \"ClubAi.sol\":27255:27264  _decimals */\n  sload(0x0e)\n    /* \"ClubAi.sol\":27249:27251  10 */\n  0x0a\n    /* \"ClubAi.sol\":27249:27264  10 ** _decimals */\n  exp\n    /* \"ClubAi.sol\":27239:27246  _supply */\n  dup8\n    /* \"ClubAi.sol\":27239:27264  _supply * 10 ** _decimals */\n  mul\n    /* \"ClubAi.sol\":27229:27236  _tTotal */\n  0x09\n    /* \"ClubAi.sol\":27229:27264  _tTotal = _supply * 10 ** _decimals */\n  dup2\n  swap1\n  sstore\n  pop\n    /* \"ClubAi.sol\":27299:27306  _tTotal */\n  sload(0x09)\n    /* \"ClubAi.sol\":25904:25905  0 */\n  0x00\n    /* \"ClubAi.sol\":25895:25906  ~uint256(0) */\n  not\n    /* \"ClubAi.sol\":27293:27306  MAX % _tTotal */\n  dup2\n  tag_22\n  jumpi\n  invalid\ntag_22:\n  mod\n    /* \"ClubAi.sol\":25904:25905  0 */\n  0x00\n    /* \"ClubAi.sol\":25895:25906  ~uint256(0) */\n  not\n    /* \"ClubAi.sol\":27286:27307  MAX - (MAX % _tTotal) */\n  sub\n    /* \"ClubAi.sol\":27275:27282  _rTotal */\n  0x0a\n    /* \"ClubAi.sol\":27275:27308  _rTotal = (MAX - (MAX % _tTotal)) */\n  dup2\n  swap1\n  sstore\n  pop\n    /* \"ClubAi.sol\":27329:27335  _txFee */\n  dup6\n    /* \"ClubAi.sol\":27319:27326  _taxFee */\n  0x0f\n    /* \"ClubAi.sol\":27319:27335  _taxFee = _txFee */\n  dup2\n  swap1\n  sstore\n  pop\n    /* \"ClubAi.sol\":27362:27368  _lpFee */\n  dup5\n    /* \"ClubAi.sol\":27346:27359  _liquidityFee */\n  0x11\n    /* \"ClubAi.sol\":27346:27368  _liquidityFee = _lpFee */\n  dup2\n  swap1\n  sstore\n  pop\n    /* \"ClubAi.sol\":27397:27403  _txFee */\n  dup6\n    /* \"ClubAi.sol\":27379:27394  _previousTaxFee */\n  0x10\n    /* \"ClubAi.sol\":27379:27403  _previousTaxFee = _txFee */\n  dup2\n  swap1\n  sstore\n  pop\n    /* \"ClubAi.sol\":27438:27444  _lpFee */\n  dup5\n    /* \"ClubAi.sol\":27414:27435  _previousLiquidityFee */\n  0x12\n    /* \"ClubAi.sol\":27414:27444  _previousLiquidityFee = _lpFee */\n  dup2\n  swap1\n  sstore\n  pop\n    /* \"ClubAi.sol\":27489:27498  _decimals */\n  sload(0x0e)\n    /* \"ClubAi.sol\":27483:27485  10 */\n  0x0a\n    /* \"ClubAi.sol\":27483:27498  10 ** _decimals */\n  exp\n    /* \"ClubAi.sol\":27470:27480  _MAXAMOUNT */\n  dup5\n    /* \"ClubAi.sol\":27470:27498  _MAXAMOUNT * 10 ** _decimals */\n  mul\n    /* \"ClubAi.sol\":27455:27467  _maxTxAmount */\n  0x14\n    /* \"ClubAi.sol\":27455:27498  _maxTxAmount = _MAXAMOUNT * 10 ** _decimals */\n  dup2\n  swap1\n  sstore\n  pop\n    /* \"ClubAi.sol\":27563:27572  _decimals */\n  sload(0x0e)\n    /* \"ClubAi.sol\":27557:27559  10 */\n  0x0a\n    /* \"ClubAi.sol\":27557:27572  10 ** _decimals */\n  exp\n    /* \"ClubAi.sol\":27541:27554  SELLMAXAMOUNT */\n  dup4\n    /* \"ClubAi.sol\":27541:27572  SELLMAXAMOUNT * 10 ** _decimals */\n  mul\n    /* \"ClubAi.sol\":27509:27538  numTokensSellToAddToLiquidity */\n  0x15\n    /* \"ClubAi.sol\":27509:27572  numTokensSellToAddToLiquidity = SELLMAXAMOUNT * 10 ** _decimals */\n  dup2\n  swap1\n  sstore\n  pop\n    /* \"ClubAi.sol\":27625:27632  _rTotal */\n  sload(0x0a)\n    /* \"ClubAi.sol\":27603:27610  _rOwned */\n  0x03\n    /* \"ClubAi.sol\":27603:27622  _rOwned[tokenOwner] */\n  0x00\n    /* \"ClubAi.sol\":27611:27621  tokenOwner */\n  dup4\n    /* \"ClubAi.sol\":27603:27622  _rOwned[tokenOwner] */\n  0xffffffffffffffffffffffffffffffffffffffff\n  and\n  0xffffffffffffffffffffffffffffffffffffffff\n  and\n  dup2\n  mstore\n  0x20\n  add\n  swap1\n  dup2\n  mstore\n  0x20\n  add\n  0x00\n  keccak256\n    /* \"ClubAi.sol\":27603:27632  _rOwned[tokenOwner] = _rTotal */\n  dup2\n  swap1\n  sstore\n  pop\n    /* \"ClubAi.sol\":27653:27688  IUniswapV2Router02 _uniswapV2Router */\n  0x00\n    /* \"ClubAi.sol\":27710:27723  routerAddress */\n  dup3\n    /* \"ClubAi.sol\":27653:27724  IUniswapV2Router02 _uniswapV2Router = IUniswapV2Router02(routerAddress) */\n  swap1\n  pop\n    /* \"ClubAi.sol\":27823:27839  _uniswapV2Router */\n  dup1\n    /* \"ClubAi.sol\":27823:27847  _uniswapV2Router.factory */\n  0xffffffffffffffffffffffffffffffffffffffff\n  and\n  0xc45a0155\n    /* \"ClubAi.sol\":27823:27849  _uniswapV2Router.factory() */\n  mload(0x40)\n  dup2\n  0xffffffff\n  and\n  0xe0\n  shl\n  dup2\n  mstore\n  0x04\n  add\n  0x20\n  mload(0x40)\n  dup1\n  dup4\n  sub\n  dup2\n  dup7\n  dup1\n  extcodesize\n  iszero\n  dup1\n  iszero\n  tag_23\n  jumpi\n  0x00\n  dup1\n  revert\ntag_23:\n  pop\n  gas\n  staticcall\n  iszero\n  dup1\n  iszero\n  tag_25\n  jumpi\n  returndatasize\n  0x00\n  dup1\n  returndatacopy\n  revert(0x00, returndatasize)\ntag_25:\n  pop\n  pop\n  pop\n  pop\n  mload(0x40)\n  returndatasize\n  0x20\n  dup2\n  lt\n  iszero\n  tag_26\n  jumpi\n  0x00\n  dup1\n  revert\ntag_26:\n  dup2\n  add\n  swap1\n  dup1\n  dup1\n  mload\n  swap1\n  0x20\n  add\n  swap1\n  swap3\n  swap2\n  swap1\n  pop\n  pop\n  pop\n    /* \"ClubAi.sol\":27805:27875  IUniswapV2Factory(_uniswapV2Router.factory())\r... */\n  0xffffffffffffffffffffffffffffffffffffffff\n  and\n  0xc9c65396\n    /* \"ClubAi.sol\":27884:27888  this */\n  address\n    /* \"ClubAi.sol\":27891:27907  _uniswapV2Router */\n  dup4\n    /* \"ClubAi.sol\":27891:27912  _uniswapV2Router.WETH */\n  0xffffffffffffffffffffffffffffffffffffffff\n  and\n  0xad5c4648\n    /* \"ClubAi.sol\":27891:27914  _uniswapV2Router.WETH() */\n  mload(0x40)\n  dup2\n  0xffffffff\n  and\n  0xe0\n  shl\n  dup2\n  mstore\n  0x04\n  add\n  0x20\n  mload(0x40)\n  dup1\n  dup4\n  sub\n  dup2\n  dup7\n  dup1\n  extcodesize\n  iszero\n  dup1\n  iszero\n  tag_27\n  jumpi\n  0x00\n  dup1\n  revert\ntag_27:\n  pop\n  gas\n  staticcall\n  iszero\n  dup1\n  iszero\n  tag_29\n  jumpi\n  returndatasize\n  0x00\n  dup1\n  returndatacopy\n  revert(0x00, returndatasize)\ntag_29:\n  pop\n  pop\n  pop\n  pop\n  mload(0x40)\n  returndatasize\n  0x20\n  dup2\n  lt\n  iszero\n  tag_30\n  jumpi\n  0x00\n  dup1\n  revert\ntag_30:\n  dup2\n  add\n  swap1\n  dup1\n  dup1\n  mload\n  swap1\n  0x20\n  add\n  swap1\n  swap3\n  swap2\n  swap1\n  pop\n  pop\n  pop\n    /* \"ClubAi.sol\":27805:27915  IUniswapV2Factory(_uniswapV2Router.factory())\r... */\n  mload(0x40)\n  dup4\n  0xffffffff\n  and\n  0xe0\n  shl\n  dup2\n  mstore\n  0x04\n  add\n  dup1\n  dup4\n  0xffffffffffffffffffffffffffffffffffffffff\n  and\n  dup2\n  mstore\n  0x20\n  add\n  dup3\n  0xffffffffffffffffffffffffffffffffffffffff\n  and\n  dup2\n  mstore\n  0x20\n  add\n  swap3\n  pop\n  pop\n  pop\n  0x20\n  mload(0x40)\n  dup1\n  dup4\n  sub\n  dup2\n  0x00\n  dup8\n  dup1\n  extcodesize\n  iszero\n  dup1\n  iszero\n  tag_31\n  jumpi\n  0x00\n  dup1\n  revert\ntag_31:\n  pop\n  gas\n  call\n  iszero\n  dup1\n  iszero\n  tag_33\n  jumpi\n  returndatasize\n  0x00\n  dup1\n  returndatacopy\n  revert(0x00, returndatasize)\ntag_33:\n  pop\n  pop\n  pop\n  pop\n  mload(0x40)\n  returndatasize\n  0x20\n  dup2\n  lt\n  iszero\n  tag_34\n  jumpi\n  0x00\n  dup1\n  revert\ntag_34:\n  dup2\n  add\n  swap1\n  dup1\n  dup1\n  mload\n  swap1\n  0x20\n  add\n  swap1\n  swap3\n  swap2\n  swap1\n  pop\n  pop\n  pop\n    /* \"ClubAi.sol\":27789:27915  uniswapV2Pair = IUniswapV2Factory(_uniswapV2Router.factory())\r... */\n  0xffffffffffffffffffffffffffffffffffffffff\n  and\n  0xa0\n  dup2\n  0xffffffffffffffffffffffffffffffffffffffff\n  and\n  0x60\n  shl\n  dup2\n  mstore\n  pop\n  pop\n    /* \"ClubAi.sol\":27997:28013  _uniswapV2Router */\n  dup1\n    /* \"ClubAi.sol\":27979:28013  uniswapV2Router = _uniswapV2Router */\n  0xffffffffffffffffffffffffffffffffffffffff\n  and\n  0x80\n  dup2\n  0xffffffffffffffffffffffffffffffffffffffff\n  and\n  0x60\n  shl\n  dup2\n  mstore\n  pop\n  pop\n    /* \"ClubAi.sol\":28119:28123  true */\n  0x01\n    /* \"ClubAi.sol\":28086:28104  _isExcludedFromFee */\n  0x06\n    /* \"ClubAi.sol\":28086:28116  _isExcludedFromFee[tokenOwner] */\n  0x00\n    /* \"ClubAi.sol\":28105:28115  tokenOwner */\n  dup5\n    /* \"ClubAi.sol\":28086:28116  _isExcludedFromFee[tokenOwner] */\n  0xffffffffffffffffffffffffffffffffffffffff\n  and\n  0xffffffffffffffffffffffffffffffffffffffff\n  and\n  dup2\n  mstore\n  0x20\n  add\n  swap1\n  dup2\n  mstore\n  0x20\n  add\n  0x00\n  keccak256\n  0x00\n    /* \"ClubAi.sol\":28086:28123  _isExcludedFromFee[tokenOwner] = true */\n  0x0100\n  exp\n  dup2\n  sload\n  dup2\n  0xff\n  mul\n  not\n  and\n  swap1\n  dup4\n  iszero\n  iszero\n  mul\n  or\n  swap1\n  sstore\n  pop\n    /* \"ClubAi.sol\":28170:28174  true */\n  0x01\n    /* \"ClubAi.sol\":28134:28152  _isExcludedFromFee */\n  0x06\n    /* \"ClubAi.sol\":28134:28167  _isExcludedFromFee[address(this)] */\n  0x00\n    /* \"ClubAi.sol\":28161:28165  this */\n  address\n    /* \"ClubAi.sol\":28134:28167  _isExcludedFromFee[address(this)] */\n  0xffffffffffffffffffffffffffffffffffffffff\n  and\n  0xffffffffffffffffffffffffffffffffffffffff\n  and\n  dup2\n  mstore\n  0x20\n  add\n  swap1\n  dup2\n  mstore\n  0x20\n  add\n  0x00\n  keccak256\n  0x00\n    /* \"ClubAi.sol\":28134:28174  _isExcludedFromFee[address(this)] = true */\n  0x0100\n  exp\n  dup2\n  sload\n  dup2\n  0xff\n  mul\n  not\n  and\n  swap1\n  dup4\n  iszero\n  iszero\n  mul\n  or\n  swap1\n  sstore\n  pop\n    /* \"ClubAi.sol\":28200:28210  tokenOwner */\n  dup2\n    /* \"ClubAi.sol\":28191:28197  _owner */\n  0x00\n  dup1\n    /* \"ClubAi.sol\":28191:28210  _owner = tokenOwner */\n  0x0100\n  exp\n  dup2\n  sload\n  dup2\n  0xffffffffffffffffffffffffffffffffffffffff\n  mul\n  not\n  and\n  swap1\n  dup4\n  0xffffffffffffffffffffffffffffffffffffffff\n  and\n  mul\n  or\n  swap1\n  sstore\n  pop\n    /* \"ClubAi.sol\":28247:28257  tokenOwner */\n  dup2\n    /* \"ClubAi.sol\":28226:28267  Transfer(address(0), tokenOwner, _tTotal) */\n  0xffffffffffffffffffffffffffffffffffffffff\n  and\n    /* \"ClubAi.sol\":28243:28244  0 */\n  0x00\n    /* \"ClubAi.sol\":28226:28267  Transfer(address(0), tokenOwner, _tTotal) */\n  0xffffffffffffffffffffffffffffffffffffffff\n  and\n  0xddf252ad1be2c89b69c2b068fc378daa952ba7f163c4a11628f55a4df523b3ef\n    /* \"ClubAi.sol\":28259:28266  _tTotal */\n  sload(0x09)\n    /* \"ClubAi.sol\":28226:28267  Transfer(address(0), tokenOwner, _tTotal) */\n  mload(0x40)\n  dup1\n  dup3\n  dup2\n  mstore\n  0x20\n  add\n  swap2\n  pop\n  pop\n  mload(0x40)\n  dup1\n  swap2\n  sub\n  swap1\n  log3\n    /* \"ClubAi.sol\":26921:28275  constructor (string memory _NAME, string memory _SYMBOL, uint256 _DECIMALS, uint256 _supply, uint256 _txFee,uint256 _lpFee,uint256 _MAXAMOUNT,uint256 SELLMAXAMOUNT,address routerAddress,address tokenOwner) public {\r... */\n  pop\n  pop\n  pop\n  pop\n  pop\n  pop\n  pop\n  pop\n  pop\n  pop\n  pop\n    /* \"ClubAi.sol\":25414:44518  contract ClubAI is Context, IERC20, Ownable {\r... */\n  jump(tag_35)\ntag_20:\n  dup3\n  dup1\n  sload\n  0x01\n  dup2\n  0x01\n  and\n  iszero\n  0x0100\n  mul\n  sub\n  and\n  0x02\n  swap1\n  div\n  swap1\n  0x00\n  mstore\n  keccak256(0x00, 0x20)\n  swap1\n  0x1f\n  add\n  0x20\n  swap1\n  div\n  dup2\n  add\n  swap3\n  dup3\n  0x1f\n  lt\n  tag_37\n  jumpi\n  dup1\n  mload\n  not(0xff)\n  and\n  dup4\n  dup1\n  add\n  or\n  dup6\n  sstore\n  jump(tag_36)\ntag_37:\n  dup3\n  dup1\n  add\n  0x01\n  add\n  dup6\n  sstore\n  dup3\n  iszero\n  tag_36\n  jumpi\n  swap2\n  dup3\n  add\ntag_38:\n  dup3\n  dup2\n  gt\n  iszero\n  tag_39\n  jumpi\n  dup3\n  mload\n  dup3\n  sstore\n  swap2\n  0x20\n  add\n  swap2\n  swap1\n  0x01\n  add\n  swap1\n  jump(tag_38)\ntag_39:\ntag_36:\n  pop\n  swap1\n  pop\n  tag_40\n  swap2\n  swap1\n  tag_41\n  jump\t// in\ntag_40:\n  pop\n  swap1\n  jump\t// out\ntag_41:\ntag_42:\n  dup1\n  dup3\n  gt\n  iszero\n  tag_43\n  jumpi\n  0x00\n  dup2\n  0x00\n  swap1\n  sstore\n  pop\n  0x01\n  add\n  jump(tag_42)\ntag_43:\n  pop\n  swap1\n  jump\t// out\ntag_35:\n  shr(0x60, mload(0x80))\n  shr(0x60, mload(0xa0))\n  codecopy(0x00, dataOffset(sub_0), dataSize(sub_0))\n  assignImmutable(\"0xf17089ced8c0c2239e63f2bbb45b3ebcf864ae70eb1ca01545337030cdeed50a\")\n  assignImmutable(\"0x373ab5f6f5686eaf15420a778a209383e0ee0196a782fa3fd3ec96f326a92e6e\")\n  return(0x00, dataSize(sub_0))\nstop\n\nsub_0: assembly {\n        /* \"ClubAi.sol\":25414:44518  contract ClubAI is Context, IERC20, Ownable {\r... */\n      mstore(0x40, 0x80)\n      jumpi(tag_1, lt(calldatasize, 0x04))\n      shr(0xe0, calldataload(0x00))\n      dup1\n      0x6bc87c3a\n      gt\n      tag_44\n      jumpi\n      dup1\n      0xa9059cbb\n      gt\n      tag_45\n      jumpi\n      dup1\n      0xd543dbeb\n      gt\n      tag_46\n      jumpi\n      dup1\n      0xd543dbeb\n      eq\n      tag_38\n      jumpi\n      dup1\n      0xdd467064\n      eq\n      tag_39\n      jumpi\n      dup1\n      0xdd62ed3e\n      eq\n      tag_40\n      jumpi\n      dup1\n      0xea2f0b37\n      eq\n      tag_41\n      jumpi\n      dup1\n      0xf0f165af\n      eq\n      tag_42\n      jumpi\n      dup1\n      0xf2fde38b\n      eq\n      tag_43\n      jumpi\n      jump(tag_2)\n    tag_46:\n      dup1\n      0xa9059cbb\n      eq\n      tag_33\n      jumpi\n      dup1\n      0xb2bdfa7b\n      eq\n      tag_34\n      jumpi\n      dup1\n      0xb6c52324\n      eq\n      tag_35\n      jumpi\n      dup1\n      0xc49b9a80\n      eq\n      tag_36\n      jumpi\n      dup1\n      0xd12a7688\n      eq\n      tag_37\n      jumpi\n      jump(tag_2)\n    tag_45:\n      dup1\n      0x8da5cb5b\n      gt\n      tag_47\n      jumpi\n      dup1\n      0x8da5cb5b\n      eq\n      tag_28\n      jumpi\n      dup1\n      0x8ee88c53\n      eq\n      tag_29\n      jumpi\n      dup1\n      0x95d89b41\n      eq\n      tag_30\n      jumpi\n      dup1\n      0xa457c2d7\n      eq\n      tag_31\n      jumpi\n      dup1\n      0xa69df4b5\n      eq\n      tag_32\n      jumpi\n      jump(tag_2)\n    tag_47:\n      dup1\n      0x6bc87c3a\n      eq\n      tag_23\n      jumpi\n      dup1\n      0x70a08231\n      eq\n      tag_24\n      jumpi\n      dup1\n      0x715018a6\n      eq\n      tag_25\n      jumpi\n      dup1\n      0x7d1db4a5\n      eq\n      tag_26\n      jumpi\n      dup1\n      0x88f82020\n      eq\n      tag_27\n      jumpi\n      jump(tag_2)\n    tag_44:\n      dup1\n      0x39509351\n      gt\n      tag_48\n      jumpi\n      dup1\n      0x48c54b9d\n      gt\n      tag_49\n      jumpi\n      dup1\n      0x48c54b9d\n      eq\n      tag_18\n      jumpi\n      dup1\n      0x49bd5a5e\n      eq\n      tag_19\n      jumpi\n      dup1\n      0x4a74bb02\n      eq\n      tag_20\n      jumpi\n      dup1\n      0x52390c02\n      eq\n      tag_21\n      jumpi\n      dup1\n      0x5342acb4\n      eq\n      tag_22\n      jumpi\n      jump(tag_2)\n    tag_49:\n      dup1\n      0x39509351\n      eq\n      tag_13\n      jumpi\n      dup1\n      0x3b124fe7\n      eq\n      tag_14\n      jumpi\n      dup1\n      0x3bd5d173\n      eq\n      tag_15\n      jumpi\n      dup1\n      0x437823ec\n      eq\n      tag_16\n      jumpi\n      dup1\n      0x4549b039\n      eq\n      tag_17\n      jumpi\n      jump(tag_2)\n    tag_48:\n      dup1\n      0x18160ddd\n      gt\n      tag_50\n      jumpi\n      dup1\n      0x18160ddd\n      eq\n      tag_8\n      jumpi\n      dup1\n      0x23b872dd\n      eq\n      tag_9\n      jumpi\n      dup1\n      0x2d838119\n      eq\n      tag_10\n      jumpi\n      dup1\n      0x313ce567\n      eq\n      tag_11\n      jumpi\n      dup1\n      0x3685d419\n      eq\n      tag_12\n      jumpi\n      jump(tag_2)\n    tag_50:\n      dup1\n      0x061c82d0\n      eq\n      tag_3\n      jumpi\n      dup1\n      0x06fdde03\n      eq\n      tag_4\n      jumpi\n      dup1\n      0x095ea7b3\n      eq\n      tag_5\n      jumpi\n      dup1\n      0x13114a9d\n      eq\n      tag_6\n      jumpi\n      dup1\n      0x1694505e\n      eq\n      tag_7\n      jumpi\n      jump(tag_2)\n    tag_1:\n      jumpi(tag_2, calldatasize)\n      stop\n    tag_2:\n      0x00\n      dup1\n      revert\n        /* \"ClubAi.sol\":33348:33446  function setTaxFeePercent(uint256 taxFee) external onlyOwner() {\r... */\n    tag_3:\n      callvalue\n      dup1\n      iszero\n      tag_53\n      jumpi\n      0x00\n      dup1\n      revert\n    tag_53:\n      pop\n      tag_54\n      0x04\n      dup1\n      calldatasize\n      sub\n      0x20\n      dup2\n      lt\n      iszero\n      tag_55\n      jumpi\n      0x00\n      dup1\n      revert\n    tag_55:\n      dup2\n      add\n      swap1\n      dup1\n      dup1\n      calldataload\n      swap1\n      0x20\n      add\n      swap1\n      swap3\n      swap2\n      swap1\n      pop\n      pop\n      pop\n      tag_56\n      jump\t// in\n    tag_54:\n      stop\n        /* \"ClubAi.sol\":28285:28368  function name() public view returns (string memory) {\r... */\n    tag_4:\n      callvalue\n      dup1\n      iszero\n      tag_57\n      jumpi\n      0x00\n      dup1\n      revert\n    tag_57:\n      pop\n      tag_58\n      tag_59\n      jump\t// in\n    tag_58:\n      mload(0x40)\n      dup1\n      dup1\n      0x20\n      add\n      dup3\n      dup2\n      sub\n      dup3\n      mstore\n      dup4\n      dup2\n      dup2\n      mload\n      dup2\n      mstore\n      0x20\n      add\n      swap2\n      pop\n      dup1\n      mload\n      swap1\n      0x20\n      add\n      swap1\n      dup1\n      dup4\n      dup4\n      0x00\n    tag_60:\n      dup4\n      dup2\n      lt\n      iszero\n      tag_62\n      jumpi\n      dup1\n      dup3\n      add\n      mload\n      dup2\n      dup5\n      add\n      mstore\n      0x20\n      dup2\n      add\n      swap1\n      pop\n      jump(tag_60)\n    tag_62:\n      pop\n      pop\n      pop\n      pop\n      swap1\n      pop\n      swap1\n      dup2\n      add\n      swap1\n      0x1f\n      and\n      dup1\n      iszero\n      tag_63\n      jumpi\n      dup1\n      dup3\n      sub\n      dup1\n      mload\n      0x01\n      dup4\n      0x20\n      sub\n      0x0100\n      exp\n      sub\n      not\n      and\n      dup2\n      mstore\n      0x20\n      add\n      swap2\n      pop\n    tag_63:\n      pop\n      swap3\n      pop\n      pop\n      pop\n      mload(0x40)\n      dup1\n      swap2\n      sub\n      swap1\n      return\n        /* \"ClubAi.sol\":29199:29360  function approve(address spender, uint256 amount) public override returns (bool) {\r... */\n    tag_5:\n      callvalue\n      dup1\n      iszero\n      tag_64\n      jumpi\n      0x00\n      dup1\n      revert\n    tag_64:\n      pop\n      tag_65\n      0x04\n      dup1\n      calldatasize\n      sub\n      0x40\n      dup2\n      lt\n      iszero\n      tag_66\n      jumpi\n      0x00\n      dup1\n      revert\n    tag_66:\n      dup2\n      add\n      swap1\n      dup1\n      dup1\n      calldataload\n      0xffffffffffffffffffffffffffffffffffffffff\n      and\n      swap1\n      0x20\n      add\n      swap1\n      swap3\n      swap2\n      swap1\n      dup1\n      calldataload\n      swap1\n      0x20\n      add\n      swap1\n      swap3\n      swap2\n      swap1\n      pop\n      pop\n      pop\n      tag_67\n      jump\t// in\n    tag_65:\n      mload(0x40)\n      dup1\n      dup3\n      iszero\n      iszero\n      dup2\n      mstore\n      0x20\n      add\n      swap2\n      pop\n      pop\n      mload(0x40)\n      dup1\n      swap2\n      sub\n      swap1\n      return\n        /* \"ClubAi.sol\":30320:30407  function totalFees() public view returns (uint256) {\r... */\n    tag_6:\n      callvalue\n      dup1\n      iszero\n      tag_68\n      jumpi\n      0x00\n      dup1\n      revert\n    tag_68:\n      pop\n      tag_69\n      tag_70\n      jump\t// in\n    tag_69:\n      mload(0x40)\n      dup1\n      dup3\n      dup2\n      mstore\n      0x20\n      add\n      swap2\n      pop\n      pop\n      mload(0x40)\n      dup1\n      swap2\n      sub\n      swap1\n      return\n        /* \"ClubAi.sol\":26256:26307  IUniswapV2Router02 public immutable uniswapV2Router */\n    tag_7:\n      callvalue\n      dup1\n      iszero\n      tag_71\n      jumpi\n      0x00\n      dup1\n      revert\n    tag_71:\n      pop\n      tag_72\n      tag_73\n      jump\t// in\n    tag_72:\n      mload(0x40)\n      dup1\n      dup3\n      0xffffffffffffffffffffffffffffffffffffffff\n      and\n      dup2\n      mstore\n      0x20\n      add\n      swap2\n      pop\n      pop\n      mload(0x40)\n      dup1\n      swap2\n      sub\n      swap1\n      return\n        /* \"ClubAi.sol\":28564:28659  function totalSupply() public view override returns (uint256) {\r... */\n    tag_8:\n      callvalue\n      dup1\n      iszero\n      tag_74\n      jumpi\n      0x00\n      dup1\n      revert\n    tag_74:\n      pop\n      tag_75\n      tag_76\n      jump\t// in\n    tag_75:\n      mload(0x40)\n      dup1\n      dup3\n      dup2\n      mstore\n      0x20\n      add\n      swap2\n      pop\n      pop\n      mload(0x40)\n      dup1\n      swap2\n      sub\n      swap1\n      return\n        /* \"ClubAi.sol\":29368:29681  function transferFrom(address sender, address recipient, uint256 amount) public override returns (bool) {\r... */\n    tag_9:\n      callvalue\n      dup1\n      iszero\n      tag_77\n      jumpi\n      0x00\n      dup1\n      revert\n    tag_77:\n      pop\n      tag_78\n      0x04\n      dup1\n      calldatasize\n      sub\n      0x60\n      dup2\n      lt\n      iszero\n      tag_79\n      jumpi\n      0x00\n      dup1\n      revert\n    tag_79:\n      dup2\n      add\n      swap1\n      dup1\n      dup1\n      calldataload\n      0xffffffffffffffffffffffffffffffffffffffff\n      and\n      swap1\n      0x20\n      add\n      swap1\n      swap3\n      swap2\n      swap1\n      dup1\n      calldataload\n      0xffffffffffffffffffffffffffffffffffffffff\n      and\n      swap1\n      0x20\n      add\n      swap1\n      swap3\n      swap2\n      swap1\n      dup1\n      calldataload\n      swap1\n      0x20\n      add\n      swap1\n      swap3\n      swap2\n      swap1\n      pop\n      pop\n      pop\n      tag_80\n      jump\t// in\n    tag_78:\n      mload(0x40)\n      dup1\n      dup3\n      iszero\n      iszero\n      dup2\n      mstore\n      0x20\n      add\n      swap2\n      pop\n      pop\n      mload(0x40)\n      dup1\n      swap2\n      sub\n      swap1\n      return\n        /* \"ClubAi.sol\":31244:31497  function tokenFromReflection(uint256 rAmount) public view returns(uint256) {\r... */\n    tag_10:\n      callvalue\n      dup1\n      iszero\n      tag_81\n      jumpi\n      0x00\n      dup1\n      revert\n    tag_81:\n      pop\n      tag_82\n      0x04\n      dup1\n      calldatasize\n      sub\n      0x20\n      dup2\n      lt\n      iszero\n      tag_83\n      jumpi\n      0x00\n      dup1\n      revert\n    tag_83:\n      dup2\n      add\n      swap1\n      dup1\n      dup1\n      calldataload\n      swap1\n      0x20\n      add\n      swap1\n      swap3\n      swap2\n      swap1\n      pop\n      pop\n      pop\n      tag_84\n      jump\t// in\n    tag_82:\n      mload(0x40)\n      dup1\n      dup3\n      dup2\n      mstore\n      0x20\n      add\n      swap2\n      pop\n      pop\n      mload(0x40)\n      dup1\n      swap2\n      sub\n      swap1\n      return\n        /* \"ClubAi.sol\":28471:28556  function decimals() public view returns (uint256) {\r... */\n    tag_11:\n      callvalue\n      dup1\n      iszero\n      tag_85\n      jumpi\n      0x00\n      dup1\n      revert\n    tag_85:\n      pop\n      tag_86\n      tag_87\n      jump\t// in\n    tag_86:\n      mload(0x40)\n      dup1\n      dup3\n      dup2\n      mstore\n      0x20\n      add\n      swap2\n      pop\n      pop\n      mload(0x40)\n      dup1\n      swap2\n      sub\n      swap1\n      return\n        /* \"ClubAi.sol\":31960:32439  function includeInReward(address account) external onlyOwner() {\r... */\n    tag_12:\n      callvalue\n      dup1\n      iszero\n      tag_88\n      jumpi\n      0x00\n      dup1\n      revert\n    tag_88:\n      pop\n      tag_89\n      0x04\n      dup1\n      calldatasize\n      sub\n      0x20\n      dup2\n      lt\n      iszero\n      tag_90\n      jumpi\n      0x00\n      dup1\n      revert\n    tag_90:\n      dup2\n      add\n      swap1\n      dup1\n      dup1\n      calldataload\n      0xffffffffffffffffffffffffffffffffffffffff\n      and\n      swap1\n      0x20\n      add\n      swap1\n      swap3\n      swap2\n      swap1\n      pop\n      pop\n      pop\n      tag_91\n      jump\t// in\n    tag_89:\n      stop\n        /* \"ClubAi.sol\":29689:29907  function increaseAllowance(address spender, uint256 addedValue) public virtual returns (bool) {\r... */\n    tag_13:\n      callvalue\n      dup1\n      iszero\n      tag_92\n      jumpi\n      0x00\n      dup1\n      revert\n    tag_92:\n      pop\n      tag_93\n      0x04\n      dup1\n      calldatasize\n      sub\n      0x40\n      dup2\n      lt\n      iszero\n      tag_94\n      jumpi\n      0x00\n      dup1\n      revert\n    tag_94:\n      dup2\n      add\n      swap1\n      dup1\n      dup1\n      calldataload\n      0xffffffffffffffffffffffffffffffffffffffff\n      and\n      swap1\n      0x20\n      add\n      swap1\n      swap3\n      swap2\n      swap1\n      dup1\n      calldataload\n      swap1\n      0x20\n      add\n      swap1\n      swap3\n      swap2\n      swap1\n      pop\n      pop\n      pop\n      tag_95\n      jump\t// in\n    tag_93:\n      mload(0x40)\n      dup1\n      dup3\n      iszero\n      iszero\n      dup2\n      mstore\n      0x20\n      add\n      swap2\n      pop\n      pop\n      mload(0x40)\n      dup1\n      swap2\n      sub\n      swap1\n      return\n        /* \"ClubAi.sol\":26102:26124  uint256 public _taxFee */\n    tag_14:\n      callvalue\n      dup1\n      iszero\n      tag_96\n      jumpi\n      0x00\n      dup1\n      revert\n    tag_96:\n      pop\n      tag_97\n      tag_98\n      jump\t// in\n    tag_97:\n      mload(0x40)\n      dup1\n      dup3\n      dup2\n      mstore\n      0x20\n      add\n      swap2\n      pop\n      pop\n      mload(0x40)\n      dup1\n      swap2\n      sub\n      swap1\n      return\n        /* \"ClubAi.sol\":30415:30792  function deliver(uint256 tAmount) public {\r... */\n    tag_15:\n      callvalue\n      dup1\n      iszero\n      tag_99\n      jumpi\n      0x00\n      dup1\n      revert\n    tag_99:\n      pop\n      tag_100\n      0x04\n      dup1\n      calldatasize\n      sub\n      0x20\n      dup2\n      lt\n      iszero\n      tag_101\n      jumpi\n      0x00\n      dup1\n      revert\n    tag_101:\n      dup2\n      add\n      swap1\n      dup1\n      dup1\n      calldataload\n      swap1\n      0x20\n      add\n      swap1\n      swap3\n      swap2\n      swap1\n      pop\n      pop\n      pop\n      tag_102\n      jump\t// in\n    tag_100:\n      stop\n        /* \"ClubAi.sol\":33103:33214  function excludeFromFee(address account) public onlyOwner {\r... */\n    tag_16:\n      callvalue\n      dup1\n      iszero\n      tag_103\n      jumpi\n      0x00\n      dup1\n      revert\n    tag_103:\n      pop\n      tag_104\n      0x04\n      dup1\n      calldatasize\n      sub\n      0x20\n      dup2\n      lt\n      iszero\n      tag_105\n      jumpi\n      0x00\n      dup1\n      revert\n    tag_105:\n      dup2\n      add\n      swap1\n      dup1\n      dup1\n      calldataload\n      0xffffffffffffffffffffffffffffffffffffffff\n      and\n      swap1\n      0x20\n      add\n      swap1\n      swap3\n      swap2\n      swap1\n      pop\n      pop\n      pop\n      tag_106\n      jump\t// in\n    tag_104:\n      stop\n        /* \"ClubAi.sol\":30800:31236  function reflectionFromToken(uint256 tAmount, bool deductTransferFee) public view returns(uint256) {\r... */\n    tag_17:\n      callvalue\n      dup1\n      iszero\n      tag_107\n      jumpi\n      0x00\n      dup1\n      revert\n    tag_107:\n      pop\n      tag_108\n      0x04\n      dup1\n      calldatasize\n      sub\n      0x40\n      dup2\n      lt\n      iszero\n      tag_109\n      jumpi\n      0x00\n      dup1\n      revert\n    tag_109:\n      dup2\n      add\n      swap1\n      dup1\n      dup1\n      calldataload\n      swap1\n      0x20\n      add\n      swap1\n      swap3\n      swap2\n      swap1\n      dup1\n      calldataload\n      iszero\n      iszero\n      swap1\n      0x20\n      add\n      swap1\n      swap3\n      swap2\n      swap1\n      pop\n      pop\n      pop\n      tag_110\n      jump\t// in\n    tag_108:\n      mload(0x40)\n      dup1\n      dup3\n      dup2\n      mstore\n      0x20\n      add\n      swap2\n      pop\n      pop\n      mload(0x40)\n      dup1\n      swap2\n      sub\n      swap1\n      return\n        /* \"ClubAi.sol\":36649:36759  function claimTokens() public onlyOwner {\r... */\n    tag_18:\n      callvalue\n      dup1\n      iszero\n      tag_111\n      jumpi\n      0x00\n      dup1\n      revert\n    tag_111:\n      pop\n      tag_112\n      tag_113\n      jump\t// in\n    tag_112:\n      stop\n        /* \"ClubAi.sol\":26314:26352  address public immutable uniswapV2Pair */\n    tag_19:\n      callvalue\n      dup1\n      iszero\n      tag_114\n      jumpi\n      0x00\n      dup1\n      revert\n    tag_114:\n      pop\n      tag_115\n      tag_116\n      jump\t// in\n    tag_115:\n      mload(0x40)\n      dup1\n      dup3\n      0xffffffffffffffffffffffffffffffffffffffff\n      and\n      dup2\n      mstore\n      0x20\n      add\n      swap2\n      pop\n      pop\n      mload(0x40)\n      dup1\n      swap2\n      sub\n      swap1\n      return\n        /* \"ClubAi.sol\":26393:26433  bool public swapAndLiquifyEnabled = true */\n    tag_20:\n      callvalue\n      dup1\n      iszero\n      tag_117\n      jumpi\n      0x00\n      dup1\n      revert\n    tag_117:\n      pop\n      tag_118\n      tag_119\n      jump\t// in\n    tag_118:\n      mload(0x40)\n      dup1\n      dup3\n      iszero\n      iszero\n      dup2\n      mstore\n      0x20\n      add\n      swap2\n      pop\n      pop\n      mload(0x40)\n      dup1\n      swap2\n      sub\n      swap1\n      return\n        /* \"ClubAi.sol\":31505:31952  function excludeFromReward(address account) public onlyOwner() {\r... */\n    tag_21:\n      callvalue\n      dup1\n      iszero\n      tag_120\n      jumpi\n      0x00\n      dup1\n      revert\n    tag_120:\n      pop\n      tag_121\n      0x04\n      dup1\n      calldatasize\n      sub\n      0x20\n      dup2\n      lt\n      iszero\n      tag_122\n      jumpi\n      0x00\n      dup1\n      revert\n    tag_122:\n      dup2\n      add\n      swap1\n      dup1\n      dup1\n      calldataload\n      0xffffffffffffffffffffffffffffffffffffffff\n      and\n      swap1\n      0x20\n      add\n      swap1\n      swap3\n      swap2\n      swap1\n      pop\n      pop\n      pop\n      tag_123\n      jump\t// in\n    tag_121:\n      stop\n        /* \"ClubAi.sol\":37510:37633  function isExcludedFromFee(address account) public view returns(bool) {\r... */\n    tag_22:\n      callvalue\n      dup1\n      iszero\n      tag_124\n      jumpi\n      0x00\n      dup1\n      revert\n    tag_124:\n      pop\n      tag_125\n      0x04\n      dup1\n      calldatasize\n      sub\n      0x20\n      dup2\n      lt\n      iszero\n      tag_126\n      jumpi\n      0x00\n      dup1\n      revert\n    tag_126:\n      dup2\n      add\n      swap1\n      dup1\n      dup1\n      calldataload\n      0xffffffffffffffffffffffffffffffffffffffff\n      and\n      swap1\n      0x20\n      add\n      swap1\n      swap3\n      swap2\n      swap1\n      pop\n      pop\n      pop\n      tag_127\n      jump\t// in\n    tag_125:\n      mload(0x40)\n      dup1\n      dup3\n      iszero\n      iszero\n      dup2\n      mstore\n      0x20\n      add\n      swap2\n      pop\n      pop\n      mload(0x40)\n      dup1\n      swap2\n      sub\n      swap1\n      return\n        /* \"ClubAi.sol\":26175:26203  uint256 public _liquidityFee */\n    tag_23:\n      callvalue\n      dup1\n      iszero\n      tag_128\n      jumpi\n      0x00\n      dup1\n      revert\n    tag_128:\n      pop\n      tag_129\n      tag_130\n      jump\t// in\n    tag_129:\n      mload(0x40)\n      dup1\n      dup3\n      dup2\n      mstore\n      0x20\n      add\n      swap2\n      pop\n      pop\n      mload(0x40)\n      dup1\n      swap2\n      sub\n      swap1\n      return\n        /* \"ClubAi.sol\":28667:28865  function balanceOf(address account) public view override returns (uint256) {\r... */\n    tag_24:\n      callvalue\n      dup1\n      iszero\n      tag_131\n      jumpi\n      0x00\n      dup1\n      revert\n    tag_131:\n      pop\n      tag_132\n      0x04\n      dup1\n      calldatasize\n      sub\n      0x20\n      dup2\n      lt\n      iszero\n      tag_133\n      jumpi\n      0x00\n      dup1\n      revert\n    tag_133:\n      dup2\n      add\n      swap1\n      dup1\n      dup1\n      calldataload\n      0xffffffffffffffffffffffffffffffffffffffff\n      and\n      swap1\n      0x20\n      add\n      swap1\n      swap3\n      swap2\n      swap1\n      pop\n      pop\n      pop\n      tag_134\n      jump\t// in\n    tag_132:\n      mload(0x40)\n      dup1\n      dup3\n      dup2\n      mstore\n      0x20\n      add\n      swap2\n      pop\n      pop\n      mload(0x40)\n      dup1\n      swap2\n      sub\n      swap1\n      return\n        /* \"ClubAi.sol\":16009:16157  function renounceOwnership() public virtual onlyOwner {\r... */\n    tag_25:\n      callvalue\n      dup1\n      iszero\n      tag_135\n      jumpi\n      0x00\n      dup1\n      revert\n    tag_135:\n      pop\n      tag_136\n      tag_137\n      jump\t// in\n    tag_136:\n      stop\n        /* \"ClubAi.sol\":26446:26473  uint256 public _maxTxAmount */\n    tag_26:\n      callvalue\n      dup1\n      iszero\n      tag_138\n      jumpi\n      0x00\n      dup1\n      revert\n    tag_138:\n      pop\n      tag_139\n      tag_140\n      jump\t// in\n    tag_139:\n      mload(0x40)\n      dup1\n      dup3\n      dup2\n      mstore\n      0x20\n      add\n      swap2\n      pop\n      pop\n      mload(0x40)\n      dup1\n      swap2\n      sub\n      swap1\n      return\n        /* \"ClubAi.sol\":30192:30312  function isExcludedFromReward(address account) public view returns (bool) {\r... */\n    tag_27:\n      callvalue\n      dup1\n      iszero\n      tag_141\n      jumpi\n      0x00\n      dup1\n      revert\n    tag_141:\n      pop\n      tag_142\n      0x04\n      dup1\n      calldatasize\n      sub\n      0x20\n      dup2\n      lt\n      iszero\n      tag_143\n      jumpi\n      0x00\n      dup1\n      revert\n    tag_143:\n      dup2\n      add\n      swap1\n      dup1\n      dup1\n      calldataload\n      0xffffffffffffffffffffffffffffffffffffffff\n      and\n      swap1\n      0x20\n      add\n      swap1\n      swap3\n      swap2\n      swap1\n      pop\n      pop\n      pop\n      tag_144\n      jump\t// in\n    tag_142:\n      mload(0x40)\n      dup1\n      dup3\n      iszero\n      iszero\n      dup2\n      mstore\n      0x20\n      add\n      swap2\n      pop\n      pop\n      mload(0x40)\n      dup1\n      swap2\n      sub\n      swap1\n      return\n        /* \"ClubAi.sol\":15366:15445  function owner() public view returns (address) {\r... */\n    tag_28:\n      callvalue\n      dup1\n      iszero\n      tag_145\n      jumpi\n      0x00\n      dup1\n      revert\n    tag_145:\n      pop\n      tag_146\n      tag_147\n      jump\t// in\n    tag_146:\n      mload(0x40)\n      dup1\n      dup3\n      0xffffffffffffffffffffffffffffffffffffffff\n      and\n      dup2\n      mstore\n      0x20\n      add\n      swap2\n      pop\n      pop\n      mload(0x40)\n      dup1\n      swap2\n      sub\n      swap1\n      return\n        /* \"ClubAi.sol\":33458:33580  function setLiquidityFeePercent(uint256 liquidityFee) external onlyOwner() {\r... */\n    tag_29:\n      callvalue\n      dup1\n      iszero\n      tag_148\n      jumpi\n      0x00\n      dup1\n      revert\n    tag_148:\n      pop\n      tag_149\n      0x04\n      dup1\n      calldatasize\n      sub\n      0x20\n      dup2\n      lt\n      iszero\n      tag_150\n      jumpi\n      0x00\n      dup1\n      revert\n    tag_150:\n      dup2\n      add\n      swap1\n      dup1\n      dup1\n      calldataload\n      swap1\n      0x20\n      add\n      swap1\n      swap3\n      swap2\n      swap1\n      pop\n      pop\n      pop\n      tag_151\n      jump\t// in\n    tag_149:\n      stop\n        /* \"ClubAi.sol\":28376:28463  function symbol() public view returns (string memory) {\r... */\n    tag_30:\n      callvalue\n      dup1\n      iszero\n      tag_152\n      jumpi\n      0x00\n      dup1\n      revert\n    tag_152:\n      pop\n      tag_153\n      tag_154\n      jump\t// in\n    tag_153:\n      mload(0x40)\n      dup1\n      dup1\n      0x20\n      add\n      dup3\n      dup2\n      sub\n      dup3\n      mstore\n      dup4\n      dup2\n      dup2\n      mload\n      dup2\n      mstore\n      0x20\n      add\n      swap2\n      pop\n      dup1\n      mload\n      swap1\n      0x20\n      add\n      swap1\n      dup1\n      dup4\n      dup4\n      0x00\n    tag_155:\n      dup4\n      dup2\n      lt\n      iszero\n      tag_157\n      jumpi\n      dup1\n      dup3\n      add\n      mload\n      dup2\n      dup5\n      add\n      mstore\n      0x20\n      dup2\n      add\n      swap1\n      pop\n      jump(tag_155)\n    tag_157:\n      pop\n      pop\n      pop\n      pop\n      swap1\n      pop\n      swap1\n      dup2\n      add\n      swap1\n      0x1f\n      and\n      dup1\n      iszero\n      tag_158\n      jumpi\n      dup1\n      dup3\n      sub\n      dup1\n      mload\n      0x01\n      dup4\n      0x20\n      sub\n      0x0100\n      exp\n      sub\n      not\n      and\n      dup2\n      mstore\n      0x20\n      add\n      swap2\n      pop\n    tag_158:\n      pop\n      swap3\n      pop\n      pop\n      pop\n      mload(0x40)\n      dup1\n      swap2\n      sub\n      swap1\n      return\n        /* \"ClubAi.sol\":29915:30184  function decreaseAllowance(address spender, uint256 subtractedValue) public virtual returns (bool) {\r... */\n    tag_31:\n      callvalue\n      dup1\n      iszero\n      tag_159\n      jumpi\n      0x00\n      dup1\n      revert\n    tag_159:\n      pop\n      tag_160\n      0x04\n      dup1\n      calldatasize\n      sub\n      0x40\n      dup2\n      lt\n      iszero\n      tag_161\n      jumpi\n      0x00\n      dup1\n      revert\n    tag_161:\n      dup2\n      add\n      swap1\n      dup1\n      dup1\n      calldataload\n      0xffffffffffffffffffffffffffffffffffffffff\n      and\n      swap1\n      0x20\n      add\n      swap1\n      swap3\n      swap2\n      swap1\n      dup1\n      calldataload\n      swap1\n      0x20\n      add\n      swap1\n      swap3\n      swap2\n      swap1\n      pop\n      pop\n      pop\n      tag_162\n      jump\t// in\n    tag_160:\n      mload(0x40)\n      dup1\n      dup3\n      iszero\n      iszero\n      dup2\n      mstore\n      0x20\n      add\n      swap2\n      pop\n      pop\n      mload(0x40)\n      dup1\n      swap2\n      sub\n      swap1\n      return\n        /* \"ClubAi.sol\":17019:17312  function unlock() public virtual {\r... */\n    tag_32:\n      callvalue\n      dup1\n      iszero\n      tag_163\n      jumpi\n      0x00\n      dup1\n      revert\n    tag_163:\n      pop\n      tag_164\n      tag_165\n      jump\t// in\n    tag_164:\n      stop\n        /* \"ClubAi.sol\":28873:29040  function transfer(address recipient, uint256 amount) public override returns (bool) {\r... */\n    tag_33:\n      callvalue\n      dup1\n      iszero\n      tag_166\n      jumpi\n      0x00\n      dup1\n      revert\n    tag_166:\n      pop\n      tag_167\n      0x04\n      dup1\n      calldatasize\n      sub\n      0x40\n      dup2\n      lt\n      iszero\n      tag_168\n      jumpi\n      0x00\n      dup1\n      revert\n    tag_168:\n      dup2\n      add\n      swap1\n      dup1\n      dup1\n      calldataload\n      0xffffffffffffffffffffffffffffffffffffffff\n      and\n      swap1\n      0x20\n      add\n      swap1\n      swap3\n      swap2\n      swap1\n      dup1\n      calldataload\n      swap1\n      0x20\n      add\n      swap1\n      swap3\n      swap2\n      swap1\n      pop\n      pop\n      pop\n      tag_169\n      jump\t// in\n    tag_167:\n      mload(0x40)\n      dup1\n      dup3\n      iszero\n      iszero\n      dup2\n      mstore\n      0x20\n      add\n      swap2\n      pop\n      pop\n      mload(0x40)\n      dup1\n      swap2\n      sub\n      swap1\n      return\n        /* \"ClubAi.sol\":15100:15121  address public _owner */\n    tag_34:\n      callvalue\n      dup1\n      iszero\n      tag_170\n      jumpi\n      0x00\n      dup1\n      revert\n    tag_170:\n      pop\n      tag_171\n      tag_172\n      jump\t// in\n    tag_171:\n      mload(0x40)\n      dup1\n      dup3\n      0xffffffffffffffffffffffffffffffffffffffff\n      and\n      dup2\n      mstore\n      0x20\n      add\n      swap2\n      pop\n      pop\n      mload(0x40)\n      dup1\n      swap2\n      sub\n      swap1\n      return\n        /* \"ClubAi.sol\":16564:16653  function geUnlockTime() public view returns (uint256) {\r... */\n    tag_35:\n      callvalue\n      dup1\n      iszero\n      tag_173\n      jumpi\n      0x00\n      dup1\n      revert\n    tag_173:\n      pop\n      tag_174\n      tag_175\n      jump\t// in\n    tag_174:\n      mload(0x40)\n      dup1\n      dup3\n      dup2\n      mstore\n      0x20\n      add\n      swap2\n      pop\n      pop\n      mload(0x40)\n      dup1\n      swap2\n      sub\n      swap1\n      return\n        /* \"ClubAi.sol\":33898:34069  function setSwapAndLiquifyEnabled(bool _enabled) public onlyOwner {\r... */\n    tag_36:\n      callvalue\n      dup1\n      iszero\n      tag_176\n      jumpi\n      0x00\n      dup1\n      revert\n    tag_176:\n      pop\n      tag_177\n      0x04\n      dup1\n      calldatasize\n      sub\n      0x20\n      dup2\n      lt\n      iszero\n      tag_178\n      jumpi\n      0x00\n      dup1\n      revert\n    tag_178:\n      dup2\n      add\n      swap1\n      dup1\n      dup1\n      calldataload\n      iszero\n      iszero\n      swap1\n      0x20\n      add\n      swap1\n      swap3\n      swap2\n      swap1\n      pop\n      pop\n      pop\n      tag_179\n      jump\t// in\n    tag_177:\n      stop\n        /* \"ClubAi.sol\":26480:26524  uint256 public numTokensSellToAddToLiquidity */\n    tag_37:\n      callvalue\n      dup1\n      iszero\n      tag_180\n      jumpi\n      0x00\n      dup1\n      revert\n    tag_180:\n      pop\n      tag_181\n      tag_182\n      jump\t// in\n    tag_181:\n      mload(0x40)\n      dup1\n      dup3\n      dup2\n      mstore\n      0x20\n      add\n      swap2\n      pop\n      pop\n      mload(0x40)\n      dup1\n      swap2\n      sub\n      swap1\n      return\n        /* \"ClubAi.sol\":33761:33890  function setMaxTxPercent(uint256 maxTxPercent) public onlyOwner {\r... */\n    tag_38:\n      callvalue\n      dup1\n      iszero\n      tag_183\n      jumpi\n      0x00\n      dup1\n      revert\n    tag_183:\n      pop\n      tag_184\n      0x04\n      dup1\n      calldatasize\n      sub\n      0x20\n      dup2\n      lt\n      iszero\n      tag_185\n      jumpi\n      0x00\n      dup1\n      revert\n    tag_185:\n      dup2\n      add\n      swap1\n      dup1\n      dup1\n      calldataload\n      swap1\n      0x20\n      add\n      swap1\n      swap3\n      swap2\n      swap1\n      pop\n      pop\n      pop\n      tag_186\n      jump\t// in\n    tag_184:\n      stop\n        /* \"ClubAi.sol\":16729:16943  function lock(uint256 time) public virtual onlyOwner {\r... */\n    tag_39:\n      callvalue\n      dup1\n      iszero\n      tag_187\n      jumpi\n      0x00\n      dup1\n      revert\n    tag_187:\n      pop\n      tag_188\n      0x04\n      dup1\n      calldatasize\n      sub\n      0x20\n      dup2\n      lt\n      iszero\n      tag_189\n      jumpi\n      0x00\n      dup1\n      revert\n    tag_189:\n      dup2\n      add\n      swap1\n      dup1\n      dup1\n      calldataload\n      swap1\n      0x20\n      add\n      swap1\n      swap3\n      swap2\n      swap1\n      pop\n      pop\n      pop\n      tag_190\n      jump\t// in\n    tag_188:\n      stop\n        /* \"ClubAi.sol\":29048:29191  function allowance(address owner, address spender) public view override returns (uint256) {\r... */\n    tag_40:\n      callvalue\n      dup1\n      iszero\n      tag_191\n      jumpi\n      0x00\n      dup1\n      revert\n    tag_191:\n      pop\n      tag_192\n      0x04\n      dup1\n      calldatasize\n      sub\n      0x40\n      dup2\n      lt\n      iszero\n      tag_193\n      jumpi\n      0x00\n      dup1\n      revert\n    tag_193:\n      dup2\n      add\n      swap1\n      dup1\n      dup1\n      calldataload\n      0xffffffffffffffffffffffffffffffffffffffff\n      and\n      swap1\n      0x20\n      add\n      swap1\n      swap3\n      swap2\n      swap1\n      dup1\n      calldataload\n      0xffffffffffffffffffffffffffffffffffffffff\n      and\n      swap1\n      0x20\n      add\n      swap1\n      swap3\n      swap2\n      swap1\n      pop\n      pop\n      pop\n      tag_194\n      jump\t// in\n    tag_192:\n      mload(0x40)\n      dup1\n      dup3\n      dup2\n      mstore\n      0x20\n      add\n      swap2\n      pop\n      pop\n      mload(0x40)\n      dup1\n      swap2\n      sub\n      swap1\n      return\n        /* \"ClubAi.sol\":33226:33336  function includeInFee(address account) public onlyOwner {\r... */\n    tag_41:\n      callvalue\n      dup1\n      iszero\n      tag_195\n      jumpi\n      0x00\n      dup1\n      revert\n    tag_195:\n      pop\n      tag_196\n      0x04\n      dup1\n      calldatasize\n      sub\n      0x20\n      dup2\n      lt\n      iszero\n      tag_197\n      jumpi\n      0x00\n      dup1\n      revert\n    tag_197:\n      dup2\n      add\n      swap1\n      dup1\n      dup1\n      calldataload\n      0xffffffffffffffffffffffffffffffffffffffff\n      and\n      swap1\n      0x20\n      add\n      swap1\n      swap3\n      swap2\n      swap1\n      pop\n      pop\n      pop\n      tag_198\n      jump\t// in\n    tag_196:\n      stop\n        /* \"ClubAi.sol\":33592:33750  function setNumTokensSellToAddToLiquidity(uint256 swapNumber) public onlyOwner {\r... */\n    tag_42:\n      callvalue\n      dup1\n      iszero\n      tag_199\n      jumpi\n      0x00\n      dup1\n      revert\n    tag_199:\n      pop\n      tag_200\n      0x04\n      dup1\n      calldatasize\n      sub\n      0x20\n      dup2\n      lt\n      iszero\n      tag_201\n      jumpi\n      0x00\n      dup1\n      revert\n    tag_201:\n      dup2\n      add\n      swap1\n      dup1\n      dup1\n      calldataload\n      swap1\n      0x20\n      add\n      swap1\n      swap3\n      swap2\n      swap1\n      pop\n      pop\n      pop\n      tag_202\n      jump\t// in\n    tag_200:\n      stop\n        /* \"ClubAi.sol\":16312:16556  function transferOwnership(address newOwner) public virtual onlyOwner {\r... */\n    tag_43:\n      callvalue\n      dup1\n      iszero\n      tag_203\n      jumpi\n      0x00\n      dup1\n      revert\n    tag_203:\n      pop\n      tag_204\n      0x04\n      dup1\n      calldatasize\n      sub\n      0x20\n      dup2\n      lt\n      iszero\n      tag_205\n      jumpi\n      0x00\n      dup1\n      revert\n    tag_205:\n      dup2\n      add\n      swap1\n      dup1\n      dup1\n      calldataload\n      0xffffffffffffffffffffffffffffffffffffffff\n      and\n      swap1\n      0x20\n      add\n      swap1\n      swap3\n      swap2\n      swap1\n      pop\n      pop\n      pop\n      tag_206\n      jump\t// in\n    tag_204:\n      stop\n        /* \"ClubAi.sol\":33348:33446  function setTaxFeePercent(uint256 taxFee) external onlyOwner() {\r... */\n    tag_56:\n        /* \"ClubAi.sol\":15588:15600  _msgSender() */\n      tag_208\n        /* \"ClubAi.sol\":15588:15598  _msgSender */\n      tag_209\n        /* \"ClubAi.sol\":15588:15600  _msgSender() */\n      jump\t// in\n    tag_208:\n        /* \"ClubAi.sol\":15578:15600  _owner == _msgSender() */\n      0xffffffffffffffffffffffffffffffffffffffff\n      and\n        /* \"ClubAi.sol\":15578:15584  _owner */\n      0x00\n      dup1\n      sload\n      swap1\n      0x0100\n      exp\n      swap1\n      div\n      0xffffffffffffffffffffffffffffffffffffffff\n      and\n        /* \"ClubAi.sol\":15578:15600  _owner == _msgSender() */\n      0xffffffffffffffffffffffffffffffffffffffff\n      and\n      eq\n        /* \"ClubAi.sol\":15570:15637  require(_owner == _msgSender(), \"Ownable: caller is not the owner\") */\n      tag_210\n      jumpi\n      mload(0x40)\n      0x08c379a000000000000000000000000000000000000000000000000000000000\n      dup2\n      mstore\n      0x04\n      add\n      dup1\n      dup1\n      0x20\n      add\n      dup3\n      dup2\n      sub\n      dup3\n      mstore\n      0x20\n      dup2\n      mstore\n      0x20\n      add\n      dup1\n      0x4f776e61626c653a2063616c6c6572206973206e6f7420746865206f776e6572\n      dup2\n      mstore\n      pop\n      0x20\n      add\n      swap2\n      pop\n      pop\n      mload(0x40)\n      dup1\n      swap2\n      sub\n      swap1\n      revert\n    tag_210:\n        /* \"ClubAi.sol\":33432:33438  taxFee */\n      dup1\n        /* \"ClubAi.sol\":33422:33429  _taxFee */\n      0x0f\n        /* \"ClubAi.sol\":33422:33438  _taxFee = taxFee */\n      dup2\n      swap1\n      sstore\n      pop\n        /* \"ClubAi.sol\":33348:33446  function setTaxFeePercent(uint256 taxFee) external onlyOwner() {\r... */\n      pop\n      jump\t// out\n        /* \"ClubAi.sol\":28285:28368  function name() public view returns (string memory) {\r... */\n    tag_59:\n        /* \"ClubAi.sol\":28322:28335  string memory */\n      0x60\n        /* \"ClubAi.sol\":28355:28360  _name */\n      0x0c\n        /* \"ClubAi.sol\":28348:28360  return _name */\n      dup1\n      sload\n      0x01\n      dup2\n      0x01\n      and\n      iszero\n      0x0100\n      mul\n      sub\n      and\n      0x02\n      swap1\n      div\n      dup1\n      0x1f\n      add\n      0x20\n      dup1\n      swap2\n      div\n      mul\n      0x20\n      add\n      mload(0x40)\n      swap1\n      dup2\n      add\n      0x40\n      mstore\n      dup1\n      swap3\n      swap2\n      swap1\n      dup2\n      dup2\n      mstore\n      0x20\n      add\n      dup3\n      dup1\n      sload\n      0x01\n      dup2\n      0x01\n      and\n      iszero\n      0x0100\n      mul\n      sub\n      and\n      0x02\n      swap1\n      div\n      dup1\n      iszero\n      tag_213\n      jumpi\n      dup1\n      0x1f\n      lt\n      tag_214\n      jumpi\n      0x0100\n      dup1\n      dup4\n      sload\n      div\n      mul\n      dup4\n      mstore\n      swap2\n      0x20\n      add\n      swap2\n      jump(tag_213)\n    tag_214:\n      dup3\n      add\n      swap2\n      swap1\n      0x00\n      mstore\n      keccak256(0x00, 0x20)\n      swap1\n    tag_215:\n      dup2\n      sload\n      dup2\n      mstore\n      swap1\n      0x01\n      add\n      swap1\n      0x20\n      add\n      dup1\n      dup4\n      gt\n      tag_215\n      jumpi\n      dup3\n      swap1\n      sub\n      0x1f\n      and\n      dup3\n      add\n      swap2\n    tag_213:\n      pop\n      pop\n      pop\n      pop\n      pop\n      swap1\n      pop\n        /* \"ClubAi.sol\":28285:28368  function name() public view returns (string memory) {\r... */\n      swap1\n      jump\t// out\n        /* \"ClubAi.sol\":29199:29360  function approve(address spender, uint256 amount) public override returns (bool) {\r... */\n    tag_67:\n        /* \"ClubAi.sol\":29274:29278  bool */\n      0x00\n        /* \"ClubAi.sol\":29291:29330  _approve(_msgSender(), spender, amount) */\n      tag_217\n        /* \"ClubAi.sol\":29300:29312  _msgSender() */\n      tag_218\n        /* \"ClubAi.sol\":29300:29310  _msgSender */\n      tag_209\n        /* \"ClubAi.sol\":29300:29312  _msgSender() */\n      jump\t// in\n    tag_218:\n        /* \"ClubAi.sol\":29314:29321  spender */\n      dup5\n        /* \"ClubAi.sol\":29323:29329  amount */\n      dup5\n        /* \"ClubAi.sol\":29291:29299  _approve */\n      tag_219\n        /* \"ClubAi.sol\":29291:29330  _approve(_msgSender(), spender, amount) */\n      jump\t// in\n    tag_217:\n        /* \"ClubAi.sol\":29348:29352  true */\n      0x01\n        /* \"ClubAi.sol\":29341:29352  return true */\n      swap1\n      pop\n        /* \"ClubAi.sol\":29199:29360  function approve(address spender, uint256 amount) public override returns (bool) {\r... */\n      swap3\n      swap2\n      pop\n      pop\n      jump\t// out\n        /* \"ClubAi.sol\":30320:30407  function totalFees() public view returns (uint256) {\r... */\n    tag_70:\n        /* \"ClubAi.sol\":30362:30369  uint256 */\n      0x00\n        /* \"ClubAi.sol\":30389:30399  _tFeeTotal */\n      sload(0x0b)\n        /* \"ClubAi.sol\":30382:30399  return _tFeeTotal */\n      swap1\n      pop\n        /* \"ClubAi.sol\":30320:30407  function totalFees() public view returns (uint256) {\r... */\n      swap1\n      jump\t// out\n        /* \"ClubAi.sol\":26256:26307  IUniswapV2Router02 public immutable uniswapV2Router */\n    tag_73:\n      immutable(\"0x373ab5f6f5686eaf15420a778a209383e0ee0196a782fa3fd3ec96f326a92e6e\")\n      dup2\n      jump\t// out\n        /* \"ClubAi.sol\":28564:28659  function totalSupply() public view override returns (uint256) {\r... */\n    tag_76:\n        /* \"ClubAi.sol\":28617:28624  uint256 */\n      0x00\n        /* \"ClubAi.sol\":28644:28651  _tTotal */\n      sload(0x09)\n        /* \"ClubAi.sol\":28637:28651  return _tTotal */\n      swap1\n      pop\n        /* \"ClubAi.sol\":28564:28659  function totalSupply() public view override returns (uint256) {\r... */\n      swap1\n      jump\t// out\n        /* \"ClubAi.sol\":29368:29681  function transferFrom(address sender, address recipient, uint256 amount) public override returns (bool) {\r... */\n    tag_80:\n        /* \"ClubAi.sol\":29466:29470  bool */\n      0x00\n        /* \"ClubAi.sol\":29483:29519  _transfer(sender, recipient, amount) */\n      tag_223\n        /* \"ClubAi.sol\":29493:29499  sender */\n      dup5\n        /* \"ClubAi.sol\":29501:29510  recipient */\n      dup5\n        /* \"ClubAi.sol\":29512:29518  amount */\n      dup5\n        /* \"ClubAi.sol\":29483:29492  _transfer */\n      tag_224\n        /* \"ClubAi.sol\":29483:29519  _transfer(sender, recipient, amount) */\n      jump\t// in\n    tag_223:\n        /* \"ClubAi.sol\":29530:29651  _approve(sender, _msgSender(), _allowances[sender][_msgSender()].sub(amount, \"ERC20: transfer amount exceeds allowance\")) */\n      tag_225\n        /* \"ClubAi.sol\":29539:29545  sender */\n      dup5\n        /* \"ClubAi.sol\":29547:29559  _msgSender() */\n      tag_226\n        /* \"ClubAi.sol\":29547:29557  _msgSender */\n      tag_209\n        /* \"ClubAi.sol\":29547:29559  _msgSender() */\n      jump\t// in\n    tag_226:\n        /* \"ClubAi.sol\":29561:29650  _allowances[sender][_msgSender()].sub(amount, \"ERC20: transfer amount exceeds allowance\") */\n      tag_227\n        /* \"ClubAi.sol\":29599:29605  amount */\n      dup6\n        /* \"ClubAi.sol\":29561:29650  _allowances[sender][_msgSender()].sub(amount, \"ERC20: transfer amount exceeds allowance\") */\n      mload(0x40)\n      dup1\n      0x60\n      add\n      0x40\n      mstore\n      dup1\n      0x28\n      dup2\n      mstore\n      0x20\n      add\n      data_974d1b4421da69cc60b481194f0dad36a5bb4e23da810da7a7fb30cdba178330\n      0x28\n      swap2\n      codecopy\n        /* \"ClubAi.sol\":29561:29572  _allowances */\n      0x05\n        /* \"ClubAi.sol\":29561:29580  _allowances[sender] */\n      0x00\n        /* \"ClubAi.sol\":29573:29579  sender */\n      dup12\n        /* \"ClubAi.sol\":29561:29580  _allowances[sender] */\n      0xffffffffffffffffffffffffffffffffffffffff\n      and\n      0xffffffffffffffffffffffffffffffffffffffff\n      and\n      dup2\n      mstore\n      0x20\n      add\n      swap1\n      dup2\n      mstore\n      0x20\n      add\n      0x00\n      keccak256\n        /* \"ClubAi.sol\":29561:29594  _allowances[sender][_msgSender()] */\n      0x00\n        /* \"ClubAi.sol\":29581:29593  _msgSender() */\n      tag_228\n        /* \"ClubAi.sol\":29581:29591  _msgSender */\n      tag_209\n        /* \"ClubAi.sol\":29581:29593  _msgSender() */\n      jump\t// in\n    tag_228:\n        /* \"ClubAi.sol\":29561:29594  _allowances[sender][_msgSender()] */\n      0xffffffffffffffffffffffffffffffffffffffff\n      and\n      0xffffffffffffffffffffffffffffffffffffffff\n      and\n      dup2\n      mstore\n      0x20\n      add\n      swap1\n      dup2\n      mstore\n      0x20\n      add\n      0x00\n      keccak256\n      sload\n        /* \"ClubAi.sol\":29561:29598  _allowances[sender][_msgSender()].sub */\n      tag_229\n      swap1\n        /* \"ClubAi.sol\":29561:29650  _allowances[sender][_msgSender()].sub(amount, \"ERC20: transfer amount exceeds allowance\") */\n      swap3\n      swap2\n      swap1\n      0xffffffff\n      and\n      jump\t// in\n    tag_227:\n        /* \"ClubAi.sol\":29530:29538  _approve */\n      tag_219\n        /* \"ClubAi.sol\":29530:29651  _approve(sender, _msgSender(), _allowances[sender][_msgSender()].sub(amount, \"ERC20: transfer amount exceeds allowance\")) */\n      jump\t// in\n    tag_225:\n        /* \"ClubAi.sol\":29669:29673  true */\n      0x01\n        /* \"ClubAi.sol\":29662:29673  return true */\n      swap1\n      pop\n        /* \"ClubAi.sol\":29368:29681  function transferFrom(address sender, address recipient, uint256 amount) public override returns (bool) {\r... */\n      swap4\n      swap3\n      pop\n      pop\n      pop\n      jump\t// out\n        /* \"ClubAi.sol\":31244:31497  function tokenFromReflection(uint256 rAmount) public view returns(uint256) {\r... */\n    tag_84:\n        /* \"ClubAi.sol\":31310:31317  uint256 */\n      0x00\n        /* \"ClubAi.sol\":31349:31356  _rTotal */\n      sload(0x0a)\n        /* \"ClubAi.sol\":31338:31345  rAmount */\n      dup3\n        /* \"ClubAi.sol\":31338:31356  rAmount <= _rTotal */\n      gt\n      iszero\n        /* \"ClubAi.sol\":31330:31403  require(rAmount <= _rTotal, \"Amount must be less than total reflections\") */\n      tag_231\n      jumpi\n      mload(0x40)\n      0x08c379a000000000000000000000000000000000000000000000000000000000\n      dup2\n      mstore\n      0x04\n      add\n      dup1\n      dup1\n      0x20\n      add\n      dup3\n      dup2\n      sub\n      dup3\n      mstore\n      0x2a\n      dup2\n      mstore\n      0x20\n      add\n      dup1\n      data_22f7af55a509c3b14f0d528f087748dec8a8bf425135e3f5dc28c6a31ec6d812\n      0x2a\n      swap2\n      codecopy\n      0x40\n      add\n      swap2\n      pop\n      pop\n      mload(0x40)\n      dup1\n      swap2\n      sub\n      swap1\n      revert\n    tag_231:\n        /* \"ClubAi.sol\":31414:31433  uint256 currentRate */\n      0x00\n        /* \"ClubAi.sol\":31437:31447  _getRate() */\n      tag_232\n        /* \"ClubAi.sol\":31437:31445  _getRate */\n      tag_233\n        /* \"ClubAi.sol\":31437:31447  _getRate() */\n      jump\t// in\n    tag_232:\n        /* \"ClubAi.sol\":31414:31447  uint256 currentRate =  _getRate() */\n      swap1\n      pop\n        /* \"ClubAi.sol\":31465:31489  rAmount.div(currentRate) */\n      tag_234\n        /* \"ClubAi.sol\":31477:31488  currentRate */\n      dup2\n        /* \"ClubAi.sol\":31465:31472  rAmount */\n      dup5\n        /* \"ClubAi.sol\":31465:31476  rAmount.div */\n      tag_235\n      swap1\n        /* \"ClubAi.sol\":31465:31489  rAmount.div(currentRate) */\n      swap2\n      swap1\n      0xffffffff\n      and\n      jump\t// in\n    tag_234:\n        /* \"ClubAi.sol\":31458:31489  return rAmount.div(currentRate) */\n      swap2\n      pop\n      pop\n        /* \"ClubAi.sol\":31244:31497  function tokenFromReflection(uint256 rAmount) public view returns(uint256) {\r... */\n      swap2\n      swap1\n      pop\n      jump\t// out\n        /* \"ClubAi.sol\":28471:28556  function decimals() public view returns (uint256) {\r... */\n    tag_87:\n        /* \"ClubAi.sol\":28512:28519  uint256 */\n      0x00\n        /* \"ClubAi.sol\":28539:28548  _decimals */\n      sload(0x0e)\n        /* \"ClubAi.sol\":28532:28548  return _decimals */\n      swap1\n      pop\n        /* \"ClubAi.sol\":28471:28556  function decimals() public view returns (uint256) {\r... */\n      swap1\n      jump\t// out\n        /* \"ClubAi.sol\":31960:32439  function includeInReward(address account) external onlyOwner() {\r... */\n    tag_91:\n        /* \"ClubAi.sol\":15588:15600  _msgSender() */\n      tag_238\n        /* \"ClubAi.sol\":15588:15598  _msgSender */\n      tag_209\n        /* \"ClubAi.sol\":15588:15600  _msgSender() */\n      jump\t// in\n    tag_238:\n        /* \"ClubAi.sol\":15578:15600  _owner == _msgSender() */\n      0xffffffffffffffffffffffffffffffffffffffff\n      and\n        /* \"ClubAi.sol\":15578:15584  _owner */\n      0x00\n      dup1\n      sload\n      swap1\n      0x0100\n      exp\n      swap1\n      div\n      0xffffffffffffffffffffffffffffffffffffffff\n      and\n        /* \"ClubAi.sol\":15578:15600  _owner == _msgSender() */\n      0xffffffffffffffffffffffffffffffffffffffff\n      and\n      eq\n        /* \"ClubAi.sol\":15570:15637  require(_owner == _msgSender(), \"Ownable: caller is not the owner\") */\n      tag_239\n      jumpi\n      mload(0x40)\n      0x08c379a000000000000000000000000000000000000000000000000000000000\n      dup2\n      mstore\n      0x04\n      add\n      dup1\n      dup1\n      0x20\n      add\n      dup3\n      dup2\n      sub\n      dup3\n      mstore\n      0x20\n      dup2\n      mstore\n      0x20\n      add\n      dup1\n      0x4f776e61626c653a2063616c6c6572206973206e6f7420746865206f776e6572\n      dup2\n      mstore\n      pop\n      0x20\n      add\n      swap2\n      pop\n      pop\n      mload(0x40)\n      dup1\n      swap2\n      sub\n      swap1\n      revert\n    tag_239:\n        /* \"ClubAi.sol\":32042:32053  _isExcluded */\n      0x07\n        /* \"ClubAi.sol\":32042:32062  _isExcluded[account] */\n      0x00\n        /* \"ClubAi.sol\":32054:32061  account */\n      dup3\n        /* \"ClubAi.sol\":32042:32062  _isExcluded[account] */\n      0xffffffffffffffffffffffffffffffffffffffff\n      and\n      0xffffffffffffffffffffffffffffffffffffffff\n      and\n      dup2\n      mstore\n      0x20\n      add\n      swap1\n      dup2\n      mstore\n      0x20\n      add\n      0x00\n      keccak256\n      0x00\n      swap1\n      sload\n      swap1\n      0x0100\n      exp\n      swap1\n      div\n      0xff\n      and\n        /* \"ClubAi.sol\":32034:32094  require(_isExcluded[account], \"Account is already excluded\") */\n      tag_241\n      jumpi\n      mload(0x40)\n      0x08c379a000000000000000000000000000000000000000000000000000000000\n      dup2\n      mstore\n      0x04\n      add\n      dup1\n      dup1\n      0x20\n      add\n      dup3\n      dup2\n      sub\n      dup3\n      mstore\n      0x1b\n      dup2\n      mstore\n      0x20\n      add\n      dup1\n      0x4163636f756e7420697320616c7265616479206578636c756465640000000000\n      dup2\n      mstore\n      pop\n      0x20\n      add\n      swap2\n      pop\n      pop\n      mload(0x40)\n      dup1\n      swap2\n      sub\n      swap1\n      revert\n    tag_241:\n        /* \"ClubAi.sol\":32110:32119  uint256 i */\n      0x00\n        /* \"ClubAi.sol\":32105:32432  for (uint256 i = 0; i < _excluded.length; i++) {\r... */\n    tag_242:\n        /* \"ClubAi.sol\":32129:32138  _excluded */\n      0x08\n        /* \"ClubAi.sol\":32129:32145  _excluded.length */\n      dup1\n      sload\n      swap1\n      pop\n        /* \"ClubAi.sol\":32125:32126  i */\n      dup2\n        /* \"ClubAi.sol\":32125:32145  i < _excluded.length */\n      lt\n        /* \"ClubAi.sol\":32105:32432  for (uint256 i = 0; i < _excluded.length; i++) {\r... */\n      iszero\n      tag_243\n      jumpi\n        /* \"ClubAi.sol\":32187:32194  account */\n      dup2\n        /* \"ClubAi.sol\":32171:32194  _excluded[i] == account */\n      0xffffffffffffffffffffffffffffffffffffffff\n      and\n        /* \"ClubAi.sol\":32171:32180  _excluded */\n      0x08\n        /* \"ClubAi.sol\":32181:32182  i */\n      dup3\n        /* \"ClubAi.sol\":32171:32183  _excluded[i] */\n      dup2\n      sload\n      dup2\n      lt\n      tag_245\n      jumpi\n      invalid\n    tag_245:\n      swap1\n      0x00\n      mstore\n      keccak256(0x00, 0x20)\n      add\n      0x00\n      swap1\n      sload\n      swap1\n      0x0100\n      exp\n      swap1\n      div\n      0xffffffffffffffffffffffffffffffffffffffff\n      and\n        /* \"ClubAi.sol\":32171:32194  _excluded[i] == account */\n      0xffffffffffffffffffffffffffffffffffffffff\n      and\n      eq\n        /* \"ClubAi.sol\":32167:32421  if (_excluded[i] == account) {\r... */\n      iszero\n      tag_247\n      jumpi\n        /* \"ClubAi.sol\":32230:32239  _excluded */\n      0x08\n        /* \"ClubAi.sol\":32259:32260  1 */\n      0x01\n        /* \"ClubAi.sol\":32240:32249  _excluded */\n      0x08\n        /* \"ClubAi.sol\":32240:32256  _excluded.length */\n      dup1\n      sload\n      swap1\n      pop\n        /* \"ClubAi.sol\":32240:32260  _excluded.length - 1 */\n      sub\n        /* \"ClubAi.sol\":32230:32261  _excluded[_excluded.length - 1] */\n      dup2\n      sload\n      dup2\n      lt\n      tag_248\n      jumpi\n      invalid\n    tag_248:\n      swap1\n      0x00\n      mstore\n      keccak256(0x00, 0x20)\n      add\n      0x00\n      swap1\n      sload\n      swap1\n      0x0100\n      exp\n      swap1\n      div\n      0xffffffffffffffffffffffffffffffffffffffff\n      and\n        /* \"ClubAi.sol\":32215:32224  _excluded */\n      0x08\n        /* \"ClubAi.sol\":32225:32226  i */\n      dup3\n        /* \"ClubAi.sol\":32215:32227  _excluded[i] */\n      dup2\n      sload\n      dup2\n      lt\n      tag_250\n      jumpi\n      invalid\n    tag_250:\n      swap1\n      0x00\n      mstore\n      keccak256(0x00, 0x20)\n      add\n      0x00\n        /* \"ClubAi.sol\":32215:32261  _excluded[i] = _excluded[_excluded.length - 1] */\n      0x0100\n      exp\n      dup2\n      sload\n      dup2\n      0xffffffffffffffffffffffffffffffffffffffff\n      mul\n      not\n      and\n      swap1\n      dup4\n      0xffffffffffffffffffffffffffffffffffffffff\n      and\n      mul\n      or\n      swap1\n      sstore\n      pop\n        /* \"ClubAi.sol\":32299:32300  0 */\n      0x00\n        /* \"ClubAi.sol\":32280:32287  _tOwned */\n      0x04\n        /* \"ClubAi.sol\":32280:32296  _tOwned[account] */\n      0x00\n        /* \"ClubAi.sol\":32288:32295  account */\n      dup5\n        /* \"ClubAi.sol\":32280:32296  _tOwned[account] */\n      0xffffffffffffffffffffffffffffffffffffffff\n      and\n      0xffffffffffffffffffffffffffffffffffffffff\n      and\n      dup2\n      mstore\n      0x20\n      add\n      swap1\n      dup2\n      mstore\n      0x20\n      add\n      0x00\n      keccak256\n        /* \"ClubAi.sol\":32280:32300  _tOwned[account] = 0 */\n      dup2\n      swap1\n      sstore\n      pop\n        /* \"ClubAi.sol\":32342:32347  false */\n      0x00\n        /* \"ClubAi.sol\":32319:32330  _isExcluded */\n      0x07\n        /* \"ClubAi.sol\":32319:32339  _isExcluded[account] */\n      0x00\n        /* \"ClubAi.sol\":32331:32338  account */\n      dup5\n        /* \"ClubAi.sol\":32319:32339  _isExcluded[account] */\n      0xffffffffffffffffffffffffffffffffffffffff\n      and\n      0xffffffffffffffffffffffffffffffffffffffff\n      and\n      dup2\n      mstore\n      0x20\n      add\n      swap1\n      dup2\n      mstore\n      0x20\n      add\n      0x00\n      keccak256\n      0x00\n        /* \"ClubAi.sol\":32319:32347  _isExcluded[account] = false */\n      0x0100\n      exp\n      dup2\n      sload\n      dup2\n      0xff\n      mul\n      not\n      and\n      swap1\n      dup4\n      iszero\n      iszero\n      mul\n      or\n      swap1\n      sstore\n      pop\n        /* \"ClubAi.sol\":32366:32375  _excluded */\n      0x08\n        /* \"ClubAi.sol\":32366:32381  _excluded.pop() */\n      dup1\n      sload\n      dup1\n      tag_252\n      jumpi\n      invalid\n    tag_252:\n      0x01\n      swap1\n      sub\n      dup2\n      dup2\n      swap1\n      0x00\n      mstore\n      keccak256(0x00, 0x20)\n      add\n      exp(0x0100, 0x00)\n      dup2\n      sload\n      swap1\n      0xffffffffffffffffffffffffffffffffffffffff\n      mul\n      not\n      and\n      swap1\n      sstore\n      swap1\n      sstore\n        /* \"ClubAi.sol\":32400:32405  break */\n      jump(tag_243)\n        /* \"ClubAi.sol\":32167:32421  if (_excluded[i] == account) {\r... */\n    tag_247:\n        /* \"ClubAi.sol\":32147:32150  i++ */\n      dup1\n      dup1\n      0x01\n      add\n      swap2\n      pop\n      pop\n        /* \"ClubAi.sol\":32105:32432  for (uint256 i = 0; i < _excluded.length; i++) {\r... */\n      jump(tag_242)\n    tag_243:\n      pop\n        /* \"ClubAi.sol\":31960:32439  function includeInReward(address account) external onlyOwner() {\r... */\n      pop\n      jump\t// out\n        /* \"ClubAi.sol\":29689:29907  function increaseAllowance(address spender, uint256 addedValue) public virtual returns (bool) {\r... */\n    tag_95:\n        /* \"ClubAi.sol\":29777:29781  bool */\n      0x00\n        /* \"ClubAi.sol\":29794:29877  _approve(_msgSender(), spender, _allowances[_msgSender()][spender].add(addedValue)) */\n      tag_255\n        /* \"ClubAi.sol\":29803:29815  _msgSender() */\n      tag_256\n        /* \"ClubAi.sol\":29803:29813  _msgSender */\n      tag_209\n        /* \"ClubAi.sol\":29803:29815  _msgSender() */\n      jump\t// in\n    tag_256:\n        /* \"ClubAi.sol\":29817:29824  spender */\n      dup5\n        /* \"ClubAi.sol\":29826:29876  _allowances[_msgSender()][spender].add(addedValue) */\n      tag_257\n        /* \"ClubAi.sol\":29865:29875  addedValue */\n      dup6\n        /* \"ClubAi.sol\":29826:29837  _allowances */\n      0x05\n        /* \"ClubAi.sol\":29826:29851  _allowances[_msgSender()] */\n      0x00\n        /* \"ClubAi.sol\":29838:29850  _msgSender() */\n      tag_258\n        /* \"ClubAi.sol\":29838:29848  _msgSender */\n      tag_209\n        /* \"ClubAi.sol\":29838:29850  _msgSender() */\n      jump\t// in\n    tag_258:\n        /* \"ClubAi.sol\":29826:29851  _allowances[_msgSender()] */\n      0xffffffffffffffffffffffffffffffffffffffff\n      and\n      0xffffffffffffffffffffffffffffffffffffffff\n      and\n      dup2\n      mstore\n      0x20\n      add\n      swap1\n      dup2\n      mstore\n      0x20\n      add\n      0x00\n      keccak256\n        /* \"ClubAi.sol\":29826:29860  _allowances[_msgSender()][spender] */\n      0x00\n        /* \"ClubAi.sol\":29852:29859  spender */\n      dup10\n        /* \"ClubAi.sol\":29826:29860  _allowances[_msgSender()][spender] */\n      0xffffffffffffffffffffffffffffffffffffffff\n      and\n      0xffffffffffffffffffffffffffffffffffffffff\n      and\n      dup2\n      mstore\n      0x20\n      add\n      swap1\n      dup2\n      mstore\n      0x20\n      add\n      0x00\n      keccak256\n      sload\n        /* \"ClubAi.sol\":29826:29864  _allowances[_msgSender()][spender].add */\n      tag_259\n      swap1\n        /* \"ClubAi.sol\":29826:29876  _allowances[_msgSender()][spender].add(addedValue) */\n      swap2\n      swap1\n      0xffffffff\n      and\n      jump\t// in\n    tag_257:\n        /* \"ClubAi.sol\":29794:29802  _approve */\n      tag_219\n        /* \"ClubAi.sol\":29794:29877  _approve(_msgSender(), spender, _allowances[_msgSender()][spender].add(addedValue)) */\n      jump\t// in\n    tag_255:\n        /* \"ClubAi.sol\":29895:29899  true */\n      0x01\n        /* \"ClubAi.sol\":29888:29899  return true */\n      swap1\n      pop\n        /* \"ClubAi.sol\":29689:29907  function increaseAllowance(address spender, uint256 addedValue) public virtual returns (bool) {\r... */\n      swap3\n      swap2\n      pop\n      pop\n      jump\t// out\n        /* \"ClubAi.sol\":26102:26124  uint256 public _taxFee */\n    tag_98:\n      sload(0x0f)\n      dup2\n      jump\t// out\n        /* \"ClubAi.sol\":30415:30792  function deliver(uint256 tAmount) public {\r... */\n    tag_102:\n        /* \"ClubAi.sol\":30467:30481  address sender */\n      0x00\n        /* \"ClubAi.sol\":30484:30496  _msgSender() */\n      tag_261\n        /* \"ClubAi.sol\":30484:30494  _msgSender */\n      tag_209\n        /* \"ClubAi.sol\":30484:30496  _msgSender() */\n      jump\t// in\n    tag_261:\n        /* \"ClubAi.sol\":30467:30496  address sender = _msgSender() */\n      swap1\n      pop\n        /* \"ClubAi.sol\":30516:30527  _isExcluded */\n      0x07\n        /* \"ClubAi.sol\":30516:30535  _isExcluded[sender] */\n      0x00\n        /* \"ClubAi.sol\":30528:30534  sender */\n      dup3\n        /* \"ClubAi.sol\":30516:30535  _isExcluded[sender] */\n      0xffffffffffffffffffffffffffffffffffffffff\n      and\n      0xffffffffffffffffffffffffffffffffffffffff\n      and\n      dup2\n      mstore\n      0x20\n      add\n      swap1\n      dup2\n      mstore\n      0x20\n      add\n      0x00\n      keccak256\n      0x00\n      swap1\n      sload\n      swap1\n      0x0100\n      exp\n      swap1\n      div\n      0xff\n      and\n        /* \"ClubAi.sol\":30515:30535  !_isExcluded[sender] */\n      iszero\n        /* \"ClubAi.sol\":30507:30584  require(!_isExcluded[sender], \"Excluded addresses cannot call this function\") */\n      tag_262\n      jumpi\n      mload(0x40)\n      0x08c379a000000000000000000000000000000000000000000000000000000000\n      dup2\n      mstore\n      0x04\n      add\n      dup1\n      dup1\n      0x20\n      add\n      dup3\n      dup2\n      sub\n      dup3\n      mstore\n      0x2c\n      dup2\n      mstore\n      0x20\n      add\n      dup1\n      data_ecefcaf5fbcf9ca6dcdb02298ba1da96f4ead317b0a4779917ecb2e5e7dc3ac4\n      0x2c\n      swap2\n      codecopy\n      0x40\n      add\n      swap2\n      pop\n      pop\n      mload(0x40)\n      dup1\n      swap2\n      sub\n      swap1\n      revert\n    tag_262:\n        /* \"ClubAi.sol\":30596:30611  uint256 rAmount */\n      0x00\n        /* \"ClubAi.sol\":30620:30639  _getValues(tAmount) */\n      tag_263\n        /* \"ClubAi.sol\":30631:30638  tAmount */\n      dup4\n        /* \"ClubAi.sol\":30620:30630  _getValues */\n      tag_264\n        /* \"ClubAi.sol\":30620:30639  _getValues(tAmount) */\n      jump\t// in\n    tag_263:\n        /* \"ClubAi.sol\":30595:30639  (uint256 rAmount,,,,,) = _getValues(tAmount) */\n      pop\n      pop\n      pop\n      pop\n      pop\n      swap1\n      pop\n        /* \"ClubAi.sol\":30668:30696  _rOwned[sender].sub(rAmount) */\n      tag_265\n        /* \"ClubAi.sol\":30688:30695  rAmount */\n      dup2\n        /* \"ClubAi.sol\":30668:30675  _rOwned */\n      0x03\n        /* \"ClubAi.sol\":30668:30683  _rOwned[sender] */\n      0x00\n        /* \"ClubAi.sol\":30676:30682  sender */\n      dup6\n        /* \"ClubAi.sol\":30668:30683  _rOwned[sender] */\n      0xffffffffffffffffffffffffffffffffffffffff\n      and\n      0xffffffffffffffffffffffffffffffffffffffff\n      and\n      dup2\n      mstore\n      0x20\n      add\n      swap1\n      dup2\n      mstore\n      0x20\n      add\n      0x00\n      keccak256\n      sload\n        /* \"ClubAi.sol\":30668:30687  _rOwned[sender].sub */\n      tag_266\n      swap1\n        /* \"ClubAi.sol\":30668:30696  _rOwned[sender].sub(rAmount) */\n      swap2\n      swap1\n      0xffffffff\n      and\n      jump\t// in\n    tag_265:\n        /* \"ClubAi.sol\":30650:30657  _rOwned */\n      0x03\n        /* \"ClubAi.sol\":30650:30665  _rOwned[sender] */\n      0x00\n        /* \"ClubAi.sol\":30658:30664  sender */\n      dup5\n        /* \"ClubAi.sol\":30650:30665  _rOwned[sender] */\n      0xffffffffffffffffffffffffffffffffffffffff\n      and\n      0xffffffffffffffffffffffffffffffffffffffff\n      and\n      dup2\n      mstore\n      0x20\n      add\n      swap1\n      dup2\n      mstore\n      0x20\n      add\n      0x00\n      keccak256\n        /* \"ClubAi.sol\":30650:30696  _rOwned[sender] = _rOwned[sender].sub(rAmount) */\n      dup2\n      swap1\n      sstore\n      pop\n        /* \"ClubAi.sol\":30717:30737  _rTotal.sub(rAmount) */\n      tag_267\n        /* \"ClubAi.sol\":30729:30736  rAmount */\n      dup2\n        /* \"ClubAi.sol\":30717:30724  _rTotal */\n      sload(0x0a)\n        /* \"ClubAi.sol\":30717:30728  _rTotal.sub */\n      tag_266\n      swap1\n        /* \"ClubAi.sol\":30717:30737  _rTotal.sub(rAmount) */\n      swap2\n      swap1\n      0xffffffff\n      and\n      jump\t// in\n    tag_267:\n        /* \"ClubAi.sol\":30707:30714  _rTotal */\n      0x0a\n        /* \"ClubAi.sol\":30707:30737  _rTotal = _rTotal.sub(rAmount) */\n      dup2\n      swap1\n      sstore\n      pop\n        /* \"ClubAi.sol\":30761:30784  _tFeeTotal.add(tAmount) */\n      tag_268\n        /* \"ClubAi.sol\":30776:30783  tAmount */\n      dup4\n        /* \"ClubAi.sol\":30761:30771  _tFeeTotal */\n      sload(0x0b)\n        /* \"ClubAi.sol\":30761:30775  _tFeeTotal.add */\n      tag_259\n      swap1\n        /* \"ClubAi.sol\":30761:30784  _tFeeTotal.add(tAmount) */\n      swap2\n      swap1\n      0xffffffff\n      and\n      jump\t// in\n    tag_268:\n        /* \"ClubAi.sol\":30748:30758  _tFeeTotal */\n      0x0b\n        /* \"ClubAi.sol\":30748:30784  _tFeeTotal = _tFeeTotal.add(tAmount) */\n      dup2\n      swap1\n      sstore\n      pop\n        /* \"ClubAi.sol\":30415:30792  function deliver(uint256 tAmount) public {\r... */\n      pop\n      pop\n      pop\n      jump\t// out\n        /* \"ClubAi.sol\":33103:33214  function excludeFromFee(address account) public onlyOwner {\r... */\n    tag_106:\n        /* \"ClubAi.sol\":15588:15600  _msgSender() */\n      tag_270\n        /* \"ClubAi.sol\":15588:15598  _msgSender */\n      tag_209\n        /* \"ClubAi.sol\":15588:15600  _msgSender() */\n      jump\t// in\n    tag_270:\n        /* \"ClubAi.sol\":15578:15600  _owner == _msgSender() */\n      0xffffffffffffffffffffffffffffffffffffffff\n      and\n        /* \"ClubAi.sol\":15578:15584  _owner */\n      0x00\n      dup1\n      sload\n      swap1\n      0x0100\n      exp\n      swap1\n      div\n      0xffffffffffffffffffffffffffffffffffffffff\n      and\n        /* \"ClubAi.sol\":15578:15600  _owner == _msgSender() */\n      0xffffffffffffffffffffffffffffffffffffffff\n      and\n      eq\n        /* \"ClubAi.sol\":15570:15637  require(_owner == _msgSender(), \"Ownable: caller is not the owner\") */\n      tag_271\n      jumpi\n      mload(0x40)\n      0x08c379a000000000000000000000000000000000000000000000000000000000\n      dup2\n      mstore\n      0x04\n      add\n      dup1\n      dup1\n      0x20\n      add\n      dup3\n      dup2\n      sub\n      dup3\n      mstore\n      0x20\n      dup2\n      mstore\n      0x20\n      add\n      dup1\n      0x4f776e61626c653a2063616c6c6572206973206e6f7420746865206f776e6572\n      dup2\n      mstore\n      pop\n      0x20\n      add\n      swap2\n      pop\n      pop\n      mload(0x40)\n      dup1\n      swap2\n      sub\n      swap1\n      revert\n    tag_271:\n        /* \"ClubAi.sol\":33202:33206  true */\n      0x01\n        /* \"ClubAi.sol\":33172:33190  _isExcludedFromFee */\n      0x06\n        /* \"ClubAi.sol\":33172:33199  _isExcludedFromFee[account] */\n      0x00\n        /* \"ClubAi.sol\":33191:33198  account */\n      dup4\n        /* \"ClubAi.sol\":33172:33199  _isExcludedFromFee[account] */\n      0xffffffffffffffffffffffffffffffffffffffff\n      and\n      0xffffffffffffffffffffffffffffffffffffffff\n      and\n      dup2\n      mstore\n      0x20\n      add\n      swap1\n      dup2\n      mstore\n      0x20\n      add\n      0x00\n      keccak256\n      0x00\n        /* \"ClubAi.sol\":33172:33206  _isExcludedFromFee[account] = true */\n      0x0100\n      exp\n      dup2\n      sload\n      dup2\n      0xff\n      mul\n      not\n      and\n      swap1\n      dup4\n      iszero\n      iszero\n      mul\n      or\n      swap1\n      sstore\n      pop\n        /* \"ClubAi.sol\":33103:33214  function excludeFromFee(address account) public onlyOwner {\r... */\n      pop\n      jump\t// out\n        /* \"ClubAi.sol\":30800:31236  function reflectionFromToken(uint256 tAmount, bool deductTransferFee) public view returns(uint256) {\r... */\n    tag_110:\n        /* \"ClubAi.sol\":30890:30897  uint256 */\n      0x00\n        /* \"ClubAi.sol\":30929:30936  _tTotal */\n      sload(0x09)\n        /* \"ClubAi.sol\":30918:30925  tAmount */\n      dup4\n        /* \"ClubAi.sol\":30918:30936  tAmount <= _tTotal */\n      gt\n      iszero\n        /* \"ClubAi.sol\":30910:30972  require(tAmount <= _tTotal, \"Amount must be less than supply\") */\n      tag_274\n      jumpi\n      mload(0x40)\n      0x08c379a000000000000000000000000000000000000000000000000000000000\n      dup2\n      mstore\n      0x04\n      add\n      dup1\n      dup1\n      0x20\n      add\n      dup3\n      dup2\n      sub\n      dup3\n      mstore\n      0x1f\n      dup2\n      mstore\n      0x20\n      add\n      dup1\n      0x416d6f756e74206d757374206265206c657373207468616e20737570706c7900\n      dup2\n      mstore\n      pop\n      0x20\n      add\n      swap2\n      pop\n      pop\n      mload(0x40)\n      dup1\n      swap2\n      sub\n      swap1\n      revert\n    tag_274:\n        /* \"ClubAi.sol\":30988:31005  deductTransferFee */\n      dup2\n        /* \"ClubAi.sol\":30983:31229  if (!deductTransferFee) {\r... */\n      tag_275\n      jumpi\n        /* \"ClubAi.sol\":31023:31038  uint256 rAmount */\n      0x00\n        /* \"ClubAi.sol\":31047:31066  _getValues(tAmount) */\n      tag_276\n        /* \"ClubAi.sol\":31058:31065  tAmount */\n      dup5\n        /* \"ClubAi.sol\":31047:31057  _getValues */\n      tag_264\n        /* \"ClubAi.sol\":31047:31066  _getValues(tAmount) */\n      jump\t// in\n    tag_276:\n        /* \"ClubAi.sol\":31022:31066  (uint256 rAmount,,,,,) = _getValues(tAmount) */\n      pop\n      pop\n      pop\n      pop\n      pop\n      swap1\n      pop\n        /* \"ClubAi.sol\":31088:31095  rAmount */\n      dup1\n        /* \"ClubAi.sol\":31081:31095  return rAmount */\n      swap2\n      pop\n      pop\n      jump(tag_273)\n        /* \"ClubAi.sol\":30983:31229  if (!deductTransferFee) {\r... */\n    tag_275:\n        /* \"ClubAi.sol\":31130:31153  uint256 rTransferAmount */\n      0x00\n        /* \"ClubAi.sol\":31161:31180  _getValues(tAmount) */\n      tag_278\n        /* \"ClubAi.sol\":31172:31179  tAmount */\n      dup5\n        /* \"ClubAi.sol\":31161:31171  _getValues */\n      tag_264\n        /* \"ClubAi.sol\":31161:31180  _getValues(tAmount) */\n      jump\t// in\n    tag_278:\n        /* \"ClubAi.sol\":31128:31180  (,uint256 rTransferAmount,,,,) = _getValues(tAmount) */\n      pop\n      pop\n      pop\n      pop\n      swap2\n      pop\n      pop\n        /* \"ClubAi.sol\":31202:31217  rTransferAmount */\n      dup1\n        /* \"ClubAi.sol\":31195:31217  return rTransferAmount */\n      swap2\n      pop\n      pop\n        /* \"ClubAi.sol\":30800:31236  function reflectionFromToken(uint256 tAmount, bool deductTransferFee) public view returns(uint256) {\r... */\n    tag_273:\n      swap3\n      swap2\n      pop\n      pop\n      jump\t// out\n        /* \"ClubAi.sol\":36649:36759  function claimTokens() public onlyOwner {\r... */\n    tag_113:\n        /* \"ClubAi.sol\":15588:15600  _msgSender() */\n      tag_280\n        /* \"ClubAi.sol\":15588:15598  _msgSender */\n      tag_209\n        /* \"ClubAi.sol\":15588:15600  _msgSender() */\n      jump\t// in\n    tag_280:\n        /* \"ClubAi.sol\":15578:15600  _owner == _msgSender() */\n      0xffffffffffffffffffffffffffffffffffffffff\n      and\n        /* \"ClubAi.sol\":15578:15584  _owner */\n      0x00\n      dup1\n      sload\n      swap1\n      0x0100\n      exp\n      swap1\n      div\n      0xffffffffffffffffffffffffffffffffffffffff\n      and\n        /* \"ClubAi.sol\":15578:15600  _owner == _msgSender() */\n      0xffffffffffffffffffffffffffffffffffffffff\n      and\n      eq\n        /* \"ClubAi.sol\":15570:15637  require(_owner == _msgSender(), \"Ownable: caller is not the owner\") */\n      tag_281\n      jumpi\n      mload(0x40)\n      0x08c379a000000000000000000000000000000000000000000000000000000000\n      dup2\n      mstore\n      0x04\n      add\n      dup1\n      dup1\n      0x20\n      add\n      dup3\n      dup2\n      sub\n      dup3\n      mstore\n      0x20\n      dup2\n      mstore\n      0x20\n      add\n      dup1\n      0x4f776e61626c653a2063616c6c6572206973206e6f7420746865206f776e6572\n      dup2\n      mstore\n      pop\n      0x20\n      add\n      swap2\n      pop\n      pop\n      mload(0x40)\n      dup1\n      swap2\n      sub\n      swap1\n      revert\n    tag_281:\n        /* \"ClubAi.sol\":36712:36718  _owner */\n      0x00\n      dup1\n      sload\n      swap1\n      0x0100\n      exp\n      swap1\n      div\n      0xffffffffffffffffffffffffffffffffffffffff\n      and\n        /* \"ClubAi.sol\":36704:36728  payable(_owner).transfer */\n      0xffffffffffffffffffffffffffffffffffffffff\n      and\n        /* \"ClubAi.sol\":36704:36751  payable(_owner).transfer(address(this).balance) */\n      0x08fc\n        /* \"ClubAi.sol\":36729:36750  address(this).balance */\n      selfbalance\n        /* \"ClubAi.sol\":36704:36751  payable(_owner).transfer(address(this).balance) */\n      swap1\n      dup2\n      iszero\n      mul\n      swap1\n      mload(0x40)\n      0x00\n      mload(0x40)\n      dup1\n      dup4\n      sub\n      dup2\n      dup6\n      dup9\n      dup9\n      call\n      swap4\n      pop\n      pop\n      pop\n      pop\n      iszero\n      dup1\n      iszero\n      tag_284\n      jumpi\n      returndatasize\n      0x00\n      dup1\n      returndatacopy\n      revert(0x00, returndatasize)\n    tag_284:\n      pop\n        /* \"ClubAi.sol\":36649:36759  function claimTokens() public onlyOwner {\r... */\n      jump\t// out\n        /* \"ClubAi.sol\":26314:26352  address public immutable uniswapV2Pair */\n    tag_116:\n      immutable(\"0xf17089ced8c0c2239e63f2bbb45b3ebcf864ae70eb1ca01545337030cdeed50a\")\n      dup2\n      jump\t// out\n        /* \"ClubAi.sol\":26393:26433  bool public swapAndLiquifyEnabled = true */\n    tag_119:\n      0x13\n      0x01\n      swap1\n      sload\n      swap1\n      0x0100\n      exp\n      swap1\n      div\n      0xff\n      and\n      dup2\n      jump\t// out\n        /* \"ClubAi.sol\":31505:31952  function excludeFromReward(address account) public onlyOwner() {\r... */\n    tag_123:\n        /* \"ClubAi.sol\":15588:15600  _msgSender() */\n      tag_286\n        /* \"ClubAi.sol\":15588:15598  _msgSender */\n      tag_209\n        /* \"ClubAi.sol\":15588:15600  _msgSender() */\n      jump\t// in\n    tag_286:\n        /* \"ClubAi.sol\":15578:15600  _owner == _msgSender() */\n      0xffffffffffffffffffffffffffffffffffffffff\n      and\n        /* \"ClubAi.sol\":15578:15584  _owner */\n      0x00\n      dup1\n      sload\n      swap1\n      0x0100\n      exp\n      swap1\n      div\n      0xffffffffffffffffffffffffffffffffffffffff\n      and\n        /* \"ClubAi.sol\":15578:15600  _owner == _msgSender() */\n      0xffffffffffffffffffffffffffffffffffffffff\n      and\n      eq\n        /* \"ClubAi.sol\":15570:15637  require(_owner == _msgSender(), \"Ownable: caller is not the owner\") */\n      tag_287\n      jumpi\n      mload(0x40)\n      0x08c379a000000000000000000000000000000000000000000000000000000000\n      dup2\n      mstore\n      0x04\n      add\n      dup1\n      dup1\n      0x20\n      add\n      dup3\n      dup2\n      sub\n      dup3\n      mstore\n      0x20\n      dup2\n      mstore\n      0x20\n      add\n      dup1\n      0x4f776e61626c653a2063616c6c6572206973206e6f7420746865206f776e6572\n      dup2\n      mstore\n      pop\n      0x20\n      add\n      swap2\n      pop\n      pop\n      mload(0x40)\n      dup1\n      swap2\n      sub\n      swap1\n      revert\n    tag_287:\n        /* \"ClubAi.sol\":31702:31713  _isExcluded */\n      0x07\n        /* \"ClubAi.sol\":31702:31722  _isExcluded[account] */\n      0x00\n        /* \"ClubAi.sol\":31714:31721  account */\n      dup3\n        /* \"ClubAi.sol\":31702:31722  _isExcluded[account] */\n      0xffffffffffffffffffffffffffffffffffffffff\n      and\n      0xffffffffffffffffffffffffffffffffffffffff\n      and\n      dup2\n      mstore\n      0x20\n      add\n      swap1\n      dup2\n      mstore\n      0x20\n      add\n      0x00\n      keccak256\n      0x00\n      swap1\n      sload\n      swap1\n      0x0100\n      exp\n      swap1\n      div\n      0xff\n      and\n        /* \"ClubAi.sol\":31701:31722  !_isExcluded[account] */\n      iszero\n        /* \"ClubAi.sol\":31693:31754  require(!_isExcluded[account], \"Account is already excluded\") */\n      tag_289\n      jumpi\n      mload(0x40)\n      0x08c379a000000000000000000000000000000000000000000000000000000000\n      dup2\n      mstore\n      0x04\n      add\n      dup1\n      dup1\n      0x20\n      add\n      dup3\n      dup2\n      sub\n      dup3\n      mstore\n      0x1b\n      dup2\n      mstore\n      0x20\n      add\n      dup1\n      0x4163636f756e7420697320616c7265616479206578636c756465640000000000\n      dup2\n      mstore\n      pop\n      0x20\n      add\n      swap2\n      pop\n      pop\n      mload(0x40)\n      dup1\n      swap2\n      sub\n      swap1\n      revert\n    tag_289:\n        /* \"ClubAi.sol\":31787:31788  0 */\n      0x00\n        /* \"ClubAi.sol\":31768:31775  _rOwned */\n      0x03\n        /* \"ClubAi.sol\":31768:31784  _rOwned[account] */\n      0x00\n        /* \"ClubAi.sol\":31776:31783  account */\n      dup4\n        /* \"ClubAi.sol\":31768:31784  _rOwned[account] */\n      0xffffffffffffffffffffffffffffffffffffffff\n      and\n      0xffffffffffffffffffffffffffffffffffffffff\n      and\n      dup2\n      mstore\n      0x20\n      add\n      swap1\n      dup2\n      mstore\n      0x20\n      add\n      0x00\n      keccak256\n      sload\n        /* \"ClubAi.sol\":31768:31788  _rOwned[account] > 0 */\n      gt\n        /* \"ClubAi.sol\":31765:31873  if(_rOwned[account] > 0) {\r... */\n      iszero\n      tag_290\n      jumpi\n        /* \"ClubAi.sol\":31824:31861  tokenFromReflection(_rOwned[account]) */\n      tag_291\n        /* \"ClubAi.sol\":31844:31851  _rOwned */\n      0x03\n        /* \"ClubAi.sol\":31844:31860  _rOwned[account] */\n      0x00\n        /* \"ClubAi.sol\":31852:31859  account */\n      dup4\n        /* \"ClubAi.sol\":31844:31860  _rOwned[account] */\n      0xffffffffffffffffffffffffffffffffffffffff\n      and\n      0xffffffffffffffffffffffffffffffffffffffff\n      and\n      dup2\n      mstore\n      0x20\n      add\n      swap1\n      dup2\n      mstore\n      0x20\n      add\n      0x00\n      keccak256\n      sload\n        /* \"ClubAi.sol\":31824:31843  tokenFromReflection */\n      tag_84\n        /* \"ClubAi.sol\":31824:31861  tokenFromReflection(_rOwned[account]) */\n      jump\t// in\n    tag_291:\n        /* \"ClubAi.sol\":31805:31812  _tOwned */\n      0x04\n        /* \"ClubAi.sol\":31805:31821  _tOwned[account] */\n      0x00\n        /* \"ClubAi.sol\":31813:31820  account */\n      dup4\n        /* \"ClubAi.sol\":31805:31821  _tOwned[account] */\n      0xffffffffffffffffffffffffffffffffffffffff\n      and\n      0xffffffffffffffffffffffffffffffffffffffff\n      and\n      dup2\n      mstore\n      0x20\n      add\n      swap1\n      dup2\n      mstore\n      0x20\n      add\n      0x00\n      keccak256\n        /* \"ClubAi.sol\":31805:31861  _tOwned[account] = tokenFromReflection(_rOwned[account]) */\n      dup2\n      swap1\n      sstore\n      pop\n        /* \"ClubAi.sol\":31765:31873  if(_rOwned[account] > 0) {\r... */\n    tag_290:\n        /* \"ClubAi.sol\":31906:31910  true */\n      0x01\n        /* \"ClubAi.sol\":31883:31894  _isExcluded */\n      0x07\n        /* \"ClubAi.sol\":31883:31903  _isExcluded[account] */\n      0x00\n        /* \"ClubAi.sol\":31895:31902  account */\n      dup4\n        /* \"ClubAi.sol\":31883:31903  _isExcluded[account] */\n      0xffffffffffffffffffffffffffffffffffffffff\n      and\n      0xffffffffffffffffffffffffffffffffffffffff\n      and\n      dup2\n      mstore\n      0x20\n      add\n      swap1\n      dup2\n      mstore\n      0x20\n      add\n      0x00\n      keccak256\n      0x00\n        /* \"ClubAi.sol\":31883:31910  _isExcluded[account] = true */\n      0x0100\n      exp\n      dup2\n      sload\n      dup2\n      0xff\n      mul\n      not\n      and\n      swap1\n      dup4\n      iszero\n      iszero\n      mul\n      or\n      swap1\n      sstore\n      pop\n        /* \"ClubAi.sol\":31921:31930  _excluded */\n      0x08\n        /* \"ClubAi.sol\":31936:31943  account */\n      dup2\n        /* \"ClubAi.sol\":31921:31944  _excluded.push(account) */\n      swap1\n      dup1\n      0x01\n      dup2\n      sload\n      add\n      dup1\n      dup3\n      sstore\n      dup1\n      swap2\n      pop\n      pop\n      0x01\n      swap1\n      sub\n      swap1\n      0x00\n      mstore\n      keccak256(0x00, 0x20)\n      add\n      0x00\n      swap1\n      swap2\n      swap1\n      swap2\n      swap1\n      swap2\n      0x0100\n      exp\n      dup2\n      sload\n      dup2\n      0xffffffffffffffffffffffffffffffffffffffff\n      mul\n      not\n      and\n      swap1\n      dup4\n      0xffffffffffffffffffffffffffffffffffffffff\n      and\n      mul\n      or\n      swap1\n      sstore\n      pop\n        /* \"ClubAi.sol\":31505:31952  function excludeFromReward(address account) public onlyOwner() {\r... */\n      pop\n      jump\t// out\n        /* \"ClubAi.sol\":37510:37633  function isExcludedFromFee(address account) public view returns(bool) {\r... */\n    tag_127:\n        /* \"ClubAi.sol\":37574:37578  bool */\n      0x00\n        /* \"ClubAi.sol\":37598:37616  _isExcludedFromFee */\n      0x06\n        /* \"ClubAi.sol\":37598:37625  _isExcludedFromFee[account] */\n      0x00\n        /* \"ClubAi.sol\":37617:37624  account */\n      dup4\n        /* \"ClubAi.sol\":37598:37625  _isExcludedFromFee[account] */\n      0xffffffffffffffffffffffffffffffffffffffff\n      and\n      0xffffffffffffffffffffffffffffffffffffffff\n      and\n      dup2\n      mstore\n      0x20\n      add\n      swap1\n      dup2\n      mstore\n      0x20\n      add\n      0x00\n      keccak256\n      0x00\n      swap1\n      sload\n      swap1\n      0x0100\n      exp\n      swap1\n      div\n      0xff\n      and\n        /* \"ClubAi.sol\":37591:37625  return _isExcludedFromFee[account] */\n      swap1\n      pop\n        /* \"ClubAi.sol\":37510:37633  function isExcludedFromFee(address account) public view returns(bool) {\r... */\n      swap2\n      swap1\n      pop\n      jump\t// out\n        /* \"ClubAi.sol\":26175:26203  uint256 public _liquidityFee */\n    tag_130:\n      sload(0x11)\n      dup2\n      jump\t// out\n        /* \"ClubAi.sol\":28667:28865  function balanceOf(address account) public view override returns (uint256) {\r... */\n    tag_134:\n        /* \"ClubAi.sol\":28733:28740  uint256 */\n      0x00\n        /* \"ClubAi.sol\":28757:28768  _isExcluded */\n      0x07\n        /* \"ClubAi.sol\":28757:28777  _isExcluded[account] */\n      0x00\n        /* \"ClubAi.sol\":28769:28776  account */\n      dup4\n        /* \"ClubAi.sol\":28757:28777  _isExcluded[account] */\n      0xffffffffffffffffffffffffffffffffffffffff\n      and\n      0xffffffffffffffffffffffffffffffffffffffff\n      and\n      dup2\n      mstore\n      0x20\n      add\n      swap1\n      dup2\n      mstore\n      0x20\n      add\n      0x00\n      keccak256\n      0x00\n      swap1\n      sload\n      swap1\n      0x0100\n      exp\n      swap1\n      div\n      0xff\n      and\n        /* \"ClubAi.sol\":28753:28802  if (_isExcluded[account]) return _tOwned[account] */\n      iszero\n      tag_295\n      jumpi\n        /* \"ClubAi.sol\":28786:28793  _tOwned */\n      0x04\n        /* \"ClubAi.sol\":28786:28802  _tOwned[account] */\n      0x00\n        /* \"ClubAi.sol\":28794:28801  account */\n      dup4\n        /* \"ClubAi.sol\":28786:28802  _tOwned[account] */\n      0xffffffffffffffffffffffffffffffffffffffff\n      and\n      0xffffffffffffffffffffffffffffffffffffffff\n      and\n      dup2\n      mstore\n      0x20\n      add\n      swap1\n      dup2\n      mstore\n      0x20\n      add\n      0x00\n      keccak256\n      sload\n        /* \"ClubAi.sol\":28779:28802  return _tOwned[account] */\n      swap1\n      pop\n      jump(tag_294)\n        /* \"ClubAi.sol\":28753:28802  if (_isExcluded[account]) return _tOwned[account] */\n    tag_295:\n        /* \"ClubAi.sol\":28820:28857  tokenFromReflection(_rOwned[account]) */\n      tag_296\n        /* \"ClubAi.sol\":28840:28847  _rOwned */\n      0x03\n        /* \"ClubAi.sol\":28840:28856  _rOwned[account] */\n      0x00\n        /* \"ClubAi.sol\":28848:28855  account */\n      dup5\n        /* \"ClubAi.sol\":28840:28856  _rOwned[account] */\n      0xffffffffffffffffffffffffffffffffffffffff\n      and\n      0xffffffffffffffffffffffffffffffffffffffff\n      and\n      dup2\n      mstore\n      0x20\n      add\n      swap1\n      dup2\n      mstore\n      0x20\n      add\n      0x00\n      keccak256\n      sload\n        /* \"ClubAi.sol\":28820:28839  tokenFromReflection */\n      tag_84\n        /* \"ClubAi.sol\":28820:28857  tokenFromReflection(_rOwned[account]) */\n      jump\t// in\n    tag_296:\n        /* \"ClubAi.sol\":28813:28857  return tokenFromReflection(_rOwned[account]) */\n      swap1\n      pop\n        /* \"ClubAi.sol\":28667:28865  function balanceOf(address account) public view override returns (uint256) {\r... */\n    tag_294:\n      swap2\n      swap1\n      pop\n      jump\t// out\n        /* \"ClubAi.sol\":16009:16157  function renounceOwnership() public virtual onlyOwner {\r... */\n    tag_137:\n        /* \"ClubAi.sol\":15588:15600  _msgSender() */\n      tag_298\n        /* \"ClubAi.sol\":15588:15598  _msgSender */\n      tag_209\n        /* \"ClubAi.sol\":15588:15600  _msgSender() */\n      jump\t// in\n    tag_298:\n        /* \"ClubAi.sol\":15578:15600  _owner == _msgSender() */\n      0xffffffffffffffffffffffffffffffffffffffff\n      and\n        /* \"ClubAi.sol\":15578:15584  _owner */\n      0x00\n      dup1\n      sload\n      swap1\n      0x0100\n      exp\n      swap1\n      div\n      0xffffffffffffffffffffffffffffffffffffffff\n      and\n        /* \"ClubAi.sol\":15578:15600  _owner == _msgSender() */\n      0xffffffffffffffffffffffffffffffffffffffff\n      and\n      eq\n        /* \"ClubAi.sol\":15570:15637  require(_owner == _msgSender(), \"Ownable: caller is not the owner\") */\n      tag_299\n      jumpi\n      mload(0x40)\n      0x08c379a000000000000000000000000000000000000000000000000000000000\n      dup2\n      mstore\n      0x04\n      add\n      dup1\n      dup1\n      0x20\n      add\n      dup3\n      dup2\n      sub\n      dup3\n      mstore\n      0x20\n      dup2\n      mstore\n      0x20\n      add\n      dup1\n      0x4f776e61626c653a2063616c6c6572206973206e6f7420746865206f776e6572\n      dup2\n      mstore\n      pop\n      0x20\n      add\n      swap2\n      pop\n      pop\n      mload(0x40)\n      dup1\n      swap2\n      sub\n      swap1\n      revert\n    tag_299:\n        /* \"ClubAi.sol\":16116:16117  0 */\n      0x00\n        /* \"ClubAi.sol\":16079:16119  OwnershipTransferred(_owner, address(0)) */\n      0xffffffffffffffffffffffffffffffffffffffff\n      and\n        /* \"ClubAi.sol\":16100:16106  _owner */\n      0x00\n      dup1\n      sload\n      swap1\n      0x0100\n      exp\n      swap1\n      div\n      0xffffffffffffffffffffffffffffffffffffffff\n      and\n        /* \"ClubAi.sol\":16079:16119  OwnershipTransferred(_owner, address(0)) */\n      0xffffffffffffffffffffffffffffffffffffffff\n      and\n      0x8be0079c531659141344cd1fd0a4f28419497f9722a3daafe3b4186f6b6457e0\n      mload(0x40)\n      mload(0x40)\n      dup1\n      swap2\n      sub\n      swap1\n      log3\n        /* \"ClubAi.sol\":16147:16148  0 */\n      0x00\n        /* \"ClubAi.sol\":16130:16136  _owner */\n      dup1\n      0x00\n        /* \"ClubAi.sol\":16130:16149  _owner = address(0) */\n      0x0100\n      exp\n      dup2\n      sload\n      dup2\n      0xffffffffffffffffffffffffffffffffffffffff\n      mul\n      not\n      and\n      swap1\n      dup4\n      0xffffffffffffffffffffffffffffffffffffffff\n      and\n      mul\n      or\n      swap1\n      sstore\n      pop\n        /* \"ClubAi.sol\":16009:16157  function renounceOwnership() public virtual onlyOwner {\r... */\n      jump\t// out\n        /* \"ClubAi.sol\":26446:26473  uint256 public _maxTxAmount */\n    tag_140:\n      sload(0x14)\n      dup2\n      jump\t// out\n        /* \"ClubAi.sol\":30192:30312  function isExcludedFromReward(address account) public view returns (bool) {\r... */\n    tag_144:\n        /* \"ClubAi.sol\":30260:30264  bool */\n      0x00\n        /* \"ClubAi.sol\":30284:30295  _isExcluded */\n      0x07\n        /* \"ClubAi.sol\":30284:30304  _isExcluded[account] */\n      0x00\n        /* \"ClubAi.sol\":30296:30303  account */\n      dup4\n        /* \"ClubAi.sol\":30284:30304  _isExcluded[account] */\n      0xffffffffffffffffffffffffffffffffffffffff\n      and\n      0xffffffffffffffffffffffffffffffffffffffff\n      and\n      dup2\n      mstore\n      0x20\n      add\n      swap1\n      dup2\n      mstore\n      0x20\n      add\n      0x00\n      keccak256\n      0x00\n      swap1\n      sload\n      swap1\n      0x0100\n      exp\n      swap1\n      div\n      0xff\n      and\n        /* \"ClubAi.sol\":30277:30304  return _isExcluded[account] */\n      swap1\n      pop\n        /* \"ClubAi.sol\":30192:30312  function isExcludedFromReward(address account) public view returns (bool) {\r... */\n      swap2\n      swap1\n      pop\n      jump\t// out\n        /* \"ClubAi.sol\":15366:15445  function owner() public view returns (address) {\r... */\n    tag_147:\n        /* \"ClubAi.sol\":15404:15411  address */\n      0x00\n        /* \"ClubAi.sol\":15431:15437  _owner */\n      dup1\n      0x00\n      swap1\n      sload\n      swap1\n      0x0100\n      exp\n      swap1\n      div\n      0xffffffffffffffffffffffffffffffffffffffff\n      and\n        /* \"ClubAi.sol\":15424:15437  return _owner */\n      swap1\n      pop\n        /* \"ClubAi.sol\":15366:15445  function owner() public view returns (address) {\r... */\n      swap1\n      jump\t// out\n        /* \"ClubAi.sol\":33458:33580  function setLiquidityFeePercent(uint256 liquidityFee) external onlyOwner() {\r... */\n    tag_151:\n        /* \"ClubAi.sol\":15588:15600  _msgSender() */\n      tag_304\n        /* \"ClubAi.sol\":15588:15598  _msgSender */\n      tag_209\n        /* \"ClubAi.sol\":15588:15600  _msgSender() */\n      jump\t// in\n    tag_304:\n        /* \"ClubAi.sol\":15578:15600  _owner == _msgSender() */\n      0xffffffffffffffffffffffffffffffffffffffff\n      and\n        /* \"ClubAi.sol\":15578:15584  _owner */\n      0x00\n      dup1\n      sload\n      swap1\n      0x0100\n      exp\n      swap1\n      div\n      0xffffffffffffffffffffffffffffffffffffffff\n      and\n        /* \"ClubAi.sol\":15578:15600  _owner == _msgSender() */\n      0xffffffffffffffffffffffffffffffffffffffff\n      and\n      eq\n        /* \"ClubAi.sol\":15570:15637  require(_owner == _msgSender(), \"Ownable: caller is not the owner\") */\n      tag_305\n      jumpi\n      mload(0x40)\n      0x08c379a000000000000000000000000000000000000000000000000000000000\n      dup2\n      mstore\n      0x04\n      add\n      dup1\n      dup1\n      0x20\n      add\n      dup3\n      dup2\n      sub\n      dup3\n      mstore\n      0x20\n      dup2\n      mstore\n      0x20\n      add\n      dup1\n      0x4f776e61626c653a2063616c6c6572206973206e6f7420746865206f776e6572\n      dup2\n      mstore\n      pop\n      0x20\n      add\n      swap2\n      pop\n      pop\n      mload(0x40)\n      dup1\n      swap2\n      sub\n      swap1\n      revert\n    tag_305:\n        /* \"ClubAi.sol\":33560:33572  liquidityFee */\n      dup1\n        /* \"ClubAi.sol\":33544:33557  _liquidityFee */\n      0x11\n        /* \"ClubAi.sol\":33544:33572  _liquidityFee = liquidityFee */\n      dup2\n      swap1\n      sstore\n      pop\n        /* \"ClubAi.sol\":33458:33580  function setLiquidityFeePercent(uint256 liquidityFee) external onlyOwner() {\r... */\n      pop\n      jump\t// out\n        /* \"ClubAi.sol\":28376:28463  function symbol() public view returns (string memory) {\r... */\n    tag_154:\n        /* \"ClubAi.sol\":28415:28428  string memory */\n      0x60\n        /* \"ClubAi.sol\":28448:28455  _symbol */\n      0x0d\n        /* \"ClubAi.sol\":28441:28455  return _symbol */\n      dup1\n      sload\n      0x01\n      dup2\n      0x01\n      and\n      iszero\n      0x0100\n      mul\n      sub\n      and\n      0x02\n      swap1\n      div\n      dup1\n      0x1f\n      add\n      0x20\n      dup1\n      swap2\n      div\n      mul\n      0x20\n      add\n      mload(0x40)\n      swap1\n      dup2\n      add\n      0x40\n      mstore\n      dup1\n      swap3\n      swap2\n      swap1\n      dup2\n      dup2\n      mstore\n      0x20\n      add\n      dup3\n      dup1\n      sload\n      0x01\n      dup2\n      0x01\n      and\n      iszero\n      0x0100\n      mul\n      sub\n      and\n      0x02\n      swap1\n      div\n      dup1\n      iszero\n      tag_308\n      jumpi\n      dup1\n      0x1f\n      lt\n      tag_309\n      jumpi\n      0x0100\n      dup1\n      dup4\n      sload\n      div\n      mul\n      dup4\n      mstore\n      swap2\n      0x20\n      add\n      swap2\n      jump(tag_308)\n    tag_309:\n      dup3\n      add\n      swap2\n      swap1\n      0x00\n      mstore\n      keccak256(0x00, 0x20)\n      swap1\n    tag_310:\n      dup2\n      sload\n      dup2\n      mstore\n      swap1\n      0x01\n      add\n      swap1\n      0x20\n      add\n      dup1\n      dup4\n      gt\n      tag_310\n      jumpi\n      dup3\n      swap1\n      sub\n      0x1f\n      and\n      dup3\n      add\n      swap2\n    tag_308:\n      pop\n      pop\n      pop\n      pop\n      pop\n      swap1\n      pop\n        /* \"ClubAi.sol\":28376:28463  function symbol() public view returns (string memory) {\r... */\n      swap1\n      jump\t// out\n        /* \"ClubAi.sol\":29915:30184  function decreaseAllowance(address spender, uint256 subtractedValue) public virtual returns (bool) {\r... */\n    tag_162:\n        /* \"ClubAi.sol\":30008:30012  bool */\n      0x00\n        /* \"ClubAi.sol\":30025:30154  _approve(_msgSender(), spender, _allowances[_msgSender()][spender].sub(subtractedValue, \"ERC20: decreased allowance below zero\")) */\n      tag_312\n        /* \"ClubAi.sol\":30034:30046  _msgSender() */\n      tag_313\n        /* \"ClubAi.sol\":30034:30044  _msgSender */\n      tag_209\n        /* \"ClubAi.sol\":30034:30046  _msgSender() */\n      jump\t// in\n    tag_313:\n        /* \"ClubAi.sol\":30048:30055  spender */\n      dup5\n        /* \"ClubAi.sol\":30057:30153  _allowances[_msgSender()][spender].sub(subtractedValue, \"ERC20: decreased allowance below zero\") */\n      tag_314\n        /* \"ClubAi.sol\":30096:30111  subtractedValue */\n      dup6\n        /* \"ClubAi.sol\":30057:30153  _allowances[_msgSender()][spender].sub(subtractedValue, \"ERC20: decreased allowance below zero\") */\n      mload(0x40)\n      dup1\n      0x60\n      add\n      0x40\n      mstore\n      dup1\n      0x25\n      dup2\n      mstore\n      0x20\n      add\n      data_f8b476f7d28209d77d4a4ac1fe36b9f8259aa1bb6bddfa6e89de7e51615cf8a8\n      0x25\n      swap2\n      codecopy\n        /* \"ClubAi.sol\":30057:30068  _allowances */\n      0x05\n        /* \"ClubAi.sol\":30057:30082  _allowances[_msgSender()] */\n      0x00\n        /* \"ClubAi.sol\":30069:30081  _msgSender() */\n      tag_315\n        /* \"ClubAi.sol\":30069:30079  _msgSender */\n      tag_209\n        /* \"ClubAi.sol\":30069:30081  _msgSender() */\n      jump\t// in\n    tag_315:\n        /* \"ClubAi.sol\":30057:30082  _allowances[_msgSender()] */\n      0xffffffffffffffffffffffffffffffffffffffff\n      and\n      0xffffffffffffffffffffffffffffffffffffffff\n      and\n      dup2\n      mstore\n      0x20\n      add\n      swap1\n      dup2\n      mstore\n      0x20\n      add\n      0x00\n      keccak256\n        /* \"ClubAi.sol\":30057:30091  _allowances[_msgSender()][spender] */\n      0x00\n        /* \"ClubAi.sol\":30083:30090  spender */\n      dup11\n        /* \"ClubAi.sol\":30057:30091  _allowances[_msgSender()][spender] */\n      0xffffffffffffffffffffffffffffffffffffffff\n      and\n      0xffffffffffffffffffffffffffffffffffffffff\n      and\n      dup2\n      mstore\n      0x20\n      add\n      swap1\n      dup2\n      mstore\n      0x20\n      add\n      0x00\n      keccak256\n      sload\n        /* \"ClubAi.sol\":30057:30095  _allowances[_msgSender()][spender].sub */\n      tag_229\n      swap1\n        /* \"ClubAi.sol\":30057:30153  _allowances[_msgSender()][spender].sub(subtractedValue, \"ERC20: decreased allowance below zero\") */\n      swap3\n      swap2\n      swap1\n      0xffffffff\n      and\n      jump\t// in\n    tag_314:\n        /* \"ClubAi.sol\":30025:30033  _approve */\n      tag_219\n        /* \"ClubAi.sol\":30025:30154  _approve(_msgSender(), spender, _allowances[_msgSender()][spender].sub(subtractedValue, \"ERC20: decreased allowance below zero\")) */\n      jump\t// in\n    tag_312:\n        /* \"ClubAi.sol\":30172:30176  true */\n      0x01\n        /* \"ClubAi.sol\":30165:30176  return true */\n      swap1\n      pop\n        /* \"ClubAi.sol\":29915:30184  function decreaseAllowance(address spender, uint256 subtractedValue) public virtual returns (bool) {\r... */\n      swap3\n      swap2\n      pop\n      pop\n      jump\t// out\n        /* \"ClubAi.sol\":17019:17312  function unlock() public virtual {\r... */\n    tag_165:\n        /* \"ClubAi.sol\":17089:17099  msg.sender */\n      caller\n        /* \"ClubAi.sol\":17071:17099  _previousOwner == msg.sender */\n      0xffffffffffffffffffffffffffffffffffffffff\n      and\n        /* \"ClubAi.sol\":17071:17085  _previousOwner */\n      0x01\n      0x00\n      swap1\n      sload\n      swap1\n      0x0100\n      exp\n      swap1\n      div\n      0xffffffffffffffffffffffffffffffffffffffff\n      and\n        /* \"ClubAi.sol\":17071:17099  _previousOwner == msg.sender */\n      0xffffffffffffffffffffffffffffffffffffffff\n      and\n      eq\n        /* \"ClubAi.sol\":17063:17139  require(_previousOwner == msg.sender, \"You don't have permission to unlock\") */\n      tag_317\n      jumpi\n      mload(0x40)\n      0x08c379a000000000000000000000000000000000000000000000000000000000\n      dup2\n      mstore\n      0x04\n      add\n      dup1\n      dup1\n      0x20\n      add\n      dup3\n      dup2\n      sub\n      dup3\n      mstore\n      0x23\n      dup2\n      mstore\n      0x20\n      add\n      dup1\n      data_f4eb59be3df39931213d374c3658377dca3f0d2b46b7bc965af767c57c74b611\n      0x23\n      swap2\n      codecopy\n      0x40\n      add\n      swap2\n      pop\n      pop\n      mload(0x40)\n      dup1\n      swap2\n      sub\n      swap1\n      revert\n    tag_317:\n        /* \"ClubAi.sol\":17164:17173  _lockTime */\n      sload(0x02)\n        /* \"ClubAi.sol\":17158:17161  now */\n      timestamp\n        /* \"ClubAi.sol\":17158:17173  now > _lockTime */\n      gt\n        /* \"ClubAi.sol\":17150:17210  require(now > _lockTime , \"Contract is locked until 7 days\") */\n      tag_318\n      jumpi\n      mload(0x40)\n      0x08c379a000000000000000000000000000000000000000000000000000000000\n      dup2\n      mstore\n      0x04\n      add\n      dup1\n      dup1\n      0x20\n      add\n      dup3\n      dup2\n      sub\n      dup3\n      mstore\n      0x1f\n      dup2\n      mstore\n      0x20\n      add\n      dup1\n      0x436f6e7472616374206973206c6f636b656420756e74696c2037206461797300\n      dup2\n      mstore\n      pop\n      0x20\n      add\n      swap2\n      pop\n      pop\n      mload(0x40)\n      dup1\n      swap2\n      sub\n      swap1\n      revert\n    tag_318:\n        /* \"ClubAi.sol\":17255:17269  _previousOwner */\n      0x01\n      0x00\n      swap1\n      sload\n      swap1\n      0x0100\n      exp\n      swap1\n      div\n      0xffffffffffffffffffffffffffffffffffffffff\n      and\n        /* \"ClubAi.sol\":17226:17270  OwnershipTransferred(_owner, _previousOwner) */\n      0xffffffffffffffffffffffffffffffffffffffff\n      and\n        /* \"ClubAi.sol\":17247:17253  _owner */\n      0x00\n      dup1\n      sload\n      swap1\n      0x0100\n      exp\n      swap1\n      div\n      0xffffffffffffffffffffffffffffffffffffffff\n      and\n        /* \"ClubAi.sol\":17226:17270  OwnershipTransferred(_owner, _previousOwner) */\n      0xffffffffffffffffffffffffffffffffffffffff\n      and\n      0x8be0079c531659141344cd1fd0a4f28419497f9722a3daafe3b4186f6b6457e0\n      mload(0x40)\n      mload(0x40)\n      dup1\n      swap2\n      sub\n      swap1\n      log3\n        /* \"ClubAi.sol\":17290:17304  _previousOwner */\n      0x01\n      0x00\n      swap1\n      sload\n      swap1\n      0x0100\n      exp\n      swap1\n      div\n      0xffffffffffffffffffffffffffffffffffffffff\n      and\n        /* \"ClubAi.sol\":17281:17287  _owner */\n      0x00\n      dup1\n        /* \"ClubAi.sol\":17281:17304  _owner = _previousOwner */\n      0x0100\n      exp\n      dup2\n      sload\n      dup2\n      0xffffffffffffffffffffffffffffffffffffffff\n      mul\n      not\n      and\n      swap1\n      dup4\n      0xffffffffffffffffffffffffffffffffffffffff\n      and\n      mul\n      or\n      swap1\n      sstore\n      pop\n        /* \"ClubAi.sol\":17019:17312  function unlock() public virtual {\r... */\n      jump\t// out\n        /* \"ClubAi.sol\":28873:29040  function transfer(address recipient, uint256 amount) public override returns (bool) {\r... */\n    tag_169:\n        /* \"ClubAi.sol\":28951:28955  bool */\n      0x00\n        /* \"ClubAi.sol\":28968:29010  _transfer(_msgSender(), recipient, amount) */\n      tag_320\n        /* \"ClubAi.sol\":28978:28990  _msgSender() */\n      tag_321\n        /* \"ClubAi.sol\":28978:28988  _msgSender */\n      tag_209\n        /* \"ClubAi.sol\":28978:28990  _msgSender() */\n      jump\t// in\n    tag_321:\n        /* \"ClubAi.sol\":28992:29001  recipient */\n      dup5\n        /* \"ClubAi.sol\":29003:29009  amount */\n      dup5\n        /* \"ClubAi.sol\":28968:28977  _transfer */\n      tag_224\n        /* \"ClubAi.sol\":28968:29010  _transfer(_msgSender(), recipient, amount) */\n      jump\t// in\n    tag_320:\n        /* \"ClubAi.sol\":29028:29032  true */\n      0x01\n        /* \"ClubAi.sol\":29021:29032  return true */\n      swap1\n      pop\n        /* \"ClubAi.sol\":28873:29040  function transfer(address recipient, uint256 amount) public override returns (bool) {\r... */\n      swap3\n      swap2\n      pop\n      pop\n      jump\t// out\n        /* \"ClubAi.sol\":15100:15121  address public _owner */\n    tag_172:\n      0x00\n      dup1\n      sload\n      swap1\n      0x0100\n      exp\n      swap1\n      div\n      0xffffffffffffffffffffffffffffffffffffffff\n      and\n      dup2\n      jump\t// out\n        /* \"ClubAi.sol\":16564:16653  function geUnlockTime() public view returns (uint256) {\r... */\n    tag_175:\n        /* \"ClubAi.sol\":16609:16616  uint256 */\n      0x00\n        /* \"ClubAi.sol\":16636:16645  _lockTime */\n      sload(0x02)\n        /* \"ClubAi.sol\":16629:16645  return _lockTime */\n      swap1\n      pop\n        /* \"ClubAi.sol\":16564:16653  function geUnlockTime() public view returns (uint256) {\r... */\n      swap1\n      jump\t// out\n        /* \"ClubAi.sol\":33898:34069  function setSwapAndLiquifyEnabled(bool _enabled) public onlyOwner {\r... */\n    tag_179:\n        /* \"ClubAi.sol\":15588:15600  _msgSender() */\n      tag_324\n        /* \"ClubAi.sol\":15588:15598  _msgSender */\n      tag_209\n        /* \"ClubAi.sol\":15588:15600  _msgSender() */\n      jump\t// in\n    tag_324:\n        /* \"ClubAi.sol\":15578:15600  _owner == _msgSender() */\n      0xffffffffffffffffffffffffffffffffffffffff\n      and\n        /* \"ClubAi.sol\":15578:15584  _owner */\n      0x00\n      dup1\n      sload\n      swap1\n      0x0100\n      exp\n      swap1\n      div\n      0xffffffffffffffffffffffffffffffffffffffff\n      and\n        /* \"ClubAi.sol\":15578:15600  _owner == _msgSender() */\n      0xffffffffffffffffffffffffffffffffffffffff\n      and\n      eq\n        /* \"ClubAi.sol\":15570:15637  require(_owner == _msgSender(), \"Ownable: caller is not the owner\") */\n      tag_325\n      jumpi\n      mload(0x40)\n      0x08c379a000000000000000000000000000000000000000000000000000000000\n      dup2\n      mstore\n      0x04\n      add\n      dup1\n      dup1\n      0x20\n      add\n      dup3\n      dup2\n      sub\n      dup3\n      mstore\n      0x20\n      dup2\n      mstore\n      0x20\n      add\n      dup1\n      0x4f776e61626c653a2063616c6c6572206973206e6f7420746865206f776e6572\n      dup2\n      mstore\n      pop\n      0x20\n      add\n      swap2\n      pop\n      pop\n      mload(0x40)\n      dup1\n      swap2\n      sub\n      swap1\n      revert\n    tag_325:\n        /* \"ClubAi.sol\":33999:34007  _enabled */\n      dup1\n        /* \"ClubAi.sol\":33975:33996  swapAndLiquifyEnabled */\n      0x13\n      0x01\n        /* \"ClubAi.sol\":33975:34007  swapAndLiquifyEnabled = _enabled */\n      0x0100\n      exp\n      dup2\n      sload\n      dup2\n      0xff\n      mul\n      not\n      and\n      swap1\n      dup4\n      iszero\n      iszero\n      mul\n      or\n      swap1\n      sstore\n      pop\n        /* \"ClubAi.sol\":34023:34061  SwapAndLiquifyEnabledUpdated(_enabled) */\n      0x53726dfcaf90650aa7eb35524f4d3220f07413c8d6cb404cc8c18bf5591bc159\n        /* \"ClubAi.sol\":34052:34060  _enabled */\n      dup2\n        /* \"ClubAi.sol\":34023:34061  SwapAndLiquifyEnabledUpdated(_enabled) */\n      mload(0x40)\n      dup1\n      dup3\n      iszero\n      iszero\n      dup2\n      mstore\n      0x20\n      add\n      swap2\n      pop\n      pop\n      mload(0x40)\n      dup1\n      swap2\n      sub\n      swap1\n      log1\n        /* \"ClubAi.sol\":33898:34069  function setSwapAndLiquifyEnabled(bool _enabled) public onlyOwner {\r... */\n      pop\n      jump\t// out\n        /* \"ClubAi.sol\":26480:26524  uint256 public numTokensSellToAddToLiquidity */\n    tag_182:\n      sload(0x15)\n      dup2\n      jump\t// out\n        /* \"ClubAi.sol\":33761:33890  function setMaxTxPercent(uint256 maxTxPercent) public onlyOwner {\r... */\n    tag_186:\n        /* \"ClubAi.sol\":15588:15600  _msgSender() */\n      tag_328\n        /* \"ClubAi.sol\":15588:15598  _msgSender */\n      tag_209\n        /* \"ClubAi.sol\":15588:15600  _msgSender() */\n      jump\t// in\n    tag_328:\n        /* \"ClubAi.sol\":15578:15600  _owner == _msgSender() */\n      0xffffffffffffffffffffffffffffffffffffffff\n      and\n        /* \"ClubAi.sol\":15578:15584  _owner */\n      0x00\n      dup1\n      sload\n      swap1\n      0x0100\n      exp\n      swap1\n      div\n      0xffffffffffffffffffffffffffffffffffffffff\n      and\n        /* \"ClubAi.sol\":15578:15600  _owner == _msgSender() */\n      0xffffffffffffffffffffffffffffffffffffffff\n      and\n      eq\n        /* \"ClubAi.sol\":15570:15637  require(_owner == _msgSender(), \"Ownable: caller is not the owner\") */\n      tag_329\n      jumpi\n      mload(0x40)\n      0x08c379a000000000000000000000000000000000000000000000000000000000\n      dup2\n      mstore\n      0x04\n      add\n      dup1\n      dup1\n      0x20\n      add\n      dup3\n      dup2\n      sub\n      dup3\n      mstore\n      0x20\n      dup2\n      mstore\n      0x20\n      add\n      dup1\n      0x4f776e61626c653a2063616c6c6572206973206e6f7420746865206f776e6572\n      dup2\n      mstore\n      pop\n      0x20\n      add\n      swap2\n      pop\n      pop\n      mload(0x40)\n      dup1\n      swap2\n      sub\n      swap1\n      revert\n    tag_329:\n        /* \"ClubAi.sol\":33873:33882  _decimals */\n      sload(0x0e)\n        /* \"ClubAi.sol\":33867:33869  10 */\n      0x0a\n        /* \"ClubAi.sol\":33867:33882  10 ** _decimals */\n      exp\n        /* \"ClubAi.sol\":33851:33863  maxTxPercent */\n      dup2\n        /* \"ClubAi.sol\":33851:33882  maxTxPercent  * 10 ** _decimals */\n      mul\n        /* \"ClubAi.sol\":33836:33848  _maxTxAmount */\n      0x14\n        /* \"ClubAi.sol\":33836:33882  _maxTxAmount = maxTxPercent  * 10 ** _decimals */\n      dup2\n      swap1\n      sstore\n      pop\n        /* \"ClubAi.sol\":33761:33890  function setMaxTxPercent(uint256 maxTxPercent) public onlyOwner {\r... */\n      pop\n      jump\t// out\n        /* \"ClubAi.sol\":16729:16943  function lock(uint256 time) public virtual onlyOwner {\r... */\n    tag_190:\n        /* \"ClubAi.sol\":15588:15600  _msgSender() */\n      tag_332\n        /* \"ClubAi.sol\":15588:15598  _msgSender */\n      tag_209\n        /* \"ClubAi.sol\":15588:15600  _msgSender() */\n      jump\t// in\n    tag_332:\n        /* \"ClubAi.sol\":15578:15600  _owner == _msgSender() */\n      0xffffffffffffffffffffffffffffffffffffffff\n      and\n        /* \"ClubAi.sol\":15578:15584  _owner */\n      0x00\n      dup1\n      sload\n      swap1\n      0x0100\n      exp\n      swap1\n      div\n      0xffffffffffffffffffffffffffffffffffffffff\n      and\n        /* \"ClubAi.sol\":15578:15600  _owner == _msgSender() */\n      0xffffffffffffffffffffffffffffffffffffffff\n      and\n      eq\n        /* \"ClubAi.sol\":15570:15637  require(_owner == _msgSender(), \"Ownable: caller is not the owner\") */\n      tag_333\n      jumpi\n      mload(0x40)\n      0x08c379a000000000000000000000000000000000000000000000000000000000\n      dup2\n      mstore\n      0x04\n      add\n      dup1\n      dup1\n      0x20\n      add\n      dup3\n      dup2\n      sub\n      dup3\n      mstore\n      0x20\n      dup2\n      mstore\n      0x20\n      add\n      dup1\n      0x4f776e61626c653a2063616c6c6572206973206e6f7420746865206f776e6572\n      dup2\n      mstore\n      pop\n      0x20\n      add\n      swap2\n      pop\n      pop\n      mload(0x40)\n      dup1\n      swap2\n      sub\n      swap1\n      revert\n    tag_333:\n        /* \"ClubAi.sol\":16810:16816  _owner */\n      0x00\n      dup1\n      sload\n      swap1\n      0x0100\n      exp\n      swap1\n      div\n      0xffffffffffffffffffffffffffffffffffffffff\n      and\n        /* \"ClubAi.sol\":16793:16807  _previousOwner */\n      0x01\n      0x00\n        /* \"ClubAi.sol\":16793:16816  _previousOwner = _owner */\n      0x0100\n      exp\n      dup2\n      sload\n      dup2\n      0xffffffffffffffffffffffffffffffffffffffff\n      mul\n      not\n      and\n      swap1\n      dup4\n      0xffffffffffffffffffffffffffffffffffffffff\n      and\n      mul\n      or\n      swap1\n      sstore\n      pop\n        /* \"ClubAi.sol\":16844:16845  0 */\n      0x00\n        /* \"ClubAi.sol\":16827:16833  _owner */\n      dup1\n      0x00\n        /* \"ClubAi.sol\":16827:16846  _owner = address(0) */\n      0x0100\n      exp\n      dup2\n      sload\n      dup2\n      0xffffffffffffffffffffffffffffffffffffffff\n      mul\n      not\n      and\n      swap1\n      dup4\n      0xffffffffffffffffffffffffffffffffffffffff\n      and\n      mul\n      or\n      swap1\n      sstore\n      pop\n        /* \"ClubAi.sol\":16875:16879  time */\n      dup1\n        /* \"ClubAi.sol\":16869:16872  now */\n      timestamp\n        /* \"ClubAi.sol\":16869:16879  now + time */\n      add\n        /* \"ClubAi.sol\":16857:16866  _lockTime */\n      0x02\n        /* \"ClubAi.sol\":16857:16879  _lockTime = now + time */\n      dup2\n      swap1\n      sstore\n      pop\n        /* \"ClubAi.sol\":16932:16933  0 */\n      0x00\n        /* \"ClubAi.sol\":16895:16935  OwnershipTransferred(_owner, address(0)) */\n      0xffffffffffffffffffffffffffffffffffffffff\n      and\n        /* \"ClubAi.sol\":16916:16922  _owner */\n      0x00\n      dup1\n      sload\n      swap1\n      0x0100\n      exp\n      swap1\n      div\n      0xffffffffffffffffffffffffffffffffffffffff\n      and\n        /* \"ClubAi.sol\":16895:16935  OwnershipTransferred(_owner, address(0)) */\n      0xffffffffffffffffffffffffffffffffffffffff\n      and\n      0x8be0079c531659141344cd1fd0a4f28419497f9722a3daafe3b4186f6b6457e0\n      mload(0x40)\n      mload(0x40)\n      dup1\n      swap2\n      sub\n      swap1\n      log3\n        /* \"ClubAi.sol\":16729:16943  function lock(uint256 time) public virtual onlyOwner {\r... */\n      pop\n      jump\t// out\n        /* \"ClubAi.sol\":29048:29191  function allowance(address owner, address spender) public view override returns (uint256) {\r... */\n    tag_194:\n        /* \"ClubAi.sol\":29129:29136  uint256 */\n      0x00\n        /* \"ClubAi.sol\":29156:29167  _allowances */\n      0x05\n        /* \"ClubAi.sol\":29156:29174  _allowances[owner] */\n      0x00\n        /* \"ClubAi.sol\":29168:29173  owner */\n      dup5\n        /* \"ClubAi.sol\":29156:29174  _allowances[owner] */\n      0xffffffffffffffffffffffffffffffffffffffff\n      and\n      0xffffffffffffffffffffffffffffffffffffffff\n      and\n      dup2\n      mstore\n      0x20\n      add\n      swap1\n      dup2\n      mstore\n      0x20\n      add\n      0x00\n      keccak256\n        /* \"ClubAi.sol\":29156:29183  _allowances[owner][spender] */\n      0x00\n        /* \"ClubAi.sol\":29175:29182  spender */\n      dup4\n        /* \"ClubAi.sol\":29156:29183  _allowances[owner][spender] */\n      0xffffffffffffffffffffffffffffffffffffffff\n      and\n      0xffffffffffffffffffffffffffffffffffffffff\n      and\n      dup2\n      mstore\n      0x20\n      add\n      swap1\n      dup2\n      mstore\n      0x20\n      add\n      0x00\n      keccak256\n      sload\n        /* \"ClubAi.sol\":29149:29183  return _allowances[owner][spender] */\n      swap1\n      pop\n        /* \"ClubAi.sol\":29048:29191  function allowance(address owner, address spender) public view override returns (uint256) {\r... */\n      swap3\n      swap2\n      pop\n      pop\n      jump\t// out\n        /* \"ClubAi.sol\":33226:33336  function includeInFee(address account) public onlyOwner {\r... */\n    tag_198:\n        /* \"ClubAi.sol\":15588:15600  _msgSender() */\n      tag_337\n        /* \"ClubAi.sol\":15588:15598  _msgSender */\n      tag_209\n        /* \"ClubAi.sol\":15588:15600  _msgSender() */\n      jump\t// in\n    tag_337:\n        /* \"ClubAi.sol\":15578:15600  _owner == _msgSender() */\n      0xffffffffffffffffffffffffffffffffffffffff\n      and\n        /* \"ClubAi.sol\":15578:15584  _owner */\n      0x00\n      dup1\n      sload\n      swap1\n      0x0100\n      exp\n      swap1\n      div\n      0xffffffffffffffffffffffffffffffffffffffff\n      and\n        /* \"ClubAi.sol\":15578:15600  _owner == _msgSender() */\n      0xffffffffffffffffffffffffffffffffffffffff\n      and\n      eq\n        /* \"ClubAi.sol\":15570:15637  require(_owner == _msgSender(), \"Ownable: caller is not the owner\") */\n      tag_338\n      jumpi\n      mload(0x40)\n      0x08c379a000000000000000000000000000000000000000000000000000000000\n      dup2\n      mstore\n      0x04\n      add\n      dup1\n      dup1\n      0x20\n      add\n      dup3\n      dup2\n      sub\n      dup3\n      mstore\n      0x20\n      dup2\n      mstore\n      0x20\n      add\n      dup1\n      0x4f776e61626c653a2063616c6c6572206973206e6f7420746865206f776e6572\n      dup2\n      mstore\n      pop\n      0x20\n      add\n      swap2\n      pop\n      pop\n      mload(0x40)\n      dup1\n      swap2\n      sub\n      swap1\n      revert\n    tag_338:\n        /* \"ClubAi.sol\":33323:33328  false */\n      0x00\n        /* \"ClubAi.sol\":33293:33311  _isExcludedFromFee */\n      0x06\n        /* \"ClubAi.sol\":33293:33320  _isExcludedFromFee[account] */\n      0x00\n        /* \"ClubAi.sol\":33312:33319  account */\n      dup4\n        /* \"ClubAi.sol\":33293:33320  _isExcludedFromFee[account] */\n      0xffffffffffffffffffffffffffffffffffffffff\n      and\n      0xffffffffffffffffffffffffffffffffffffffff\n      and\n      dup2\n      mstore\n      0x20\n      add\n      swap1\n      dup2\n      mstore\n      0x20\n      add\n      0x00\n      keccak256\n      0x00\n        /* \"ClubAi.sol\":33293:33328  _isExcludedFromFee[account] = false */\n      0x0100\n      exp\n      dup2\n      sload\n      dup2\n      0xff\n      mul\n      not\n      and\n      swap1\n      dup4\n      iszero\n      iszero\n      mul\n      or\n      swap1\n      sstore\n      pop\n        /* \"ClubAi.sol\":33226:33336  function includeInFee(address account) public onlyOwner {\r... */\n      pop\n      jump\t// out\n        /* \"ClubAi.sol\":33592:33750  function setNumTokensSellToAddToLiquidity(uint256 swapNumber) public onlyOwner {\r... */\n    tag_202:\n        /* \"ClubAi.sol\":15588:15600  _msgSender() */\n      tag_341\n        /* \"ClubAi.sol\":15588:15598  _msgSender */\n      tag_209\n        /* \"ClubAi.sol\":15588:15600  _msgSender() */\n      jump\t// in\n    tag_341:\n        /* \"ClubAi.sol\":15578:15600  _owner == _msgSender() */\n      0xffffffffffffffffffffffffffffffffffffffff\n      and\n        /* \"ClubAi.sol\":15578:15584  _owner */\n      0x00\n      dup1\n      sload\n      swap1\n      0x0100\n      exp\n      swap1\n      div\n      0xffffffffffffffffffffffffffffffffffffffff\n      and\n        /* \"ClubAi.sol\":15578:15600  _owner == _msgSender() */\n      0xffffffffffffffffffffffffffffffffffffffff\n      and\n      eq\n        /* \"ClubAi.sol\":15570:15637  require(_owner == _msgSender(), \"Ownable: caller is not the owner\") */\n      tag_342\n      jumpi\n      mload(0x40)\n      0x08c379a000000000000000000000000000000000000000000000000000000000\n      dup2\n      mstore\n      0x04\n      add\n      dup1\n      dup1\n      0x20\n      add\n      dup3\n      dup2\n      sub\n      dup3\n      mstore\n      0x20\n      dup2\n      mstore\n      0x20\n      add\n      dup1\n      0x4f776e61626c653a2063616c6c6572206973206e6f7420746865206f776e6572\n      dup2\n      mstore\n      pop\n      0x20\n      add\n      swap2\n      pop\n      pop\n      mload(0x40)\n      dup1\n      swap2\n      sub\n      swap1\n      revert\n    tag_342:\n        /* \"ClubAi.sol\":33733:33742  _decimals */\n      sload(0x0e)\n        /* \"ClubAi.sol\":33727:33729  10 */\n      0x0a\n        /* \"ClubAi.sol\":33727:33742  10 ** _decimals */\n      exp\n        /* \"ClubAi.sol\":33714:33724  swapNumber */\n      dup2\n        /* \"ClubAi.sol\":33714:33742  swapNumber * 10 ** _decimals */\n      mul\n        /* \"ClubAi.sol\":33682:33711  numTokensSellToAddToLiquidity */\n      0x15\n        /* \"ClubAi.sol\":33682:33742  numTokensSellToAddToLiquidity = swapNumber * 10 ** _decimals */\n      dup2\n      swap1\n      sstore\n      pop\n        /* \"ClubAi.sol\":33592:33750  function setNumTokensSellToAddToLiquidity(uint256 swapNumber) public onlyOwner {\r... */\n      pop\n      jump\t// out\n        /* \"ClubAi.sol\":16312:16556  function transferOwnership(address newOwner) public virtual onlyOwner {\r... */\n    tag_206:\n        /* \"ClubAi.sol\":15588:15600  _msgSender() */\n      tag_345\n        /* \"ClubAi.sol\":15588:15598  _msgSender */\n      tag_209\n        /* \"ClubAi.sol\":15588:15600  _msgSender() */\n      jump\t// in\n    tag_345:\n        /* \"ClubAi.sol\":15578:15600  _owner == _msgSender() */\n      0xffffffffffffffffffffffffffffffffffffffff\n      and\n        /* \"ClubAi.sol\":15578:15584  _owner */\n      0x00\n      dup1\n      sload\n      swap1\n      0x0100\n      exp\n      swap1\n      div\n      0xffffffffffffffffffffffffffffffffffffffff\n      and\n        /* \"ClubAi.sol\":15578:15600  _owner == _msgSender() */\n      0xffffffffffffffffffffffffffffffffffffffff\n      and\n      eq\n        /* \"ClubAi.sol\":15570:15637  require(_owner == _msgSender(), \"Ownable: caller is not the owner\") */\n      tag_346\n      jumpi\n      mload(0x40)\n      0x08c379a000000000000000000000000000000000000000000000000000000000\n      dup2\n      mstore\n      0x04\n      add\n      dup1\n      dup1\n      0x20\n      add\n      dup3\n      dup2\n      sub\n      dup3\n      mstore\n      0x20\n      dup2\n      mstore\n      0x20\n      add\n      dup1\n      0x4f776e61626c653a2063616c6c6572206973206e6f7420746865206f776e6572\n      dup2\n      mstore\n      pop\n      0x20\n      add\n      swap2\n      pop\n      pop\n      mload(0x40)\n      dup1\n      swap2\n      sub\n      swap1\n      revert\n    tag_346:\n        /* \"ClubAi.sol\":16421:16422  0 */\n      0x00\n        /* \"ClubAi.sol\":16401:16423  newOwner != address(0) */\n      0xffffffffffffffffffffffffffffffffffffffff\n      and\n        /* \"ClubAi.sol\":16401:16409  newOwner */\n      dup2\n        /* \"ClubAi.sol\":16401:16423  newOwner != address(0) */\n      0xffffffffffffffffffffffffffffffffffffffff\n      and\n      eq\n      iszero\n        /* \"ClubAi.sol\":16393:16466  require(newOwner != address(0), \"Ownable: new owner is the zero address\") */\n      tag_348\n      jumpi\n      mload(0x40)\n      0x08c379a000000000000000000000000000000000000000000000000000000000\n      dup2\n      mstore\n      0x04\n      add\n      dup1\n      dup1\n      0x20\n      add\n      dup3\n      dup2\n      sub\n      dup3\n      mstore\n      0x26\n      dup2\n      mstore\n      0x20\n      add\n      dup1\n      data_245f15ff17f551913a7a18385165551503906a406f905ac1c2437281a7cd0cfe\n      0x26\n      swap2\n      codecopy\n      0x40\n      add\n      swap2\n      pop\n      pop\n      mload(0x40)\n      dup1\n      swap2\n      sub\n      swap1\n      revert\n    tag_348:\n        /* \"ClubAi.sol\":16511:16519  newOwner */\n      dup1\n        /* \"ClubAi.sol\":16482:16520  OwnershipTransferred(_owner, newOwner) */\n      0xffffffffffffffffffffffffffffffffffffffff\n      and\n        /* \"ClubAi.sol\":16503:16509  _owner */\n      0x00\n      dup1\n      sload\n      swap1\n      0x0100\n      exp\n      swap1\n      div\n      0xffffffffffffffffffffffffffffffffffffffff\n      and\n        /* \"ClubAi.sol\":16482:16520  OwnershipTransferred(_owner, newOwner) */\n      0xffffffffffffffffffffffffffffffffffffffff\n      and\n      0x8be0079c531659141344cd1fd0a4f28419497f9722a3daafe3b4186f6b6457e0\n      mload(0x40)\n      mload(0x40)\n      dup1\n      swap2\n      sub\n      swap1\n      log3\n        /* \"ClubAi.sol\":16540:16548  newOwner */\n      dup1\n        /* \"ClubAi.sol\":16531:16537  _owner */\n      0x00\n      dup1\n        /* \"ClubAi.sol\":16531:16548  _owner = newOwner */\n      0x0100\n      exp\n      dup2\n      sload\n      dup2\n      0xffffffffffffffffffffffffffffffffffffffff\n      mul\n      not\n      and\n      swap1\n      dup4\n      0xffffffffffffffffffffffffffffffffffffffff\n      and\n      mul\n      or\n      swap1\n      sstore\n      pop\n        /* \"ClubAi.sol\":16312:16556  function transferOwnership(address newOwner) public virtual onlyOwner {\r... */\n      pop\n      jump\t// out\n        /* \"ClubAi.sol\":8043:8149  function _msgSender() internal view virtual returns (address payable) {\r... */\n    tag_209:\n        /* \"ClubAi.sol\":8096:8111  address payable */\n      0x00\n        /* \"ClubAi.sol\":8131:8141  msg.sender */\n      caller\n        /* \"ClubAi.sol\":8124:8141  return msg.sender */\n      swap1\n      pop\n        /* \"ClubAi.sol\":8043:8149  function _msgSender() internal view virtual returns (address payable) {\r... */\n      swap1\n      jump\t// out\n        /* \"ClubAi.sol\":37641:37978  function _approve(address owner, address spender, uint256 amount) private {\r... */\n    tag_219:\n        /* \"ClubAi.sol\":37751:37752  0 */\n      0x00\n        /* \"ClubAi.sol\":37734:37753  owner != address(0) */\n      0xffffffffffffffffffffffffffffffffffffffff\n      and\n        /* \"ClubAi.sol\":37734:37739  owner */\n      dup4\n        /* \"ClubAi.sol\":37734:37753  owner != address(0) */\n      0xffffffffffffffffffffffffffffffffffffffff\n      and\n      eq\n      iszero\n        /* \"ClubAi.sol\":37726:37794  require(owner != address(0), \"ERC20: approve from the zero address\") */\n      tag_351\n      jumpi\n      mload(0x40)\n      0x08c379a000000000000000000000000000000000000000000000000000000000\n      dup2\n      mstore\n      0x04\n      add\n      dup1\n      dup1\n      0x20\n      add\n      dup3\n      dup2\n      sub\n      dup3\n      mstore\n      0x24\n      dup2\n      mstore\n      0x20\n      add\n      dup1\n      data_c953f4879035ed60e766b34720f656aab5c697b141d924c283124ecedb91c208\n      0x24\n      swap2\n      codecopy\n      0x40\n      add\n      swap2\n      pop\n      pop\n      mload(0x40)\n      dup1\n      swap2\n      sub\n      swap1\n      revert\n    tag_351:\n        /* \"ClubAi.sol\":37832:37833  0 */\n      0x00\n        /* \"ClubAi.sol\":37813:37834  spender != address(0) */\n      0xffffffffffffffffffffffffffffffffffffffff\n      and\n        /* \"ClubAi.sol\":37813:37820  spender */\n      dup3\n        /* \"ClubAi.sol\":37813:37834  spender != address(0) */\n      0xffffffffffffffffffffffffffffffffffffffff\n      and\n      eq\n      iszero\n        /* \"ClubAi.sol\":37805:37873  require(spender != address(0), \"ERC20: approve to the zero address\") */\n      tag_352\n      jumpi\n      mload(0x40)\n      0x08c379a000000000000000000000000000000000000000000000000000000000\n      dup2\n      mstore\n      0x04\n      add\n      dup1\n      dup1\n      0x20\n      add\n      dup3\n      dup2\n      sub\n      dup3\n      mstore\n      0x22\n      dup2\n      mstore\n      0x20\n      add\n      dup1\n      data_24883cc5fe64ace9d0df1893501ecb93c77180f0ff69cca79affb3c316dc8029\n      0x22\n      swap2\n      codecopy\n      0x40\n      add\n      swap2\n      pop\n      pop\n      mload(0x40)\n      dup1\n      swap2\n      sub\n      swap1\n      revert\n    tag_352:\n        /* \"ClubAi.sol\":37916:37922  amount */\n      dup1\n        /* \"ClubAi.sol\":37886:37897  _allowances */\n      0x05\n        /* \"ClubAi.sol\":37886:37904  _allowances[owner] */\n      0x00\n        /* \"ClubAi.sol\":37898:37903  owner */\n      dup6\n        /* \"ClubAi.sol\":37886:37904  _allowances[owner] */\n      0xffffffffffffffffffffffffffffffffffffffff\n      and\n      0xffffffffffffffffffffffffffffffffffffffff\n      and\n      dup2\n      mstore\n      0x20\n      add\n      swap1\n      dup2\n      mstore\n      0x20\n      add\n      0x00\n      keccak256\n        /* \"ClubAi.sol\":37886:37913  _allowances[owner][spender] */\n      0x00\n        /* \"ClubAi.sol\":37905:37912  spender */\n      dup5\n        /* \"ClubAi.sol\":37886:37913  _allowances[owner][spender] */\n      0xffffffffffffffffffffffffffffffffffffffff\n      and\n      0xffffffffffffffffffffffffffffffffffffffff\n      and\n      dup2\n      mstore\n      0x20\n      add\n      swap1\n      dup2\n      mstore\n      0x20\n      add\n      0x00\n      keccak256\n        /* \"ClubAi.sol\":37886:37922  _allowances[owner][spender] = amount */\n      dup2\n      swap1\n      sstore\n      pop\n        /* \"ClubAi.sol\":37954:37961  spender */\n      dup2\n        /* \"ClubAi.sol\":37938:37970  Approval(owner, spender, amount) */\n      0xffffffffffffffffffffffffffffffffffffffff\n      and\n        /* \"ClubAi.sol\":37947:37952  owner */\n      dup4\n        /* \"ClubAi.sol\":37938:37970  Approval(owner, spender, amount) */\n      0xffffffffffffffffffffffffffffffffffffffff\n      and\n      0x8c5be1e5ebec7d5bd14f71427d1e84f3dd0314c0f7b2291e5b200ac8c7c3b925\n        /* \"ClubAi.sol\":37963:37969  amount */\n      dup4\n        /* \"ClubAi.sol\":37938:37970  Approval(owner, spender, amount) */\n      mload(0x40)\n      dup1\n      dup3\n      dup2\n      mstore\n      0x20\n      add\n      swap2\n      pop\n      pop\n      mload(0x40)\n      dup1\n      swap2\n      sub\n      swap1\n      log3\n        /* \"ClubAi.sol\":37641:37978  function _approve(address owner, address spender, uint256 amount) private {\r... */\n      pop\n      pop\n      pop\n      jump\t// out\n        /* \"ClubAi.sol\":37986:39799  function _transfer(\r... */\n    tag_224:\n        /* \"ClubAi.sol\":38124:38125  0 */\n      0x00\n        /* \"ClubAi.sol\":38108:38126  from != address(0) */\n      0xffffffffffffffffffffffffffffffffffffffff\n      and\n        /* \"ClubAi.sol\":38108:38112  from */\n      dup4\n        /* \"ClubAi.sol\":38108:38126  from != address(0) */\n      0xffffffffffffffffffffffffffffffffffffffff\n      and\n      eq\n      iszero\n        /* \"ClubAi.sol\":38100:38168  require(from != address(0), \"ERC20: transfer from the zero address\") */\n      tag_354\n      jumpi\n      mload(0x40)\n      0x08c379a000000000000000000000000000000000000000000000000000000000\n      dup2\n      mstore\n      0x04\n      add\n      dup1\n      dup1\n      0x20\n      add\n      dup3\n      dup2\n      sub\n      dup3\n      mstore\n      0x25\n      dup2\n      mstore\n      0x20\n      add\n      dup1\n      data_baecc556b46f4ed0f2b4cb599d60785ac8563dd2dc0a5bf12edea1c39e5e1fea\n      0x25\n      swap2\n      codecopy\n      0x40\n      add\n      swap2\n      pop\n      pop\n      mload(0x40)\n      dup1\n      swap2\n      sub\n      swap1\n      revert\n    tag_354:\n        /* \"ClubAi.sol\":38201:38202  0 */\n      0x00\n        /* \"ClubAi.sol\":38187:38203  to != address(0) */\n      0xffffffffffffffffffffffffffffffffffffffff\n      and\n        /* \"ClubAi.sol\":38187:38189  to */\n      dup3\n        /* \"ClubAi.sol\":38187:38203  to != address(0) */\n      0xffffffffffffffffffffffffffffffffffffffff\n      and\n      eq\n      iszero\n        /* \"ClubAi.sol\":38179:38243  require(to != address(0), \"ERC20: transfer to the zero address\") */\n      tag_355\n      jumpi\n      mload(0x40)\n      0x08c379a000000000000000000000000000000000000000000000000000000000\n      dup2\n      mstore\n      0x04\n      add\n      dup1\n      dup1\n      0x20\n      add\n      dup3\n      dup2\n      sub\n      dup3\n      mstore\n      0x23\n      dup2\n      mstore\n      0x20\n      add\n      dup1\n      data_0557e210f7a69a685100a7e4e3d0a7024c546085cee28910fd17d0b081d9516f\n      0x23\n      swap2\n      codecopy\n      0x40\n      add\n      swap2\n      pop\n      pop\n      mload(0x40)\n      dup1\n      swap2\n      sub\n      swap1\n      revert\n    tag_355:\n        /* \"ClubAi.sol\":38271:38272  0 */\n      0x00\n        /* \"ClubAi.sol\":38262:38268  amount */\n      dup2\n        /* \"ClubAi.sol\":38262:38272  amount > 0 */\n      gt\n        /* \"ClubAi.sol\":38254:38318  require(amount > 0, \"Transfer amount must be greater than zero\") */\n      tag_356\n      jumpi\n      mload(0x40)\n      0x08c379a000000000000000000000000000000000000000000000000000000000\n      dup2\n      mstore\n      0x04\n      add\n      dup1\n      dup1\n      0x20\n      add\n      dup3\n      dup2\n      sub\n      dup3\n      mstore\n      0x29\n      dup2\n      mstore\n      0x20\n      add\n      dup1\n      data_9edb5ab58321f35d2386ea65721c9b107daa2c273610fc16d394af2a320ba785\n      0x29\n      swap2\n      codecopy\n      0x40\n      add\n      swap2\n      pop\n      pop\n      mload(0x40)\n      dup1\n      swap2\n      sub\n      swap1\n      revert\n    tag_356:\n        /* \"ClubAi.sol\":38340:38347  owner() */\n      tag_357\n        /* \"ClubAi.sol\":38340:38345  owner */\n      tag_147\n        /* \"ClubAi.sol\":38340:38347  owner() */\n      jump\t// in\n    tag_357:\n        /* \"ClubAi.sol\":38332:38347  from != owner() */\n      0xffffffffffffffffffffffffffffffffffffffff\n      and\n        /* \"ClubAi.sol\":38332:38336  from */\n      dup4\n        /* \"ClubAi.sol\":38332:38347  from != owner() */\n      0xffffffffffffffffffffffffffffffffffffffff\n      and\n      eq\n      iszero\n        /* \"ClubAi.sol\":38332:38364  from != owner() && to != owner() */\n      dup1\n      iszero\n      tag_358\n      jumpi\n      pop\n        /* \"ClubAi.sol\":38357:38364  owner() */\n      tag_359\n        /* \"ClubAi.sol\":38357:38362  owner */\n      tag_147\n        /* \"ClubAi.sol\":38357:38364  owner() */\n      jump\t// in\n    tag_359:\n        /* \"ClubAi.sol\":38351:38364  to != owner() */\n      0xffffffffffffffffffffffffffffffffffffffff\n      and\n        /* \"ClubAi.sol\":38351:38353  to */\n      dup3\n        /* \"ClubAi.sol\":38351:38364  to != owner() */\n      0xffffffffffffffffffffffffffffffffffffffff\n      and\n      eq\n      iszero\n        /* \"ClubAi.sol\":38332:38364  from != owner() && to != owner() */\n    tag_358:\n        /* \"ClubAi.sol\":38329:38454  if(from != owner() && to != owner())\r... */\n      iszero\n      tag_360\n      jumpi\n        /* \"ClubAi.sol\":38397:38409  _maxTxAmount */\n      sload(0x14)\n        /* \"ClubAi.sol\":38387:38393  amount */\n      dup2\n        /* \"ClubAi.sol\":38387:38409  amount <= _maxTxAmount */\n      gt\n      iszero\n        /* \"ClubAi.sol\":38379:38454  require(amount <= _maxTxAmount, \"Transfer amount exceeds the maxTxAmount.\") */\n      tag_361\n      jumpi\n      mload(0x40)\n      0x08c379a000000000000000000000000000000000000000000000000000000000\n      dup2\n      mstore\n      0x04\n      add\n      dup1\n      dup1\n      0x20\n      add\n      dup3\n      dup2\n      sub\n      dup3\n      mstore\n      0x28\n      dup2\n      mstore\n      0x20\n      add\n      dup1\n      data_72052210969ce5fd88e52b5e685de9548acef9bb1b6d02e29c1765d0674948dd\n      0x28\n      swap2\n      codecopy\n      0x40\n      add\n      swap2\n      pop\n      pop\n      mload(0x40)\n      dup1\n      swap2\n      sub\n      swap1\n      revert\n    tag_361:\n        /* \"ClubAi.sol\":38329:38454  if(from != owner() && to != owner())\r... */\n    tag_360:\n        /* \"ClubAi.sol\":38749:38777  uint256 contractTokenBalance */\n      0x00\n        /* \"ClubAi.sol\":38780:38804  balanceOf(address(this)) */\n      tag_362\n        /* \"ClubAi.sol\":38798:38802  this */\n      address\n        /* \"ClubAi.sol\":38780:38789  balanceOf */\n      tag_134\n        /* \"ClubAi.sol\":38780:38804  balanceOf(address(this)) */\n      jump\t// in\n    tag_362:\n        /* \"ClubAi.sol\":38749:38804  uint256 contractTokenBalance = balanceOf(address(this)) */\n      swap1\n      pop\n        /* \"ClubAi.sol\":38852:38864  _maxTxAmount */\n      sload(0x14)\n        /* \"ClubAi.sol\":38828:38848  contractTokenBalance */\n      dup2\n        /* \"ClubAi.sol\":38828:38864  contractTokenBalance >= _maxTxAmount */\n      lt\n        /* \"ClubAi.sol\":38825:38937  if(contractTokenBalance >= _maxTxAmount)\r... */\n      tag_363\n      jumpi\n        /* \"ClubAi.sol\":38913:38925  _maxTxAmount */\n      sload(0x14)\n        /* \"ClubAi.sol\":38890:38925  contractTokenBalance = _maxTxAmount */\n      swap1\n      pop\n        /* \"ClubAi.sol\":38825:38937  if(contractTokenBalance >= _maxTxAmount)\r... */\n    tag_363:\n        /* \"ClubAi.sol\":38957:38981  bool overMinTokenBalance */\n      0x00\n        /* \"ClubAi.sol\":39008:39037  numTokensSellToAddToLiquidity */\n      sload(0x15)\n        /* \"ClubAi.sol\":38984:39004  contractTokenBalance */\n      dup3\n        /* \"ClubAi.sol\":38984:39037  contractTokenBalance >= numTokensSellToAddToLiquidity */\n      lt\n      iszero\n        /* \"ClubAi.sol\":38957:39037  bool overMinTokenBalance = contractTokenBalance >= numTokensSellToAddToLiquidity */\n      swap1\n      pop\n        /* \"ClubAi.sol\":39066:39085  overMinTokenBalance */\n      dup1\n        /* \"ClubAi.sol\":39066:39119  overMinTokenBalance &&\r... */\n      dup1\n      iszero\n      tag_364\n      jumpi\n      pop\n        /* \"ClubAi.sol\":39103:39119  inSwapAndLiquify */\n      0x13\n      0x00\n      swap1\n      sload\n      swap1\n      0x0100\n      exp\n      swap1\n      div\n      0xff\n      and\n        /* \"ClubAi.sol\":39102:39119  !inSwapAndLiquify */\n      iszero\n        /* \"ClubAi.sol\":39066:39119  overMinTokenBalance &&\r... */\n    tag_364:\n        /* \"ClubAi.sol\":39066:39157  overMinTokenBalance &&\r... */\n      dup1\n      iszero\n      tag_365\n      jumpi\n      pop\n        /* \"ClubAi.sol\":39144:39157  uniswapV2Pair */\n      immutable(\"0xf17089ced8c0c2239e63f2bbb45b3ebcf864ae70eb1ca01545337030cdeed50a\")\n        /* \"ClubAi.sol\":39136:39157  from != uniswapV2Pair */\n      0xffffffffffffffffffffffffffffffffffffffff\n      and\n        /* \"ClubAi.sol\":39136:39140  from */\n      dup6\n        /* \"ClubAi.sol\":39136:39157  from != uniswapV2Pair */\n      0xffffffffffffffffffffffffffffffffffffffff\n      and\n      eq\n      iszero\n        /* \"ClubAi.sol\":39066:39157  overMinTokenBalance &&\r... */\n    tag_365:\n        /* \"ClubAi.sol\":39066:39195  overMinTokenBalance &&\r... */\n      dup1\n      iszero\n      tag_366\n      jumpi\n      pop\n        /* \"ClubAi.sol\":39174:39195  swapAndLiquifyEnabled */\n      0x13\n      0x01\n      swap1\n      sload\n      swap1\n      0x0100\n      exp\n      swap1\n      div\n      0xff\n      and\n        /* \"ClubAi.sol\":39066:39195  overMinTokenBalance &&\r... */\n    tag_366:\n        /* \"ClubAi.sol\":39048:39366  if (\r... */\n      iszero\n      tag_367\n      jumpi\n        /* \"ClubAi.sol\":39245:39274  numTokensSellToAddToLiquidity */\n      sload(0x15)\n        /* \"ClubAi.sol\":39222:39274  contractTokenBalance = numTokensSellToAddToLiquidity */\n      swap2\n      pop\n        /* \"ClubAi.sol\":39318:39354  swapAndLiquify(contractTokenBalance) */\n      tag_368\n        /* \"ClubAi.sol\":39333:39353  contractTokenBalance */\n      dup3\n        /* \"ClubAi.sol\":39318:39332  swapAndLiquify */\n      tag_369\n        /* \"ClubAi.sol\":39318:39354  swapAndLiquify(contractTokenBalance) */\n      jump\t// in\n    tag_368:\n        /* \"ClubAi.sol\":39048:39366  if (\r... */\n    tag_367:\n        /* \"ClubAi.sol\":39447:39459  bool takeFee */\n      0x00\n        /* \"ClubAi.sol\":39462:39466  true */\n      0x01\n        /* \"ClubAi.sol\":39447:39466  bool takeFee = true */\n      swap1\n      pop\n        /* \"ClubAi.sol\":39574:39592  _isExcludedFromFee */\n      0x06\n        /* \"ClubAi.sol\":39574:39598  _isExcludedFromFee[from] */\n      0x00\n        /* \"ClubAi.sol\":39593:39597  from */\n      dup8\n        /* \"ClubAi.sol\":39574:39598  _isExcludedFromFee[from] */\n      0xffffffffffffffffffffffffffffffffffffffff\n      and\n      0xffffffffffffffffffffffffffffffffffffffff\n      and\n      dup2\n      mstore\n      0x20\n      add\n      swap1\n      dup2\n      mstore\n      0x20\n      add\n      0x00\n      keccak256\n      0x00\n      swap1\n      sload\n      swap1\n      0x0100\n      exp\n      swap1\n      div\n      0xff\n      and\n        /* \"ClubAi.sol\":39574:39624  _isExcludedFromFee[from] || _isExcludedFromFee[to] */\n      dup1\n      tag_370\n      jumpi\n      pop\n        /* \"ClubAi.sol\":39602:39620  _isExcludedFromFee */\n      0x06\n        /* \"ClubAi.sol\":39602:39624  _isExcludedFromFee[to] */\n      0x00\n        /* \"ClubAi.sol\":39621:39623  to */\n      dup7\n        /* \"ClubAi.sol\":39602:39624  _isExcludedFromFee[to] */\n      0xffffffffffffffffffffffffffffffffffffffff\n      and\n      0xffffffffffffffffffffffffffffffffffffffff\n      and\n      dup2\n      mstore\n      0x20\n      add\n      swap1\n      dup2\n      mstore\n      0x20\n      add\n      0x00\n      keccak256\n      0x00\n      swap1\n      sload\n      swap1\n      0x0100\n      exp\n      swap1\n      div\n      0xff\n      and\n        /* \"ClubAi.sol\":39574:39624  _isExcludedFromFee[from] || _isExcludedFromFee[to] */\n    tag_370:\n        /* \"ClubAi.sol\":39571:39667  if(_isExcludedFromFee[from] || _isExcludedFromFee[to]){\r... */\n      iszero\n      tag_371\n      jumpi\n        /* \"ClubAi.sol\":39650:39655  false */\n      0x00\n        /* \"ClubAi.sol\":39640:39655  takeFee = false */\n      swap1\n      pop\n        /* \"ClubAi.sol\":39571:39667  if(_isExcludedFromFee[from] || _isExcludedFromFee[to]){\r... */\n    tag_371:\n        /* \"ClubAi.sol\":39753:39791  _tokenTransfer(from,to,amount,takeFee) */\n      tag_372\n        /* \"ClubAi.sol\":39768:39772  from */\n      dup7\n        /* \"ClubAi.sol\":39773:39775  to */\n      dup7\n        /* \"ClubAi.sol\":39776:39782  amount */\n      dup7\n        /* \"ClubAi.sol\":39783:39790  takeFee */\n      dup5\n        /* \"ClubAi.sol\":39753:39767  _tokenTransfer */\n      tag_373\n        /* \"ClubAi.sol\":39753:39791  _tokenTransfer(from,to,amount,takeFee) */\n      jump\t// in\n    tag_372:\n        /* \"ClubAi.sol\":37986:39799  function _transfer(\r... */\n      pop\n      pop\n      pop\n      pop\n      pop\n      pop\n      jump\t// out\n        /* \"ClubAi.sol\":4453:4645  function sub(uint256 a, uint256 b, string memory errorMessage) internal pure returns (uint256) {\r... */\n    tag_229:\n        /* \"ClubAi.sol\":4539:4546  uint256 */\n      0x00\n        /* \"ClubAi.sol\":4572:4573  a */\n      dup4\n        /* \"ClubAi.sol\":4567:4568  b */\n      dup4\n        /* \"ClubAi.sol\":4567:4573  b <= a */\n      gt\n      iszero\n        /* \"ClubAi.sol\":4575:4587  errorMessage */\n      dup3\n        /* \"ClubAi.sol\":4559:4588  require(b <= a, errorMessage) */\n      swap1\n      tag_375\n      jumpi\n      mload(0x40)\n      0x08c379a000000000000000000000000000000000000000000000000000000000\n      dup2\n      mstore\n      0x04\n      add\n      dup1\n      dup1\n      0x20\n      add\n      dup3\n      dup2\n      sub\n      dup3\n      mstore\n      dup4\n      dup2\n      dup2\n      mload\n      dup2\n      mstore\n      0x20\n      add\n      swap2\n      pop\n      dup1\n      mload\n      swap1\n      0x20\n      add\n      swap1\n      dup1\n      dup4\n      dup4\n      0x00\n    tag_376:\n      dup4\n      dup2\n      lt\n      iszero\n      tag_378\n      jumpi\n      dup1\n      dup3\n      add\n      mload\n      dup2\n      dup5\n      add\n      mstore\n      0x20\n      dup2\n      add\n      swap1\n      pop\n      jump(tag_376)\n    tag_378:\n      pop\n      pop\n      pop\n      pop\n      swap1\n      pop\n      swap1\n      dup2\n      add\n      swap1\n      0x1f\n      and\n      dup1\n      iszero\n      tag_379\n      jumpi\n      dup1\n      dup3\n      sub\n      dup1\n      mload\n      0x01\n      dup4\n      0x20\n      sub\n      0x0100\n      exp\n      sub\n      not\n      and\n      dup2\n      mstore\n      0x20\n      add\n      swap2\n      pop\n    tag_379:\n      pop\n      swap3\n      pop\n      pop\n      pop\n      mload(0x40)\n      dup1\n      swap2\n      sub\n      swap1\n      revert\n    tag_375:\n      pop\n        /* \"ClubAi.sol\":4599:4608  uint256 c */\n      0x00\n        /* \"ClubAi.sol\":4615:4616  b */\n      dup4\n        /* \"ClubAi.sol\":4611:4612  a */\n      dup6\n        /* \"ClubAi.sol\":4611:4616  a - b */\n      sub\n        /* \"ClubAi.sol\":4599:4616  uint256 c = a - b */\n      swap1\n      pop\n        /* \"ClubAi.sol\":4636:4637  c */\n      dup1\n        /* \"ClubAi.sol\":4629:4637  return c */\n      swap2\n      pop\n      pop\n        /* \"ClubAi.sol\":4453:4645  function sub(uint256 a, uint256 b, string memory errorMessage) internal pure returns (uint256) {\r... */\n      swap4\n      swap3\n      pop\n      pop\n      pop\n      jump\t// out\n        /* \"ClubAi.sol\":35532:35695  function _getRate() private view returns(uint256) {\r... */\n    tag_233:\n        /* \"ClubAi.sol\":35573:35580  uint256 */\n      0x00\n        /* \"ClubAi.sol\":35594:35609  uint256 rSupply */\n      dup1\n        /* \"ClubAi.sol\":35611:35626  uint256 tSupply */\n      0x00\n        /* \"ClubAi.sol\":35630:35649  _getCurrentSupply() */\n      tag_381\n        /* \"ClubAi.sol\":35630:35647  _getCurrentSupply */\n      tag_382\n        /* \"ClubAi.sol\":35630:35649  _getCurrentSupply() */\n      jump\t// in\n    tag_381:\n        /* \"ClubAi.sol\":35593:35649  (uint256 rSupply, uint256 tSupply) = _getCurrentSupply() */\n      swap2\n      pop\n      swap2\n      pop\n        /* \"ClubAi.sol\":35667:35687  rSupply.div(tSupply) */\n      tag_383\n        /* \"ClubAi.sol\":35679:35686  tSupply */\n      dup2\n        /* \"ClubAi.sol\":35667:35674  rSupply */\n      dup4\n        /* \"ClubAi.sol\":35667:35678  rSupply.div */\n      tag_235\n      swap1\n        /* \"ClubAi.sol\":35667:35687  rSupply.div(tSupply) */\n      swap2\n      swap1\n      0xffffffff\n      and\n      jump\t// in\n    tag_383:\n        /* \"ClubAi.sol\":35660:35687  return rSupply.div(tSupply) */\n      swap3\n      pop\n      pop\n      pop\n        /* \"ClubAi.sol\":35532:35695  function _getRate() private view returns(uint256) {\r... */\n      swap1\n      jump\t// out\n        /* \"ClubAi.sol\":5851:5983  function div(uint256 a, uint256 b) internal pure returns (uint256) {\r... */\n    tag_235:\n        /* \"ClubAi.sol\":5909:5916  uint256 */\n      0x00\n        /* \"ClubAi.sol\":5936:5975  div(a, b, \"SafeMath: division by zero\") */\n      tag_385\n        /* \"ClubAi.sol\":5940:5941  a */\n      dup4\n        /* \"ClubAi.sol\":5943:5944  b */\n      dup4\n        /* \"ClubAi.sol\":5936:5975  div(a, b, \"SafeMath: division by zero\") */\n      mload(0x40)\n      dup1\n      0x40\n      add\n      0x40\n      mstore\n      dup1\n      0x1a\n      dup2\n      mstore\n      0x20\n      add\n      0x536166654d6174683a206469766973696f6e206279207a65726f000000000000\n      dup2\n      mstore\n      pop\n        /* \"ClubAi.sol\":5936:5939  div */\n      tag_386\n        /* \"ClubAi.sol\":5936:5975  div(a, b, \"SafeMath: division by zero\") */\n      jump\t// in\n    tag_385:\n        /* \"ClubAi.sol\":5929:5975  return div(a, b, \"SafeMath: division by zero\") */\n      swap1\n      pop\n        /* \"ClubAi.sol\":5851:5983  function div(uint256 a, uint256 b) internal pure returns (uint256) {\r... */\n      swap3\n      swap2\n      pop\n      pop\n      jump\t// out\n        /* \"ClubAi.sol\":3550:3731  function add(uint256 a, uint256 b) internal pure returns (uint256) {\r... */\n    tag_259:\n        /* \"ClubAi.sol\":3608:3615  uint256 */\n      0x00\n        /* \"ClubAi.sol\":3628:3637  uint256 c */\n      dup1\n        /* \"ClubAi.sol\":3644:3645  b */\n      dup3\n        /* \"ClubAi.sol\":3640:3641  a */\n      dup5\n        /* \"ClubAi.sol\":3640:3645  a + b */\n      add\n        /* \"ClubAi.sol\":3628:3645  uint256 c = a + b */\n      swap1\n      pop\n        /* \"ClubAi.sol\":3669:3670  a */\n      dup4\n        /* \"ClubAi.sol\":3664:3665  c */\n      dup2\n        /* \"ClubAi.sol\":3664:3670  c >= a */\n      lt\n      iszero\n        /* \"ClubAi.sol\":3656:3702  require(c >= a, \"SafeMath: addition overflow\") */\n      tag_388\n      jumpi\n      mload(0x40)\n      0x08c379a000000000000000000000000000000000000000000000000000000000\n      dup2\n      mstore\n      0x04\n      add\n      dup1\n      dup1\n      0x20\n      add\n      dup3\n      dup2\n      sub\n      dup3\n      mstore\n      0x1b\n      dup2\n      mstore\n      0x20\n      add\n      dup1\n      0x536166654d6174683a206164646974696f6e206f766572666c6f770000000000\n      dup2\n      mstore\n      pop\n      0x20\n      add\n      swap2\n      pop\n      pop\n      mload(0x40)\n      dup1\n      swap2\n      sub\n      swap1\n      revert\n    tag_388:\n        /* \"ClubAi.sol\":3722:3723  c */\n      dup1\n        /* \"ClubAi.sol\":3715:3723  return c */\n      swap2\n      pop\n      pop\n        /* \"ClubAi.sol\":3550:3731  function add(uint256 a, uint256 b) internal pure returns (uint256) {\r... */\n      swap3\n      swap2\n      pop\n      pop\n      jump\t// out\n        /* \"ClubAi.sol\":34330:34749  function _getValues(uint256 tAmount) private view returns (uint256, uint256, uint256, uint256, uint256, uint256) {\r... */\n    tag_264:\n        /* \"ClubAi.sol\":34389:34396  uint256 */\n      0x00\n        /* \"ClubAi.sol\":34398:34405  uint256 */\n      dup1\n        /* \"ClubAi.sol\":34407:34414  uint256 */\n      0x00\n        /* \"ClubAi.sol\":34416:34423  uint256 */\n      dup1\n        /* \"ClubAi.sol\":34425:34432  uint256 */\n      0x00\n        /* \"ClubAi.sol\":34434:34441  uint256 */\n      dup1\n        /* \"ClubAi.sol\":34455:34478  uint256 tTransferAmount */\n      0x00\n        /* \"ClubAi.sol\":34480:34492  uint256 tFee */\n      dup1\n        /* \"ClubAi.sol\":34494:34512  uint256 tLiquidity */\n      0x00\n        /* \"ClubAi.sol\":34516:34536  _getTValues(tAmount) */\n      tag_390\n        /* \"ClubAi.sol\":34528:34535  tAmount */\n      dup11\n        /* \"ClubAi.sol\":34516:34527  _getTValues */\n      tag_391\n        /* \"ClubAi.sol\":34516:34536  _getTValues(tAmount) */\n      jump\t// in\n    tag_390:\n        /* \"ClubAi.sol\":34454:34536  (uint256 tTransferAmount, uint256 tFee, uint256 tLiquidity) = _getTValues(tAmount) */\n      swap3\n      pop\n      swap3\n      pop\n      swap3\n      pop\n        /* \"ClubAi.sol\":34548:34563  uint256 rAmount */\n      0x00\n        /* \"ClubAi.sol\":34565:34588  uint256 rTransferAmount */\n      dup1\n        /* \"ClubAi.sol\":34590:34602  uint256 rFee */\n      0x00\n        /* \"ClubAi.sol\":34606:34656  _getRValues(tAmount, tFee, tLiquidity, _getRate()) */\n      tag_392\n        /* \"ClubAi.sol\":34618:34625  tAmount */\n      dup14\n        /* \"ClubAi.sol\":34627:34631  tFee */\n      dup7\n        /* \"ClubAi.sol\":34633:34643  tLiquidity */\n      dup7\n        /* \"ClubAi.sol\":34645:34655  _getRate() */\n      tag_393\n        /* \"ClubAi.sol\":34645:34653  _getRate */\n      tag_233\n        /* \"ClubAi.sol\":34645:34655  _getRate() */\n      jump\t// in\n    tag_393:\n        /* \"ClubAi.sol\":34606:34617  _getRValues */\n      tag_394\n        /* \"ClubAi.sol\":34606:34656  _getRValues(tAmount, tFee, tLiquidity, _getRate()) */\n      jump\t// in\n    tag_392:\n        /* \"ClubAi.sol\":34547:34656  (uint256 rAmount, uint256 rTransferAmount, uint256 rFee) = _getRValues(tAmount, tFee, tLiquidity, _getRate()) */\n      swap3\n      pop\n      swap3\n      pop\n      swap3\n      pop\n        /* \"ClubAi.sol\":34675:34682  rAmount */\n      dup3\n        /* \"ClubAi.sol\":34684:34699  rTransferAmount */\n      dup3\n        /* \"ClubAi.sol\":34701:34705  rFee */\n      dup3\n        /* \"ClubAi.sol\":34707:34722  tTransferAmount */\n      dup9\n        /* \"ClubAi.sol\":34724:34728  tFee */\n      dup9\n        /* \"ClubAi.sol\":34730:34740  tLiquidity */\n      dup9\n        /* \"ClubAi.sol\":34667:34741  return (rAmount, rTransferAmount, rFee, tTransferAmount, tFee, tLiquidity) */\n      swap12\n      pop\n      swap12\n      pop\n      swap12\n      pop\n      swap12\n      pop\n      swap12\n      pop\n      swap12\n      pop\n      pop\n      pop\n      pop\n      pop\n      pop\n      pop\n        /* \"ClubAi.sol\":34330:34749  function _getValues(uint256 tAmount) private view returns (uint256, uint256, uint256, uint256, uint256, uint256) {\r... */\n      swap2\n      swap4\n      swap6\n      pop\n      swap2\n      swap4\n      swap6\n      jump\t// out\n        /* \"ClubAi.sol\":4014:4150  function sub(uint256 a, uint256 b) internal pure returns (uint256) {\r... */\n    tag_266:\n        /* \"ClubAi.sol\":4072:4079  uint256 */\n      0x00\n        /* \"ClubAi.sol\":4099:4142  sub(a, b, \"SafeMath: subtraction overflow\") */\n      tag_396\n        /* \"ClubAi.sol\":4103:4104  a */\n      dup4\n        /* \"ClubAi.sol\":4106:4107  b */\n      dup4\n        /* \"ClubAi.sol\":4099:4142  sub(a, b, \"SafeMath: subtraction overflow\") */\n      mload(0x40)\n      dup1\n      0x40\n      add\n      0x40\n      mstore\n      dup1\n      0x1e\n      dup2\n      mstore\n      0x20\n      add\n      0x536166654d6174683a207375627472616374696f6e206f766572666c6f770000\n      dup2\n      mstore\n      pop\n        /* \"ClubAi.sol\":4099:4102  sub */\n      tag_229\n        /* \"ClubAi.sol\":4099:4142  sub(a, b, \"SafeMath: subtraction overflow\") */\n      jump\t// in\n    tag_396:\n        /* \"ClubAi.sol\":4092:4142  return sub(a, b, \"SafeMath: subtraction overflow\") */\n      swap1\n      pop\n        /* \"ClubAi.sol\":4014:4150  function sub(uint256 a, uint256 b) internal pure returns (uint256) {\r... */\n      swap3\n      swap2\n      pop\n      pop\n      jump\t// out\n        /* \"ClubAi.sol\":39807:40792  function swapAndLiquify(uint256 contractTokenBalance) private lockTheSwap {\r... */\n    tag_369:\n        /* \"ClubAi.sol\":26850:26854  true */\n      0x01\n        /* \"ClubAi.sol\":26831:26847  inSwapAndLiquify */\n      0x13\n      0x00\n        /* \"ClubAi.sol\":26831:26854  inSwapAndLiquify = true */\n      0x0100\n      exp\n      dup2\n      sload\n      dup2\n      0xff\n      mul\n      not\n      and\n      swap1\n      dup4\n      iszero\n      iszero\n      mul\n      or\n      swap1\n      sstore\n      pop\n        /* \"ClubAi.sol\":39943:39955  uint256 half */\n      0x00\n        /* \"ClubAi.sol\":39958:39985  contractTokenBalance.div(2) */\n      tag_399\n        /* \"ClubAi.sol\":39983:39984  2 */\n      0x02\n        /* \"ClubAi.sol\":39958:39978  contractTokenBalance */\n      dup4\n        /* \"ClubAi.sol\":39958:39982  contractTokenBalance.div */\n      tag_235\n      swap1\n        /* \"ClubAi.sol\":39958:39985  contractTokenBalance.div(2) */\n      swap2\n      swap1\n      0xffffffff\n      and\n      jump\t// in\n    tag_399:\n        /* \"ClubAi.sol\":39943:39985  uint256 half = contractTokenBalance.div(2) */\n      swap1\n      pop\n        /* \"ClubAi.sol\":39996:40013  uint256 otherHalf */\n      0x00\n        /* \"ClubAi.sol\":40016:40046  contractTokenBalance.sub(half) */\n      tag_400\n        /* \"ClubAi.sol\":40041:40045  half */\n      dup3\n        /* \"ClubAi.sol\":40016:40036  contractTokenBalance */\n      dup5\n        /* \"ClubAi.sol\":40016:40040  contractTokenBalance.sub */\n      tag_266\n      swap1\n        /* \"ClubAi.sol\":40016:40046  contractTokenBalance.sub(half) */\n      swap2\n      swap1\n      0xffffffff\n      and\n      jump\t// in\n    tag_400:\n        /* \"ClubAi.sol\":39996:40046  uint256 otherHalf = contractTokenBalance.sub(half) */\n      swap1\n      pop\n        /* \"ClubAi.sol\":40324:40346  uint256 initialBalance */\n      0x00\n        /* \"ClubAi.sol\":40349:40370  address(this).balance */\n      selfbalance\n        /* \"ClubAi.sol\":40324:40370  uint256 initialBalance = address(this).balance */\n      swap1\n      pop\n        /* \"ClubAi.sol\":40415:40437  swapTokensForEth(half) */\n      tag_401\n        /* \"ClubAi.sol\":40432:40436  half */\n      dup4\n        /* \"ClubAi.sol\":40415:40431  swapTokensForEth */\n      tag_402\n        /* \"ClubAi.sol\":40415:40437  swapTokensForEth(half) */\n      jump\t// in\n    tag_401:\n        /* \"ClubAi.sol\":40568:40586  uint256 newBalance */\n      0x00\n        /* \"ClubAi.sol\":40589:40630  address(this).balance.sub(initialBalance) */\n      tag_403\n        /* \"ClubAi.sol\":40615:40629  initialBalance */\n      dup3\n        /* \"ClubAi.sol\":40589:40610  address(this).balance */\n      selfbalance\n        /* \"ClubAi.sol\":40589:40614  address(this).balance.sub */\n      tag_266\n      swap1\n        /* \"ClubAi.sol\":40589:40630  address(this).balance.sub(initialBalance) */\n      swap2\n      swap1\n      0xffffffff\n      and\n      jump\t// in\n    tag_403:\n        /* \"ClubAi.sol\":40568:40630  uint256 newBalance = address(this).balance.sub(initialBalance) */\n      swap1\n      pop\n        /* \"ClubAi.sol\":40680:40715  addLiquidity(otherHalf, newBalance) */\n      tag_404\n        /* \"ClubAi.sol\":40693:40702  otherHalf */\n      dup4\n        /* \"ClubAi.sol\":40704:40714  newBalance */\n      dup3\n        /* \"ClubAi.sol\":40680:40692  addLiquidity */\n      tag_405\n        /* \"ClubAi.sol\":40680:40715  addLiquidity(otherHalf, newBalance) */\n      jump\t// in\n    tag_404:\n        /* \"ClubAi.sol\":40741:40784  SwapAndLiquify(half, newBalance, otherHalf) */\n      0x17bbfb9a6069321b6ded73bd96327c9e6b7212a5cd51ff219cd61370acafb561\n        /* \"ClubAi.sol\":40756:40760  half */\n      dup5\n        /* \"ClubAi.sol\":40762:40772  newBalance */\n      dup3\n        /* \"ClubAi.sol\":40774:40783  otherHalf */\n      dup6\n        /* \"ClubAi.sol\":40741:40784  SwapAndLiquify(half, newBalance, otherHalf) */\n      mload(0x40)\n      dup1\n      dup5\n      dup2\n      mstore\n      0x20\n      add\n      dup4\n      dup2\n      mstore\n      0x20\n      add\n      dup3\n      dup2\n      mstore\n      0x20\n      add\n      swap4\n      pop\n      pop\n      pop\n      pop\n      mload(0x40)\n      dup1\n      swap2\n      sub\n      swap1\n      log1\n        /* \"ClubAi.sol\":26865:26866  _ */\n      pop\n      pop\n      pop\n      pop\n        /* \"ClubAi.sol\":26896:26901  false */\n      0x00\n        /* \"ClubAi.sol\":26877:26893  inSwapAndLiquify */\n      0x13\n      0x00\n        /* \"ClubAi.sol\":26877:26901  inSwapAndLiquify = false */\n      0x0100\n      exp\n      dup2\n      sload\n      dup2\n      0xff\n      mul\n      not\n      and\n      swap1\n      dup4\n      iszero\n      iszero\n      mul\n      or\n      swap1\n      sstore\n      pop\n        /* \"ClubAi.sol\":39807:40792  function swapAndLiquify(uint256 contractTokenBalance) private lockTheSwap {\r... */\n      pop\n      jump\t// out\n        /* \"ClubAi.sol\":41991:42825  function _tokenTransfer(address sender, address recipient, uint256 amount,bool takeFee) private {\r... */\n    tag_373:\n        /* \"ClubAi.sol\":42102:42109  takeFee */\n      dup1\n        /* \"ClubAi.sol\":42098:42138  if(!takeFee)\r... */\n      tag_407\n      jumpi\n        /* \"ClubAi.sol\":42124:42138  removeAllFee() */\n      tag_408\n        /* \"ClubAi.sol\":42124:42136  removeAllFee */\n      tag_409\n        /* \"ClubAi.sol\":42124:42138  removeAllFee() */\n      jump\t// in\n    tag_408:\n        /* \"ClubAi.sol\":42098:42138  if(!takeFee)\r... */\n    tag_407:\n        /* \"ClubAi.sol\":42163:42174  _isExcluded */\n      0x07\n        /* \"ClubAi.sol\":42163:42182  _isExcluded[sender] */\n      0x00\n        /* \"ClubAi.sol\":42175:42181  sender */\n      dup6\n        /* \"ClubAi.sol\":42163:42182  _isExcluded[sender] */\n      0xffffffffffffffffffffffffffffffffffffffff\n      and\n      0xffffffffffffffffffffffffffffffffffffffff\n      and\n      dup2\n      mstore\n      0x20\n      add\n      swap1\n      dup2\n      mstore\n      0x20\n      add\n      0x00\n      keccak256\n      0x00\n      swap1\n      sload\n      swap1\n      0x0100\n      exp\n      swap1\n      div\n      0xff\n      and\n        /* \"ClubAi.sol\":42163:42209  _isExcluded[sender] && !_isExcluded[recipient] */\n      dup1\n      iszero\n      tag_410\n      jumpi\n      pop\n        /* \"ClubAi.sol\":42187:42198  _isExcluded */\n      0x07\n        /* \"ClubAi.sol\":42187:42209  _isExcluded[recipient] */\n      0x00\n        /* \"ClubAi.sol\":42199:42208  recipient */\n      dup5\n        /* \"ClubAi.sol\":42187:42209  _isExcluded[recipient] */\n      0xffffffffffffffffffffffffffffffffffffffff\n      and\n      0xffffffffffffffffffffffffffffffffffffffff\n      and\n      dup2\n      mstore\n      0x20\n      add\n      swap1\n      dup2\n      mstore\n      0x20\n      add\n      0x00\n      keccak256\n      0x00\n      swap1\n      sload\n      swap1\n      0x0100\n      exp\n      swap1\n      div\n      0xff\n      and\n        /* \"ClubAi.sol\":42186:42209  !_isExcluded[recipient] */\n      iszero\n        /* \"ClubAi.sol\":42163:42209  _isExcluded[sender] && !_isExcluded[recipient] */\n    tag_410:\n        /* \"ClubAi.sol\":42159:42756  if (_isExcluded[sender] && !_isExcluded[recipient]) {\r... */\n      iszero\n      tag_411\n      jumpi\n        /* \"ClubAi.sol\":42226:42274  _transferFromExcluded(sender, recipient, amount) */\n      tag_412\n        /* \"ClubAi.sol\":42248:42254  sender */\n      dup5\n        /* \"ClubAi.sol\":42256:42265  recipient */\n      dup5\n        /* \"ClubAi.sol\":42267:42273  amount */\n      dup5\n        /* \"ClubAi.sol\":42226:42247  _transferFromExcluded */\n      tag_413\n        /* \"ClubAi.sol\":42226:42274  _transferFromExcluded(sender, recipient, amount) */\n      jump\t// in\n    tag_412:\n        /* \"ClubAi.sol\":42159:42756  if (_isExcluded[sender] && !_isExcluded[recipient]) {\r... */\n      jump(tag_414)\n    tag_411:\n        /* \"ClubAi.sol\":42297:42308  _isExcluded */\n      0x07\n        /* \"ClubAi.sol\":42297:42316  _isExcluded[sender] */\n      0x00\n        /* \"ClubAi.sol\":42309:42315  sender */\n      dup6\n        /* \"ClubAi.sol\":42297:42316  _isExcluded[sender] */\n      0xffffffffffffffffffffffffffffffffffffffff\n      and\n      0xffffffffffffffffffffffffffffffffffffffff\n      and\n      dup2\n      mstore\n      0x20\n      add\n      swap1\n      dup2\n      mstore\n      0x20\n      add\n      0x00\n      keccak256\n      0x00\n      swap1\n      sload\n      swap1\n      0x0100\n      exp\n      swap1\n      div\n      0xff\n      and\n        /* \"ClubAi.sol\":42296:42316  !_isExcluded[sender] */\n      iszero\n        /* \"ClubAi.sol\":42296:42342  !_isExcluded[sender] && _isExcluded[recipient] */\n      dup1\n      iszero\n      tag_415\n      jumpi\n      pop\n        /* \"ClubAi.sol\":42320:42331  _isExcluded */\n      0x07\n        /* \"ClubAi.sol\":42320:42342  _isExcluded[recipient] */\n      0x00\n        /* \"ClubAi.sol\":42332:42341  recipient */\n      dup5\n        /* \"ClubAi.sol\":42320:42342  _isExcluded[recipient] */\n      0xffffffffffffffffffffffffffffffffffffffff\n      and\n      0xffffffffffffffffffffffffffffffffffffffff\n      and\n      dup2\n      mstore\n      0x20\n      add\n      swap1\n      dup2\n      mstore\n      0x20\n      add\n      0x00\n      keccak256\n      0x00\n      swap1\n      sload\n      swap1\n      0x0100\n      exp\n      swap1\n      div\n      0xff\n      and\n        /* \"ClubAi.sol\":42296:42342  !_isExcluded[sender] && _isExcluded[recipient] */\n    tag_415:\n        /* \"ClubAi.sol\":42292:42756  if (!_isExcluded[sender] && _isExcluded[recipient]) {\r... */\n      iszero\n      tag_416\n      jumpi\n        /* \"ClubAi.sol\":42359:42405  _transferToExcluded(sender, recipient, amount) */\n      tag_417\n        /* \"ClubAi.sol\":42379:42385  sender */\n      dup5\n        /* \"ClubAi.sol\":42387:42396  recipient */\n      dup5\n        /* \"ClubAi.sol\":42398:42404  amount */\n      dup5\n        /* \"ClubAi.sol\":42359:42378  _transferToExcluded */\n      tag_418\n        /* \"ClubAi.sol\":42359:42405  _transferToExcluded(sender, recipient, amount) */\n      jump\t// in\n    tag_417:\n        /* \"ClubAi.sol\":42292:42756  if (!_isExcluded[sender] && _isExcluded[recipient]) {\r... */\n      jump(tag_419)\n    tag_416:\n        /* \"ClubAi.sol\":42428:42439  _isExcluded */\n      0x07\n        /* \"ClubAi.sol\":42428:42447  _isExcluded[sender] */\n      0x00\n        /* \"ClubAi.sol\":42440:42446  sender */\n      dup6\n        /* \"ClubAi.sol\":42428:42447  _isExcluded[sender] */\n      0xffffffffffffffffffffffffffffffffffffffff\n      and\n      0xffffffffffffffffffffffffffffffffffffffff\n      and\n      dup2\n      mstore\n      0x20\n      add\n      swap1\n      dup2\n      mstore\n      0x20\n      add\n      0x00\n      keccak256\n      0x00\n      swap1\n      sload\n      swap1\n      0x0100\n      exp\n      swap1\n      div\n      0xff\n      and\n        /* \"ClubAi.sol\":42427:42447  !_isExcluded[sender] */\n      iszero\n        /* \"ClubAi.sol\":42427:42474  !_isExcluded[sender] && !_isExcluded[recipient] */\n      dup1\n      iszero\n      tag_420\n      jumpi\n      pop\n        /* \"ClubAi.sol\":42452:42463  _isExcluded */\n      0x07\n        /* \"ClubAi.sol\":42452:42474  _isExcluded[recipient] */\n      0x00\n        /* \"ClubAi.sol\":42464:42473  recipient */\n      dup5\n        /* \"ClubAi.sol\":42452:42474  _isExcluded[recipient] */\n      0xffffffffffffffffffffffffffffffffffffffff\n      and\n      0xffffffffffffffffffffffffffffffffffffffff\n      and\n      dup2\n      mstore\n      0x20\n      add\n      swap1\n      dup2\n      mstore\n      0x20\n      add\n      0x00\n      keccak256\n      0x00\n      swap1\n      sload\n      swap1\n      0x0100\n      exp\n      swap1\n      div\n      0xff\n      and\n        /* \"ClubAi.sol\":42451:42474  !_isExcluded[recipient] */\n      iszero\n        /* \"ClubAi.sol\":42427:42474  !_isExcluded[sender] && !_isExcluded[recipient] */\n    tag_420:\n        /* \"ClubAi.sol\":42423:42756  if (!_isExcluded[sender] && !_isExcluded[recipient]) {\r... */\n      iszero\n      tag_421\n      jumpi\n        /* \"ClubAi.sol\":42491:42535  _transferStandard(sender, recipient, amount) */\n      tag_422\n        /* \"ClubAi.sol\":42509:42515  sender */\n      dup5\n        /* \"ClubAi.sol\":42517:42526  recipient */\n      dup5\n        /* \"ClubAi.sol\":42528:42534  amount */\n      dup5\n        /* \"ClubAi.sol\":42491:42508  _transferStandard */\n      tag_423\n        /* \"ClubAi.sol\":42491:42535  _transferStandard(sender, recipient, amount) */\n      jump\t// in\n    tag_422:\n        /* \"ClubAi.sol\":42423:42756  if (!_isExcluded[sender] && !_isExcluded[recipient]) {\r... */\n      jump(tag_424)\n    tag_421:\n        /* \"ClubAi.sol\":42557:42568  _isExcluded */\n      0x07\n        /* \"ClubAi.sol\":42557:42576  _isExcluded[sender] */\n      0x00\n        /* \"ClubAi.sol\":42569:42575  sender */\n      dup6\n        /* \"ClubAi.sol\":42557:42576  _isExcluded[sender] */\n      0xffffffffffffffffffffffffffffffffffffffff\n      and\n      0xffffffffffffffffffffffffffffffffffffffff\n      and\n      dup2\n      mstore\n      0x20\n      add\n      swap1\n      dup2\n      mstore\n      0x20\n      add\n      0x00\n      keccak256\n      0x00\n      swap1\n      sload\n      swap1\n      0x0100\n      exp\n      swap1\n      div\n      0xff\n      and\n        /* \"ClubAi.sol\":42557:42602  _isExcluded[sender] && _isExcluded[recipient] */\n      dup1\n      iszero\n      tag_425\n      jumpi\n      pop\n        /* \"ClubAi.sol\":42580:42591  _isExcluded */\n      0x07\n        /* \"ClubAi.sol\":42580:42602  _isExcluded[recipient] */\n      0x00\n        /* \"ClubAi.sol\":42592:42601  recipient */\n      dup5\n        /* \"ClubAi.sol\":42580:42602  _isExcluded[recipient] */\n      0xffffffffffffffffffffffffffffffffffffffff\n      and\n      0xffffffffffffffffffffffffffffffffffffffff\n      and\n      dup2\n      mstore\n      0x20\n      add\n      swap1\n      dup2\n      mstore\n      0x20\n      add\n      0x00\n      keccak256\n      0x00\n      swap1\n      sload\n      swap1\n      0x0100\n      exp\n      swap1\n      div\n      0xff\n      and\n        /* \"ClubAi.sol\":42557:42602  _isExcluded[sender] && _isExcluded[recipient] */\n    tag_425:\n        /* \"ClubAi.sol\":42553:42756  if (_isExcluded[sender] && _isExcluded[recipient]) {\r... */\n      iszero\n      tag_426\n      jumpi\n        /* \"ClubAi.sol\":42619:42667  _transferBothExcluded(sender, recipient, amount) */\n      tag_427\n        /* \"ClubAi.sol\":42641:42647  sender */\n      dup5\n        /* \"ClubAi.sol\":42649:42658  recipient */\n      dup5\n        /* \"ClubAi.sol\":42660:42666  amount */\n      dup5\n        /* \"ClubAi.sol\":42619:42640  _transferBothExcluded */\n      tag_428\n        /* \"ClubAi.sol\":42619:42667  _transferBothExcluded(sender, recipient, amount) */\n      jump\t// in\n    tag_427:\n        /* \"ClubAi.sol\":42553:42756  if (_isExcluded[sender] && _isExcluded[recipient]) {\r... */\n      jump(tag_429)\n    tag_426:\n        /* \"ClubAi.sol\":42700:42744  _transferStandard(sender, recipient, amount) */\n      tag_430\n        /* \"ClubAi.sol\":42718:42724  sender */\n      dup5\n        /* \"ClubAi.sol\":42726:42735  recipient */\n      dup5\n        /* \"ClubAi.sol\":42737:42743  amount */\n      dup5\n        /* \"ClubAi.sol\":42700:42717  _transferStandard */\n      tag_423\n        /* \"ClubAi.sol\":42700:42744  _transferStandard(sender, recipient, amount) */\n      jump\t// in\n    tag_430:\n        /* \"ClubAi.sol\":42553:42756  if (_isExcluded[sender] && _isExcluded[recipient]) {\r... */\n    tag_429:\n        /* \"ClubAi.sol\":42423:42756  if (!_isExcluded[sender] && !_isExcluded[recipient]) {\r... */\n    tag_424:\n        /* \"ClubAi.sol\":42292:42756  if (!_isExcluded[sender] && _isExcluded[recipient]) {\r... */\n    tag_419:\n        /* \"ClubAi.sol\":42159:42756  if (_isExcluded[sender] && !_isExcluded[recipient]) {\r... */\n    tag_414:\n        /* \"ClubAi.sol\":42780:42787  takeFee */\n      dup1\n        /* \"ClubAi.sol\":42776:42817  if(!takeFee)\r... */\n      tag_431\n      jumpi\n        /* \"ClubAi.sol\":42802:42817  restoreAllFee() */\n      tag_432\n        /* \"ClubAi.sol\":42802:42815  restoreAllFee */\n      tag_433\n        /* \"ClubAi.sol\":42802:42817  restoreAllFee() */\n      jump\t// in\n    tag_432:\n        /* \"ClubAi.sol\":42776:42817  if(!takeFee)\r... */\n    tag_431:\n        /* \"ClubAi.sol\":41991:42825  function _tokenTransfer(address sender, address recipient, uint256 amount,bool takeFee) private {\r... */\n      pop\n      pop\n      pop\n      pop\n      jump\t// out\n        /* \"ClubAi.sol\":35703:36264  function _getCurrentSupply() private view returns(uint256, uint256) {\r... */\n    tag_382:\n        /* \"ClubAi.sol\":35753:35760  uint256 */\n      0x00\n        /* \"ClubAi.sol\":35762:35769  uint256 */\n      dup1\n        /* \"ClubAi.sol\":35782:35797  uint256 rSupply */\n      0x00\n        /* \"ClubAi.sol\":35800:35807  _rTotal */\n      sload(0x0a)\n        /* \"ClubAi.sol\":35782:35807  uint256 rSupply = _rTotal */\n      swap1\n      pop\n        /* \"ClubAi.sol\":35818:35833  uint256 tSupply */\n      0x00\n        /* \"ClubAi.sol\":35836:35843  _tTotal */\n      sload(0x09)\n        /* \"ClubAi.sol\":35818:35843  uint256 tSupply = _tTotal */\n      swap1\n      pop\n        /* \"ClubAi.sol\":35865:35874  uint256 i */\n      0x00\n        /* \"ClubAi.sol\":35860:36149  for (uint256 i = 0; i < _excluded.length; i++) {\r... */\n    tag_435:\n        /* \"ClubAi.sol\":35884:35893  _excluded */\n      0x08\n        /* \"ClubAi.sol\":35884:35900  _excluded.length */\n      dup1\n      sload\n      swap1\n      pop\n        /* \"ClubAi.sol\":35880:35881  i */\n      dup2\n        /* \"ClubAi.sol\":35880:35900  i < _excluded.length */\n      lt\n        /* \"ClubAi.sol\":35860:36149  for (uint256 i = 0; i < _excluded.length; i++) {\r... */\n      iszero\n      tag_436\n      jumpi\n        /* \"ClubAi.sol\":35950:35957  rSupply */\n      dup3\n        /* \"ClubAi.sol\":35926:35933  _rOwned */\n      0x03\n        /* \"ClubAi.sol\":35926:35947  _rOwned[_excluded[i]] */\n      0x00\n        /* \"ClubAi.sol\":35934:35943  _excluded */\n      0x08\n        /* \"ClubAi.sol\":35944:35945  i */\n      dup5\n        /* \"ClubAi.sol\":35934:35946  _excluded[i] */\n      dup2\n      sload\n      dup2\n      lt\n      tag_438\n      jumpi\n      invalid\n    tag_438:\n      swap1\n      0x00\n      mstore\n      keccak256(0x00, 0x20)\n      add\n      0x00\n      swap1\n      sload\n      swap1\n      0x0100\n      exp\n      swap1\n      div\n      0xffffffffffffffffffffffffffffffffffffffff\n      and\n        /* \"ClubAi.sol\":35926:35947  _rOwned[_excluded[i]] */\n      0xffffffffffffffffffffffffffffffffffffffff\n      and\n      0xffffffffffffffffffffffffffffffffffffffff\n      and\n      dup2\n      mstore\n      0x20\n      add\n      swap1\n      dup2\n      mstore\n      0x20\n      add\n      0x00\n      keccak256\n      sload\n        /* \"ClubAi.sol\":35926:35957  _rOwned[_excluded[i]] > rSupply */\n      gt\n        /* \"ClubAi.sol\":35926:35992  _rOwned[_excluded[i]] > rSupply || _tOwned[_excluded[i]] > tSupply */\n      dup1\n      tag_440\n      jumpi\n      pop\n        /* \"ClubAi.sol\":35985:35992  tSupply */\n      dup2\n        /* \"ClubAi.sol\":35961:35968  _tOwned */\n      0x04\n        /* \"ClubAi.sol\":35961:35982  _tOwned[_excluded[i]] */\n      0x00\n        /* \"ClubAi.sol\":35969:35978  _excluded */\n      0x08\n        /* \"ClubAi.sol\":35979:35980  i */\n      dup5\n        /* \"ClubAi.sol\":35969:35981  _excluded[i] */\n      dup2\n      sload\n      dup2\n      lt\n      tag_441\n      jumpi\n      invalid\n    tag_441:\n      swap1\n      0x00\n      mstore\n      keccak256(0x00, 0x20)\n      add\n      0x00\n      swap1\n      sload\n      swap1\n      0x0100\n      exp\n      swap1\n      div\n      0xffffffffffffffffffffffffffffffffffffffff\n      and\n        /* \"ClubAi.sol\":35961:35982  _tOwned[_excluded[i]] */\n      0xffffffffffffffffffffffffffffffffffffffff\n      and\n      0xffffffffffffffffffffffffffffffffffffffff\n      and\n      dup2\n      mstore\n      0x20\n      add\n      swap1\n      dup2\n      mstore\n      0x20\n      add\n      0x00\n      keccak256\n      sload\n        /* \"ClubAi.sol\":35961:35992  _tOwned[_excluded[i]] > tSupply */\n      gt\n        /* \"ClubAi.sol\":35926:35992  _rOwned[_excluded[i]] > rSupply || _tOwned[_excluded[i]] > tSupply */\n    tag_440:\n        /* \"ClubAi.sol\":35922:36019  if (_rOwned[_excluded[i]] > rSupply || _tOwned[_excluded[i]] > tSupply) return (_rTotal, _tTotal) */\n      iszero\n      tag_443\n      jumpi\n        /* \"ClubAi.sol\":36002:36009  _rTotal */\n      sload(0x0a)\n        /* \"ClubAi.sol\":36011:36018  _tTotal */\n      sload(0x09)\n        /* \"ClubAi.sol\":35994:36019  return (_rTotal, _tTotal) */\n      swap5\n      pop\n      swap5\n      pop\n      pop\n      pop\n      pop\n      jump(tag_434)\n        /* \"ClubAi.sol\":35922:36019  if (_rOwned[_excluded[i]] > rSupply || _tOwned[_excluded[i]] > tSupply) return (_rTotal, _tTotal) */\n    tag_443:\n        /* \"ClubAi.sol\":36044:36078  rSupply.sub(_rOwned[_excluded[i]]) */\n      tag_444\n        /* \"ClubAi.sol\":36056:36063  _rOwned */\n      0x03\n        /* \"ClubAi.sol\":36056:36077  _rOwned[_excluded[i]] */\n      0x00\n        /* \"ClubAi.sol\":36064:36073  _excluded */\n      0x08\n        /* \"ClubAi.sol\":36074:36075  i */\n      dup5\n        /* \"ClubAi.sol\":36064:36076  _excluded[i] */\n      dup2\n      sload\n      dup2\n      lt\n      tag_445\n      jumpi\n      invalid\n    tag_445:\n      swap1\n      0x00\n      mstore\n      keccak256(0x00, 0x20)\n      add\n      0x00\n      swap1\n      sload\n      swap1\n      0x0100\n      exp\n      swap1\n      div\n      0xffffffffffffffffffffffffffffffffffffffff\n      and\n        /* \"ClubAi.sol\":36056:36077  _rOwned[_excluded[i]] */\n      0xffffffffffffffffffffffffffffffffffffffff\n      and\n      0xffffffffffffffffffffffffffffffffffffffff\n      and\n      dup2\n      mstore\n      0x20\n      add\n      swap1\n      dup2\n      mstore\n      0x20\n      add\n      0x00\n      keccak256\n      sload\n        /* \"ClubAi.sol\":36044:36051  rSupply */\n      dup5\n        /* \"ClubAi.sol\":36044:36055  rSupply.sub */\n      tag_266\n      swap1\n        /* \"ClubAi.sol\":36044:36078  rSupply.sub(_rOwned[_excluded[i]]) */\n      swap2\n      swap1\n      0xffffffff\n      and\n      jump\t// in\n    tag_444:\n        /* \"ClubAi.sol\":36034:36078  rSupply = rSupply.sub(_rOwned[_excluded[i]]) */\n      swap3\n      pop\n        /* \"ClubAi.sol\":36103:36137  tSupply.sub(_tOwned[_excluded[i]]) */\n      tag_447\n        /* \"ClubAi.sol\":36115:36122  _tOwned */\n      0x04\n        /* \"ClubAi.sol\":36115:36136  _tOwned[_excluded[i]] */\n      0x00\n        /* \"ClubAi.sol\":36123:36132  _excluded */\n      0x08\n        /* \"ClubAi.sol\":36133:36134  i */\n      dup5\n        /* \"ClubAi.sol\":36123:36135  _excluded[i] */\n      dup2\n      sload\n      dup2\n      lt\n      tag_448\n      jumpi\n      invalid\n    tag_448:\n      swap1\n      0x00\n      mstore\n      keccak256(0x00, 0x20)\n      add\n      0x00\n      swap1\n      sload\n      swap1\n      0x0100\n      exp\n      swap1\n      div\n      0xffffffffffffffffffffffffffffffffffffffff\n      and\n        /* \"ClubAi.sol\":36115:36136  _tOwned[_excluded[i]] */\n      0xffffffffffffffffffffffffffffffffffffffff\n      and\n      0xffffffffffffffffffffffffffffffffffffffff\n      and\n      dup2\n      mstore\n      0x20\n      add\n      swap1\n      dup2\n      mstore\n      0x20\n      add\n      0x00\n      keccak256\n      sload\n        /* \"ClubAi.sol\":36103:36110  tSupply */\n      dup4\n        /* \"ClubAi.sol\":36103:36114  tSupply.sub */\n      tag_266\n      swap1\n        /* \"ClubAi.sol\":36103:36137  tSupply.sub(_tOwned[_excluded[i]]) */\n      swap2\n      swap1\n      0xffffffff\n      and\n      jump\t// in\n    tag_447:\n        /* \"ClubAi.sol\":36093:36137  tSupply = tSupply.sub(_tOwned[_excluded[i]]) */\n      swap2\n      pop\n        /* \"ClubAi.sol\":35902:35905  i++ */\n      dup1\n      dup1\n      0x01\n      add\n      swap2\n      pop\n      pop\n        /* \"ClubAi.sol\":35860:36149  for (uint256 i = 0; i < _excluded.length; i++) {\r... */\n      jump(tag_435)\n    tag_436:\n      pop\n        /* \"ClubAi.sol\":36173:36193  _rTotal.div(_tTotal) */\n      tag_450\n        /* \"ClubAi.sol\":36185:36192  _tTotal */\n      sload(0x09)\n        /* \"ClubAi.sol\":36173:36180  _rTotal */\n      sload(0x0a)\n        /* \"ClubAi.sol\":36173:36184  _rTotal.div */\n      tag_235\n      swap1\n        /* \"ClubAi.sol\":36173:36193  _rTotal.div(_tTotal) */\n      swap2\n      swap1\n      0xffffffff\n      and\n      jump\t// in\n    tag_450:\n        /* \"ClubAi.sol\":36163:36170  rSupply */\n      dup3\n        /* \"ClubAi.sol\":36163:36193  rSupply < _rTotal.div(_tTotal) */\n      lt\n        /* \"ClubAi.sol\":36159:36220  if (rSupply < _rTotal.div(_tTotal)) return (_rTotal, _tTotal) */\n      iszero\n      tag_451\n      jumpi\n        /* \"ClubAi.sol\":36203:36210  _rTotal */\n      sload(0x0a)\n        /* \"ClubAi.sol\":36212:36219  _tTotal */\n      sload(0x09)\n        /* \"ClubAi.sol\":36195:36220  return (_rTotal, _tTotal) */\n      swap4\n      pop\n      swap4\n      pop\n      pop\n      pop\n      jump(tag_434)\n        /* \"ClubAi.sol\":36159:36220  if (rSupply < _rTotal.div(_tTotal)) return (_rTotal, _tTotal) */\n    tag_451:\n        /* \"ClubAi.sol\":36239:36246  rSupply */\n      dup2\n        /* \"ClubAi.sol\":36248:36255  tSupply */\n      dup2\n        /* \"ClubAi.sol\":36231:36256  return (rSupply, tSupply) */\n      swap4\n      pop\n      swap4\n      pop\n      pop\n      pop\n        /* \"ClubAi.sol\":35703:36264  function _getCurrentSupply() private view returns(uint256, uint256) {\r... */\n    tag_434:\n      swap1\n      swap2\n      jump\t// out\n        /* \"ClubAi.sol\":6479:6757  function div(uint256 a, uint256 b, string memory errorMessage) internal pure returns (uint256) {\r... */\n    tag_386:\n        /* \"ClubAi.sol\":6565:6572  uint256 */\n      0x00\n        /* \"ClubAi.sol\":6597:6598  0 */\n      dup1\n        /* \"ClubAi.sol\":6593:6594  b */\n      dup4\n        /* \"ClubAi.sol\":6593:6598  b > 0 */\n      gt\n        /* \"ClubAi.sol\":6600:6612  errorMessage */\n      dup3\n        /* \"ClubAi.sol\":6585:6613  require(b > 0, errorMessage) */\n      swap1\n      tag_453\n      jumpi\n      mload(0x40)\n      0x08c379a000000000000000000000000000000000000000000000000000000000\n      dup2\n      mstore\n      0x04\n      add\n      dup1\n      dup1\n      0x20\n      add\n      dup3\n      dup2\n      sub\n      dup3\n      mstore\n      dup4\n      dup2\n      dup2\n      mload\n      dup2\n      mstore\n      0x20\n      add\n      swap2\n      pop\n      dup1\n      mload\n      swap1\n      0x20\n      add\n      swap1\n      dup1\n      dup4\n      dup4\n      0x00\n    tag_454:\n      dup4\n      dup2\n      lt\n      iszero\n      tag_456\n      jumpi\n      dup1\n      dup3\n      add\n      mload\n      dup2\n      dup5\n      add\n      mstore\n      0x20\n      dup2\n      add\n      swap1\n      pop\n      jump(tag_454)\n    tag_456:\n      pop\n      pop\n      pop\n      pop\n      swap1\n      pop\n      swap1\n      dup2\n      add\n      swap1\n      0x1f\n      and\n      dup1\n      iszero\n      tag_457\n      jumpi\n      dup1\n      dup3\n      sub\n      dup1\n      mload\n      0x01\n      dup4\n      0x20\n      sub\n      0x0100\n      exp\n      sub\n      not\n      and\n      dup2\n      mstore\n      0x20\n      add\n      swap2\n      pop\n    tag_457:\n      pop\n      swap3\n      pop\n      pop\n      pop\n      mload(0x40)\n      dup1\n      swap2\n      sub\n      swap1\n      revert\n    tag_453:\n      pop\n        /* \"ClubAi.sol\":6624:6633  uint256 c */\n      0x00\n        /* \"ClubAi.sol\":6640:6641  b */\n      dup4\n        /* \"ClubAi.sol\":6636:6637  a */\n      dup6\n        /* \"ClubAi.sol\":6636:6641  a / b */\n      dup2\n      tag_458\n      jumpi\n      invalid\n    tag_458:\n      div\n        /* \"ClubAi.sol\":6624:6641  uint256 c = a / b */\n      swap1\n      pop\n        /* \"ClubAi.sol\":6748:6749  c */\n      dup1\n        /* \"ClubAi.sol\":6741:6749  return c */\n      swap2\n      pop\n      pop\n        /* \"ClubAi.sol\":6479:6757  function div(uint256 a, uint256 b, string memory errorMessage) internal pure returns (uint256) {\r... */\n      swap4\n      swap3\n      pop\n      pop\n      pop\n      jump\t// out\n        /* \"ClubAi.sol\":34757:35087  function _getTValues(uint256 tAmount) private view returns (uint256, uint256, uint256) {\r... */\n    tag_391:\n        /* \"ClubAi.sol\":34817:34824  uint256 */\n      0x00\n        /* \"ClubAi.sol\":34826:34833  uint256 */\n      dup1\n        /* \"ClubAi.sol\":34835:34842  uint256 */\n      0x00\n        /* \"ClubAi.sol\":34855:34867  uint256 tFee */\n      dup1\n        /* \"ClubAi.sol\":34870:34894  calculateTaxFee(tAmount) */\n      tag_460\n        /* \"ClubAi.sol\":34886:34893  tAmount */\n      dup6\n        /* \"ClubAi.sol\":34870:34885  calculateTaxFee */\n      tag_461\n        /* \"ClubAi.sol\":34870:34894  calculateTaxFee(tAmount) */\n      jump\t// in\n    tag_460:\n        /* \"ClubAi.sol\":34855:34894  uint256 tFee = calculateTaxFee(tAmount) */\n      swap1\n      pop\n        /* \"ClubAi.sol\":34905:34923  uint256 tLiquidity */\n      0x00\n        /* \"ClubAi.sol\":34926:34956  calculateLiquidityFee(tAmount) */\n      tag_462\n        /* \"ClubAi.sol\":34948:34955  tAmount */\n      dup7\n        /* \"ClubAi.sol\":34926:34947  calculateLiquidityFee */\n      tag_463\n        /* \"ClubAi.sol\":34926:34956  calculateLiquidityFee(tAmount) */\n      jump\t// in\n    tag_462:\n        /* \"ClubAi.sol\":34905:34956  uint256 tLiquidity = calculateLiquidityFee(tAmount) */\n      swap1\n      pop\n        /* \"ClubAi.sol\":34967:34990  uint256 tTransferAmount */\n      0x00\n        /* \"ClubAi.sol\":34993:35026  tAmount.sub(tFee).sub(tLiquidity) */\n      tag_464\n        /* \"ClubAi.sol\":35015:35025  tLiquidity */\n      dup3\n        /* \"ClubAi.sol\":34993:35010  tAmount.sub(tFee) */\n      tag_465\n        /* \"ClubAi.sol\":35005:35009  tFee */\n      dup6\n        /* \"ClubAi.sol\":34993:35000  tAmount */\n      dup11\n        /* \"ClubAi.sol\":34993:35004  tAmount.sub */\n      tag_266\n      swap1\n        /* \"ClubAi.sol\":34993:35010  tAmount.sub(tFee) */\n      swap2\n      swap1\n      0xffffffff\n      and\n      jump\t// in\n    tag_465:\n        /* \"ClubAi.sol\":34993:35014  tAmount.sub(tFee).sub */\n      tag_266\n      swap1\n        /* \"ClubAi.sol\":34993:35026  tAmount.sub(tFee).sub(tLiquidity) */\n      swap2\n      swap1\n      0xffffffff\n      and\n      jump\t// in\n    tag_464:\n        /* \"ClubAi.sol\":34967:35026  uint256 tTransferAmount = tAmount.sub(tFee).sub(tLiquidity) */\n      swap1\n      pop\n        /* \"ClubAi.sol\":35045:35060  tTransferAmount */\n      dup1\n        /* \"ClubAi.sol\":35062:35066  tFee */\n      dup4\n        /* \"ClubAi.sol\":35068:35078  tLiquidity */\n      dup4\n        /* \"ClubAi.sol\":35037:35079  return (tTransferAmount, tFee, tLiquidity) */\n      swap6\n      pop\n      swap6\n      pop\n      swap6\n      pop\n      pop\n      pop\n      pop\n        /* \"ClubAi.sol\":34757:35087  function _getTValues(uint256 tAmount) private view returns (uint256, uint256, uint256) {\r... */\n      swap2\n      swap4\n      swap1\n      swap3\n      pop\n      jump\t// out\n        /* \"ClubAi.sol\":35095:35524  function _getRValues(uint256 tAmount, uint256 tFee, uint256 tLiquidity, uint256 currentRate) private pure returns (uint256, uint256, uint256) {\r... */\n    tag_394:\n        /* \"ClubAi.sol\":35210:35217  uint256 */\n      0x00\n        /* \"ClubAi.sol\":35219:35226  uint256 */\n      dup1\n        /* \"ClubAi.sol\":35228:35235  uint256 */\n      0x00\n        /* \"ClubAi.sol\":35248:35263  uint256 rAmount */\n      dup1\n        /* \"ClubAi.sol\":35266:35290  tAmount.mul(currentRate) */\n      tag_467\n        /* \"ClubAi.sol\":35278:35289  currentRate */\n      dup6\n        /* \"ClubAi.sol\":35266:35273  tAmount */\n      dup10\n        /* \"ClubAi.sol\":35266:35277  tAmount.mul */\n      tag_468\n      swap1\n        /* \"ClubAi.sol\":35266:35290  tAmount.mul(currentRate) */\n      swap2\n      swap1\n      0xffffffff\n      and\n      jump\t// in\n    tag_467:\n        /* \"ClubAi.sol\":35248:35290  uint256 rAmount = tAmount.mul(currentRate) */\n      swap1\n      pop\n        /* \"ClubAi.sol\":35301:35313  uint256 rFee */\n      0x00\n        /* \"ClubAi.sol\":35316:35337  tFee.mul(currentRate) */\n      tag_469\n        /* \"ClubAi.sol\":35325:35336  currentRate */\n      dup7\n        /* \"ClubAi.sol\":35316:35320  tFee */\n      dup10\n        /* \"ClubAi.sol\":35316:35324  tFee.mul */\n      tag_468\n      swap1\n        /* \"ClubAi.sol\":35316:35337  tFee.mul(currentRate) */\n      swap2\n      swap1\n      0xffffffff\n      and\n      jump\t// in\n    tag_469:\n        /* \"ClubAi.sol\":35301:35337  uint256 rFee = tFee.mul(currentRate) */\n      swap1\n      pop\n        /* \"ClubAi.sol\":35348:35366  uint256 rLiquidity */\n      0x00\n        /* \"ClubAi.sol\":35369:35396  tLiquidity.mul(currentRate) */\n      tag_470\n        /* \"ClubAi.sol\":35384:35395  currentRate */\n      dup8\n        /* \"ClubAi.sol\":35369:35379  tLiquidity */\n      dup10\n        /* \"ClubAi.sol\":35369:35383  tLiquidity.mul */\n      tag_468\n      swap1\n        /* \"ClubAi.sol\":35369:35396  tLiquidity.mul(currentRate) */\n      swap2\n      swap1\n      0xffffffff\n      and\n      jump\t// in\n    tag_470:\n        /* \"ClubAi.sol\":35348:35396  uint256 rLiquidity = tLiquidity.mul(currentRate) */\n      swap1\n      pop\n        /* \"ClubAi.sol\":35407:35430  uint256 rTransferAmount */\n      0x00\n        /* \"ClubAi.sol\":35433:35466  rAmount.sub(rFee).sub(rLiquidity) */\n      tag_471\n        /* \"ClubAi.sol\":35455:35465  rLiquidity */\n      dup3\n        /* \"ClubAi.sol\":35433:35450  rAmount.sub(rFee) */\n      tag_472\n        /* \"ClubAi.sol\":35445:35449  rFee */\n      dup6\n        /* \"ClubAi.sol\":35433:35440  rAmount */\n      dup8\n        /* \"ClubAi.sol\":35433:35444  rAmount.sub */\n      tag_266\n      swap1\n        /* \"ClubAi.sol\":35433:35450  rAmount.sub(rFee) */\n      swap2\n      swap1\n      0xffffffff\n      and\n      jump\t// in\n    tag_472:\n        /* \"ClubAi.sol\":35433:35454  rAmount.sub(rFee).sub */\n      tag_266\n      swap1\n        /* \"ClubAi.sol\":35433:35466  rAmount.sub(rFee).sub(rLiquidity) */\n      swap2\n      swap1\n      0xffffffff\n      and\n      jump\t// in\n    tag_471:\n        /* \"ClubAi.sol\":35407:35466  uint256 rTransferAmount = rAmount.sub(rFee).sub(rLiquidity) */\n      swap1\n      pop\n        /* \"ClubAi.sol\":35485:35492  rAmount */\n      dup4\n        /* \"ClubAi.sol\":35494:35509  rTransferAmount */\n      dup2\n        /* \"ClubAi.sol\":35511:35515  rFee */\n      dup5\n        /* \"ClubAi.sol\":35477:35516  return (rAmount, rTransferAmount, rFee) */\n      swap7\n      pop\n      swap7\n      pop\n      swap7\n      pop\n      pop\n      pop\n      pop\n      pop\n        /* \"ClubAi.sol\":35095:35524  function _getRValues(uint256 tAmount, uint256 tFee, uint256 tLiquidity, uint256 currentRate) private pure returns (uint256, uint256, uint256) {\r... */\n      swap5\n      pop\n      swap5\n      pop\n      swap5\n      swap2\n      pop\n      pop\n      jump\t// out\n        /* \"ClubAi.sol\":40800:41389  function swapTokensForEth(uint256 tokenAmount) private {\r... */\n    tag_402:\n        /* \"ClubAi.sol\":40926:40947  address[] memory path */\n      0x60\n        /* \"ClubAi.sol\":40964:40965  2 */\n      0x02\n        /* \"ClubAi.sol\":40950:40966  new address[](2) */\n      0xffffffffffffffff\n      dup2\n      gt\n      dup1\n      iszero\n      tag_474\n      jumpi\n      0x00\n      dup1\n      revert\n    tag_474:\n      pop\n      mload(0x40)\n      swap1\n      dup1\n      dup3\n      mstore\n      dup1\n      0x20\n      mul\n      0x20\n      add\n      dup3\n      add\n      0x40\n      mstore\n      dup1\n      iszero\n      tag_475\n      jumpi\n      dup2\n      0x20\n      add\n      0x20\n      dup3\n      mul\n      dup1\n      calldatasize\n      dup4\n      calldatacopy\n      dup1\n      dup3\n      add\n      swap2\n      pop\n      pop\n      swap1\n      pop\n    tag_475:\n      pop\n        /* \"ClubAi.sol\":40926:40966  address[] memory path = new address[](2) */\n      swap1\n      pop\n        /* \"ClubAi.sol\":40995:40999  this */\n      address\n        /* \"ClubAi.sol\":40977:40981  path */\n      dup2\n        /* \"ClubAi.sol\":40982:40983  0 */\n      0x00\n        /* \"ClubAi.sol\":40977:40984  path[0] */\n      dup2\n      mload\n      dup2\n      lt\n      tag_476\n      jumpi\n      invalid\n    tag_476:\n      0x20\n      mul\n      0x20\n      add\n      add\n        /* \"ClubAi.sol\":40977:41000  path[0] = address(this) */\n      swap1\n      0xffffffffffffffffffffffffffffffffffffffff\n      and\n      swap1\n      dup2\n      0xffffffffffffffffffffffffffffffffffffffff\n      and\n      dup2\n      mstore\n      pop\n      pop\n        /* \"ClubAi.sol\":41021:41036  uniswapV2Router */\n      immutable(\"0x373ab5f6f5686eaf15420a778a209383e0ee0196a782fa3fd3ec96f326a92e6e\")\n        /* \"ClubAi.sol\":41021:41041  uniswapV2Router.WETH */\n      0xffffffffffffffffffffffffffffffffffffffff\n      and\n      0xad5c4648\n        /* \"ClubAi.sol\":41021:41043  uniswapV2Router.WETH() */\n      mload(0x40)\n      dup2\n      0xffffffff\n      and\n      0xe0\n      shl\n      dup2\n      mstore\n      0x04\n      add\n      0x20\n      mload(0x40)\n      dup1\n      dup4\n      sub\n      dup2\n      dup7\n      dup1\n      extcodesize\n      iszero\n      dup1\n      iszero\n      tag_477\n      jumpi\n      0x00\n      dup1\n      revert\n    tag_477:\n      pop\n      gas\n      staticcall\n      iszero\n      dup1\n      iszero\n      tag_479\n      jumpi\n      returndatasize\n      0x00\n      dup1\n      returndatacopy\n      revert(0x00, returndatasize)\n    tag_479:\n      pop\n      pop\n      pop\n      pop\n      mload(0x40)\n      returndatasize\n      0x20\n      dup2\n      lt\n      iszero\n      tag_480\n      jumpi\n      0x00\n      dup1\n      revert\n    tag_480:\n      dup2\n      add\n      swap1\n      dup1\n      dup1\n      mload\n      swap1\n      0x20\n      add\n      swap1\n      swap3\n      swap2\n      swap1\n      pop\n      pop\n      pop\n        /* \"ClubAi.sol\":41011:41015  path */\n      dup2\n        /* \"ClubAi.sol\":41016:41017  1 */\n      0x01\n        /* \"ClubAi.sol\":41011:41018  path[1] */\n      dup2\n      mload\n      dup2\n      lt\n      tag_481\n      jumpi\n      invalid\n    tag_481:\n      0x20\n      mul\n      0x20\n      add\n      add\n        /* \"ClubAi.sol\":41011:41043  path[1] = uniswapV2Router.WETH() */\n      swap1\n      0xffffffffffffffffffffffffffffffffffffffff\n      and\n      swap1\n      dup2\n      0xffffffffffffffffffffffffffffffffffffffff\n      and\n      dup2\n      mstore\n      pop\n      pop\n        /* \"ClubAi.sol\":41056:41118  _approve(address(this), address(uniswapV2Router), tokenAmount) */\n      tag_482\n        /* \"ClubAi.sol\":41073:41077  this */\n      address\n        /* \"ClubAi.sol\":41088:41103  uniswapV2Router */\n      immutable(\"0x373ab5f6f5686eaf15420a778a209383e0ee0196a782fa3fd3ec96f326a92e6e\")\n        /* \"ClubAi.sol\":41106:41117  tokenAmount */\n      dup5\n        /* \"ClubAi.sol\":41056:41064  _approve */\n      tag_219\n        /* \"ClubAi.sol\":41056:41118  _approve(address(this), address(uniswapV2Router), tokenAmount) */\n      jump\t// in\n    tag_482:\n        /* \"ClubAi.sol\":41157:41172  uniswapV2Router */\n      immutable(\"0x373ab5f6f5686eaf15420a778a209383e0ee0196a782fa3fd3ec96f326a92e6e\")\n        /* \"ClubAi.sol\":41157:41223  uniswapV2Router.swapExactTokensForETHSupportingFeeOnTransferTokens */\n      0xffffffffffffffffffffffffffffffffffffffff\n      and\n      0x791ac947\n        /* \"ClubAi.sol\":41238:41249  tokenAmount */\n      dup4\n        /* \"ClubAi.sol\":41264:41265  0 */\n      0x00\n        /* \"ClubAi.sol\":41308:41312  path */\n      dup5\n        /* \"ClubAi.sol\":41335:41339  this */\n      address\n        /* \"ClubAi.sol\":41355:41370  block.timestamp */\n      timestamp\n        /* \"ClubAi.sol\":41157:41381  uniswapV2Router.swapExactTokensForETHSupportingFeeOnTransferTokens(\r... */\n      mload(0x40)\n      dup7\n      0xffffffff\n      and\n      0xe0\n      shl\n      dup2\n      mstore\n      0x04\n      add\n      dup1\n      dup7\n      dup2\n      mstore\n      0x20\n      add\n      dup6\n      dup2\n      mstore\n      0x20\n      add\n      dup1\n      0x20\n      add\n      dup5\n      0xffffffffffffffffffffffffffffffffffffffff\n      and\n      dup2\n      mstore\n      0x20\n      add\n      dup4\n      dup2\n      mstore\n      0x20\n      add\n      dup3\n      dup2\n      sub\n      dup3\n      mstore\n      dup6\n      dup2\n      dup2\n      mload\n      dup2\n      mstore\n      0x20\n      add\n      swap2\n      pop\n      dup1\n      mload\n      swap1\n      0x20\n      add\n      swap1\n      0x20\n      mul\n      dup1\n      dup4\n      dup4\n      0x00\n    tag_483:\n      dup4\n      dup2\n      lt\n      iszero\n      tag_485\n      jumpi\n      dup1\n      dup3\n      add\n      mload\n      dup2\n      dup5\n      add\n      mstore\n      0x20\n      dup2\n      add\n      swap1\n      pop\n      jump(tag_483)\n    tag_485:\n      pop\n      pop\n      pop\n      pop\n      swap1\n      pop\n      add\n      swap7\n      pop\n      pop\n      pop\n      pop\n      pop\n      pop\n      pop\n      0x00\n      mload(0x40)\n      dup1\n      dup4\n      sub\n      dup2\n      0x00\n      dup8\n      dup1\n      extcodesize\n      iszero\n      dup1\n      iszero\n      tag_486\n      jumpi\n      0x00\n      dup1\n      revert\n    tag_486:\n      pop\n      gas\n      call\n      iszero\n      dup1\n      iszero\n      tag_488\n      jumpi\n      returndatasize\n      0x00\n      dup1\n      returndatacopy\n      revert(0x00, returndatasize)\n    tag_488:\n      pop\n      pop\n      pop\n      pop\n        /* \"ClubAi.sol\":40800:41389  function swapTokensForEth(uint256 tokenAmount) private {\r... */\n      pop\n      pop\n      jump\t// out\n        /* \"ClubAi.sol\":41397:41910  function addLiquidity(uint256 tokenAmount, uint256 ethAmount) private {\r... */\n    tag_405:\n        /* \"ClubAi.sol\":41545:41607  _approve(address(this), address(uniswapV2Router), tokenAmount) */\n      tag_490\n        /* \"ClubAi.sol\":41562:41566  this */\n      address\n        /* \"ClubAi.sol\":41577:41592  uniswapV2Router */\n      immutable(\"0x373ab5f6f5686eaf15420a778a209383e0ee0196a782fa3fd3ec96f326a92e6e\")\n        /* \"ClubAi.sol\":41595:41606  tokenAmount */\n      dup5\n        /* \"ClubAi.sol\":41545:41553  _approve */\n      tag_219\n        /* \"ClubAi.sol\":41545:41607  _approve(address(this), address(uniswapV2Router), tokenAmount) */\n      jump\t// in\n    tag_490:\n        /* \"ClubAi.sol\":41650:41665  uniswapV2Router */\n      immutable(\"0x373ab5f6f5686eaf15420a778a209383e0ee0196a782fa3fd3ec96f326a92e6e\")\n        /* \"ClubAi.sol\":41650:41681  uniswapV2Router.addLiquidityETH */\n      0xffffffffffffffffffffffffffffffffffffffff\n      and\n      0xf305d719\n        /* \"ClubAi.sol\":41689:41698  ethAmount */\n      dup3\n        /* \"ClubAi.sol\":41722:41726  this */\n      address\n        /* \"ClubAi.sol\":41742:41753  tokenAmount */\n      dup6\n        /* \"ClubAi.sol\":41768:41769  0 */\n      0x00\n        /* \"ClubAi.sol\":41811:41812  0 */\n      dup1\n        /* \"ClubAi.sol\":41854:41861  owner() */\n      tag_491\n        /* \"ClubAi.sol\":41854:41859  owner */\n      tag_147\n        /* \"ClubAi.sol\":41854:41861  owner() */\n      jump\t// in\n    tag_491:\n        /* \"ClubAi.sol\":41876:41891  block.timestamp */\n      timestamp\n        /* \"ClubAi.sol\":41650:41902  uniswapV2Router.addLiquidityETH{value: ethAmount}(\r... */\n      mload(0x40)\n      dup9\n      0xffffffff\n      and\n      0xe0\n      shl\n      dup2\n      mstore\n      0x04\n      add\n      dup1\n      dup8\n      0xffffffffffffffffffffffffffffffffffffffff\n      and\n      dup2\n      mstore\n      0x20\n      add\n      dup7\n      dup2\n      mstore\n      0x20\n      add\n      dup6\n      dup2\n      mstore\n      0x20\n      add\n      dup5\n      dup2\n      mstore\n      0x20\n      add\n      dup4\n      0xffffffffffffffffffffffffffffffffffffffff\n      and\n      dup2\n      mstore\n      0x20\n      add\n      dup3\n      dup2\n      mstore\n      0x20\n      add\n      swap7\n      pop\n      pop\n      pop\n      pop\n      pop\n      pop\n      pop\n      0x60\n      mload(0x40)\n      dup1\n      dup4\n      sub\n      dup2\n      dup6\n      dup9\n      dup1\n      extcodesize\n      iszero\n      dup1\n      iszero\n      tag_492\n      jumpi\n      0x00\n      dup1\n      revert\n    tag_492:\n      pop\n      gas\n      call\n      iszero\n      dup1\n      iszero\n      tag_494\n      jumpi\n      returndatasize\n      0x00\n      dup1\n      returndatacopy\n      revert(0x00, returndatasize)\n    tag_494:\n      pop\n      pop\n      pop\n      pop\n      pop\n      mload(0x40)\n      returndatasize\n      0x60\n      dup2\n      lt\n      iszero\n      tag_495\n      jumpi\n      0x00\n      dup1\n      revert\n    tag_495:\n      dup2\n      add\n      swap1\n      dup1\n      dup1\n      mload\n      swap1\n      0x20\n      add\n      swap1\n      swap3\n      swap2\n      swap1\n      dup1\n      mload\n      swap1\n      0x20\n      add\n      swap1\n      swap3\n      swap2\n      swap1\n      dup1\n      mload\n      swap1\n      0x20\n      add\n      swap1\n      swap3\n      swap2\n      swap1\n      pop\n      pop\n      pop\n      pop\n      pop\n      pop\n        /* \"ClubAi.sol\":41397:41910  function addLiquidity(uint256 tokenAmount, uint256 ethAmount) private {\r... */\n      pop\n      pop\n      jump\t// out\n        /* \"ClubAi.sol\":37111:37361  function removeAllFee() private {\r... */\n    tag_409:\n        /* \"ClubAi.sol\":37168:37169  0 */\n      0x00\n        /* \"ClubAi.sol\":37157:37164  _taxFee */\n      sload(0x0f)\n        /* \"ClubAi.sol\":37157:37169  _taxFee == 0 */\n      eq\n        /* \"ClubAi.sol\":37157:37191  _taxFee == 0 && _liquidityFee == 0 */\n      dup1\n      iszero\n      tag_497\n      jumpi\n      pop\n        /* \"ClubAi.sol\":37190:37191  0 */\n      0x00\n        /* \"ClubAi.sol\":37173:37186  _liquidityFee */\n      sload(0x11)\n        /* \"ClubAi.sol\":37173:37191  _liquidityFee == 0 */\n      eq\n        /* \"ClubAi.sol\":37157:37191  _taxFee == 0 && _liquidityFee == 0 */\n    tag_497:\n        /* \"ClubAi.sol\":37154:37200  if(_taxFee == 0 && _liquidityFee == 0) return; */\n      iszero\n      tag_498\n      jumpi\n        /* \"ClubAi.sol\":37193:37200  return; */\n      jump(tag_496)\n        /* \"ClubAi.sol\":37154:37200  if(_taxFee == 0 && _liquidityFee == 0) return; */\n    tag_498:\n        /* \"ClubAi.sol\":37238:37245  _taxFee */\n      sload(0x0f)\n        /* \"ClubAi.sol\":37220:37235  _previousTaxFee */\n      0x10\n        /* \"ClubAi.sol\":37220:37245  _previousTaxFee = _taxFee */\n      dup2\n      swap1\n      sstore\n      pop\n        /* \"ClubAi.sol\":37280:37293  _liquidityFee */\n      sload(0x11)\n        /* \"ClubAi.sol\":37256:37277  _previousLiquidityFee */\n      0x12\n        /* \"ClubAi.sol\":37256:37293  _previousLiquidityFee = _liquidityFee */\n      dup2\n      swap1\n      sstore\n      pop\n        /* \"ClubAi.sol\":37324:37325  0 */\n      0x00\n        /* \"ClubAi.sol\":37314:37321  _taxFee */\n      0x0f\n        /* \"ClubAi.sol\":37314:37325  _taxFee = 0 */\n      dup2\n      swap1\n      sstore\n      pop\n        /* \"ClubAi.sol\":37352:37353  0 */\n      0x00\n        /* \"ClubAi.sol\":37336:37349  _liquidityFee */\n      0x11\n        /* \"ClubAi.sol\":37336:37353  _liquidityFee = 0 */\n      dup2\n      swap1\n      sstore\n      pop\n        /* \"ClubAi.sol\":37111:37361  function removeAllFee() private {\r... */\n    tag_496:\n      jump\t// out\n        /* \"ClubAi.sol\":43937:44503  function _transferFromExcluded(address sender, address recipient, uint256 tAmount) private {\r... */\n    tag_413:\n        /* \"ClubAi.sol\":44040:44055  uint256 rAmount */\n      0x00\n        /* \"ClubAi.sol\":44057:44080  uint256 rTransferAmount */\n      dup1\n        /* \"ClubAi.sol\":44082:44094  uint256 rFee */\n      0x00\n        /* \"ClubAi.sol\":44096:44119  uint256 tTransferAmount */\n      dup1\n        /* \"ClubAi.sol\":44121:44133  uint256 tFee */\n      0x00\n        /* \"ClubAi.sol\":44135:44153  uint256 tLiquidity */\n      dup1\n        /* \"ClubAi.sol\":44157:44176  _getValues(tAmount) */\n      tag_500\n        /* \"ClubAi.sol\":44168:44175  tAmount */\n      dup8\n        /* \"ClubAi.sol\":44157:44167  _getValues */\n      tag_264\n        /* \"ClubAi.sol\":44157:44176  _getValues(tAmount) */\n      jump\t// in\n    tag_500:\n        /* \"ClubAi.sol\":44039:44176  (uint256 rAmount, uint256 rTransferAmount, uint256 rFee, uint256 tTransferAmount, uint256 tFee, uint256 tLiquidity) = _getValues(tAmount) */\n      swap6\n      pop\n      swap6\n      pop\n      swap6\n      pop\n      swap6\n      pop\n      swap6\n      pop\n      swap6\n      pop\n        /* \"ClubAi.sol\":44205:44233  _tOwned[sender].sub(tAmount) */\n      tag_501\n        /* \"ClubAi.sol\":44225:44232  tAmount */\n      dup8\n        /* \"ClubAi.sol\":44205:44212  _tOwned */\n      0x04\n        /* \"ClubAi.sol\":44205:44220  _tOwned[sender] */\n      0x00\n        /* \"ClubAi.sol\":44213:44219  sender */\n      dup13\n        /* \"ClubAi.sol\":44205:44220  _tOwned[sender] */\n      0xffffffffffffffffffffffffffffffffffffffff\n      and\n      0xffffffffffffffffffffffffffffffffffffffff\n      and\n      dup2\n      mstore\n      0x20\n      add\n      swap1\n      dup2\n      mstore\n      0x20\n      add\n      0x00\n      keccak256\n      sload\n        /* \"ClubAi.sol\":44205:44224  _tOwned[sender].sub */\n      tag_266\n      swap1\n        /* \"ClubAi.sol\":44205:44233  _tOwned[sender].sub(tAmount) */\n      swap2\n      swap1\n      0xffffffff\n      and\n      jump\t// in\n    tag_501:\n        /* \"ClubAi.sol\":44187:44194  _tOwned */\n      0x04\n        /* \"ClubAi.sol\":44187:44202  _tOwned[sender] */\n      0x00\n        /* \"ClubAi.sol\":44195:44201  sender */\n      dup12\n        /* \"ClubAi.sol\":44187:44202  _tOwned[sender] */\n      0xffffffffffffffffffffffffffffffffffffffff\n      and\n      0xffffffffffffffffffffffffffffffffffffffff\n      and\n      dup2\n      mstore\n      0x20\n      add\n      swap1\n      dup2\n      mstore\n      0x20\n      add\n      0x00\n      keccak256\n        /* \"ClubAi.sol\":44187:44233  _tOwned[sender] = _tOwned[sender].sub(tAmount) */\n      dup2\n      swap1\n      sstore\n      pop\n        /* \"ClubAi.sol\":44262:44290  _rOwned[sender].sub(rAmount) */\n      tag_502\n        /* \"ClubAi.sol\":44282:44289  rAmount */\n      dup7\n        /* \"ClubAi.sol\":44262:44269  _rOwned */\n      0x03\n        /* \"ClubAi.sol\":44262:44277  _rOwned[sender] */\n      0x00\n        /* \"ClubAi.sol\":44270:44276  sender */\n      dup13\n        /* \"ClubAi.sol\":44262:44277  _rOwned[sender] */\n      0xffffffffffffffffffffffffffffffffffffffff\n      and\n      0xffffffffffffffffffffffffffffffffffffffff\n      and\n      dup2\n      mstore\n      0x20\n      add\n      swap1\n      dup2\n      mstore\n      0x20\n      add\n      0x00\n      keccak256\n      sload\n        /* \"ClubAi.sol\":44262:44281  _rOwned[sender].sub */\n      tag_266\n      swap1\n        /* \"ClubAi.sol\":44262:44290  _rOwned[sender].sub(rAmount) */\n      swap2\n      swap1\n      0xffffffff\n      and\n      jump\t// in\n    tag_502:\n        /* \"ClubAi.sol\":44244:44251  _rOwned */\n      0x03\n        /* \"ClubAi.sol\":44244:44259  _rOwned[sender] */\n      0x00\n        /* \"ClubAi.sol\":44252:44258  sender */\n      dup12\n        /* \"ClubAi.sol\":44244:44259  _rOwned[sender] */\n      0xffffffffffffffffffffffffffffffffffffffff\n      and\n      0xffffffffffffffffffffffffffffffffffffffff\n      and\n      dup2\n      mstore\n      0x20\n      add\n      swap1\n      dup2\n      mstore\n      0x20\n      add\n      0x00\n      keccak256\n        /* \"ClubAi.sol\":44244:44290  _rOwned[sender] = _rOwned[sender].sub(rAmount) */\n      dup2\n      swap1\n      sstore\n      pop\n        /* \"ClubAi.sol\":44322:44361  _rOwned[recipient].add(rTransferAmount) */\n      tag_503\n        /* \"ClubAi.sol\":44345:44360  rTransferAmount */\n      dup6\n        /* \"ClubAi.sol\":44322:44329  _rOwned */\n      0x03\n        /* \"ClubAi.sol\":44322:44340  _rOwned[recipient] */\n      0x00\n        /* \"ClubAi.sol\":44330:44339  recipient */\n      dup12\n        /* \"ClubAi.sol\":44322:44340  _rOwned[recipient] */\n      0xffffffffffffffffffffffffffffffffffffffff\n      and\n      0xffffffffffffffffffffffffffffffffffffffff\n      and\n      dup2\n      mstore\n      0x20\n      add\n      swap1\n      dup2\n      mstore\n      0x20\n      add\n      0x00\n      keccak256\n      sload\n        /* \"ClubAi.sol\":44322:44344  _rOwned[recipient].add */\n      tag_259\n      swap1\n        /* \"ClubAi.sol\":44322:44361  _rOwned[recipient].add(rTransferAmount) */\n      swap2\n      swap1\n      0xffffffff\n      and\n      jump\t// in\n    tag_503:\n        /* \"ClubAi.sol\":44301:44308  _rOwned */\n      0x03\n        /* \"ClubAi.sol\":44301:44319  _rOwned[recipient] */\n      0x00\n        /* \"ClubAi.sol\":44309:44318  recipient */\n      dup11\n        /* \"ClubAi.sol\":44301:44319  _rOwned[recipient] */\n      0xffffffffffffffffffffffffffffffffffffffff\n      and\n      0xffffffffffffffffffffffffffffffffffffffff\n      and\n      dup2\n      mstore\n      0x20\n      add\n      swap1\n      dup2\n      mstore\n      0x20\n      add\n      0x00\n      keccak256\n        /* \"ClubAi.sol\":44301:44361  _rOwned[recipient] = _rOwned[recipient].add(rTransferAmount) */\n      dup2\n      swap1\n      sstore\n      pop\n        /* \"ClubAi.sol\":44375:44401  _takeLiquidity(tLiquidity) */\n      tag_504\n        /* \"ClubAi.sol\":44390:44400  tLiquidity */\n      dup2\n        /* \"ClubAi.sol\":44375:44389  _takeLiquidity */\n      tag_505\n        /* \"ClubAi.sol\":44375:44401  _takeLiquidity(tLiquidity) */\n      jump\t// in\n    tag_504:\n        /* \"ClubAi.sol\":44412:44435  _reflectFee(rFee, tFee) */\n      tag_506\n        /* \"ClubAi.sol\":44424:44428  rFee */\n      dup5\n        /* \"ClubAi.sol\":44430:44434  tFee */\n      dup4\n        /* \"ClubAi.sol\":44412:44423  _reflectFee */\n      tag_507\n        /* \"ClubAi.sol\":44412:44435  _reflectFee(rFee, tFee) */\n      jump\t// in\n    tag_506:\n        /* \"ClubAi.sol\":44468:44477  recipient */\n      dup8\n        /* \"ClubAi.sol\":44451:44495  Transfer(sender, recipient, tTransferAmount) */\n      0xffffffffffffffffffffffffffffffffffffffff\n      and\n        /* \"ClubAi.sol\":44460:44466  sender */\n      dup10\n        /* \"ClubAi.sol\":44451:44495  Transfer(sender, recipient, tTransferAmount) */\n      0xffffffffffffffffffffffffffffffffffffffff\n      and\n      0xddf252ad1be2c89b69c2b068fc378daa952ba7f163c4a11628f55a4df523b3ef\n        /* \"ClubAi.sol\":44479:44494  tTransferAmount */\n      dup6\n        /* \"ClubAi.sol\":44451:44495  Transfer(sender, recipient, tTransferAmount) */\n      mload(0x40)\n      dup1\n      dup3\n      dup2\n      mstore\n      0x20\n      add\n      swap2\n      pop\n      pop\n      mload(0x40)\n      dup1\n      swap2\n      sub\n      swap1\n      log3\n        /* \"ClubAi.sol\":43937:44503  function _transferFromExcluded(address sender, address recipient, uint256 tAmount) private {\r... */\n      pop\n      pop\n      pop\n      pop\n      pop\n      pop\n      pop\n      pop\n      pop\n      jump\t// out\n        /* \"ClubAi.sol\":43343:43929  function _transferToExcluded(address sender, address recipient, uint256 tAmount) private {\r... */\n    tag_418:\n        /* \"ClubAi.sol\":43444:43459  uint256 rAmount */\n      0x00\n        /* \"ClubAi.sol\":43461:43484  uint256 rTransferAmount */\n      dup1\n        /* \"ClubAi.sol\":43486:43498  uint256 rFee */\n      0x00\n        /* \"ClubAi.sol\":43500:43523  uint256 tTransferAmount */\n      dup1\n        /* \"ClubAi.sol\":43525:43537  uint256 tFee */\n      0x00\n        /* \"ClubAi.sol\":43539:43557  uint256 tLiquidity */\n      dup1\n        /* \"ClubAi.sol\":43561:43580  _getValues(tAmount) */\n      tag_509\n        /* \"ClubAi.sol\":43572:43579  tAmount */\n      dup8\n        /* \"ClubAi.sol\":43561:43571  _getValues */\n      tag_264\n        /* \"ClubAi.sol\":43561:43580  _getValues(tAmount) */\n      jump\t// in\n    tag_509:\n        /* \"ClubAi.sol\":43443:43580  (uint256 rAmount, uint256 rTransferAmount, uint256 rFee, uint256 tTransferAmount, uint256 tFee, uint256 tLiquidity) = _getValues(tAmount) */\n      swap6\n      pop\n      swap6\n      pop\n      swap6\n      pop\n      swap6\n      pop\n      swap6\n      pop\n      swap6\n      pop\n        /* \"ClubAi.sol\":43609:43637  _rOwned[sender].sub(rAmount) */\n      tag_510\n        /* \"ClubAi.sol\":43629:43636  rAmount */\n      dup7\n        /* \"ClubAi.sol\":43609:43616  _rOwned */\n      0x03\n        /* \"ClubAi.sol\":43609:43624  _rOwned[sender] */\n      0x00\n        /* \"ClubAi.sol\":43617:43623  sender */\n      dup13\n        /* \"ClubAi.sol\":43609:43624  _rOwned[sender] */\n      0xffffffffffffffffffffffffffffffffffffffff\n      and\n      0xffffffffffffffffffffffffffffffffffffffff\n      and\n      dup2\n      mstore\n      0x20\n      add\n      swap1\n      dup2\n      mstore\n      0x20\n      add\n      0x00\n      keccak256\n      sload\n        /* \"ClubAi.sol\":43609:43628  _rOwned[sender].sub */\n      tag_266\n      swap1\n        /* \"ClubAi.sol\":43609:43637  _rOwned[sender].sub(rAmount) */\n      swap2\n      swap1\n      0xffffffff\n      and\n      jump\t// in\n    tag_510:\n        /* \"ClubAi.sol\":43591:43598  _rOwned */\n      0x03\n        /* \"ClubAi.sol\":43591:43606  _rOwned[sender] */\n      0x00\n        /* \"ClubAi.sol\":43599:43605  sender */\n      dup12\n        /* \"ClubAi.sol\":43591:43606  _rOwned[sender] */\n      0xffffffffffffffffffffffffffffffffffffffff\n      and\n      0xffffffffffffffffffffffffffffffffffffffff\n      and\n      dup2\n      mstore\n      0x20\n      add\n      swap1\n      dup2\n      mstore\n      0x20\n      add\n      0x00\n      keccak256\n        /* \"ClubAi.sol\":43591:43637  _rOwned[sender] = _rOwned[sender].sub(rAmount) */\n      dup2\n      swap1\n      sstore\n      pop\n        /* \"ClubAi.sol\":43669:43708  _tOwned[recipient].add(tTransferAmount) */\n      tag_511\n        /* \"ClubAi.sol\":43692:43707  tTransferAmount */\n      dup4\n        /* \"ClubAi.sol\":43669:43676  _tOwned */\n      0x04\n        /* \"ClubAi.sol\":43669:43687  _tOwned[recipient] */\n      0x00\n        /* \"ClubAi.sol\":43677:43686  recipient */\n      dup12\n        /* \"ClubAi.sol\":43669:43687  _tOwned[recipient] */\n      0xffffffffffffffffffffffffffffffffffffffff\n      and\n      0xffffffffffffffffffffffffffffffffffffffff\n      and\n      dup2\n      mstore\n      0x20\n      add\n      swap1\n      dup2\n      mstore\n      0x20\n      add\n      0x00\n      keccak256\n      sload\n        /* \"ClubAi.sol\":43669:43691  _tOwned[recipient].add */\n      tag_259\n      swap1\n        /* \"ClubAi.sol\":43669:43708  _tOwned[recipient].add(tTransferAmount) */\n      swap2\n      swap1\n      0xffffffff\n      and\n      jump\t// in\n    tag_511:\n        /* \"ClubAi.sol\":43648:43655  _tOwned */\n      0x04\n        /* \"ClubAi.sol\":43648:43666  _tOwned[recipient] */\n      0x00\n        /* \"ClubAi.sol\":43656:43665  recipient */\n      dup11\n        /* \"ClubAi.sol\":43648:43666  _tOwned[recipient] */\n      0xffffffffffffffffffffffffffffffffffffffff\n      and\n      0xffffffffffffffffffffffffffffffffffffffff\n      and\n      dup2\n      mstore\n      0x20\n      add\n      swap1\n      dup2\n      mstore\n      0x20\n      add\n      0x00\n      keccak256\n        /* \"ClubAi.sol\":43648:43708  _tOwned[recipient] = _tOwned[recipient].add(tTransferAmount) */\n      dup2\n      swap1\n      sstore\n      pop\n        /* \"ClubAi.sol\":43740:43779  _rOwned[recipient].add(rTransferAmount) */\n      tag_512\n        /* \"ClubAi.sol\":43763:43778  rTransferAmount */\n      dup6\n        /* \"ClubAi.sol\":43740:43747  _rOwned */\n      0x03\n        /* \"ClubAi.sol\":43740:43758  _rOwned[recipient] */\n      0x00\n        /* \"ClubAi.sol\":43748:43757  recipient */\n      dup12\n        /* \"ClubAi.sol\":43740:43758  _rOwned[recipient] */\n      0xffffffffffffffffffffffffffffffffffffffff\n      and\n      0xffffffffffffffffffffffffffffffffffffffff\n      and\n      dup2\n      mstore\n      0x20\n      add\n      swap1\n      dup2\n      mstore\n      0x20\n      add\n      0x00\n      keccak256\n      sload\n        /* \"ClubAi.sol\":43740:43762  _rOwned[recipient].add */\n      tag_259\n      swap1\n        /* \"ClubAi.sol\":43740:43779  _rOwned[recipient].add(rTransferAmount) */\n      swap2\n      swap1\n      0xffffffff\n      and\n      jump\t// in\n    tag_512:\n        /* \"ClubAi.sol\":43719:43726  _rOwned */\n      0x03\n        /* \"ClubAi.sol\":43719:43737  _rOwned[recipient] */\n      0x00\n        /* \"ClubAi.sol\":43727:43736  recipient */\n      dup11\n        /* \"ClubAi.sol\":43719:43737  _rOwned[recipient] */\n      0xffffffffffffffffffffffffffffffffffffffff\n      and\n      0xffffffffffffffffffffffffffffffffffffffff\n      and\n      dup2\n      mstore\n      0x20\n      add\n      swap1\n      dup2\n      mstore\n      0x20\n      add\n      0x00\n      keccak256\n        /* \"ClubAi.sol\":43719:43779  _rOwned[recipient] = _rOwned[recipient].add(rTransferAmount) */\n      dup2\n      swap1\n      sstore\n      pop\n        /* \"ClubAi.sol\":43801:43827  _takeLiquidity(tLiquidity) */\n      tag_513\n        /* \"ClubAi.sol\":43816:43826  tLiquidity */\n      dup2\n        /* \"ClubAi.sol\":43801:43815  _takeLiquidity */\n      tag_505\n        /* \"ClubAi.sol\":43801:43827  _takeLiquidity(tLiquidity) */\n      jump\t// in\n    tag_513:\n        /* \"ClubAi.sol\":43838:43861  _reflectFee(rFee, tFee) */\n      tag_514\n        /* \"ClubAi.sol\":43850:43854  rFee */\n      dup5\n        /* \"ClubAi.sol\":43856:43860  tFee */\n      dup4\n        /* \"ClubAi.sol\":43838:43849  _reflectFee */\n      tag_507\n        /* \"ClubAi.sol\":43838:43861  _reflectFee(rFee, tFee) */\n      jump\t// in\n    tag_514:\n        /* \"ClubAi.sol\":43894:43903  recipient */\n      dup8\n        /* \"ClubAi.sol\":43877:43921  Transfer(sender, recipient, tTransferAmount) */\n      0xffffffffffffffffffffffffffffffffffffffff\n      and\n        /* \"ClubAi.sol\":43886:43892  sender */\n      dup10\n        /* \"ClubAi.sol\":43877:43921  Transfer(sender, recipient, tTransferAmount) */\n      0xffffffffffffffffffffffffffffffffffffffff\n      and\n      0xddf252ad1be2c89b69c2b068fc378daa952ba7f163c4a11628f55a4df523b3ef\n        /* \"ClubAi.sol\":43905:43920  tTransferAmount */\n      dup6\n        /* \"ClubAi.sol\":43877:43921  Transfer(sender, recipient, tTransferAmount) */\n      mload(0x40)\n      dup1\n      dup3\n      dup2\n      mstore\n      0x20\n      add\n      swap2\n      pop\n      pop\n      mload(0x40)\n      dup1\n      swap2\n      sub\n      swap1\n      log3\n        /* \"ClubAi.sol\":43343:43929  function _transferToExcluded(address sender, address recipient, uint256 tAmount) private {\r... */\n      pop\n      pop\n      pop\n      pop\n      pop\n      pop\n      pop\n      pop\n      pop\n      jump\t// out\n        /* \"ClubAi.sol\":42833:43335  function _transferStandard(address sender, address recipient, uint256 tAmount) private {\r... */\n    tag_423:\n        /* \"ClubAi.sol\":42932:42947  uint256 rAmount */\n      0x00\n        /* \"ClubAi.sol\":42949:42972  uint256 rTransferAmount */\n      dup1\n        /* \"ClubAi.sol\":42974:42986  uint256 rFee */\n      0x00\n        /* \"ClubAi.sol\":42988:43011  uint256 tTransferAmount */\n      dup1\n        /* \"ClubAi.sol\":43013:43025  uint256 tFee */\n      0x00\n        /* \"ClubAi.sol\":43027:43045  uint256 tLiquidity */\n      dup1\n        /* \"ClubAi.sol\":43049:43068  _getValues(tAmount) */\n      tag_516\n        /* \"ClubAi.sol\":43060:43067  tAmount */\n      dup8\n        /* \"ClubAi.sol\":43049:43059  _getValues */\n      tag_264\n        /* \"ClubAi.sol\":43049:43068  _getValues(tAmount) */\n      jump\t// in\n    tag_516:\n        /* \"ClubAi.sol\":42931:43068  (uint256 rAmount, uint256 rTransferAmount, uint256 rFee, uint256 tTransferAmount, uint256 tFee, uint256 tLiquidity) = _getValues(tAmount) */\n      swap6\n      pop\n      swap6\n      pop\n      swap6\n      pop\n      swap6\n      pop\n      swap6\n      pop\n      swap6\n      pop\n        /* \"ClubAi.sol\":43097:43125  _rOwned[sender].sub(rAmount) */\n      tag_517\n        /* \"ClubAi.sol\":43117:43124  rAmount */\n      dup7\n        /* \"ClubAi.sol\":43097:43104  _rOwned */\n      0x03\n        /* \"ClubAi.sol\":43097:43112  _rOwned[sender] */\n      0x00\n        /* \"ClubAi.sol\":43105:43111  sender */\n      dup13\n        /* \"ClubAi.sol\":43097:43112  _rOwned[sender] */\n      0xffffffffffffffffffffffffffffffffffffffff\n      and\n      0xffffffffffffffffffffffffffffffffffffffff\n      and\n      dup2\n      mstore\n      0x20\n      add\n      swap1\n      dup2\n      mstore\n      0x20\n      add\n      0x00\n      keccak256\n      sload\n        /* \"ClubAi.sol\":43097:43116  _rOwned[sender].sub */\n      tag_266\n      swap1\n        /* \"ClubAi.sol\":43097:43125  _rOwned[sender].sub(rAmount) */\n      swap2\n      swap1\n      0xffffffff\n      and\n      jump\t// in\n    tag_517:\n        /* \"ClubAi.sol\":43079:43086  _rOwned */\n      0x03\n        /* \"ClubAi.sol\":43079:43094  _rOwned[sender] */\n      0x00\n        /* \"ClubAi.sol\":43087:43093  sender */\n      dup12\n        /* \"ClubAi.sol\":43079:43094  _rOwned[sender] */\n      0xffffffffffffffffffffffffffffffffffffffff\n      and\n      0xffffffffffffffffffffffffffffffffffffffff\n      and\n      dup2\n      mstore\n      0x20\n      add\n      swap1\n      dup2\n      mstore\n      0x20\n      add\n      0x00\n      keccak256\n        /* \"ClubAi.sol\":43079:43125  _rOwned[sender] = _rOwned[sender].sub(rAmount) */\n      dup2\n      swap1\n      sstore\n      pop\n        /* \"ClubAi.sol\":43157:43196  _rOwned[recipient].add(rTransferAmount) */\n      tag_518\n        /* \"ClubAi.sol\":43180:43195  rTransferAmount */\n      dup6\n        /* \"ClubAi.sol\":43157:43164  _rOwned */\n      0x03\n        /* \"ClubAi.sol\":43157:43175  _rOwned[recipient] */\n      0x00\n        /* \"ClubAi.sol\":43165:43174  recipient */\n      dup12\n        /* \"ClubAi.sol\":43157:43175  _rOwned[recipient] */\n      0xffffffffffffffffffffffffffffffffffffffff\n      and\n      0xffffffffffffffffffffffffffffffffffffffff\n      and\n      dup2\n      mstore\n      0x20\n      add\n      swap1\n      dup2\n      mstore\n      0x20\n      add\n      0x00\n      keccak256\n      sload\n        /* \"ClubAi.sol\":43157:43179  _rOwned[recipient].add */\n      tag_259\n      swap1\n        /* \"ClubAi.sol\":43157:43196  _rOwned[recipient].add(rTransferAmount) */\n      swap2\n      swap1\n      0xffffffff\n      and\n      jump\t// in\n    tag_518:\n        /* \"ClubAi.sol\":43136:43143  _rOwned */\n      0x03\n        /* \"ClubAi.sol\":43136:43154  _rOwned[recipient] */\n      0x00\n        /* \"ClubAi.sol\":43144:43153  recipient */\n      dup11\n        /* \"ClubAi.sol\":43136:43154  _rOwned[recipient] */\n      0xffffffffffffffffffffffffffffffffffffffff\n      and\n      0xffffffffffffffffffffffffffffffffffffffff\n      and\n      dup2\n      mstore\n      0x20\n      add\n      swap1\n      dup2\n      mstore\n      0x20\n      add\n      0x00\n      keccak256\n        /* \"ClubAi.sol\":43136:43196  _rOwned[recipient] = _rOwned[recipient].add(rTransferAmount) */\n      dup2\n      swap1\n      sstore\n      pop\n        /* \"ClubAi.sol\":43207:43233  _takeLiquidity(tLiquidity) */\n      tag_519\n        /* \"ClubAi.sol\":43222:43232  tLiquidity */\n      dup2\n        /* \"ClubAi.sol\":43207:43221  _takeLiquidity */\n      tag_505\n        /* \"ClubAi.sol\":43207:43233  _takeLiquidity(tLiquidity) */\n      jump\t// in\n    tag_519:\n        /* \"ClubAi.sol\":43244:43267  _reflectFee(rFee, tFee) */\n      tag_520\n        /* \"ClubAi.sol\":43256:43260  rFee */\n      dup5\n        /* \"ClubAi.sol\":43262:43266  tFee */\n      dup4\n        /* \"ClubAi.sol\":43244:43255  _reflectFee */\n      tag_507\n        /* \"ClubAi.sol\":43244:43267  _reflectFee(rFee, tFee) */\n      jump\t// in\n    tag_520:\n        /* \"ClubAi.sol\":43300:43309  recipient */\n      dup8\n        /* \"ClubAi.sol\":43283:43327  Transfer(sender, recipient, tTransferAmount) */\n      0xffffffffffffffffffffffffffffffffffffffff\n      and\n        /* \"ClubAi.sol\":43292:43298  sender */\n      dup10\n        /* \"ClubAi.sol\":43283:43327  Transfer(sender, recipient, tTransferAmount) */\n      0xffffffffffffffffffffffffffffffffffffffff\n      and\n      0xddf252ad1be2c89b69c2b068fc378daa952ba7f163c4a11628f55a4df523b3ef\n        /* \"ClubAi.sol\":43311:43326  tTransferAmount */\n      dup6\n        /* \"ClubAi.sol\":43283:43327  Transfer(sender, recipient, tTransferAmount) */\n      mload(0x40)\n      dup1\n      dup3\n      dup2\n      mstore\n      0x20\n      add\n      swap2\n      pop\n      pop\n      mload(0x40)\n      dup1\n      swap2\n      sub\n      swap1\n      log3\n        /* \"ClubAi.sol\":42833:43335  function _transferStandard(address sender, address recipient, uint256 tAmount) private {\r... */\n      pop\n      pop\n      pop\n      pop\n      pop\n      pop\n      pop\n      pop\n      pop\n      jump\t// out\n        /* \"ClubAi.sol\":32449:33091  function _transferBothExcluded(address sender, address recipient, uint256 tAmount) private {\r... */\n    tag_428:\n        /* \"ClubAi.sol\":32552:32567  uint256 rAmount */\n      0x00\n        /* \"ClubAi.sol\":32569:32592  uint256 rTransferAmount */\n      dup1\n        /* \"ClubAi.sol\":32594:32606  uint256 rFee */\n      0x00\n        /* \"ClubAi.sol\":32608:32631  uint256 tTransferAmount */\n      dup1\n        /* \"ClubAi.sol\":32633:32645  uint256 tFee */\n      0x00\n        /* \"ClubAi.sol\":32647:32665  uint256 tLiquidity */\n      dup1\n        /* \"ClubAi.sol\":32669:32688  _getValues(tAmount) */\n      tag_522\n        /* \"ClubAi.sol\":32680:32687  tAmount */\n      dup8\n        /* \"ClubAi.sol\":32669:32679  _getValues */\n      tag_264\n        /* \"ClubAi.sol\":32669:32688  _getValues(tAmount) */\n      jump\t// in\n    tag_522:\n        /* \"ClubAi.sol\":32551:32688  (uint256 rAmount, uint256 rTransferAmount, uint256 rFee, uint256 tTransferAmount, uint256 tFee, uint256 tLiquidity) = _getValues(tAmount) */\n      swap6\n      pop\n      swap6\n      pop\n      swap6\n      pop\n      swap6\n      pop\n      swap6\n      pop\n      swap6\n      pop\n        /* \"ClubAi.sol\":32717:32745  _tOwned[sender].sub(tAmount) */\n      tag_523\n        /* \"ClubAi.sol\":32737:32744  tAmount */\n      dup8\n        /* \"ClubAi.sol\":32717:32724  _tOwned */\n      0x04\n        /* \"ClubAi.sol\":32717:32732  _tOwned[sender] */\n      0x00\n        /* \"ClubAi.sol\":32725:32731  sender */\n      dup13\n        /* \"ClubAi.sol\":32717:32732  _tOwned[sender] */\n      0xffffffffffffffffffffffffffffffffffffffff\n      and\n      0xffffffffffffffffffffffffffffffffffffffff\n      and\n      dup2\n      mstore\n      0x20\n      add\n      swap1\n      dup2\n      mstore\n      0x20\n      add\n      0x00\n      keccak256\n      sload\n        /* \"ClubAi.sol\":32717:32736  _tOwned[sender].sub */\n      tag_266\n      swap1\n        /* \"ClubAi.sol\":32717:32745  _tOwned[sender].sub(tAmount) */\n      swap2\n      swap1\n      0xffffffff\n      and\n      jump\t// in\n    tag_523:\n        /* \"ClubAi.sol\":32699:32706  _tOwned */\n      0x04\n        /* \"ClubAi.sol\":32699:32714  _tOwned[sender] */\n      0x00\n        /* \"ClubAi.sol\":32707:32713  sender */\n      dup12\n        /* \"ClubAi.sol\":32699:32714  _tOwned[sender] */\n      0xffffffffffffffffffffffffffffffffffffffff\n      and\n      0xffffffffffffffffffffffffffffffffffffffff\n      and\n      dup2\n      mstore\n      0x20\n      add\n      swap1\n      dup2\n      mstore\n      0x20\n      add\n      0x00\n      keccak256\n        /* \"ClubAi.sol\":32699:32745  _tOwned[sender] = _tOwned[sender].sub(tAmount) */\n      dup2\n      swap1\n      sstore\n      pop\n        /* \"ClubAi.sol\":32774:32802  _rOwned[sender].sub(rAmount) */\n      tag_524\n        /* \"ClubAi.sol\":32794:32801  rAmount */\n      dup7\n        /* \"ClubAi.sol\":32774:32781  _rOwned */\n      0x03\n        /* \"ClubAi.sol\":32774:32789  _rOwned[sender] */\n      0x00\n        /* \"ClubAi.sol\":32782:32788  sender */\n      dup13\n        /* \"ClubAi.sol\":32774:32789  _rOwned[sender] */\n      0xffffffffffffffffffffffffffffffffffffffff\n      and\n      0xffffffffffffffffffffffffffffffffffffffff\n      and\n      dup2\n      mstore\n      0x20\n      add\n      swap1\n      dup2\n      mstore\n      0x20\n      add\n      0x00\n      keccak256\n      sload\n        /* \"ClubAi.sol\":32774:32793  _rOwned[sender].sub */\n      tag_266\n      swap1\n        /* \"ClubAi.sol\":32774:32802  _rOwned[sender].sub(rAmount) */\n      swap2\n      swap1\n      0xffffffff\n      and\n      jump\t// in\n    tag_524:\n        /* \"ClubAi.sol\":32756:32763  _rOwned */\n      0x03\n        /* \"ClubAi.sol\":32756:32771  _rOwned[sender] */\n      0x00\n        /* \"ClubAi.sol\":32764:32770  sender */\n      dup12\n        /* \"ClubAi.sol\":32756:32771  _rOwned[sender] */\n      0xffffffffffffffffffffffffffffffffffffffff\n      and\n      0xffffffffffffffffffffffffffffffffffffffff\n      and\n      dup2\n      mstore\n      0x20\n      add\n      swap1\n      dup2\n      mstore\n      0x20\n      add\n      0x00\n      keccak256\n        /* \"ClubAi.sol\":32756:32802  _rOwned[sender] = _rOwned[sender].sub(rAmount) */\n      dup2\n      swap1\n      sstore\n      pop\n        /* \"ClubAi.sol\":32834:32873  _tOwned[recipient].add(tTransferAmount) */\n      tag_525\n        /* \"ClubAi.sol\":32857:32872  tTransferAmount */\n      dup4\n        /* \"ClubAi.sol\":32834:32841  _tOwned */\n      0x04\n        /* \"ClubAi.sol\":32834:32852  _tOwned[recipient] */\n      0x00\n        /* \"ClubAi.sol\":32842:32851  recipient */\n      dup12\n        /* \"ClubAi.sol\":32834:32852  _tOwned[recipient] */\n      0xffffffffffffffffffffffffffffffffffffffff\n      and\n      0xffffffffffffffffffffffffffffffffffffffff\n      and\n      dup2\n      mstore\n      0x20\n      add\n      swap1\n      dup2\n      mstore\n      0x20\n      add\n      0x00\n      keccak256\n      sload\n        /* \"ClubAi.sol\":32834:32856  _tOwned[recipient].add */\n      tag_259\n      swap1\n        /* \"ClubAi.sol\":32834:32873  _tOwned[recipient].add(tTransferAmount) */\n      swap2\n      swap1\n      0xffffffff\n      and\n      jump\t// in\n    tag_525:\n        /* \"ClubAi.sol\":32813:32820  _tOwned */\n      0x04\n        /* \"ClubAi.sol\":32813:32831  _tOwned[recipient] */\n      0x00\n        /* \"ClubAi.sol\":32821:32830  recipient */\n      dup11\n        /* \"ClubAi.sol\":32813:32831  _tOwned[recipient] */\n      0xffffffffffffffffffffffffffffffffffffffff\n      and\n      0xffffffffffffffffffffffffffffffffffffffff\n      and\n      dup2\n      mstore\n      0x20\n      add\n      swap1\n      dup2\n      mstore\n      0x20\n      add\n      0x00\n      keccak256\n        /* \"ClubAi.sol\":32813:32873  _tOwned[recipient] = _tOwned[recipient].add(tTransferAmount) */\n      dup2\n      swap1\n      sstore\n      pop\n        /* \"ClubAi.sol\":32905:32944  _rOwned[recipient].add(rTransferAmount) */\n      tag_526\n        /* \"ClubAi.sol\":32928:32943  rTransferAmount */\n      dup6\n        /* \"ClubAi.sol\":32905:32912  _rOwned */\n      0x03\n        /* \"ClubAi.sol\":32905:32923  _rOwned[recipient] */\n      0x00\n        /* \"ClubAi.sol\":32913:32922  recipient */\n      dup12\n        /* \"ClubAi.sol\":32905:32923  _rOwned[recipient] */\n      0xffffffffffffffffffffffffffffffffffffffff\n      and\n      0xffffffffffffffffffffffffffffffffffffffff\n      and\n      dup2\n      mstore\n      0x20\n      add\n      swap1\n      dup2\n      mstore\n      0x20\n      add\n      0x00\n      keccak256\n      sload\n        /* \"ClubAi.sol\":32905:32927  _rOwned[recipient].add */\n      tag_259\n      swap1\n        /* \"ClubAi.sol\":32905:32944  _rOwned[recipient].add(rTransferAmount) */\n      swap2\n      swap1\n      0xffffffff\n      and\n      jump\t// in\n    tag_526:\n        /* \"ClubAi.sol\":32884:32891  _rOwned */\n      0x03\n        /* \"ClubAi.sol\":32884:32902  _rOwned[recipient] */\n      0x00\n        /* \"ClubAi.sol\":32892:32901  recipient */\n      dup11\n        /* \"ClubAi.sol\":32884:32902  _rOwned[recipient] */\n      0xffffffffffffffffffffffffffffffffffffffff\n      and\n      0xffffffffffffffffffffffffffffffffffffffff\n      and\n      dup2\n      mstore\n      0x20\n      add\n      swap1\n      dup2\n      mstore\n      0x20\n      add\n      0x00\n      keccak256\n        /* \"ClubAi.sol\":32884:32944  _rOwned[recipient] = _rOwned[recipient].add(rTransferAmount) */\n      dup2\n      swap1\n      sstore\n      pop\n        /* \"ClubAi.sol\":32963:32989  _takeLiquidity(tLiquidity) */\n      tag_527\n        /* \"ClubAi.sol\":32978:32988  tLiquidity */\n      dup2\n        /* \"ClubAi.sol\":32963:32977  _takeLiquidity */\n      tag_505\n        /* \"ClubAi.sol\":32963:32989  _takeLiquidity(tLiquidity) */\n      jump\t// in\n    tag_527:\n        /* \"ClubAi.sol\":33000:33023  _reflectFee(rFee, tFee) */\n      tag_528\n        /* \"ClubAi.sol\":33012:33016  rFee */\n      dup5\n        /* \"ClubAi.sol\":33018:33022  tFee */\n      dup4\n        /* \"ClubAi.sol\":33000:33011  _reflectFee */\n      tag_507\n        /* \"ClubAi.sol\":33000:33023  _reflectFee(rFee, tFee) */\n      jump\t// in\n    tag_528:\n        /* \"ClubAi.sol\":33056:33065  recipient */\n      dup8\n        /* \"ClubAi.sol\":33039:33083  Transfer(sender, recipient, tTransferAmount) */\n      0xffffffffffffffffffffffffffffffffffffffff\n      and\n        /* \"ClubAi.sol\":33048:33054  sender */\n      dup10\n        /* \"ClubAi.sol\":33039:33083  Transfer(sender, recipient, tTransferAmount) */\n      0xffffffffffffffffffffffffffffffffffffffff\n      and\n      0xddf252ad1be2c89b69c2b068fc378daa952ba7f163c4a11628f55a4df523b3ef\n        /* \"ClubAi.sol\":33067:33082  tTransferAmount */\n      dup6\n        /* \"ClubAi.sol\":33039:33083  Transfer(sender, recipient, tTransferAmount) */\n      mload(0x40)\n      dup1\n      dup3\n      dup2\n      mstore\n      0x20\n      add\n      swap2\n      pop\n      pop\n      mload(0x40)\n      dup1\n      swap2\n      sub\n      swap1\n      log3\n        /* \"ClubAi.sol\":32449:33091  function _transferBothExcluded(address sender, address recipient, uint256 tAmount) private {\r... */\n      pop\n      pop\n      pop\n      pop\n      pop\n      pop\n      pop\n      pop\n      pop\n      jump\t// out\n        /* \"ClubAi.sol\":37373:37498  function restoreAllFee() private {\r... */\n    tag_433:\n        /* \"ClubAi.sol\":37427:37442  _previousTaxFee */\n      sload(0x10)\n        /* \"ClubAi.sol\":37417:37424  _taxFee */\n      0x0f\n        /* \"ClubAi.sol\":37417:37442  _taxFee = _previousTaxFee */\n      dup2\n      swap1\n      sstore\n      pop\n        /* \"ClubAi.sol\":37469:37490  _previousLiquidityFee */\n      sload(0x12)\n        /* \"ClubAi.sol\":37453:37466  _liquidityFee */\n      0x11\n        /* \"ClubAi.sol\":37453:37490  _liquidityFee = _previousLiquidityFee */\n      dup2\n      swap1\n      sstore\n      pop\n        /* \"ClubAi.sol\":37373:37498  function restoreAllFee() private {\r... */\n      jump\t// out\n        /* \"ClubAi.sol\":36771:36925  function calculateTaxFee(uint256 _amount) private view returns (uint256) {\r... */\n    tag_461:\n        /* \"ClubAi.sol\":36835:36842  uint256 */\n      0x00\n        /* \"ClubAi.sol\":36862:36917  _amount.mul(_taxFee).div(\r... */\n      tag_531\n        /* \"ClubAi.sol\":36901:36906  10**2 */\n      0x64\n        /* \"ClubAi.sol\":36862:36882  _amount.mul(_taxFee) */\n      tag_532\n        /* \"ClubAi.sol\":36874:36881  _taxFee */\n      sload(0x0f)\n        /* \"ClubAi.sol\":36862:36869  _amount */\n      dup6\n        /* \"ClubAi.sol\":36862:36873  _amount.mul */\n      tag_468\n      swap1\n        /* \"ClubAi.sol\":36862:36882  _amount.mul(_taxFee) */\n      swap2\n      swap1\n      0xffffffff\n      and\n      jump\t// in\n    tag_532:\n        /* \"ClubAi.sol\":36862:36886  _amount.mul(_taxFee).div */\n      tag_235\n      swap1\n        /* \"ClubAi.sol\":36862:36917  _amount.mul(_taxFee).div(\r... */\n      swap2\n      swap1\n      0xffffffff\n      and\n      jump\t// in\n    tag_531:\n        /* \"ClubAi.sol\":36855:36917  return _amount.mul(_taxFee).div(\r... */\n      swap1\n      pop\n        /* \"ClubAi.sol\":36771:36925  function calculateTaxFee(uint256 _amount) private view returns (uint256) {\r... */\n      swap2\n      swap1\n      pop\n      jump\t// out\n        /* \"ClubAi.sol\":36933:37099  function calculateLiquidityFee(uint256 _amount) private view returns (uint256) {\r... */\n    tag_463:\n        /* \"ClubAi.sol\":37003:37010  uint256 */\n      0x00\n        /* \"ClubAi.sol\":37030:37091  _amount.mul(_liquidityFee).div(\r... */\n      tag_534\n        /* \"ClubAi.sol\":37075:37080  10**2 */\n      0x64\n        /* \"ClubAi.sol\":37030:37056  _amount.mul(_liquidityFee) */\n      tag_535\n        /* \"ClubAi.sol\":37042:37055  _liquidityFee */\n      sload(0x11)\n        /* \"ClubAi.sol\":37030:37037  _amount */\n      dup6\n        /* \"ClubAi.sol\":37030:37041  _amount.mul */\n      tag_468\n      swap1\n        /* \"ClubAi.sol\":37030:37056  _amount.mul(_liquidityFee) */\n      swap2\n      swap1\n      0xffffffff\n      and\n      jump\t// in\n    tag_535:\n        /* \"ClubAi.sol\":37030:37060  _amount.mul(_liquidityFee).div */\n      tag_235\n      swap1\n        /* \"ClubAi.sol\":37030:37091  _amount.mul(_liquidityFee).div(\r... */\n      swap2\n      swap1\n      0xffffffff\n      and\n      jump\t// in\n    tag_534:\n        /* \"ClubAi.sol\":37023:37091  return _amount.mul(_liquidityFee).div(\r... */\n      swap1\n      pop\n        /* \"ClubAi.sol\":36933:37099  function calculateLiquidityFee(uint256 _amount) private view returns (uint256) {\r... */\n      swap2\n      swap1\n      pop\n      jump\t// out\n        /* \"ClubAi.sol\":4904:5375  function mul(uint256 a, uint256 b) internal pure returns (uint256) {\r... */\n    tag_468:\n        /* \"ClubAi.sol\":4962:4969  uint256 */\n      0x00\n        /* \"ClubAi.sol\":5212:5213  0 */\n      dup1\n        /* \"ClubAi.sol\":5207:5208  a */\n      dup4\n        /* \"ClubAi.sol\":5207:5213  a == 0 */\n      eq\n        /* \"ClubAi.sol\":5203:5250  if (a == 0) {\r... */\n      iszero\n      tag_537\n      jumpi\n        /* \"ClubAi.sol\":5237:5238  0 */\n      0x00\n        /* \"ClubAi.sol\":5230:5238  return 0 */\n      swap1\n      pop\n      jump(tag_536)\n        /* \"ClubAi.sol\":5203:5250  if (a == 0) {\r... */\n    tag_537:\n        /* \"ClubAi.sol\":5262:5271  uint256 c */\n      0x00\n        /* \"ClubAi.sol\":5278:5279  b */\n      dup3\n        /* \"ClubAi.sol\":5274:5275  a */\n      dup5\n        /* \"ClubAi.sol\":5274:5279  a * b */\n      mul\n        /* \"ClubAi.sol\":5262:5279  uint256 c = a * b */\n      swap1\n      pop\n        /* \"ClubAi.sol\":5307:5308  b */\n      dup3\n        /* \"ClubAi.sol\":5302:5303  a */\n      dup5\n        /* \"ClubAi.sol\":5298:5299  c */\n      dup3\n        /* \"ClubAi.sol\":5298:5303  c / a */\n      dup2\n      tag_538\n      jumpi\n      invalid\n    tag_538:\n      div\n        /* \"ClubAi.sol\":5298:5308  c / a == b */\n      eq\n        /* \"ClubAi.sol\":5290:5346  require(c / a == b, \"SafeMath: multiplication overflow\") */\n      tag_539\n      jumpi\n      mload(0x40)\n      0x08c379a000000000000000000000000000000000000000000000000000000000\n      dup2\n      mstore\n      0x04\n      add\n      dup1\n      dup1\n      0x20\n      add\n      dup3\n      dup2\n      sub\n      dup3\n      mstore\n      0x21\n      dup2\n      mstore\n      0x20\n      add\n      dup1\n      data_9113bb53c2876a3805b2c9242029423fc540a728243ce887ab24c82cf119fba3\n      0x21\n      swap2\n      codecopy\n      0x40\n      add\n      swap2\n      pop\n      pop\n      mload(0x40)\n      dup1\n      swap2\n      sub\n      swap1\n      revert\n    tag_539:\n        /* \"ClubAi.sol\":5366:5367  c */\n      dup1\n        /* \"ClubAi.sol\":5359:5367  return c */\n      swap2\n      pop\n      pop\n        /* \"ClubAi.sol\":4904:5375  function mul(uint256 a, uint256 b) internal pure returns (uint256) {\r... */\n    tag_536:\n      swap3\n      swap2\n      pop\n      pop\n      jump\t// out\n        /* \"ClubAi.sol\":36276:36631  function _takeLiquidity(uint256 tLiquidity) private {\r... */\n    tag_505:\n        /* \"ClubAi.sol\":36339:36358  uint256 currentRate */\n      0x00\n        /* \"ClubAi.sol\":36362:36372  _getRate() */\n      tag_541\n        /* \"ClubAi.sol\":36362:36370  _getRate */\n      tag_233\n        /* \"ClubAi.sol\":36362:36372  _getRate() */\n      jump\t// in\n    tag_541:\n        /* \"ClubAi.sol\":36339:36372  uint256 currentRate =  _getRate() */\n      swap1\n      pop\n        /* \"ClubAi.sol\":36383:36401  uint256 rLiquidity */\n      0x00\n        /* \"ClubAi.sol\":36404:36431  tLiquidity.mul(currentRate) */\n      tag_542\n        /* \"ClubAi.sol\":36419:36430  currentRate */\n      dup3\n        /* \"ClubAi.sol\":36404:36414  tLiquidity */\n      dup5\n        /* \"ClubAi.sol\":36404:36418  tLiquidity.mul */\n      tag_468\n      swap1\n        /* \"ClubAi.sol\":36404:36431  tLiquidity.mul(currentRate) */\n      swap2\n      swap1\n      0xffffffff\n      and\n      jump\t// in\n    tag_542:\n        /* \"ClubAi.sol\":36383:36431  uint256 rLiquidity = tLiquidity.mul(currentRate) */\n      swap1\n      pop\n        /* \"ClubAi.sol\":36467:36505  _rOwned[address(this)].add(rLiquidity) */\n      tag_543\n        /* \"ClubAi.sol\":36494:36504  rLiquidity */\n      dup2\n        /* \"ClubAi.sol\":36467:36474  _rOwned */\n      0x03\n        /* \"ClubAi.sol\":36467:36489  _rOwned[address(this)] */\n      0x00\n        /* \"ClubAi.sol\":36483:36487  this */\n      address\n        /* \"ClubAi.sol\":36467:36489  _rOwned[address(this)] */\n      0xffffffffffffffffffffffffffffffffffffffff\n      and\n      0xffffffffffffffffffffffffffffffffffffffff\n      and\n      dup2\n      mstore\n      0x20\n      add\n      swap1\n      dup2\n      mstore\n      0x20\n      add\n      0x00\n      keccak256\n      sload\n        /* \"ClubAi.sol\":36467:36493  _rOwned[address(this)].add */\n      tag_259\n      swap1\n        /* \"ClubAi.sol\":36467:36505  _rOwned[address(this)].add(rLiquidity) */\n      swap2\n      swap1\n      0xffffffff\n      and\n      jump\t// in\n    tag_543:\n        /* \"ClubAi.sol\":36442:36449  _rOwned */\n      0x03\n        /* \"ClubAi.sol\":36442:36464  _rOwned[address(this)] */\n      0x00\n        /* \"ClubAi.sol\":36458:36462  this */\n      address\n        /* \"ClubAi.sol\":36442:36464  _rOwned[address(this)] */\n      0xffffffffffffffffffffffffffffffffffffffff\n      and\n      0xffffffffffffffffffffffffffffffffffffffff\n      and\n      dup2\n      mstore\n      0x20\n      add\n      swap1\n      dup2\n      mstore\n      0x20\n      add\n      0x00\n      keccak256\n        /* \"ClubAi.sol\":36442:36505  _rOwned[address(this)] = _rOwned[address(this)].add(rLiquidity) */\n      dup2\n      swap1\n      sstore\n      pop\n        /* \"ClubAi.sol\":36519:36530  _isExcluded */\n      0x07\n        /* \"ClubAi.sol\":36519:36545  _isExcluded[address(this)] */\n      0x00\n        /* \"ClubAi.sol\":36539:36543  this */\n      address\n        /* \"ClubAi.sol\":36519:36545  _isExcluded[address(this)] */\n      0xffffffffffffffffffffffffffffffffffffffff\n      and\n      0xffffffffffffffffffffffffffffffffffffffff\n      and\n      dup2\n      mstore\n      0x20\n      add\n      swap1\n      dup2\n      mstore\n      0x20\n      add\n      0x00\n      keccak256\n      0x00\n      swap1\n      sload\n      swap1\n      0x0100\n      exp\n      swap1\n      div\n      0xff\n      and\n        /* \"ClubAi.sol\":36516:36623  if(_isExcluded[address(this)])\r... */\n      iszero\n      tag_544\n      jumpi\n        /* \"ClubAi.sol\":36585:36623  _tOwned[address(this)].add(tLiquidity) */\n      tag_545\n        /* \"ClubAi.sol\":36612:36622  tLiquidity */\n      dup4\n        /* \"ClubAi.sol\":36585:36592  _tOwned */\n      0x04\n        /* \"ClubAi.sol\":36585:36607  _tOwned[address(this)] */\n      0x00\n        /* \"ClubAi.sol\":36601:36605  this */\n      address\n        /* \"ClubAi.sol\":36585:36607  _tOwned[address(this)] */\n      0xffffffffffffffffffffffffffffffffffffffff\n      and\n      0xffffffffffffffffffffffffffffffffffffffff\n      and\n      dup2\n      mstore\n      0x20\n      add\n      swap1\n      dup2\n      mstore\n      0x20\n      add\n      0x00\n      keccak256\n      sload\n        /* \"ClubAi.sol\":36585:36611  _tOwned[address(this)].add */\n      tag_259\n      swap1\n        /* \"ClubAi.sol\":36585:36623  _tOwned[address(this)].add(tLiquidity) */\n      swap2\n      swap1\n      0xffffffff\n      and\n      jump\t// in\n    tag_545:\n        /* \"ClubAi.sol\":36560:36567  _tOwned */\n      0x04\n        /* \"ClubAi.sol\":36560:36582  _tOwned[address(this)] */\n      0x00\n        /* \"ClubAi.sol\":36576:36580  this */\n      address\n        /* \"ClubAi.sol\":36560:36582  _tOwned[address(this)] */\n      0xffffffffffffffffffffffffffffffffffffffff\n      and\n      0xffffffffffffffffffffffffffffffffffffffff\n      and\n      dup2\n      mstore\n      0x20\n      add\n      swap1\n      dup2\n      mstore\n      0x20\n      add\n      0x00\n      keccak256\n        /* \"ClubAi.sol\":36560:36623  _tOwned[address(this)] = _tOwned[address(this)].add(tLiquidity) */\n      dup2\n      swap1\n      sstore\n      pop\n        /* \"ClubAi.sol\":36516:36623  if(_isExcluded[address(this)])\r... */\n    tag_544:\n        /* \"ClubAi.sol\":36276:36631  function _takeLiquidity(uint256 tLiquidity) private {\r... */\n      pop\n      pop\n      pop\n      jump\t// out\n        /* \"ClubAi.sol\":34175:34322  function _reflectFee(uint256 rFee, uint256 tFee) private {\r... */\n    tag_507:\n        /* \"ClubAi.sol\":34253:34270  _rTotal.sub(rFee) */\n      tag_547\n        /* \"ClubAi.sol\":34265:34269  rFee */\n      dup3\n        /* \"ClubAi.sol\":34253:34260  _rTotal */\n      sload(0x0a)\n        /* \"ClubAi.sol\":34253:34264  _rTotal.sub */\n      tag_266\n      swap1\n        /* \"ClubAi.sol\":34253:34270  _rTotal.sub(rFee) */\n      swap2\n      swap1\n      0xffffffff\n      and\n      jump\t// in\n    tag_547:\n        /* \"ClubAi.sol\":34243:34250  _rTotal */\n      0x0a\n        /* \"ClubAi.sol\":34243:34270  _rTotal = _rTotal.sub(rFee) */\n      dup2\n      swap1\n      sstore\n      pop\n        /* \"ClubAi.sol\":34294:34314  _tFeeTotal.add(tFee) */\n      tag_548\n        /* \"ClubAi.sol\":34309:34313  tFee */\n      dup2\n        /* \"ClubAi.sol\":34294:34304  _tFeeTotal */\n      sload(0x0b)\n        /* \"ClubAi.sol\":34294:34308  _tFeeTotal.add */\n      tag_259\n      swap1\n        /* \"ClubAi.sol\":34294:34314  _tFeeTotal.add(tFee) */\n      swap2\n      swap1\n      0xffffffff\n      and\n      jump\t// in\n    tag_548:\n        /* \"ClubAi.sol\":34281:34291  _tFeeTotal */\n      0x0b\n        /* \"ClubAi.sol\":34281:34314  _tFeeTotal = _tFeeTotal.add(tFee) */\n      dup2\n      swap1\n      sstore\n      pop\n        /* \"ClubAi.sol\":34175:34322  function _reflectFee(uint256 rFee, uint256 tFee) private {\r... */\n      pop\n      pop\n      jump\t// out\n    stop\n    data_0557e210f7a69a685100a7e4e3d0a7024c546085cee28910fd17d0b081d9516f 45524332303a207472616e7366657220746f20746865207a65726f2061646472657373\n    data_22f7af55a509c3b14f0d528f087748dec8a8bf425135e3f5dc28c6a31ec6d812 416d6f756e74206d757374206265206c657373207468616e20746f74616c207265666c656374696f6e73\n    data_245f15ff17f551913a7a18385165551503906a406f905ac1c2437281a7cd0cfe 4f776e61626c653a206e6577206f776e657220697320746865207a65726f2061646472657373\n    data_24883cc5fe64ace9d0df1893501ecb93c77180f0ff69cca79affb3c316dc8029 45524332303a20617070726f766520746f20746865207a65726f2061646472657373\n    data_72052210969ce5fd88e52b5e685de9548acef9bb1b6d02e29c1765d0674948dd 5472616e7366657220616d6f756e74206578636565647320746865206d61785478416d6f756e742e\n    data_9113bb53c2876a3805b2c9242029423fc540a728243ce887ab24c82cf119fba3 536166654d6174683a206d756c7469706c69636174696f6e206f766572666c6f77\n    data_974d1b4421da69cc60b481194f0dad36a5bb4e23da810da7a7fb30cdba178330 45524332303a207472616e7366657220616d6f756e74206578636565647320616c6c6f77616e6365\n    data_9edb5ab58321f35d2386ea65721c9b107daa2c273610fc16d394af2a320ba785 5472616e7366657220616d6f756e74206d7573742062652067726561746572207468616e207a65726f\n    data_baecc556b46f4ed0f2b4cb599d60785ac8563dd2dc0a5bf12edea1c39e5e1fea 45524332303a207472616e736665722066726f6d20746865207a65726f2061646472657373\n    data_c953f4879035ed60e766b34720f656aab5c697b141d924c283124ecedb91c208 45524332303a20617070726f76652066726f6d20746865207a65726f2061646472657373\n    data_ecefcaf5fbcf9ca6dcdb02298ba1da96f4ead317b0a4779917ecb2e5e7dc3ac4 4578636c75646564206164647265737365732063616e6e6f742063616c6c20746869732066756e6374696f6e\n    data_f4eb59be3df39931213d374c3658377dca3f0d2b46b7bc965af767c57c74b611 596f7520646f6e27742068617665207065726d697373696f6e20746f20756e6c6f636b\n    data_f8b476f7d28209d77d4a4ac1fe36b9f8259aa1bb6bddfa6e89de7e51615cf8a8 45524332303a2064656372656173656420616c6c6f77616e63652062656c6f77207a65726f\n\n    auxdata: 0xa2646970667358221220bd894f2d8a32108e058727bf91e72902a00d9c275a473c58bea3f7249a78233264736f6c634300060c0033\n}\n",
				"bytecode": {
					"linkReferences": {},
					"object": "60c06040526001601360016101000a81548160ff0219169083151502179055503480156200002c57600080fd5b50604051620058b1380380620058b183398181016040526101408110156200005357600080fd5b81019080805160405193929190846401000000008211156200007457600080fd5b838201915060208201858111156200008b57600080fd5b8251866001820283011164010000000082111715620000a957600080fd5b8083526020830192505050908051906020019080838360005b83811015620000df578082015181840152602081019050620000c2565b50505050905090810190601f1680156200010d5780820380516001836020036101000a031916815260200191505b50604052602001805160405193929190846401000000008211156200013157600080fd5b838201915060208201858111156200014857600080fd5b82518660018202830111640100000000821117156200016657600080fd5b8083526020830192505050908051906020019080838360005b838110156200019c5780820151818401526020810190506200017f565b50505050905090810190601f168015620001ca5780820380516001836020036101000a031916815260200191505b50604052602001805190602001909291908051906020019092919080519060200190929190805190602001909291908051906020019092919080519060200190929190805190602001909291908051906020019092919050505089600c90805190602001906200023c929190620006a8565b5088600d908051906020019062000255929190620006a8565b5087600e81905550600e54600a0a8702600981905550600954600019816200027957fe5b0660001903600a8190555085600f81905550846011819055508560108190555084601281905550600e54600a0a8402601481905550600e54600a0a8302601581905550600a54600360008373ffffffffffffffffffffffffffffffffffffffff1673ffffffffffffffffffffffffffffffffffffffff1681526020019081526020016000208190555060008290508073ffffffffffffffffffffffffffffffffffffffff1663c45a01556040518163ffffffff1660e01b815260040160206040518083038186803b1580156200034e57600080fd5b505afa15801562000363573d6000803e3d6000fd5b505050506040513d60208110156200037a57600080fd5b810190808051906020019092919050505073ffffffffffffffffffffffffffffffffffffffff1663c9c65396308373ffffffffffffffffffffffffffffffffffffffff1663ad5c46486040518163ffffffff1660e01b815260040160206040518083038186803b158015620003ee57600080fd5b505afa15801562000403573d6000803e3d6000fd5b505050506040513d60208110156200041a57600080fd5b81019080805190602001909291905050506040518363ffffffff1660e01b8152600401808373ffffffffffffffffffffffffffffffffffffffff1681526020018273ffffffffffffffffffffffffffffffffffffffff16815260200192505050602060405180830381600087803b1580156200049557600080fd5b505af1158015620004aa573d6000803e3d6000fd5b505050506040513d6020811015620004c157600080fd5b810190808051906020019092919050505073ffffffffffffffffffffffffffffffffffffffff1660a08173ffffffffffffffffffffffffffffffffffffffff1660601b815250508073ffffffffffffffffffffffffffffffffffffffff1660808173ffffffffffffffffffffffffffffffffffffffff1660601b815250506001600660008473ffffffffffffffffffffffffffffffffffffffff1673ffffffffffffffffffffffffffffffffffffffff16815260200190815260200160002060006101000a81548160ff0219169083151502179055506001600660003073ffffffffffffffffffffffffffffffffffffffff1673ffffffffffffffffffffffffffffffffffffffff16815260200190815260200160002060006101000a81548160ff021916908315150217905550816000806101000a81548173ffffffffffffffffffffffffffffffffffffffff021916908373ffffffffffffffffffffffffffffffffffffffff1602179055508173ffffffffffffffffffffffffffffffffffffffff16600073ffffffffffffffffffffffffffffffffffffffff167fddf252ad1be2c89b69c2b068fc378daa952ba7f163c4a11628f55a4df523b3ef6009546040518082815260200191505060405180910390a350505050505050505050506200074e565b828054600181600116156101000203166002900490600052602060002090601f016020900481019282601f10620006eb57805160ff19168380011785556200071c565b828001600101855582156200071c579182015b828111156200071b578251825591602001919060010190620006fe565b5b5090506200072b91906200072f565b5090565b5b808211156200074a57600081600090555060010162000730565b5090565b60805160601c60a05160601c61511b6200079660003980611a41528061328c525080610fcd5280613ef25280613fde528061400552806141105280614137525061511b6000f3fe60806040526004361061024a5760003560e01c80636bc87c3a11610139578063a9059cbb116100b6578063d543dbeb1161007a578063d543dbeb14610c57578063dd46706414610c92578063dd62ed3e14610ccd578063ea2f0b3714610d52578063f0f165af14610da3578063f2fde38b14610dde57610251565b8063a9059cbb14610b12578063b2bdfa7b14610b83578063b6c5232414610bc4578063c49b9a8014610bef578063d12a768814610c2c57610251565b80638da5cb5b116100fd5780638da5cb5b1461097e5780638ee88c53146109bf57806395d89b41146109fa578063a457c2d714610a8a578063a69df4b514610afb57610251565b80636bc87c3a1461084557806370a0823114610870578063715018a6146108d55780637d1db4a5146108ec57806388f820201461091757610251565b806339509351116101c757806348c54b9d1161018b57806348c54b9d1461070857806349bd5a5e1461071f5780634a74bb021461076057806352390c021461078d5780635342acb4146107de57610251565b806339509351146105855780633b124fe7146105f65780633bd5d17314610621578063437823ec1461065c5780634549b039146106ad57610251565b806318160ddd1161020e57806318160ddd146103fe57806323b872dd146104295780632d838119146104ba578063313ce567146105095780633685d4191461053457610251565b8063061c82d01461025657806306fdde0314610291578063095ea7b31461032157806313114a9d146103925780631694505e146103bd57610251565b3661025157005b600080fd5b34801561026257600080fd5b5061028f6004803603602081101561027957600080fd5b8101908080359060200190929190505050610e2f565b005b34801561029d57600080fd5b506102a6610f01565b6040518080602001828103825283818151815260200191508051906020019080838360005b838110156102e65780820151818401526020810190506102cb565b50505050905090810190601f1680156103135780820380516001836020036101000a031916815260200191505b509250505060405180910390f35b34801561032d57600080fd5b5061037a6004803603604081101561034457600080fd5b81019080803573ffffffffffffffffffffffffffffffffffffffff16906020019092919080359060200190929190505050610fa3565b60405180821515815260200191505060405180910390f35b34801561039e57600080fd5b506103a7610fc1565b6040518082815260200191505060405180910390f35b3480156103c957600080fd5b506103d2610fcb565b604051808273ffffffffffffffffffffffffffffffffffffffff16815260200191505060405180910390f35b34801561040a57600080fd5b50610413610fef565b6040518082815260200191505060405180910390f35b34801561043557600080fd5b506104a26004803603606081101561044c57600080fd5b81019080803573ffffffffffffffffffffffffffffffffffffffff169060200190929190803573ffffffffffffffffffffffffffffffffffffffff16906020019092919080359060200190929190505050610ff9565b60405180821515815260200191505060405180910390f35b3480156104c657600080fd5b506104f3600480360360208110156104dd57600080fd5b81019080803590602001909291905050506110d2565b6040518082815260200191505060405180910390f35b34801561051557600080fd5b5061051e611156565b6040518082815260200191505060405180910390f35b34801561054057600080fd5b506105836004803603602081101561055757600080fd5b81019080803573ffffffffffffffffffffffffffffffffffffffff169060200190929190505050611160565b005b34801561059157600080fd5b506105de600480360360408110156105a857600080fd5b81019080803573ffffffffffffffffffffffffffffffffffffffff169060200190929190803590602001909291905050506114ea565b60405180821515815260200191505060405180910390f35b34801561060257600080fd5b5061060b61159d565b6040518082815260200191505060405180910390f35b34801561062d57600080fd5b5061065a6004803603602081101561064457600080fd5b81019080803590602001909291905050506115a3565b005b34801561066857600080fd5b506106ab6004803603602081101561067f57600080fd5b81019080803573ffffffffffffffffffffffffffffffffffffffff169060200190929190505050611734565b005b3480156106b957600080fd5b506106f2600480360360408110156106d057600080fd5b8101908080359060200190929190803515159060200190929190505050611857565b6040518082815260200191505060405180910390f35b34801561071457600080fd5b5061071d61190e565b005b34801561072b57600080fd5b50610734611a3f565b604051808273ffffffffffffffffffffffffffffffffffffffff16815260200191505060405180910390f35b34801561076c57600080fd5b50610775611a63565b60405180821515815260200191505060405180910390f35b34801561079957600080fd5b506107dc600480360360208110156107b057600080fd5b81019080803573ffffffffffffffffffffffffffffffffffffffff169060200190929190505050611a76565b005b3480156107ea57600080fd5b5061082d6004803603602081101561080157600080fd5b81019080803573ffffffffffffffffffffffffffffffffffffffff169060200190929190505050611d90565b60405180821515815260200191505060405180910390f35b34801561085157600080fd5b5061085a611de6565b6040518082815260200191505060405180910390f35b34801561087c57600080fd5b506108bf6004803603602081101561089357600080fd5b81019080803573ffffffffffffffffffffffffffffffffffffffff169060200190929190505050611dec565b6040518082815260200191505060405180910390f35b3480156108e157600080fd5b506108ea611ed7565b005b3480156108f857600080fd5b5061090161205d565b6040518082815260200191505060405180910390f35b34801561092357600080fd5b506109666004803603602081101561093a57600080fd5b81019080803573ffffffffffffffffffffffffffffffffffffffff169060200190929190505050612063565b60405180821515815260200191505060405180910390f35b34801561098a57600080fd5b506109936120b9565b604051808273ffffffffffffffffffffffffffffffffffffffff16815260200191505060405180910390f35b3480156109cb57600080fd5b506109f8600480360360208110156109e257600080fd5b81019080803590602001909291905050506120e2565b005b348015610a0657600080fd5b50610a0f6121b4565b6040518080602001828103825283818151815260200191508051906020019080838360005b83811015610a4f578082015181840152602081019050610a34565b50505050905090810190601f168015610a7c5780820380516001836020036101000a031916815260200191505b509250505060405180910390f35b348015610a9657600080fd5b50610ae360048036036040811015610aad57600080fd5b81019080803573ffffffffffffffffffffffffffffffffffffffff16906020019092919080359060200190929190505050612256565b60405180821515815260200191505060405180910390f35b348015610b0757600080fd5b50610b10612323565b005b348015610b1e57600080fd5b50610b6b60048036036040811015610b3557600080fd5b81019080803573ffffffffffffffffffffffffffffffffffffffff16906020019092919080359060200190929190505050612540565b60405180821515815260200191505060405180910390f35b348015610b8f57600080fd5b50610b9861255e565b604051808273ffffffffffffffffffffffffffffffffffffffff16815260200191505060405180910390f35b348015610bd057600080fd5b50610bd9612582565b6040518082815260200191505060405180910390f35b348015610bfb57600080fd5b50610c2a60048036036020811015610c1257600080fd5b8101908080351515906020019092919050505061258c565b005b348015610c3857600080fd5b50610c416126aa565b6040518082815260200191505060405180910390f35b348015610c6357600080fd5b50610c9060048036036020811015610c7a57600080fd5b81019080803590602001909291905050506126b0565b005b348015610c9e57600080fd5b50610ccb60048036036020811015610cb557600080fd5b8101908080359060200190929190505050612789565b005b348015610cd957600080fd5b50610d3c60048036036040811015610cf057600080fd5b81019080803573ffffffffffffffffffffffffffffffffffffffff169060200190929190803573ffffffffffffffffffffffffffffffffffffffff16906020019092919050505061297a565b6040518082815260200191505060405180910390f35b348015610d5e57600080fd5b50610da160048036036020811015610d7557600080fd5b81019080803573ffffffffffffffffffffffffffffffffffffffff169060200190929190505050612a01565b005b348015610daf57600080fd5b50610ddc60048036036020811015610dc657600080fd5b8101908080359060200190929190505050612b24565b005b348015610dea57600080fd5b50610e2d60048036036020811015610e0157600080fd5b81019080803573ffffffffffffffffffffffffffffffffffffffff169060200190929190505050612bfd565b005b610e37612e08565b73ffffffffffffffffffffffffffffffffffffffff1660008054906101000a900473ffffffffffffffffffffffffffffffffffffffff1673ffffffffffffffffffffffffffffffffffffffff1614610ef7576040517f08c379a00000000000000000000000000000000000000000000000000000000081526004018080602001828103825260208152602001807f4f776e61626c653a2063616c6c6572206973206e6f7420746865206f776e657281525060200191505060405180910390fd5b80600f8190555050565b6060600c8054600181600116156101000203166002900480601f016020809104026020016040519081016040528092919081815260200182805460018160011615610100020316600290048015610f995780601f10610f6e57610100808354040283529160200191610f99565b820191906000526020600020905b815481529060010190602001808311610f7c57829003601f168201915b5050505050905090565b6000610fb7610fb0612e08565b8484612e10565b6001905092915050565b6000600b54905090565b7f000000000000000000000000000000000000000000000000000000000000000081565b6000600954905090565b6000611006848484613007565b6110c784611012612e08565b6110c285604051806060016040528060288152602001614fd860289139600560008b73ffffffffffffffffffffffffffffffffffffffff1673ffffffffffffffffffffffffffffffffffffffff1681526020019081526020016000206000611078612e08565b73ffffffffffffffffffffffffffffffffffffffff1673ffffffffffffffffffffffffffffffffffffffff168152602001908152602001600020546133cc9092919063ffffffff16565b612e10565b600190509392505050565b6000600a5482111561112f576040517f08c379a000000000000000000000000000000000000000000000000000000000815260040180806020018281038252602a815260200180614f1d602a913960400191505060405180910390fd5b600061113961348c565b905061114e81846134b790919063ffffffff16565b915050919050565b6000600e54905090565b611168612e08565b73ffffffffffffffffffffffffffffffffffffffff1660008054906101000a900473ffffffffffffffffffffffffffffffffffffffff1673ffffffffffffffffffffffffffffffffffffffff1614611228576040517f08c379a00000000000000000000000000000000000000000000000000000000081526004018080602001828103825260208152602001807f4f776e61626c653a2063616c6c6572206973206e6f7420746865206f776e657281525060200191505060405180910390fd5b600760008273ffffffffffffffffffffffffffffffffffffffff1673ffffffffffffffffffffffffffffffffffffffff16815260200190815260200160002060009054906101000a900460ff166112e7576040517f08c379a000000000000000000000000000000000000000000000000000000000815260040180806020018281038252601b8152602001807f4163636f756e7420697320616c7265616479206578636c75646564000000000081525060200191505060405180910390fd5b60005b6008805490508110156114e6578173ffffffffffffffffffffffffffffffffffffffff166008828154811061131b57fe5b9060005260206000200160009054906101000a900473ffffffffffffffffffffffffffffffffffffffff1673ffffffffffffffffffffffffffffffffffffffff1614156114d95760086001600880549050038154811061137757fe5b9060005260206000200160009054906101000a900473ffffffffffffffffffffffffffffffffffffffff16600882815481106113af57fe5b9060005260206000200160006101000a81548173ffffffffffffffffffffffffffffffffffffffff021916908373ffffffffffffffffffffffffffffffffffffffff1602179055506000600460008473ffffffffffffffffffffffffffffffffffffffff1673ffffffffffffffffffffffffffffffffffffffff168152602001908152602001600020819055506000600760008473ffffffffffffffffffffffffffffffffffffffff1673ffffffffffffffffffffffffffffffffffffffff16815260200190815260200160002060006101000a81548160ff021916908315150217905550600880548061149f57fe5b6001900381819060005260206000200160006101000a81549073ffffffffffffffffffffffffffffffffffffffff021916905590556114e6565b80806001019150506112ea565b5050565b60006115936114f7612e08565b8461158e8560056000611508612e08565b73ffffffffffffffffffffffffffffffffffffffff1673ffffffffffffffffffffffffffffffffffffffff16815260200190815260200160002060008973ffffffffffffffffffffffffffffffffffffffff1673ffffffffffffffffffffffffffffffffffffffff1681526020019081526020016000205461350190919063ffffffff16565b612e10565b6001905092915050565b600f5481565b60006115ad612e08565b9050600760008273ffffffffffffffffffffffffffffffffffffffff1673ffffffffffffffffffffffffffffffffffffffff16815260200190815260200160002060009054906101000a900460ff1615611652576040517f08c379a000000000000000000000000000000000000000000000000000000000815260040180806020018281038252602c815260200180615072602c913960400191505060405180910390fd5b600061165d83613589565b505050505090506116b681600360008573ffffffffffffffffffffffffffffffffffffffff1673ffffffffffffffffffffffffffffffffffffffff168152602001908152602001600020546135e590919063ffffffff16565b600360008473ffffffffffffffffffffffffffffffffffffffff1673ffffffffffffffffffffffffffffffffffffffff1681526020019081526020016000208190555061170e81600a546135e590919063ffffffff16565b600a8190555061172983600b5461350190919063ffffffff16565b600b81905550505050565b61173c612e08565b73ffffffffffffffffffffffffffffffffffffffff1660008054906101000a900473ffffffffffffffffffffffffffffffffffffffff1673ffffffffffffffffffffffffffffffffffffffff16146117fc576040517f08c379a00000000000000000000000000000000000000000000000000000000081526004018080602001828103825260208152602001807f4f776e61626c653a2063616c6c6572206973206e6f7420746865206f776e657281525060200191505060405180910390fd5b6001600660008373ffffffffffffffffffffffffffffffffffffffff1673ffffffffffffffffffffffffffffffffffffffff16815260200190815260200160002060006101000a81548160ff02191690831515021790555050565b60006009548311156118d1576040517f08c379a000000000000000000000000000000000000000000000000000000000815260040180806020018281038252601f8152602001807f416d6f756e74206d757374206265206c657373207468616e20737570706c790081525060200191505060405180910390fd5b816118f15760006118e184613589565b5050505050905080915050611908565b60006118fc84613589565b50505050915050809150505b92915050565b611916612e08565b73ffffffffffffffffffffffffffffffffffffffff1660008054906101000a900473ffffffffffffffffffffffffffffffffffffffff1673ffffffffffffffffffffffffffffffffffffffff16146119d6576040517f08c379a00000000000000000000000000000000000000000000000000000000081526004018080602001828103825260208152602001807f4f776e61626c653a2063616c6c6572206973206e6f7420746865206f776e657281525060200191505060405180910390fd5b60008054906101000a900473ffffffffffffffffffffffffffffffffffffffff1673ffffffffffffffffffffffffffffffffffffffff166108fc479081150290604051600060405180830381858888f19350505050158015611a3c573d6000803e3d6000fd5b50565b7f000000000000000000000000000000000000000000000000000000000000000081565b601360019054906101000a900460ff1681565b611a7e612e08565b73ffffffffffffffffffffffffffffffffffffffff1660008054906101000a900473ffffffffffffffffffffffffffffffffffffffff1673ffffffffffffffffffffffffffffffffffffffff1614611b3e576040517f08c379a00000000000000000000000000000000000000000000000000000000081526004018080602001828103825260208152602001807f4f776e61626c653a2063616c6c6572206973206e6f7420746865206f776e657281525060200191505060405180910390fd5b600760008273ffffffffffffffffffffffffffffffffffffffff1673ffffffffffffffffffffffffffffffffffffffff16815260200190815260200160002060009054906101000a900460ff1615611bfe576040517f08c379a000000000000000000000000000000000000000000000000000000000815260040180806020018281038252601b8152602001807f4163636f756e7420697320616c7265616479206578636c75646564000000000081525060200191505060405180910390fd5b6000600360008373ffffffffffffffffffffffffffffffffffffffff1673ffffffffffffffffffffffffffffffffffffffff168152602001908152602001600020541115611cd257611c8e600360008373ffffffffffffffffffffffffffffffffffffffff1673ffffffffffffffffffffffffffffffffffffffff168152602001908152602001600020546110d2565b600460008373ffffffffffffffffffffffffffffffffffffffff1673ffffffffffffffffffffffffffffffffffffffff168152602001908152602001600020819055505b6001600760008373ffffffffffffffffffffffffffffffffffffffff1673ffffffffffffffffffffffffffffffffffffffff16815260200190815260200160002060006101000a81548160ff0219169083151502179055506008819080600181540180825580915050600190039060005260206000200160009091909190916101000a81548173ffffffffffffffffffffffffffffffffffffffff021916908373ffffffffffffffffffffffffffffffffffffffff16021790555050565b6000600660008373ffffffffffffffffffffffffffffffffffffffff1673ffffffffffffffffffffffffffffffffffffffff16815260200190815260200160002060009054906101000a900460ff169050919050565b60115481565b6000600760008373ffffffffffffffffffffffffffffffffffffffff1673ffffffffffffffffffffffffffffffffffffffff16815260200190815260200160002060009054906101000a900460ff1615611e8757600460008373ffffffffffffffffffffffffffffffffffffffff1673ffffffffffffffffffffffffffffffffffffffff168152602001908152602001600020549050611ed2565b611ecf600360008473ffffffffffffffffffffffffffffffffffffffff1673ffffffffffffffffffffffffffffffffffffffff168152602001908152602001600020546110d2565b90505b919050565b611edf612e08565b73ffffffffffffffffffffffffffffffffffffffff1660008054906101000a900473ffffffffffffffffffffffffffffffffffffffff1673ffffffffffffffffffffffffffffffffffffffff1614611f9f576040517f08c379a00000000000000000000000000000000000000000000000000000000081526004018080602001828103825260208152602001807f4f776e61626c653a2063616c6c6572206973206e6f7420746865206f776e657281525060200191505060405180910390fd5b600073ffffffffffffffffffffffffffffffffffffffff1660008054906101000a900473ffffffffffffffffffffffffffffffffffffffff1673ffffffffffffffffffffffffffffffffffffffff167f8be0079c531659141344cd1fd0a4f28419497f9722a3daafe3b4186f6b6457e060405160405180910390a360008060006101000a81548173ffffffffffffffffffffffffffffffffffffffff021916908373ffffffffffffffffffffffffffffffffffffffff160217905550565b60145481565b6000600760008373ffffffffffffffffffffffffffffffffffffffff1673ffffffffffffffffffffffffffffffffffffffff16815260200190815260200160002060009054906101000a900460ff169050919050565b60008060009054906101000a900473ffffffffffffffffffffffffffffffffffffffff16905090565b6120ea612e08565b73ffffffffffffffffffffffffffffffffffffffff1660008054906101000a900473ffffffffffffffffffffffffffffffffffffffff1673ffffffffffffffffffffffffffffffffffffffff16146121aa576040517f08c379a00000000000000000000000000000000000000000000000000000000081526004018080602001828103825260208152602001807f4f776e61626c653a2063616c6c6572206973206e6f7420746865206f776e657281525060200191505060405180910390fd5b8060118190555050565b6060600d8054600181600116156101000203166002900480601f01602080910402602001604051908101604052809291908181526020018280546001816001161561010002031660029004801561224c5780601f106122215761010080835404028352916020019161224c565b820191906000526020600020905b81548152906001019060200180831161222f57829003601f168201915b5050505050905090565b6000612319612263612e08565b84612314856040518060600160405280602581526020016150c1602591396005600061228d612e08565b73ffffffffffffffffffffffffffffffffffffffff1673ffffffffffffffffffffffffffffffffffffffff16815260200190815260200160002060008a73ffffffffffffffffffffffffffffffffffffffff1673ffffffffffffffffffffffffffffffffffffffff168152602001908152602001600020546133cc9092919063ffffffff16565b612e10565b6001905092915050565b3373ffffffffffffffffffffffffffffffffffffffff16600160009054906101000a900473ffffffffffffffffffffffffffffffffffffffff1673ffffffffffffffffffffffffffffffffffffffff16146123c9576040517f08c379a000000000000000000000000000000000000000000000000000000000815260040180806020018281038252602381526020018061509e6023913960400191505060405180910390fd5b6002544211612440576040517f08c379a000000000000000000000000000000000000000000000000000000000815260040180806020018281038252601f8152602001807f436f6e7472616374206973206c6f636b656420756e74696c203720646179730081525060200191505060405180910390fd5b600160009054906101000a900473ffffffffffffffffffffffffffffffffffffffff1673ffffffffffffffffffffffffffffffffffffffff1660008054906101000a900473ffffffffffffffffffffffffffffffffffffffff1673ffffffffffffffffffffffffffffffffffffffff167f8be0079c531659141344cd1fd0a4f28419497f9722a3daafe3b4186f6b6457e060405160405180910390a3600160009054906101000a900473ffffffffffffffffffffffffffffffffffffffff166000806101000a81548173ffffffffffffffffffffffffffffffffffffffff021916908373ffffffffffffffffffffffffffffffffffffffff160217905550565b600061255461254d612e08565b8484613007565b6001905092915050565b60008054906101000a900473ffffffffffffffffffffffffffffffffffffffff1681565b6000600254905090565b612594612e08565b73ffffffffffffffffffffffffffffffffffffffff1660008054906101000a900473ffffffffffffffffffffffffffffffffffffffff1673ffffffffffffffffffffffffffffffffffffffff1614612654576040517f08c379a00000000000000000000000000000000000000000000000000000000081526004018080602001828103825260208152602001807f4f776e61626c653a2063616c6c6572206973206e6f7420746865206f776e657281525060200191505060405180910390fd5b80601360016101000a81548160ff0219169083151502179055507f53726dfcaf90650aa7eb35524f4d3220f07413c8d6cb404cc8c18bf5591bc1598160405180821515815260200191505060405180910390a150565b60155481565b6126b8612e08565b73ffffffffffffffffffffffffffffffffffffffff1660008054906101000a900473ffffffffffffffffffffffffffffffffffffffff1673ffffffffffffffffffffffffffffffffffffffff1614612778576040517f08c379a00000000000000000000000000000000000000000000000000000000081526004018080602001828103825260208152602001807f4f776e61626c653a2063616c6c6572206973206e6f7420746865206f776e657281525060200191505060405180910390fd5b600e54600a0a810260148190555050565b612791612e08565b73ffffffffffffffffffffffffffffffffffffffff1660008054906101000a900473ffffffffffffffffffffffffffffffffffffffff1673ffffffffffffffffffffffffffffffffffffffff1614612851576040517f08c379a00000000000000000000000000000000000000000000000000000000081526004018080602001828103825260208152602001807f4f776e61626c653a2063616c6c6572206973206e6f7420746865206f776e657281525060200191505060405180910390fd5b60008054906101000a900473ffffffffffffffffffffffffffffffffffffffff16600160006101000a81548173ffffffffffffffffffffffffffffffffffffffff021916908373ffffffffffffffffffffffffffffffffffffffff16021790555060008060006101000a81548173ffffffffffffffffffffffffffffffffffffffff021916908373ffffffffffffffffffffffffffffffffffffffff160217905550804201600281905550600073ffffffffffffffffffffffffffffffffffffffff1660008054906101000a900473ffffffffffffffffffffffffffffffffffffffff1673ffffffffffffffffffffffffffffffffffffffff167f8be0079c531659141344cd1fd0a4f28419497f9722a3daafe3b4186f6b6457e060405160405180910390a350565b6000600560008473ffffffffffffffffffffffffffffffffffffffff1673ffffffffffffffffffffffffffffffffffffffff16815260200190815260200160002060008373ffffffffffffffffffffffffffffffffffffffff1673ffffffffffffffffffffffffffffffffffffffff16815260200190815260200160002054905092915050565b612a09612e08565b73ffffffffffffffffffffffffffffffffffffffff1660008054906101000a900473ffffffffffffffffffffffffffffffffffffffff1673ffffffffffffffffffffffffffffffffffffffff1614612ac9576040517f08c379a00000000000000000000000000000000000000000000000000000000081526004018080602001828103825260208152602001807f4f776e61626c653a2063616c6c6572206973206e6f7420746865206f776e657281525060200191505060405180910390fd5b6000600660008373ffffffffffffffffffffffffffffffffffffffff1673ffffffffffffffffffffffffffffffffffffffff16815260200190815260200160002060006101000a81548160ff02191690831515021790555050565b612b2c612e08565b73ffffffffffffffffffffffffffffffffffffffff1660008054906101000a900473ffffffffffffffffffffffffffffffffffffffff1673ffffffffffffffffffffffffffffffffffffffff1614612bec576040517f08c379a00000000000000000000000000000000000000000000000000000000081526004018080602001828103825260208152602001807f4f776e61626c653a2063616c6c6572206973206e6f7420746865206f776e657281525060200191505060405180910390fd5b600e54600a0a810260158190555050565b612c05612e08565b73ffffffffffffffffffffffffffffffffffffffff1660008054906101000a900473ffffffffffffffffffffffffffffffffffffffff1673ffffffffffffffffffffffffffffffffffffffff1614612cc5576040517f08c379a00000000000000000000000000000000000000000000000000000000081526004018080602001828103825260208152602001807f4f776e61626c653a2063616c6c6572206973206e6f7420746865206f776e657281525060200191505060405180910390fd5b600073ffffffffffffffffffffffffffffffffffffffff168173ffffffffffffffffffffffffffffffffffffffff161415612d4b576040517f08c379a0000000000000000000000000000000000000000000000000000000008152600401808060200182810382526026815260200180614f476026913960400191505060405180910390fd5b8073ffffffffffffffffffffffffffffffffffffffff1660008054906101000a900473ffffffffffffffffffffffffffffffffffffffff1673ffffffffffffffffffffffffffffffffffffffff167f8be0079c531659141344cd1fd0a4f28419497f9722a3daafe3b4186f6b6457e060405160405180910390a3806000806101000a81548173ffffffffffffffffffffffffffffffffffffffff021916908373ffffffffffffffffffffffffffffffffffffffff16021790555050565b600033905090565b600073ffffffffffffffffffffffffffffffffffffffff168373ffffffffffffffffffffffffffffffffffffffff161415612e96576040517f08c379a000000000000000000000000000000000000000000000000000000000815260040180806020018281038252602481526020018061504e6024913960400191505060405180910390fd5b600073ffffffffffffffffffffffffffffffffffffffff168273ffffffffffffffffffffffffffffffffffffffff161415612f1c576040517f08c379a0000000000000000000000000000000000000000000000000000000008152600401808060200182810382526022815260200180614f6d6022913960400191505060405180910390fd5b80600560008573ffffffffffffffffffffffffffffffffffffffff1673ffffffffffffffffffffffffffffffffffffffff16815260200190815260200160002060008473ffffffffffffffffffffffffffffffffffffffff1673ffffffffffffffffffffffffffffffffffffffff168152602001908152602001600020819055508173ffffffffffffffffffffffffffffffffffffffff168373ffffffffffffffffffffffffffffffffffffffff167f8c5be1e5ebec7d5bd14f71427d1e84f3dd0314c0f7b2291e5b200ac8c7c3b925836040518082815260200191505060405180910390a3505050565b600073ffffffffffffffffffffffffffffffffffffffff168373ffffffffffffffffffffffffffffffffffffffff16141561308d576040517f08c379a00000000000000000000000000000000000000000000000000000000081526004018080602001828103825260258152602001806150296025913960400191505060405180910390fd5b600073ffffffffffffffffffffffffffffffffffffffff168273ffffffffffffffffffffffffffffffffffffffff161415613113576040517f08c379a0000000000000000000000000000000000000000000000000000000008152600401808060200182810382526023815260200180614efa6023913960400191505060405180910390fd5b6000811161316c576040517f08c379a00000000000000000000000000000000000000000000000000000000081526004018080602001828103825260298152602001806150006029913960400191505060405180910390fd5b6131746120b9565b73ffffffffffffffffffffffffffffffffffffffff168373ffffffffffffffffffffffffffffffffffffffff16141580156131e257506131b26120b9565b73ffffffffffffffffffffffffffffffffffffffff168273ffffffffffffffffffffffffffffffffffffffff1614155b1561324357601454811115613242576040517f08c379a0000000000000000000000000000000000000000000000000000000008152600401808060200182810382526028815260200180614f8f6028913960400191505060405180910390fd5b5b600061324e30611dec565b9050601454811061325f5760145490505b600060155482101590508080156132835750601360009054906101000a900460ff16155b80156132db57507f000000000000000000000000000000000000000000000000000000000000000073ffffffffffffffffffffffffffffffffffffffff168573ffffffffffffffffffffffffffffffffffffffff1614155b80156132f35750601360019054906101000a900460ff165b156133075760155491506133068261362f565b5b600060019050600660008773ffffffffffffffffffffffffffffffffffffffff1673ffffffffffffffffffffffffffffffffffffffff16815260200190815260200160002060009054906101000a900460ff16806133ae5750600660008673ffffffffffffffffffffffffffffffffffffffff1673ffffffffffffffffffffffffffffffffffffffff16815260200190815260200160002060009054906101000a900460ff165b156133b857600090505b6133c486868684613711565b505050505050565b6000838311158290613479576040517f08c379a00000000000000000000000000000000000000000000000000000000081526004018080602001828103825283818151815260200191508051906020019080838360005b8381101561343e578082015181840152602081019050613423565b50505050905090810190601f16801561346b5780820380516001836020036101000a031916815260200191505b509250505060405180910390fd5b5060008385039050809150509392505050565b6000806000613499613a22565b915091506134b081836134b790919063ffffffff16565b9250505090565b60006134f983836040518060400160405280601a81526020017f536166654d6174683a206469766973696f6e206279207a65726f000000000000815250613cb3565b905092915050565b60008082840190508381101561357f576040517f08c379a000000000000000000000000000000000000000000000000000000000815260040180806020018281038252601b8152602001807f536166654d6174683a206164646974696f6e206f766572666c6f77000000000081525060200191505060405180910390fd5b8091505092915050565b60008060008060008060008060006135a08a613d79565b92509250925060008060006135be8d86866135b961348c565b613dd3565b9250925092508282828888889b509b509b509b509b509b5050505050505091939550919395565b600061362783836040518060400160405280601e81526020017f536166654d6174683a207375627472616374696f6e206f766572666c6f7700008152506133cc565b905092915050565b6001601360006101000a81548160ff02191690831515021790555060006136606002836134b790919063ffffffff16565b9050600061367782846135e590919063ffffffff16565b9050600047905061368783613e5c565b600061369c82476135e590919063ffffffff16565b90506136a8838261410a565b7f17bbfb9a6069321b6ded73bd96327c9e6b7212a5cd51ff219cd61370acafb56184828560405180848152602001838152602001828152602001935050505060405180910390a1505050506000601360006101000a81548160ff02191690831515021790555050565b8061371f5761371e61425b565b5b600760008573ffffffffffffffffffffffffffffffffffffffff1673ffffffffffffffffffffffffffffffffffffffff16815260200190815260200160002060009054906101000a900460ff1680156137c25750600760008473ffffffffffffffffffffffffffffffffffffffff1673ffffffffffffffffffffffffffffffffffffffff16815260200190815260200160002060009054906101000a900460ff16155b156137d7576137d284848461429e565b613a0e565b600760008573ffffffffffffffffffffffffffffffffffffffff1673ffffffffffffffffffffffffffffffffffffffff16815260200190815260200160002060009054906101000a900460ff1615801561387a5750600760008473ffffffffffffffffffffffffffffffffffffffff1673ffffffffffffffffffffffffffffffffffffffff16815260200190815260200160002060009054906101000a900460ff165b1561388f5761388a8484846144fe565b613a0d565b600760008573ffffffffffffffffffffffffffffffffffffffff1673ffffffffffffffffffffffffffffffffffffffff16815260200190815260200160002060009054906101000a900460ff161580156139335750600760008473ffffffffffffffffffffffffffffffffffffffff1673ffffffffffffffffffffffffffffffffffffffff16815260200190815260200160002060009054906101000a900460ff16155b156139485761394384848461475e565b613a0c565b600760008573ffffffffffffffffffffffffffffffffffffffff1673ffffffffffffffffffffffffffffffffffffffff16815260200190815260200160002060009054906101000a900460ff1680156139ea5750600760008473ffffffffffffffffffffffffffffffffffffffff1673ffffffffffffffffffffffffffffffffffffffff16815260200190815260200160002060009054906101000a900460ff165b156139ff576139fa848484614929565b613a0b565b613a0a84848461475e565b5b5b5b5b80613a1c57613a1b614c1e565b5b50505050565b6000806000600a5490506000600954905060005b600880549050811015613c7657826003600060088481548110613a5557fe5b9060005260206000200160009054906101000a900473ffffffffffffffffffffffffffffffffffffffff1673ffffffffffffffffffffffffffffffffffffffff1673ffffffffffffffffffffffffffffffffffffffff168152602001908152602001600020541180613b3c5750816004600060088481548110613ad457fe5b9060005260206000200160009054906101000a900473ffffffffffffffffffffffffffffffffffffffff1673ffffffffffffffffffffffffffffffffffffffff1673ffffffffffffffffffffffffffffffffffffffff16815260200190815260200160002054115b15613b5357600a5460095494509450505050613caf565b613bdc6003600060088481548110613b6757fe5b9060005260206000200160009054906101000a900473ffffffffffffffffffffffffffffffffffffffff1673ffffffffffffffffffffffffffffffffffffffff1673ffffffffffffffffffffffffffffffffffffffff16815260200190815260200160002054846135e590919063ffffffff16565b9250613c676004600060088481548110613bf257fe5b9060005260206000200160009054906101000a900473ffffffffffffffffffffffffffffffffffffffff1673ffffffffffffffffffffffffffffffffffffffff1673ffffffffffffffffffffffffffffffffffffffff16815260200190815260200160002054836135e590919063ffffffff16565b91508080600101915050613a36565b50613c8e600954600a546134b790919063ffffffff16565b821015613ca657600a54600954935093505050613caf565b81819350935050505b9091565b60008083118290613d5f576040517f08c379a00000000000000000000000000000000000000000000000000000000081526004018080602001828103825283818151815260200191508051906020019080838360005b83811015613d24578082015181840152602081019050613d09565b50505050905090810190601f168015613d515780820380516001836020036101000a031916815260200191505b509250505060405180910390fd5b506000838581613d6b57fe5b049050809150509392505050565b600080600080613d8885614c32565b90506000613d9586614c63565b90506000613dbe82613db0858a6135e590919063ffffffff16565b6135e590919063ffffffff16565b90508083839550955095505050509193909250565b600080600080613dec8589614c9490919063ffffffff16565b90506000613e038689614c9490919063ffffffff16565b90506000613e1a8789614c9490919063ffffffff16565b90506000613e4382613e3585876135e590919063ffffffff16565b6135e590919063ffffffff16565b9050838184965096509650505050509450945094915050565b6060600267ffffffffffffffff81118015613e7657600080fd5b50604051908082528060200260200182016040528015613ea55781602001602082028036833780820191505090505b5090503081600081518110613eb657fe5b602002602001019073ffffffffffffffffffffffffffffffffffffffff16908173ffffffffffffffffffffffffffffffffffffffff16815250507f000000000000000000000000000000000000000000000000000000000000000073ffffffffffffffffffffffffffffffffffffffff1663ad5c46486040518163ffffffff1660e01b815260040160206040518083038186803b158015613f5657600080fd5b505afa158015613f6a573d6000803e3d6000fd5b505050506040513d6020811015613f8057600080fd5b810190808051906020019092919050505081600181518110613f9e57fe5b602002602001019073ffffffffffffffffffffffffffffffffffffffff16908173ffffffffffffffffffffffffffffffffffffffff1681525050614003307f000000000000000000000000000000000000000000000000000000000000000084612e10565b7f000000000000000000000000000000000000000000000000000000000000000073ffffffffffffffffffffffffffffffffffffffff1663791ac9478360008430426040518663ffffffff1660e01b815260040180868152602001858152602001806020018473ffffffffffffffffffffffffffffffffffffffff168152602001838152602001828103825285818151815260200191508051906020019060200280838360005b838110156140c55780820151818401526020810190506140aa565b505050509050019650505050505050600060405180830381600087803b1580156140ee57600080fd5b505af1158015614102573d6000803e3d6000fd5b505050505050565b614135307f000000000000000000000000000000000000000000000000000000000000000084612e10565b7f000000000000000000000000000000000000000000000000000000000000000073ffffffffffffffffffffffffffffffffffffffff1663f305d71982308560008061417f6120b9565b426040518863ffffffff1660e01b8152600401808773ffffffffffffffffffffffffffffffffffffffff1681526020018681526020018581526020018481526020018373ffffffffffffffffffffffffffffffffffffffff16815260200182815260200196505050505050506060604051808303818588803b15801561420457600080fd5b505af1158015614218573d6000803e3d6000fd5b50505050506040513d606081101561422f57600080fd5b810190808051906020019092919080519060200190929190805190602001909291905050505050505050565b6000600f5414801561426f57506000601154145b156142795761429c565b600f546010819055506011546012819055506000600f8190555060006011819055505b565b6000806000806000806142b087613589565b95509550955095509550955061430e87600460008c73ffffffffffffffffffffffffffffffffffffffff1673ffffffffffffffffffffffffffffffffffffffff168152602001908152602001600020546135e590919063ffffffff16565b600460008b73ffffffffffffffffffffffffffffffffffffffff1673ffffffffffffffffffffffffffffffffffffffff168152602001908152602001600020819055506143a386600360008c73ffffffffffffffffffffffffffffffffffffffff1673ffffffffffffffffffffffffffffffffffffffff168152602001908152602001600020546135e590919063ffffffff16565b600360008b73ffffffffffffffffffffffffffffffffffffffff1673ffffffffffffffffffffffffffffffffffffffff1681526020019081526020016000208190555061443885600360008b73ffffffffffffffffffffffffffffffffffffffff1673ffffffffffffffffffffffffffffffffffffffff1681526020019081526020016000205461350190919063ffffffff16565b600360008a73ffffffffffffffffffffffffffffffffffffffff1673ffffffffffffffffffffffffffffffffffffffff1681526020019081526020016000208190555061448481614d1a565b61448e8483614ebf565b8773ffffffffffffffffffffffffffffffffffffffff168973ffffffffffffffffffffffffffffffffffffffff167fddf252ad1be2c89b69c2b068fc378daa952ba7f163c4a11628f55a4df523b3ef856040518082815260200191505060405180910390a3505050505050505050565b60008060008060008061451087613589565b95509550955095509550955061456e86600360008c73ffffffffffffffffffffffffffffffffffffffff1673ffffffffffffffffffffffffffffffffffffffff168152602001908152602001600020546135e590919063ffffffff16565b600360008b73ffffffffffffffffffffffffffffffffffffffff1673ffffffffffffffffffffffffffffffffffffffff1681526020019081526020016000208190555061460383600460008b73ffffffffffffffffffffffffffffffffffffffff1673ffffffffffffffffffffffffffffffffffffffff1681526020019081526020016000205461350190919063ffffffff16565b600460008a73ffffffffffffffffffffffffffffffffffffffff1673ffffffffffffffffffffffffffffffffffffffff1681526020019081526020016000208190555061469885600360008b73ffffffffffffffffffffffffffffffffffffffff1673ffffffffffffffffffffffffffffffffffffffff1681526020019081526020016000205461350190919063ffffffff16565b600360008a73ffffffffffffffffffffffffffffffffffffffff1673ffffffffffffffffffffffffffffffffffffffff168152602001908152602001600020819055506146e481614d1a565b6146ee8483614ebf565b8773ffffffffffffffffffffffffffffffffffffffff168973ffffffffffffffffffffffffffffffffffffffff167fddf252ad1be2c89b69c2b068fc378daa952ba7f163c4a11628f55a4df523b3ef856040518082815260200191505060405180910390a3505050505050505050565b60008060008060008061477087613589565b9550955095509550955095506147ce86600360008c73ffffffffffffffffffffffffffffffffffffffff1673ffffffffffffffffffffffffffffffffffffffff168152602001908152602001600020546135e590919063ffffffff16565b600360008b73ffffffffffffffffffffffffffffffffffffffff1673ffffffffffffffffffffffffffffffffffffffff1681526020019081526020016000208190555061486385600360008b73ffffffffffffffffffffffffffffffffffffffff1673ffffffffffffffffffffffffffffffffffffffff1681526020019081526020016000205461350190919063ffffffff16565b600360008a73ffffffffffffffffffffffffffffffffffffffff1673ffffffffffffffffffffffffffffffffffffffff168152602001908152602001600020819055506148af81614d1a565b6148b98483614ebf565b8773ffffffffffffffffffffffffffffffffffffffff168973ffffffffffffffffffffffffffffffffffffffff167fddf252ad1be2c89b69c2b068fc378daa952ba7f163c4a11628f55a4df523b3ef856040518082815260200191505060405180910390a3505050505050505050565b60008060008060008061493b87613589565b95509550955095509550955061499987600460008c73ffffffffffffffffffffffffffffffffffffffff1673ffffffffffffffffffffffffffffffffffffffff168152602001908152602001600020546135e590919063ffffffff16565b600460008b73ffffffffffffffffffffffffffffffffffffffff1673ffffffffffffffffffffffffffffffffffffffff16815260200190815260200160002081905550614a2e86600360008c73ffffffffffffffffffffffffffffffffffffffff1673ffffffffffffffffffffffffffffffffffffffff168152602001908152602001600020546135e590919063ffffffff16565b600360008b73ffffffffffffffffffffffffffffffffffffffff1673ffffffffffffffffffffffffffffffffffffffff16815260200190815260200160002081905550614ac383600460008b73ffffffffffffffffffffffffffffffffffffffff1673ffffffffffffffffffffffffffffffffffffffff1681526020019081526020016000205461350190919063ffffffff16565b600460008a73ffffffffffffffffffffffffffffffffffffffff1673ffffffffffffffffffffffffffffffffffffffff16815260200190815260200160002081905550614b5885600360008b73ffffffffffffffffffffffffffffffffffffffff1673ffffffffffffffffffffffffffffffffffffffff1681526020019081526020016000205461350190919063ffffffff16565b600360008a73ffffffffffffffffffffffffffffffffffffffff1673ffffffffffffffffffffffffffffffffffffffff16815260200190815260200160002081905550614ba481614d1a565b614bae8483614ebf565b8773ffffffffffffffffffffffffffffffffffffffff168973ffffffffffffffffffffffffffffffffffffffff167fddf252ad1be2c89b69c2b068fc378daa952ba7f163c4a11628f55a4df523b3ef856040518082815260200191505060405180910390a3505050505050505050565b601054600f81905550601254601181905550565b6000614c5c6064614c4e600f5485614c9490919063ffffffff16565b6134b790919063ffffffff16565b9050919050565b6000614c8d6064614c7f60115485614c9490919063ffffffff16565b6134b790919063ffffffff16565b9050919050565b600080831415614ca75760009050614d14565b6000828402905082848281614cb857fe5b0414614d0f576040517f08c379a0000000000000000000000000000000000000000000000000000000008152600401808060200182810382526021815260200180614fb76021913960400191505060405180910390fd5b809150505b92915050565b6000614d2461348c565b90506000614d3b8284614c9490919063ffffffff16565b9050614d8f81600360003073ffffffffffffffffffffffffffffffffffffffff1673ffffffffffffffffffffffffffffffffffffffff1681526020019081526020016000205461350190919063ffffffff16565b600360003073ffffffffffffffffffffffffffffffffffffffff1673ffffffffffffffffffffffffffffffffffffffff16815260200190815260200160002081905550600760003073ffffffffffffffffffffffffffffffffffffffff1673ffffffffffffffffffffffffffffffffffffffff16815260200190815260200160002060009054906101000a900460ff1615614eba57614e7683600460003073ffffffffffffffffffffffffffffffffffffffff1673ffffffffffffffffffffffffffffffffffffffff1681526020019081526020016000205461350190919063ffffffff16565b600460003073ffffffffffffffffffffffffffffffffffffffff1673ffffffffffffffffffffffffffffffffffffffff168152602001908152602001600020819055505b505050565b614ed482600a546135e590919063ffffffff16565b600a81905550614eef81600b5461350190919063ffffffff16565b600b81905550505056fe45524332303a207472616e7366657220746f20746865207a65726f2061646472657373416d6f756e74206d757374206265206c657373207468616e20746f74616c207265666c656374696f6e734f776e61626c653a206e6577206f776e657220697320746865207a65726f206164647265737345524332303a20617070726f766520746f20746865207a65726f20616464726573735472616e7366657220616d6f756e74206578636565647320746865206d61785478416d6f756e742e536166654d6174683a206d756c7469706c69636174696f6e206f766572666c6f7745524332303a207472616e7366657220616d6f756e74206578636565647320616c6c6f77616e63655472616e7366657220616d6f756e74206d7573742062652067726561746572207468616e207a65726f45524332303a207472616e736665722066726f6d20746865207a65726f206164647265737345524332303a20617070726f76652066726f6d20746865207a65726f20616464726573734578636c75646564206164647265737365732063616e6e6f742063616c6c20746869732066756e6374696f6e596f7520646f6e27742068617665207065726d697373696f6e20746f20756e6c6f636b45524332303a2064656372656173656420616c6c6f77616e63652062656c6f77207a65726fa2646970667358221220bd894f2d8a32108e058727bf91e72902a00d9c275a473c58bea3f7249a78233264736f6c634300060c0033",
					"opcodes": "PUSH1 0xC0 PUSH1 0x40 MSTORE PUSH1 0x1 PUSH1 0x13 PUSH1 0x1 PUSH2 0x100 EXP DUP2 SLOAD DUP2 PUSH1 0xFF MUL NOT AND SWAP1 DUP4 ISZERO ISZERO MUL OR SWAP1 SSTORE POP CALLVALUE DUP1 ISZERO PUSH3 0x2C JUMPI PUSH1 0x0 DUP1 REVERT JUMPDEST POP PUSH1 0x40 MLOAD PUSH3 0x58B1 CODESIZE SUB DUP1 PUSH3 0x58B1 DUP4 CODECOPY DUP2 DUP2 ADD PUSH1 0x40 MSTORE PUSH2 0x140 DUP2 LT ISZERO PUSH3 0x53 JUMPI PUSH1 0x0 DUP1 REVERT JUMPDEST DUP2 ADD SWAP1 DUP1 DUP1 MLOAD PUSH1 0x40 MLOAD SWAP4 SWAP3 SWAP2 SWAP1 DUP5 PUSH5 0x100000000 DUP3 GT ISZERO PUSH3 0x74 JUMPI PUSH1 0x0 DUP1 REVERT JUMPDEST DUP4 DUP3 ADD SWAP2 POP PUSH1 0x20 DUP3 ADD DUP6 DUP2 GT ISZERO PUSH3 0x8B JUMPI PUSH1 0x0 DUP1 REVERT JUMPDEST DUP3 MLOAD DUP7 PUSH1 0x1 DUP3 MUL DUP4 ADD GT PUSH5 0x100000000 DUP3 GT OR ISZERO PUSH3 0xA9 JUMPI PUSH1 0x0 DUP1 REVERT JUMPDEST DUP1 DUP4 MSTORE PUSH1 0x20 DUP4 ADD SWAP3 POP POP POP SWAP1 DUP1 MLOAD SWAP1 PUSH1 0x20 ADD SWAP1 DUP1 DUP4 DUP4 PUSH1 0x0 JUMPDEST DUP4 DUP2 LT ISZERO PUSH3 0xDF JUMPI DUP1 DUP3 ADD MLOAD DUP2 DUP5 ADD MSTORE PUSH1 0x20 DUP2 ADD SWAP1 POP PUSH3 0xC2 JUMP JUMPDEST POP POP POP POP SWAP1 POP SWAP1 DUP2 ADD SWAP1 PUSH1 0x1F AND DUP1 ISZERO PUSH3 0x10D JUMPI DUP1 DUP3 SUB DUP1 MLOAD PUSH1 0x1 DUP4 PUSH1 0x20 SUB PUSH2 0x100 EXP SUB NOT AND DUP2 MSTORE PUSH1 0x20 ADD SWAP2 POP JUMPDEST POP PUSH1 0x40 MSTORE PUSH1 0x20 ADD DUP1 MLOAD PUSH1 0x40 MLOAD SWAP4 SWAP3 SWAP2 SWAP1 DUP5 PUSH5 0x100000000 DUP3 GT ISZERO PUSH3 0x131 JUMPI PUSH1 0x0 DUP1 REVERT JUMPDEST DUP4 DUP3 ADD SWAP2 POP PUSH1 0x20 DUP3 ADD DUP6 DUP2 GT ISZERO PUSH3 0x148 JUMPI PUSH1 0x0 DUP1 REVERT JUMPDEST DUP3 MLOAD DUP7 PUSH1 0x1 DUP3 MUL DUP4 ADD GT PUSH5 0x100000000 DUP3 GT OR ISZERO PUSH3 0x166 JUMPI PUSH1 0x0 DUP1 REVERT JUMPDEST DUP1 DUP4 MSTORE PUSH1 0x20 DUP4 ADD SWAP3 POP POP POP SWAP1 DUP1 MLOAD SWAP1 PUSH1 0x20 ADD SWAP1 DUP1 DUP4 DUP4 PUSH1 0x0 JUMPDEST DUP4 DUP2 LT ISZERO PUSH3 0x19C JUMPI DUP1 DUP3 ADD MLOAD DUP2 DUP5 ADD MSTORE PUSH1 0x20 DUP2 ADD SWAP1 POP PUSH3 0x17F JUMP JUMPDEST POP POP POP POP SWAP1 POP SWAP1 DUP2 ADD SWAP1 PUSH1 0x1F AND DUP1 ISZERO PUSH3 0x1CA JUMPI DUP1 DUP3 SUB DUP1 MLOAD PUSH1 0x1 DUP4 PUSH1 0x20 SUB PUSH2 0x100 EXP SUB NOT AND DUP2 MSTORE PUSH1 0x20 ADD SWAP2 POP JUMPDEST POP PUSH1 0x40 MSTORE PUSH1 0x20 ADD DUP1 MLOAD SWAP1 PUSH1 0x20 ADD SWAP1 SWAP3 SWAP2 SWAP1 DUP1 MLOAD SWAP1 PUSH1 0x20 ADD SWAP1 SWAP3 SWAP2 SWAP1 DUP1 MLOAD SWAP1 PUSH1 0x20 ADD SWAP1 SWAP3 SWAP2 SWAP1 DUP1 MLOAD SWAP1 PUSH1 0x20 ADD SWAP1 SWAP3 SWAP2 SWAP1 DUP1 MLOAD SWAP1 PUSH1 0x20 ADD SWAP1 SWAP3 SWAP2 SWAP1 DUP1 MLOAD SWAP1 PUSH1 0x20 ADD SWAP1 SWAP3 SWAP2 SWAP1 DUP1 MLOAD SWAP1 PUSH1 0x20 ADD SWAP1 SWAP3 SWAP2 SWAP1 DUP1 MLOAD SWAP1 PUSH1 0x20 ADD SWAP1 SWAP3 SWAP2 SWAP1 POP POP POP DUP10 PUSH1 0xC SWAP1 DUP1 MLOAD SWAP1 PUSH1 0x20 ADD SWAP1 PUSH3 0x23C SWAP3 SWAP2 SWAP1 PUSH3 0x6A8 JUMP JUMPDEST POP DUP9 PUSH1 0xD SWAP1 DUP1 MLOAD SWAP1 PUSH1 0x20 ADD SWAP1 PUSH3 0x255 SWAP3 SWAP2 SWAP1 PUSH3 0x6A8 JUMP JUMPDEST POP DUP8 PUSH1 0xE DUP2 SWAP1 SSTORE POP PUSH1 0xE SLOAD PUSH1 0xA EXP DUP8 MUL PUSH1 0x9 DUP2 SWAP1 SSTORE POP PUSH1 0x9 SLOAD PUSH1 0x0 NOT DUP2 PUSH3 0x279 JUMPI INVALID JUMPDEST MOD PUSH1 0x0 NOT SUB PUSH1 0xA DUP2 SWAP1 SSTORE POP DUP6 PUSH1 0xF DUP2 SWAP1 SSTORE POP DUP5 PUSH1 0x11 DUP2 SWAP1 SSTORE POP DUP6 PUSH1 0x10 DUP2 SWAP1 SSTORE POP DUP5 PUSH1 0x12 DUP2 SWAP1 SSTORE POP PUSH1 0xE SLOAD PUSH1 0xA EXP DUP5 MUL PUSH1 0x14 DUP2 SWAP1 SSTORE POP PUSH1 0xE SLOAD PUSH1 0xA EXP DUP4 MUL PUSH1 0x15 DUP2 SWAP1 SSTORE POP PUSH1 0xA SLOAD PUSH1 0x3 PUSH1 0x0 DUP4 PUSH20 0xFFFFFFFFFFFFFFFFFFFFFFFFFFFFFFFFFFFFFFFF AND PUSH20 0xFFFFFFFFFFFFFFFFFFFFFFFFFFFFFFFFFFFFFFFF AND DUP2 MSTORE PUSH1 0x20 ADD SWAP1 DUP2 MSTORE PUSH1 0x20 ADD PUSH1 0x0 KECCAK256 DUP2 SWAP1 SSTORE POP PUSH1 0x0 DUP3 SWAP1 POP DUP1 PUSH20 0xFFFFFFFFFFFFFFFFFFFFFFFFFFFFFFFFFFFFFFFF AND PUSH4 0xC45A0155 PUSH1 0x40 MLOAD DUP2 PUSH4 0xFFFFFFFF AND PUSH1 0xE0 SHL DUP2 MSTORE PUSH1 0x4 ADD PUSH1 0x20 PUSH1 0x40 MLOAD DUP1 DUP4 SUB DUP2 DUP7 DUP1 EXTCODESIZE ISZERO DUP1 ISZERO PUSH3 0x34E JUMPI PUSH1 0x0 DUP1 REVERT JUMPDEST POP GAS STATICCALL ISZERO DUP1 ISZERO PUSH3 0x363 JUMPI RETURNDATASIZE PUSH1 0x0 DUP1 RETURNDATACOPY RETURNDATASIZE PUSH1 0x0 REVERT JUMPDEST POP POP POP POP PUSH1 0x40 MLOAD RETURNDATASIZE PUSH1 0x20 DUP2 LT ISZERO PUSH3 0x37A JUMPI PUSH1 0x0 DUP1 REVERT JUMPDEST DUP2 ADD SWAP1 DUP1 DUP1 MLOAD SWAP1 PUSH1 0x20 ADD SWAP1 SWAP3 SWAP2 SWAP1 POP POP POP PUSH20 0xFFFFFFFFFFFFFFFFFFFFFFFFFFFFFFFFFFFFFFFF AND PUSH4 0xC9C65396 ADDRESS DUP4 PUSH20 0xFFFFFFFFFFFFFFFFFFFFFFFFFFFFFFFFFFFFFFFF AND PUSH4 0xAD5C4648 PUSH1 0x40 MLOAD DUP2 PUSH4 0xFFFFFFFF AND PUSH1 0xE0 SHL DUP2 MSTORE PUSH1 0x4 ADD PUSH1 0x20 PUSH1 0x40 MLOAD DUP1 DUP4 SUB DUP2 DUP7 DUP1 EXTCODESIZE ISZERO DUP1 ISZERO PUSH3 0x3EE JUMPI PUSH1 0x0 DUP1 REVERT JUMPDEST POP GAS STATICCALL ISZERO DUP1 ISZERO PUSH3 0x403 JUMPI RETURNDATASIZE PUSH1 0x0 DUP1 RETURNDATACOPY RETURNDATASIZE PUSH1 0x0 REVERT JUMPDEST POP POP POP POP PUSH1 0x40 MLOAD RETURNDATASIZE PUSH1 0x20 DUP2 LT ISZERO PUSH3 0x41A JUMPI PUSH1 0x0 DUP1 REVERT JUMPDEST DUP2 ADD SWAP1 DUP1 DUP1 MLOAD SWAP1 PUSH1 0x20 ADD SWAP1 SWAP3 SWAP2 SWAP1 POP POP POP PUSH1 0x40 MLOAD DUP4 PUSH4 0xFFFFFFFF AND PUSH1 0xE0 SHL DUP2 MSTORE PUSH1 0x4 ADD DUP1 DUP4 PUSH20 0xFFFFFFFFFFFFFFFFFFFFFFFFFFFFFFFFFFFFFFFF AND DUP2 MSTORE PUSH1 0x20 ADD DUP3 PUSH20 0xFFFFFFFFFFFFFFFFFFFFFFFFFFFFFFFFFFFFFFFF AND DUP2 MSTORE PUSH1 0x20 ADD SWAP3 POP POP POP PUSH1 0x20 PUSH1 0x40 MLOAD DUP1 DUP4 SUB DUP2 PUSH1 0x0 DUP8 DUP1 EXTCODESIZE ISZERO DUP1 ISZERO PUSH3 0x495 JUMPI PUSH1 0x0 DUP1 REVERT JUMPDEST POP GAS CALL ISZERO DUP1 ISZERO PUSH3 0x4AA JUMPI RETURNDATASIZE PUSH1 0x0 DUP1 RETURNDATACOPY RETURNDATASIZE PUSH1 0x0 REVERT JUMPDEST POP POP POP POP PUSH1 0x40 MLOAD RETURNDATASIZE PUSH1 0x20 DUP2 LT ISZERO PUSH3 0x4C1 JUMPI PUSH1 0x0 DUP1 REVERT JUMPDEST DUP2 ADD SWAP1 DUP1 DUP1 MLOAD SWAP1 PUSH1 0x20 ADD SWAP1 SWAP3 SWAP2 SWAP1 POP POP POP PUSH20 0xFFFFFFFFFFFFFFFFFFFFFFFFFFFFFFFFFFFFFFFF AND PUSH1 0xA0 DUP2 PUSH20 0xFFFFFFFFFFFFFFFFFFFFFFFFFFFFFFFFFFFFFFFF AND PUSH1 0x60 SHL DUP2 MSTORE POP POP DUP1 PUSH20 0xFFFFFFFFFFFFFFFFFFFFFFFFFFFFFFFFFFFFFFFF AND PUSH1 0x80 DUP2 PUSH20 0xFFFFFFFFFFFFFFFFFFFFFFFFFFFFFFFFFFFFFFFF AND PUSH1 0x60 SHL DUP2 MSTORE POP POP PUSH1 0x1 PUSH1 0x6 PUSH1 0x0 DUP5 PUSH20 0xFFFFFFFFFFFFFFFFFFFFFFFFFFFFFFFFFFFFFFFF AND PUSH20 0xFFFFFFFFFFFFFFFFFFFFFFFFFFFFFFFFFFFFFFFF AND DUP2 MSTORE PUSH1 0x20 ADD SWAP1 DUP2 MSTORE PUSH1 0x20 ADD PUSH1 0x0 KECCAK256 PUSH1 0x0 PUSH2 0x100 EXP DUP2 SLOAD DUP2 PUSH1 0xFF MUL NOT AND SWAP1 DUP4 ISZERO ISZERO MUL OR SWAP1 SSTORE POP PUSH1 0x1 PUSH1 0x6 PUSH1 0x0 ADDRESS PUSH20 0xFFFFFFFFFFFFFFFFFFFFFFFFFFFFFFFFFFFFFFFF AND PUSH20 0xFFFFFFFFFFFFFFFFFFFFFFFFFFFFFFFFFFFFFFFF AND DUP2 MSTORE PUSH1 0x20 ADD SWAP1 DUP2 MSTORE PUSH1 0x20 ADD PUSH1 0x0 KECCAK256 PUSH1 0x0 PUSH2 0x100 EXP DUP2 SLOAD DUP2 PUSH1 0xFF MUL NOT AND SWAP1 DUP4 ISZERO ISZERO MUL OR SWAP1 SSTORE POP DUP2 PUSH1 0x0 DUP1 PUSH2 0x100 EXP DUP2 SLOAD DUP2 PUSH20 0xFFFFFFFFFFFFFFFFFFFFFFFFFFFFFFFFFFFFFFFF MUL NOT AND SWAP1 DUP4 PUSH20 0xFFFFFFFFFFFFFFFFFFFFFFFFFFFFFFFFFFFFFFFF AND MUL OR SWAP1 SSTORE POP DUP2 PUSH20 0xFFFFFFFFFFFFFFFFFFFFFFFFFFFFFFFFFFFFFFFF AND PUSH1 0x0 PUSH20 0xFFFFFFFFFFFFFFFFFFFFFFFFFFFFFFFFFFFFFFFF AND PUSH32 0xDDF252AD1BE2C89B69C2B068FC378DAA952BA7F163C4A11628F55A4DF523B3EF PUSH1 0x9 SLOAD PUSH1 0x40 MLOAD DUP1 DUP3 DUP2 MSTORE PUSH1 0x20 ADD SWAP2 POP POP PUSH1 0x40 MLOAD DUP1 SWAP2 SUB SWAP1 LOG3 POP POP POP POP POP POP POP POP POP POP POP PUSH3 0x74E JUMP JUMPDEST DUP3 DUP1 SLOAD PUSH1 0x1 DUP2 PUSH1 0x1 AND ISZERO PUSH2 0x100 MUL SUB AND PUSH1 0x2 SWAP1 DIV SWAP1 PUSH1 0x0 MSTORE PUSH1 0x20 PUSH1 0x0 KECCAK256 SWAP1 PUSH1 0x1F ADD PUSH1 0x20 SWAP1 DIV DUP2 ADD SWAP3 DUP3 PUSH1 0x1F LT PUSH3 0x6EB JUMPI DUP1 MLOAD PUSH1 0xFF NOT AND DUP4 DUP1 ADD OR DUP6 SSTORE PUSH3 0x71C JUMP JUMPDEST DUP3 DUP1 ADD PUSH1 0x1 ADD DUP6 SSTORE DUP3 ISZERO PUSH3 0x71C JUMPI SWAP2 DUP3 ADD JUMPDEST DUP3 DUP2 GT ISZERO PUSH3 0x71B JUMPI DUP3 MLOAD DUP3 SSTORE SWAP2 PUSH1 0x20 ADD SWAP2 SWAP1 PUSH1 0x1 ADD SWAP1 PUSH3 0x6FE JUMP JUMPDEST JUMPDEST POP SWAP1 POP PUSH3 0x72B SWAP2 SWAP1 PUSH3 0x72F JUMP JUMPDEST POP SWAP1 JUMP JUMPDEST JUMPDEST DUP1 DUP3 GT ISZERO PUSH3 0x74A JUMPI PUSH1 0x0 DUP2 PUSH1 0x0 SWAP1 SSTORE POP PUSH1 0x1 ADD PUSH3 0x730 JUMP JUMPDEST POP SWAP1 JUMP JUMPDEST PUSH1 0x80 MLOAD PUSH1 0x60 SHR PUSH1 0xA0 MLOAD PUSH1 0x60 SHR PUSH2 0x511B PUSH3 0x796 PUSH1 0x0 CODECOPY DUP1 PUSH2 0x1A41 MSTORE DUP1 PUSH2 0x328C MSTORE POP DUP1 PUSH2 0xFCD MSTORE DUP1 PUSH2 0x3EF2 MSTORE DUP1 PUSH2 0x3FDE MSTORE DUP1 PUSH2 0x4005 MSTORE DUP1 PUSH2 0x4110 MSTORE DUP1 PUSH2 0x4137 MSTORE POP PUSH2 0x511B PUSH1 0x0 RETURN INVALID PUSH1 0x80 PUSH1 0x40 MSTORE PUSH1 0x4 CALLDATASIZE LT PUSH2 0x24A JUMPI PUSH1 0x0 CALLDATALOAD PUSH1 0xE0 SHR DUP1 PUSH4 0x6BC87C3A GT PUSH2 0x139 JUMPI DUP1 PUSH4 0xA9059CBB GT PUSH2 0xB6 JUMPI DUP1 PUSH4 0xD543DBEB GT PUSH2 0x7A JUMPI DUP1 PUSH4 0xD543DBEB EQ PUSH2 0xC57 JUMPI DUP1 PUSH4 0xDD467064 EQ PUSH2 0xC92 JUMPI DUP1 PUSH4 0xDD62ED3E EQ PUSH2 0xCCD JUMPI DUP1 PUSH4 0xEA2F0B37 EQ PUSH2 0xD52 JUMPI DUP1 PUSH4 0xF0F165AF EQ PUSH2 0xDA3 JUMPI DUP1 PUSH4 0xF2FDE38B EQ PUSH2 0xDDE JUMPI PUSH2 0x251 JUMP JUMPDEST DUP1 PUSH4 0xA9059CBB EQ PUSH2 0xB12 JUMPI DUP1 PUSH4 0xB2BDFA7B EQ PUSH2 0xB83 JUMPI DUP1 PUSH4 0xB6C52324 EQ PUSH2 0xBC4 JUMPI DUP1 PUSH4 0xC49B9A80 EQ PUSH2 0xBEF JUMPI DUP1 PUSH4 0xD12A7688 EQ PUSH2 0xC2C JUMPI PUSH2 0x251 JUMP JUMPDEST DUP1 PUSH4 0x8DA5CB5B GT PUSH2 0xFD JUMPI DUP1 PUSH4 0x8DA5CB5B EQ PUSH2 0x97E JUMPI DUP1 PUSH4 0x8EE88C53 EQ PUSH2 0x9BF JUMPI DUP1 PUSH4 0x95D89B41 EQ PUSH2 0x9FA JUMPI DUP1 PUSH4 0xA457C2D7 EQ PUSH2 0xA8A JUMPI DUP1 PUSH4 0xA69DF4B5 EQ PUSH2 0xAFB JUMPI PUSH2 0x251 JUMP JUMPDEST DUP1 PUSH4 0x6BC87C3A EQ PUSH2 0x845 JUMPI DUP1 PUSH4 0x70A08231 EQ PUSH2 0x870 JUMPI DUP1 PUSH4 0x715018A6 EQ PUSH2 0x8D5 JUMPI DUP1 PUSH4 0x7D1DB4A5 EQ PUSH2 0x8EC JUMPI DUP1 PUSH4 0x88F82020 EQ PUSH2 0x917 JUMPI PUSH2 0x251 JUMP JUMPDEST DUP1 PUSH4 0x39509351 GT PUSH2 0x1C7 JUMPI DUP1 PUSH4 0x48C54B9D GT PUSH2 0x18B JUMPI DUP1 PUSH4 0x48C54B9D EQ PUSH2 0x708 JUMPI DUP1 PUSH4 0x49BD5A5E EQ PUSH2 0x71F JUMPI DUP1 PUSH4 0x4A74BB02 EQ PUSH2 0x760 JUMPI DUP1 PUSH4 0x52390C02 EQ PUSH2 0x78D JUMPI DUP1 PUSH4 0x5342ACB4 EQ PUSH2 0x7DE JUMPI PUSH2 0x251 JUMP JUMPDEST DUP1 PUSH4 0x39509351 EQ PUSH2 0x585 JUMPI DUP1 PUSH4 0x3B124FE7 EQ PUSH2 0x5F6 JUMPI DUP1 PUSH4 0x3BD5D173 EQ PUSH2 0x621 JUMPI DUP1 PUSH4 0x437823EC EQ PUSH2 0x65C JUMPI DUP1 PUSH4 0x4549B039 EQ PUSH2 0x6AD JUMPI PUSH2 0x251 JUMP JUMPDEST DUP1 PUSH4 0x18160DDD GT PUSH2 0x20E JUMPI DUP1 PUSH4 0x18160DDD EQ PUSH2 0x3FE JUMPI DUP1 PUSH4 0x23B872DD EQ PUSH2 0x429 JUMPI DUP1 PUSH4 0x2D838119 EQ PUSH2 0x4BA JUMPI DUP1 PUSH4 0x313CE567 EQ PUSH2 0x509 JUMPI DUP1 PUSH4 0x3685D419 EQ PUSH2 0x534 JUMPI PUSH2 0x251 JUMP JUMPDEST DUP1 PUSH4 0x61C82D0 EQ PUSH2 0x256 JUMPI DUP1 PUSH4 0x6FDDE03 EQ PUSH2 0x291 JUMPI DUP1 PUSH4 0x95EA7B3 EQ PUSH2 0x321 JUMPI DUP1 PUSH4 0x13114A9D EQ PUSH2 0x392 JUMPI DUP1 PUSH4 0x1694505E EQ PUSH2 0x3BD JUMPI PUSH2 0x251 JUMP JUMPDEST CALLDATASIZE PUSH2 0x251 JUMPI STOP JUMPDEST PUSH1 0x0 DUP1 REVERT JUMPDEST CALLVALUE DUP1 ISZERO PUSH2 0x262 JUMPI PUSH1 0x0 DUP1 REVERT JUMPDEST POP PUSH2 0x28F PUSH1 0x4 DUP1 CALLDATASIZE SUB PUSH1 0x20 DUP2 LT ISZERO PUSH2 0x279 JUMPI PUSH1 0x0 DUP1 REVERT JUMPDEST DUP2 ADD SWAP1 DUP1 DUP1 CALLDATALOAD SWAP1 PUSH1 0x20 ADD SWAP1 SWAP3 SWAP2 SWAP1 POP POP POP PUSH2 0xE2F JUMP JUMPDEST STOP JUMPDEST CALLVALUE DUP1 ISZERO PUSH2 0x29D JUMPI PUSH1 0x0 DUP1 REVERT JUMPDEST POP PUSH2 0x2A6 PUSH2 0xF01 JUMP JUMPDEST PUSH1 0x40 MLOAD DUP1 DUP1 PUSH1 0x20 ADD DUP3 DUP2 SUB DUP3 MSTORE DUP4 DUP2 DUP2 MLOAD DUP2 MSTORE PUSH1 0x20 ADD SWAP2 POP DUP1 MLOAD SWAP1 PUSH1 0x20 ADD SWAP1 DUP1 DUP4 DUP4 PUSH1 0x0 JUMPDEST DUP4 DUP2 LT ISZERO PUSH2 0x2E6 JUMPI DUP1 DUP3 ADD MLOAD DUP2 DUP5 ADD MSTORE PUSH1 0x20 DUP2 ADD SWAP1 POP PUSH2 0x2CB JUMP JUMPDEST POP POP POP POP SWAP1 POP SWAP1 DUP2 ADD SWAP1 PUSH1 0x1F AND DUP1 ISZERO PUSH2 0x313 JUMPI DUP1 DUP3 SUB DUP1 MLOAD PUSH1 0x1 DUP4 PUSH1 0x20 SUB PUSH2 0x100 EXP SUB NOT AND DUP2 MSTORE PUSH1 0x20 ADD SWAP2 POP JUMPDEST POP SWAP3 POP POP POP PUSH1 0x40 MLOAD DUP1 SWAP2 SUB SWAP1 RETURN JUMPDEST CALLVALUE DUP1 ISZERO PUSH2 0x32D JUMPI PUSH1 0x0 DUP1 REVERT JUMPDEST POP PUSH2 0x37A PUSH1 0x4 DUP1 CALLDATASIZE SUB PUSH1 0x40 DUP2 LT ISZERO PUSH2 0x344 JUMPI PUSH1 0x0 DUP1 REVERT JUMPDEST DUP2 ADD SWAP1 DUP1 DUP1 CALLDATALOAD PUSH20 0xFFFFFFFFFFFFFFFFFFFFFFFFFFFFFFFFFFFFFFFF AND SWAP1 PUSH1 0x20 ADD SWAP1 SWAP3 SWAP2 SWAP1 DUP1 CALLDATALOAD SWAP1 PUSH1 0x20 ADD SWAP1 SWAP3 SWAP2 SWAP1 POP POP POP PUSH2 0xFA3 JUMP JUMPDEST PUSH1 0x40 MLOAD DUP1 DUP3 ISZERO ISZERO DUP2 MSTORE PUSH1 0x20 ADD SWAP2 POP POP PUSH1 0x40 MLOAD DUP1 SWAP2 SUB SWAP1 RETURN JUMPDEST CALLVALUE DUP1 ISZERO PUSH2 0x39E JUMPI PUSH1 0x0 DUP1 REVERT JUMPDEST POP PUSH2 0x3A7 PUSH2 0xFC1 JUMP JUMPDEST PUSH1 0x40 MLOAD DUP1 DUP3 DUP2 MSTORE PUSH1 0x20 ADD SWAP2 POP POP PUSH1 0x40 MLOAD DUP1 SWAP2 SUB SWAP1 RETURN JUMPDEST CALLVALUE DUP1 ISZERO PUSH2 0x3C9 JUMPI PUSH1 0x0 DUP1 REVERT JUMPDEST POP PUSH2 0x3D2 PUSH2 0xFCB JUMP JUMPDEST PUSH1 0x40 MLOAD DUP1 DUP3 PUSH20 0xFFFFFFFFFFFFFFFFFFFFFFFFFFFFFFFFFFFFFFFF AND DUP2 MSTORE PUSH1 0x20 ADD SWAP2 POP POP PUSH1 0x40 MLOAD DUP1 SWAP2 SUB SWAP1 RETURN JUMPDEST CALLVALUE DUP1 ISZERO PUSH2 0x40A JUMPI PUSH1 0x0 DUP1 REVERT JUMPDEST POP PUSH2 0x413 PUSH2 0xFEF JUMP JUMPDEST PUSH1 0x40 MLOAD DUP1 DUP3 DUP2 MSTORE PUSH1 0x20 ADD SWAP2 POP POP PUSH1 0x40 MLOAD DUP1 SWAP2 SUB SWAP1 RETURN JUMPDEST CALLVALUE DUP1 ISZERO PUSH2 0x435 JUMPI PUSH1 0x0 DUP1 REVERT JUMPDEST POP PUSH2 0x4A2 PUSH1 0x4 DUP1 CALLDATASIZE SUB PUSH1 0x60 DUP2 LT ISZERO PUSH2 0x44C JUMPI PUSH1 0x0 DUP1 REVERT JUMPDEST DUP2 ADD SWAP1 DUP1 DUP1 CALLDATALOAD PUSH20 0xFFFFFFFFFFFFFFFFFFFFFFFFFFFFFFFFFFFFFFFF AND SWAP1 PUSH1 0x20 ADD SWAP1 SWAP3 SWAP2 SWAP1 DUP1 CALLDATALOAD PUSH20 0xFFFFFFFFFFFFFFFFFFFFFFFFFFFFFFFFFFFFFFFF AND SWAP1 PUSH1 0x20 ADD SWAP1 SWAP3 SWAP2 SWAP1 DUP1 CALLDATALOAD SWAP1 PUSH1 0x20 ADD SWAP1 SWAP3 SWAP2 SWAP1 POP POP POP PUSH2 0xFF9 JUMP JUMPDEST PUSH1 0x40 MLOAD DUP1 DUP3 ISZERO ISZERO DUP2 MSTORE PUSH1 0x20 ADD SWAP2 POP POP PUSH1 0x40 MLOAD DUP1 SWAP2 SUB SWAP1 RETURN JUMPDEST CALLVALUE DUP1 ISZERO PUSH2 0x4C6 JUMPI PUSH1 0x0 DUP1 REVERT JUMPDEST POP PUSH2 0x4F3 PUSH1 0x4 DUP1 CALLDATASIZE SUB PUSH1 0x20 DUP2 LT ISZERO PUSH2 0x4DD JUMPI PUSH1 0x0 DUP1 REVERT JUMPDEST DUP2 ADD SWAP1 DUP1 DUP1 CALLDATALOAD SWAP1 PUSH1 0x20 ADD SWAP1 SWAP3 SWAP2 SWAP1 POP POP POP PUSH2 0x10D2 JUMP JUMPDEST PUSH1 0x40 MLOAD DUP1 DUP3 DUP2 MSTORE PUSH1 0x20 ADD SWAP2 POP POP PUSH1 0x40 MLOAD DUP1 SWAP2 SUB SWAP1 RETURN JUMPDEST CALLVALUE DUP1 ISZERO PUSH2 0x515 JUMPI PUSH1 0x0 DUP1 REVERT JUMPDEST POP PUSH2 0x51E PUSH2 0x1156 JUMP JUMPDEST PUSH1 0x40 MLOAD DUP1 DUP3 DUP2 MSTORE PUSH1 0x20 ADD SWAP2 POP POP PUSH1 0x40 MLOAD DUP1 SWAP2 SUB SWAP1 RETURN JUMPDEST CALLVALUE DUP1 ISZERO PUSH2 0x540 JUMPI PUSH1 0x0 DUP1 REVERT JUMPDEST POP PUSH2 0x583 PUSH1 0x4 DUP1 CALLDATASIZE SUB PUSH1 0x20 DUP2 LT ISZERO PUSH2 0x557 JUMPI PUSH1 0x0 DUP1 REVERT JUMPDEST DUP2 ADD SWAP1 DUP1 DUP1 CALLDATALOAD PUSH20 0xFFFFFFFFFFFFFFFFFFFFFFFFFFFFFFFFFFFFFFFF AND SWAP1 PUSH1 0x20 ADD SWAP1 SWAP3 SWAP2 SWAP1 POP POP POP PUSH2 0x1160 JUMP JUMPDEST STOP JUMPDEST CALLVALUE DUP1 ISZERO PUSH2 0x591 JUMPI PUSH1 0x0 DUP1 REVERT JUMPDEST POP PUSH2 0x5DE PUSH1 0x4 DUP1 CALLDATASIZE SUB PUSH1 0x40 DUP2 LT ISZERO PUSH2 0x5A8 JUMPI PUSH1 0x0 DUP1 REVERT JUMPDEST DUP2 ADD SWAP1 DUP1 DUP1 CALLDATALOAD PUSH20 0xFFFFFFFFFFFFFFFFFFFFFFFFFFFFFFFFFFFFFFFF AND SWAP1 PUSH1 0x20 ADD SWAP1 SWAP3 SWAP2 SWAP1 DUP1 CALLDATALOAD SWAP1 PUSH1 0x20 ADD SWAP1 SWAP3 SWAP2 SWAP1 POP POP POP PUSH2 0x14EA JUMP JUMPDEST PUSH1 0x40 MLOAD DUP1 DUP3 ISZERO ISZERO DUP2 MSTORE PUSH1 0x20 ADD SWAP2 POP POP PUSH1 0x40 MLOAD DUP1 SWAP2 SUB SWAP1 RETURN JUMPDEST CALLVALUE DUP1 ISZERO PUSH2 0x602 JUMPI PUSH1 0x0 DUP1 REVERT JUMPDEST POP PUSH2 0x60B PUSH2 0x159D JUMP JUMPDEST PUSH1 0x40 MLOAD DUP1 DUP3 DUP2 MSTORE PUSH1 0x20 ADD SWAP2 POP POP PUSH1 0x40 MLOAD DUP1 SWAP2 SUB SWAP1 RETURN JUMPDEST CALLVALUE DUP1 ISZERO PUSH2 0x62D JUMPI PUSH1 0x0 DUP1 REVERT JUMPDEST POP PUSH2 0x65A PUSH1 0x4 DUP1 CALLDATASIZE SUB PUSH1 0x20 DUP2 LT ISZERO PUSH2 0x644 JUMPI PUSH1 0x0 DUP1 REVERT JUMPDEST DUP2 ADD SWAP1 DUP1 DUP1 CALLDATALOAD SWAP1 PUSH1 0x20 ADD SWAP1 SWAP3 SWAP2 SWAP1 POP POP POP PUSH2 0x15A3 JUMP JUMPDEST STOP JUMPDEST CALLVALUE DUP1 ISZERO PUSH2 0x668 JUMPI PUSH1 0x0 DUP1 REVERT JUMPDEST POP PUSH2 0x6AB PUSH1 0x4 DUP1 CALLDATASIZE SUB PUSH1 0x20 DUP2 LT ISZERO PUSH2 0x67F JUMPI PUSH1 0x0 DUP1 REVERT JUMPDEST DUP2 ADD SWAP1 DUP1 DUP1 CALLDATALOAD PUSH20 0xFFFFFFFFFFFFFFFFFFFFFFFFFFFFFFFFFFFFFFFF AND SWAP1 PUSH1 0x20 ADD SWAP1 SWAP3 SWAP2 SWAP1 POP POP POP PUSH2 0x1734 JUMP JUMPDEST STOP JUMPDEST CALLVALUE DUP1 ISZERO PUSH2 0x6B9 JUMPI PUSH1 0x0 DUP1 REVERT JUMPDEST POP PUSH2 0x6F2 PUSH1 0x4 DUP1 CALLDATASIZE SUB PUSH1 0x40 DUP2 LT ISZERO PUSH2 0x6D0 JUMPI PUSH1 0x0 DUP1 REVERT JUMPDEST DUP2 ADD SWAP1 DUP1 DUP1 CALLDATALOAD SWAP1 PUSH1 0x20 ADD SWAP1 SWAP3 SWAP2 SWAP1 DUP1 CALLDATALOAD ISZERO ISZERO SWAP1 PUSH1 0x20 ADD SWAP1 SWAP3 SWAP2 SWAP1 POP POP POP PUSH2 0x1857 JUMP JUMPDEST PUSH1 0x40 MLOAD DUP1 DUP3 DUP2 MSTORE PUSH1 0x20 ADD SWAP2 POP POP PUSH1 0x40 MLOAD DUP1 SWAP2 SUB SWAP1 RETURN JUMPDEST CALLVALUE DUP1 ISZERO PUSH2 0x714 JUMPI PUSH1 0x0 DUP1 REVERT JUMPDEST POP PUSH2 0x71D PUSH2 0x190E JUMP JUMPDEST STOP JUMPDEST CALLVALUE DUP1 ISZERO PUSH2 0x72B JUMPI PUSH1 0x0 DUP1 REVERT JUMPDEST POP PUSH2 0x734 PUSH2 0x1A3F JUMP JUMPDEST PUSH1 0x40 MLOAD DUP1 DUP3 PUSH20 0xFFFFFFFFFFFFFFFFFFFFFFFFFFFFFFFFFFFFFFFF AND DUP2 MSTORE PUSH1 0x20 ADD SWAP2 POP POP PUSH1 0x40 MLOAD DUP1 SWAP2 SUB SWAP1 RETURN JUMPDEST CALLVALUE DUP1 ISZERO PUSH2 0x76C JUMPI PUSH1 0x0 DUP1 REVERT JUMPDEST POP PUSH2 0x775 PUSH2 0x1A63 JUMP JUMPDEST PUSH1 0x40 MLOAD DUP1 DUP3 ISZERO ISZERO DUP2 MSTORE PUSH1 0x20 ADD SWAP2 POP POP PUSH1 0x40 MLOAD DUP1 SWAP2 SUB SWAP1 RETURN JUMPDEST CALLVALUE DUP1 ISZERO PUSH2 0x799 JUMPI PUSH1 0x0 DUP1 REVERT JUMPDEST POP PUSH2 0x7DC PUSH1 0x4 DUP1 CALLDATASIZE SUB PUSH1 0x20 DUP2 LT ISZERO PUSH2 0x7B0 JUMPI PUSH1 0x0 DUP1 REVERT JUMPDEST DUP2 ADD SWAP1 DUP1 DUP1 CALLDATALOAD PUSH20 0xFFFFFFFFFFFFFFFFFFFFFFFFFFFFFFFFFFFFFFFF AND SWAP1 PUSH1 0x20 ADD SWAP1 SWAP3 SWAP2 SWAP1 POP POP POP PUSH2 0x1A76 JUMP JUMPDEST STOP JUMPDEST CALLVALUE DUP1 ISZERO PUSH2 0x7EA JUMPI PUSH1 0x0 DUP1 REVERT JUMPDEST POP PUSH2 0x82D PUSH1 0x4 DUP1 CALLDATASIZE SUB PUSH1 0x20 DUP2 LT ISZERO PUSH2 0x801 JUMPI PUSH1 0x0 DUP1 REVERT JUMPDEST DUP2 ADD SWAP1 DUP1 DUP1 CALLDATALOAD PUSH20 0xFFFFFFFFFFFFFFFFFFFFFFFFFFFFFFFFFFFFFFFF AND SWAP1 PUSH1 0x20 ADD SWAP1 SWAP3 SWAP2 SWAP1 POP POP POP PUSH2 0x1D90 JUMP JUMPDEST PUSH1 0x40 MLOAD DUP1 DUP3 ISZERO ISZERO DUP2 MSTORE PUSH1 0x20 ADD SWAP2 POP POP PUSH1 0x40 MLOAD DUP1 SWAP2 SUB SWAP1 RETURN JUMPDEST CALLVALUE DUP1 ISZERO PUSH2 0x851 JUMPI PUSH1 0x0 DUP1 REVERT JUMPDEST POP PUSH2 0x85A PUSH2 0x1DE6 JUMP JUMPDEST PUSH1 0x40 MLOAD DUP1 DUP3 DUP2 MSTORE PUSH1 0x20 ADD SWAP2 POP POP PUSH1 0x40 MLOAD DUP1 SWAP2 SUB SWAP1 RETURN JUMPDEST CALLVALUE DUP1 ISZERO PUSH2 0x87C JUMPI PUSH1 0x0 DUP1 REVERT JUMPDEST POP PUSH2 0x8BF PUSH1 0x4 DUP1 CALLDATASIZE SUB PUSH1 0x20 DUP2 LT ISZERO PUSH2 0x893 JUMPI PUSH1 0x0 DUP1 REVERT JUMPDEST DUP2 ADD SWAP1 DUP1 DUP1 CALLDATALOAD PUSH20 0xFFFFFFFFFFFFFFFFFFFFFFFFFFFFFFFFFFFFFFFF AND SWAP1 PUSH1 0x20 ADD SWAP1 SWAP3 SWAP2 SWAP1 POP POP POP PUSH2 0x1DEC JUMP JUMPDEST PUSH1 0x40 MLOAD DUP1 DUP3 DUP2 MSTORE PUSH1 0x20 ADD SWAP2 POP POP PUSH1 0x40 MLOAD DUP1 SWAP2 SUB SWAP1 RETURN JUMPDEST CALLVALUE DUP1 ISZERO PUSH2 0x8E1 JUMPI PUSH1 0x0 DUP1 REVERT JUMPDEST POP PUSH2 0x8EA PUSH2 0x1ED7 JUMP JUMPDEST STOP JUMPDEST CALLVALUE DUP1 ISZERO PUSH2 0x8F8 JUMPI PUSH1 0x0 DUP1 REVERT JUMPDEST POP PUSH2 0x901 PUSH2 0x205D JUMP JUMPDEST PUSH1 0x40 MLOAD DUP1 DUP3 DUP2 MSTORE PUSH1 0x20 ADD SWAP2 POP POP PUSH1 0x40 MLOAD DUP1 SWAP2 SUB SWAP1 RETURN JUMPDEST CALLVALUE DUP1 ISZERO PUSH2 0x923 JUMPI PUSH1 0x0 DUP1 REVERT JUMPDEST POP PUSH2 0x966 PUSH1 0x4 DUP1 CALLDATASIZE SUB PUSH1 0x20 DUP2 LT ISZERO PUSH2 0x93A JUMPI PUSH1 0x0 DUP1 REVERT JUMPDEST DUP2 ADD SWAP1 DUP1 DUP1 CALLDATALOAD PUSH20 0xFFFFFFFFFFFFFFFFFFFFFFFFFFFFFFFFFFFFFFFF AND SWAP1 PUSH1 0x20 ADD SWAP1 SWAP3 SWAP2 SWAP1 POP POP POP PUSH2 0x2063 JUMP JUMPDEST PUSH1 0x40 MLOAD DUP1 DUP3 ISZERO ISZERO DUP2 MSTORE PUSH1 0x20 ADD SWAP2 POP POP PUSH1 0x40 MLOAD DUP1 SWAP2 SUB SWAP1 RETURN JUMPDEST CALLVALUE DUP1 ISZERO PUSH2 0x98A JUMPI PUSH1 0x0 DUP1 REVERT JUMPDEST POP PUSH2 0x993 PUSH2 0x20B9 JUMP JUMPDEST PUSH1 0x40 MLOAD DUP1 DUP3 PUSH20 0xFFFFFFFFFFFFFFFFFFFFFFFFFFFFFFFFFFFFFFFF AND DUP2 MSTORE PUSH1 0x20 ADD SWAP2 POP POP PUSH1 0x40 MLOAD DUP1 SWAP2 SUB SWAP1 RETURN JUMPDEST CALLVALUE DUP1 ISZERO PUSH2 0x9CB JUMPI PUSH1 0x0 DUP1 REVERT JUMPDEST POP PUSH2 0x9F8 PUSH1 0x4 DUP1 CALLDATASIZE SUB PUSH1 0x20 DUP2 LT ISZERO PUSH2 0x9E2 JUMPI PUSH1 0x0 DUP1 REVERT JUMPDEST DUP2 ADD SWAP1 DUP1 DUP1 CALLDATALOAD SWAP1 PUSH1 0x20 ADD SWAP1 SWAP3 SWAP2 SWAP1 POP POP POP PUSH2 0x20E2 JUMP JUMPDEST STOP JUMPDEST CALLVALUE DUP1 ISZERO PUSH2 0xA06 JUMPI PUSH1 0x0 DUP1 REVERT JUMPDEST POP PUSH2 0xA0F PUSH2 0x21B4 JUMP JUMPDEST PUSH1 0x40 MLOAD DUP1 DUP1 PUSH1 0x20 ADD DUP3 DUP2 SUB DUP3 MSTORE DUP4 DUP2 DUP2 MLOAD DUP2 MSTORE PUSH1 0x20 ADD SWAP2 POP DUP1 MLOAD SWAP1 PUSH1 0x20 ADD SWAP1 DUP1 DUP4 DUP4 PUSH1 0x0 JUMPDEST DUP4 DUP2 LT ISZERO PUSH2 0xA4F JUMPI DUP1 DUP3 ADD MLOAD DUP2 DUP5 ADD MSTORE PUSH1 0x20 DUP2 ADD SWAP1 POP PUSH2 0xA34 JUMP JUMPDEST POP POP POP POP SWAP1 POP SWAP1 DUP2 ADD SWAP1 PUSH1 0x1F AND DUP1 ISZERO PUSH2 0xA7C JUMPI DUP1 DUP3 SUB DUP1 MLOAD PUSH1 0x1 DUP4 PUSH1 0x20 SUB PUSH2 0x100 EXP SUB NOT AND DUP2 MSTORE PUSH1 0x20 ADD SWAP2 POP JUMPDEST POP SWAP3 POP POP POP PUSH1 0x40 MLOAD DUP1 SWAP2 SUB SWAP1 RETURN JUMPDEST CALLVALUE DUP1 ISZERO PUSH2 0xA96 JUMPI PUSH1 0x0 DUP1 REVERT JUMPDEST POP PUSH2 0xAE3 PUSH1 0x4 DUP1 CALLDATASIZE SUB PUSH1 0x40 DUP2 LT ISZERO PUSH2 0xAAD JUMPI PUSH1 0x0 DUP1 REVERT JUMPDEST DUP2 ADD SWAP1 DUP1 DUP1 CALLDATALOAD PUSH20 0xFFFFFFFFFFFFFFFFFFFFFFFFFFFFFFFFFFFFFFFF AND SWAP1 PUSH1 0x20 ADD SWAP1 SWAP3 SWAP2 SWAP1 DUP1 CALLDATALOAD SWAP1 PUSH1 0x20 ADD SWAP1 SWAP3 SWAP2 SWAP1 POP POP POP PUSH2 0x2256 JUMP JUMPDEST PUSH1 0x40 MLOAD DUP1 DUP3 ISZERO ISZERO DUP2 MSTORE PUSH1 0x20 ADD SWAP2 POP POP PUSH1 0x40 MLOAD DUP1 SWAP2 SUB SWAP1 RETURN JUMPDEST CALLVALUE DUP1 ISZERO PUSH2 0xB07 JUMPI PUSH1 0x0 DUP1 REVERT JUMPDEST POP PUSH2 0xB10 PUSH2 0x2323 JUMP JUMPDEST STOP JUMPDEST CALLVALUE DUP1 ISZERO PUSH2 0xB1E JUMPI PUSH1 0x0 DUP1 REVERT JUMPDEST POP PUSH2 0xB6B PUSH1 0x4 DUP1 CALLDATASIZE SUB PUSH1 0x40 DUP2 LT ISZERO PUSH2 0xB35 JUMPI PUSH1 0x0 DUP1 REVERT JUMPDEST DUP2 ADD SWAP1 DUP1 DUP1 CALLDATALOAD PUSH20 0xFFFFFFFFFFFFFFFFFFFFFFFFFFFFFFFFFFFFFFFF AND SWAP1 PUSH1 0x20 ADD SWAP1 SWAP3 SWAP2 SWAP1 DUP1 CALLDATALOAD SWAP1 PUSH1 0x20 ADD SWAP1 SWAP3 SWAP2 SWAP1 POP POP POP PUSH2 0x2540 JUMP JUMPDEST PUSH1 0x40 MLOAD DUP1 DUP3 ISZERO ISZERO DUP2 MSTORE PUSH1 0x20 ADD SWAP2 POP POP PUSH1 0x40 MLOAD DUP1 SWAP2 SUB SWAP1 RETURN JUMPDEST CALLVALUE DUP1 ISZERO PUSH2 0xB8F JUMPI PUSH1 0x0 DUP1 REVERT JUMPDEST POP PUSH2 0xB98 PUSH2 0x255E JUMP JUMPDEST PUSH1 0x40 MLOAD DUP1 DUP3 PUSH20 0xFFFFFFFFFFFFFFFFFFFFFFFFFFFFFFFFFFFFFFFF AND DUP2 MSTORE PUSH1 0x20 ADD SWAP2 POP POP PUSH1 0x40 MLOAD DUP1 SWAP2 SUB SWAP1 RETURN JUMPDEST CALLVALUE DUP1 ISZERO PUSH2 0xBD0 JUMPI PUSH1 0x0 DUP1 REVERT JUMPDEST POP PUSH2 0xBD9 PUSH2 0x2582 JUMP JUMPDEST PUSH1 0x40 MLOAD DUP1 DUP3 DUP2 MSTORE PUSH1 0x20 ADD SWAP2 POP POP PUSH1 0x40 MLOAD DUP1 SWAP2 SUB SWAP1 RETURN JUMPDEST CALLVALUE DUP1 ISZERO PUSH2 0xBFB JUMPI PUSH1 0x0 DUP1 REVERT JUMPDEST POP PUSH2 0xC2A PUSH1 0x4 DUP1 CALLDATASIZE SUB PUSH1 0x20 DUP2 LT ISZERO PUSH2 0xC12 JUMPI PUSH1 0x0 DUP1 REVERT JUMPDEST DUP2 ADD SWAP1 DUP1 DUP1 CALLDATALOAD ISZERO ISZERO SWAP1 PUSH1 0x20 ADD SWAP1 SWAP3 SWAP2 SWAP1 POP POP POP PUSH2 0x258C JUMP JUMPDEST STOP JUMPDEST CALLVALUE DUP1 ISZERO PUSH2 0xC38 JUMPI PUSH1 0x0 DUP1 REVERT JUMPDEST POP PUSH2 0xC41 PUSH2 0x26AA JUMP JUMPDEST PUSH1 0x40 MLOAD DUP1 DUP3 DUP2 MSTORE PUSH1 0x20 ADD SWAP2 POP POP PUSH1 0x40 MLOAD DUP1 SWAP2 SUB SWAP1 RETURN JUMPDEST CALLVALUE DUP1 ISZERO PUSH2 0xC63 JUMPI PUSH1 0x0 DUP1 REVERT JUMPDEST POP PUSH2 0xC90 PUSH1 0x4 DUP1 CALLDATASIZE SUB PUSH1 0x20 DUP2 LT ISZERO PUSH2 0xC7A JUMPI PUSH1 0x0 DUP1 REVERT JUMPDEST DUP2 ADD SWAP1 DUP1 DUP1 CALLDATALOAD SWAP1 PUSH1 0x20 ADD SWAP1 SWAP3 SWAP2 SWAP1 POP POP POP PUSH2 0x26B0 JUMP JUMPDEST STOP JUMPDEST CALLVALUE DUP1 ISZERO PUSH2 0xC9E JUMPI PUSH1 0x0 DUP1 REVERT JUMPDEST POP PUSH2 0xCCB PUSH1 0x4 DUP1 CALLDATASIZE SUB PUSH1 0x20 DUP2 LT ISZERO PUSH2 0xCB5 JUMPI PUSH1 0x0 DUP1 REVERT JUMPDEST DUP2 ADD SWAP1 DUP1 DUP1 CALLDATALOAD SWAP1 PUSH1 0x20 ADD SWAP1 SWAP3 SWAP2 SWAP1 POP POP POP PUSH2 0x2789 JUMP JUMPDEST STOP JUMPDEST CALLVALUE DUP1 ISZERO PUSH2 0xCD9 JUMPI PUSH1 0x0 DUP1 REVERT JUMPDEST POP PUSH2 0xD3C PUSH1 0x4 DUP1 CALLDATASIZE SUB PUSH1 0x40 DUP2 LT ISZERO PUSH2 0xCF0 JUMPI PUSH1 0x0 DUP1 REVERT JUMPDEST DUP2 ADD SWAP1 DUP1 DUP1 CALLDATALOAD PUSH20 0xFFFFFFFFFFFFFFFFFFFFFFFFFFFFFFFFFFFFFFFF AND SWAP1 PUSH1 0x20 ADD SWAP1 SWAP3 SWAP2 SWAP1 DUP1 CALLDATALOAD PUSH20 0xFFFFFFFFFFFFFFFFFFFFFFFFFFFFFFFFFFFFFFFF AND SWAP1 PUSH1 0x20 ADD SWAP1 SWAP3 SWAP2 SWAP1 POP POP POP PUSH2 0x297A JUMP JUMPDEST PUSH1 0x40 MLOAD DUP1 DUP3 DUP2 MSTORE PUSH1 0x20 ADD SWAP2 POP POP PUSH1 0x40 MLOAD DUP1 SWAP2 SUB SWAP1 RETURN JUMPDEST CALLVALUE DUP1 ISZERO PUSH2 0xD5E JUMPI PUSH1 0x0 DUP1 REVERT JUMPDEST POP PUSH2 0xDA1 PUSH1 0x4 DUP1 CALLDATASIZE SUB PUSH1 0x20 DUP2 LT ISZERO PUSH2 0xD75 JUMPI PUSH1 0x0 DUP1 REVERT JUMPDEST DUP2 ADD SWAP1 DUP1 DUP1 CALLDATALOAD PUSH20 0xFFFFFFFFFFFFFFFFFFFFFFFFFFFFFFFFFFFFFFFF AND SWAP1 PUSH1 0x20 ADD SWAP1 SWAP3 SWAP2 SWAP1 POP POP POP PUSH2 0x2A01 JUMP JUMPDEST STOP JUMPDEST CALLVALUE DUP1 ISZERO PUSH2 0xDAF JUMPI PUSH1 0x0 DUP1 REVERT JUMPDEST POP PUSH2 0xDDC PUSH1 0x4 DUP1 CALLDATASIZE SUB PUSH1 0x20 DUP2 LT ISZERO PUSH2 0xDC6 JUMPI PUSH1 0x0 DUP1 REVERT JUMPDEST DUP2 ADD SWAP1 DUP1 DUP1 CALLDATALOAD SWAP1 PUSH1 0x20 ADD SWAP1 SWAP3 SWAP2 SWAP1 POP POP POP PUSH2 0x2B24 JUMP JUMPDEST STOP JUMPDEST CALLVALUE DUP1 ISZERO PUSH2 0xDEA JUMPI PUSH1 0x0 DUP1 REVERT JUMPDEST POP PUSH2 0xE2D PUSH1 0x4 DUP1 CALLDATASIZE SUB PUSH1 0x20 DUP2 LT ISZERO PUSH2 0xE01 JUMPI PUSH1 0x0 DUP1 REVERT JUMPDEST DUP2 ADD SWAP1 DUP1 DUP1 CALLDATALOAD PUSH20 0xFFFFFFFFFFFFFFFFFFFFFFFFFFFFFFFFFFFFFFFF AND SWAP1 PUSH1 0x20 ADD SWAP1 SWAP3 SWAP2 SWAP1 POP POP POP PUSH2 0x2BFD JUMP JUMPDEST STOP JUMPDEST PUSH2 0xE37 PUSH2 0x2E08 JUMP JUMPDEST PUSH20 0xFFFFFFFFFFFFFFFFFFFFFFFFFFFFFFFFFFFFFFFF AND PUSH1 0x0 DUP1 SLOAD SWAP1 PUSH2 0x100 EXP SWAP1 DIV PUSH20 0xFFFFFFFFFFFFFFFFFFFFFFFFFFFFFFFFFFFFFFFF AND PUSH20 0xFFFFFFFFFFFFFFFFFFFFFFFFFFFFFFFFFFFFFFFF AND EQ PUSH2 0xEF7 JUMPI PUSH1 0x40 MLOAD PUSH32 0x8C379A000000000000000000000000000000000000000000000000000000000 DUP2 MSTORE PUSH1 0x4 ADD DUP1 DUP1 PUSH1 0x20 ADD DUP3 DUP2 SUB DUP3 MSTORE PUSH1 0x20 DUP2 MSTORE PUSH1 0x20 ADD DUP1 PUSH32 0x4F776E61626C653A2063616C6C6572206973206E6F7420746865206F776E6572 DUP2 MSTORE POP PUSH1 0x20 ADD SWAP2 POP POP PUSH1 0x40 MLOAD DUP1 SWAP2 SUB SWAP1 REVERT JUMPDEST DUP1 PUSH1 0xF DUP2 SWAP1 SSTORE POP POP JUMP JUMPDEST PUSH1 0x60 PUSH1 0xC DUP1 SLOAD PUSH1 0x1 DUP2 PUSH1 0x1 AND ISZERO PUSH2 0x100 MUL SUB AND PUSH1 0x2 SWAP1 DIV DUP1 PUSH1 0x1F ADD PUSH1 0x20 DUP1 SWAP2 DIV MUL PUSH1 0x20 ADD PUSH1 0x40 MLOAD SWAP1 DUP2 ADD PUSH1 0x40 MSTORE DUP1 SWAP3 SWAP2 SWAP1 DUP2 DUP2 MSTORE PUSH1 0x20 ADD DUP3 DUP1 SLOAD PUSH1 0x1 DUP2 PUSH1 0x1 AND ISZERO PUSH2 0x100 MUL SUB AND PUSH1 0x2 SWAP1 DIV DUP1 ISZERO PUSH2 0xF99 JUMPI DUP1 PUSH1 0x1F LT PUSH2 0xF6E JUMPI PUSH2 0x100 DUP1 DUP4 SLOAD DIV MUL DUP4 MSTORE SWAP2 PUSH1 0x20 ADD SWAP2 PUSH2 0xF99 JUMP JUMPDEST DUP3 ADD SWAP2 SWAP1 PUSH1 0x0 MSTORE PUSH1 0x20 PUSH1 0x0 KECCAK256 SWAP1 JUMPDEST DUP2 SLOAD DUP2 MSTORE SWAP1 PUSH1 0x1 ADD SWAP1 PUSH1 0x20 ADD DUP1 DUP4 GT PUSH2 0xF7C JUMPI DUP3 SWAP1 SUB PUSH1 0x1F AND DUP3 ADD SWAP2 JUMPDEST POP POP POP POP POP SWAP1 POP SWAP1 JUMP JUMPDEST PUSH1 0x0 PUSH2 0xFB7 PUSH2 0xFB0 PUSH2 0x2E08 JUMP JUMPDEST DUP5 DUP5 PUSH2 0x2E10 JUMP JUMPDEST PUSH1 0x1 SWAP1 POP SWAP3 SWAP2 POP POP JUMP JUMPDEST PUSH1 0x0 PUSH1 0xB SLOAD SWAP1 POP SWAP1 JUMP JUMPDEST PUSH32 0x0 DUP2 JUMP JUMPDEST PUSH1 0x0 PUSH1 0x9 SLOAD SWAP1 POP SWAP1 JUMP JUMPDEST PUSH1 0x0 PUSH2 0x1006 DUP5 DUP5 DUP5 PUSH2 0x3007 JUMP JUMPDEST PUSH2 0x10C7 DUP5 PUSH2 0x1012 PUSH2 0x2E08 JUMP JUMPDEST PUSH2 0x10C2 DUP6 PUSH1 0x40 MLOAD DUP1 PUSH1 0x60 ADD PUSH1 0x40 MSTORE DUP1 PUSH1 0x28 DUP2 MSTORE PUSH1 0x20 ADD PUSH2 0x4FD8 PUSH1 0x28 SWAP2 CODECOPY PUSH1 0x5 PUSH1 0x0 DUP12 PUSH20 0xFFFFFFFFFFFFFFFFFFFFFFFFFFFFFFFFFFFFFFFF AND PUSH20 0xFFFFFFFFFFFFFFFFFFFFFFFFFFFFFFFFFFFFFFFF AND DUP2 MSTORE PUSH1 0x20 ADD SWAP1 DUP2 MSTORE PUSH1 0x20 ADD PUSH1 0x0 KECCAK256 PUSH1 0x0 PUSH2 0x1078 PUSH2 0x2E08 JUMP JUMPDEST PUSH20 0xFFFFFFFFFFFFFFFFFFFFFFFFFFFFFFFFFFFFFFFF AND PUSH20 0xFFFFFFFFFFFFFFFFFFFFFFFFFFFFFFFFFFFFFFFF AND DUP2 MSTORE PUSH1 0x20 ADD SWAP1 DUP2 MSTORE PUSH1 0x20 ADD PUSH1 0x0 KECCAK256 SLOAD PUSH2 0x33CC SWAP1 SWAP3 SWAP2 SWAP1 PUSH4 0xFFFFFFFF AND JUMP JUMPDEST PUSH2 0x2E10 JUMP JUMPDEST PUSH1 0x1 SWAP1 POP SWAP4 SWAP3 POP POP POP JUMP JUMPDEST PUSH1 0x0 PUSH1 0xA SLOAD DUP3 GT ISZERO PUSH2 0x112F JUMPI PUSH1 0x40 MLOAD PUSH32 0x8C379A000000000000000000000000000000000000000000000000000000000 DUP2 MSTORE PUSH1 0x4 ADD DUP1 DUP1 PUSH1 0x20 ADD DUP3 DUP2 SUB DUP3 MSTORE PUSH1 0x2A DUP2 MSTORE PUSH1 0x20 ADD DUP1 PUSH2 0x4F1D PUSH1 0x2A SWAP2 CODECOPY PUSH1 0x40 ADD SWAP2 POP POP PUSH1 0x40 MLOAD DUP1 SWAP2 SUB SWAP1 REVERT JUMPDEST PUSH1 0x0 PUSH2 0x1139 PUSH2 0x348C JUMP JUMPDEST SWAP1 POP PUSH2 0x114E DUP2 DUP5 PUSH2 0x34B7 SWAP1 SWAP2 SWAP1 PUSH4 0xFFFFFFFF AND JUMP JUMPDEST SWAP2 POP POP SWAP2 SWAP1 POP JUMP JUMPDEST PUSH1 0x0 PUSH1 0xE SLOAD SWAP1 POP SWAP1 JUMP JUMPDEST PUSH2 0x1168 PUSH2 0x2E08 JUMP JUMPDEST PUSH20 0xFFFFFFFFFFFFFFFFFFFFFFFFFFFFFFFFFFFFFFFF AND PUSH1 0x0 DUP1 SLOAD SWAP1 PUSH2 0x100 EXP SWAP1 DIV PUSH20 0xFFFFFFFFFFFFFFFFFFFFFFFFFFFFFFFFFFFFFFFF AND PUSH20 0xFFFFFFFFFFFFFFFFFFFFFFFFFFFFFFFFFFFFFFFF AND EQ PUSH2 0x1228 JUMPI PUSH1 0x40 MLOAD PUSH32 0x8C379A000000000000000000000000000000000000000000000000000000000 DUP2 MSTORE PUSH1 0x4 ADD DUP1 DUP1 PUSH1 0x20 ADD DUP3 DUP2 SUB DUP3 MSTORE PUSH1 0x20 DUP2 MSTORE PUSH1 0x20 ADD DUP1 PUSH32 0x4F776E61626C653A2063616C6C6572206973206E6F7420746865206F776E6572 DUP2 MSTORE POP PUSH1 0x20 ADD SWAP2 POP POP PUSH1 0x40 MLOAD DUP1 SWAP2 SUB SWAP1 REVERT JUMPDEST PUSH1 0x7 PUSH1 0x0 DUP3 PUSH20 0xFFFFFFFFFFFFFFFFFFFFFFFFFFFFFFFFFFFFFFFF AND PUSH20 0xFFFFFFFFFFFFFFFFFFFFFFFFFFFFFFFFFFFFFFFF AND DUP2 MSTORE PUSH1 0x20 ADD SWAP1 DUP2 MSTORE PUSH1 0x20 ADD PUSH1 0x0 KECCAK256 PUSH1 0x0 SWAP1 SLOAD SWAP1 PUSH2 0x100 EXP SWAP1 DIV PUSH1 0xFF AND PUSH2 0x12E7 JUMPI PUSH1 0x40 MLOAD PUSH32 0x8C379A000000000000000000000000000000000000000000000000000000000 DUP2 MSTORE PUSH1 0x4 ADD DUP1 DUP1 PUSH1 0x20 ADD DUP3 DUP2 SUB DUP3 MSTORE PUSH1 0x1B DUP2 MSTORE PUSH1 0x20 ADD DUP1 PUSH32 0x4163636F756E7420697320616C7265616479206578636C756465640000000000 DUP2 MSTORE POP PUSH1 0x20 ADD SWAP2 POP POP PUSH1 0x40 MLOAD DUP1 SWAP2 SUB SWAP1 REVERT JUMPDEST PUSH1 0x0 JUMPDEST PUSH1 0x8 DUP1 SLOAD SWAP1 POP DUP2 LT ISZERO PUSH2 0x14E6 JUMPI DUP2 PUSH20 0xFFFFFFFFFFFFFFFFFFFFFFFFFFFFFFFFFFFFFFFF AND PUSH1 0x8 DUP3 DUP2 SLOAD DUP2 LT PUSH2 0x131B JUMPI INVALID JUMPDEST SWAP1 PUSH1 0x0 MSTORE PUSH1 0x20 PUSH1 0x0 KECCAK256 ADD PUSH1 0x0 SWAP1 SLOAD SWAP1 PUSH2 0x100 EXP SWAP1 DIV PUSH20 0xFFFFFFFFFFFFFFFFFFFFFFFFFFFFFFFFFFFFFFFF AND PUSH20 0xFFFFFFFFFFFFFFFFFFFFFFFFFFFFFFFFFFFFFFFF AND EQ ISZERO PUSH2 0x14D9 JUMPI PUSH1 0x8 PUSH1 0x1 PUSH1 0x8 DUP1 SLOAD SWAP1 POP SUB DUP2 SLOAD DUP2 LT PUSH2 0x1377 JUMPI INVALID JUMPDEST SWAP1 PUSH1 0x0 MSTORE PUSH1 0x20 PUSH1 0x0 KECCAK256 ADD PUSH1 0x0 SWAP1 SLOAD SWAP1 PUSH2 0x100 EXP SWAP1 DIV PUSH20 0xFFFFFFFFFFFFFFFFFFFFFFFFFFFFFFFFFFFFFFFF AND PUSH1 0x8 DUP3 DUP2 SLOAD DUP2 LT PUSH2 0x13AF JUMPI INVALID JUMPDEST SWAP1 PUSH1 0x0 MSTORE PUSH1 0x20 PUSH1 0x0 KECCAK256 ADD PUSH1 0x0 PUSH2 0x100 EXP DUP2 SLOAD DUP2 PUSH20 0xFFFFFFFFFFFFFFFFFFFFFFFFFFFFFFFFFFFFFFFF MUL NOT AND SWAP1 DUP4 PUSH20 0xFFFFFFFFFFFFFFFFFFFFFFFFFFFFFFFFFFFFFFFF AND MUL OR SWAP1 SSTORE POP PUSH1 0x0 PUSH1 0x4 PUSH1 0x0 DUP5 PUSH20 0xFFFFFFFFFFFFFFFFFFFFFFFFFFFFFFFFFFFFFFFF AND PUSH20 0xFFFFFFFFFFFFFFFFFFFFFFFFFFFFFFFFFFFFFFFF AND DUP2 MSTORE PUSH1 0x20 ADD SWAP1 DUP2 MSTORE PUSH1 0x20 ADD PUSH1 0x0 KECCAK256 DUP2 SWAP1 SSTORE POP PUSH1 0x0 PUSH1 0x7 PUSH1 0x0 DUP5 PUSH20 0xFFFFFFFFFFFFFFFFFFFFFFFFFFFFFFFFFFFFFFFF AND PUSH20 0xFFFFFFFFFFFFFFFFFFFFFFFFFFFFFFFFFFFFFFFF AND DUP2 MSTORE PUSH1 0x20 ADD SWAP1 DUP2 MSTORE PUSH1 0x20 ADD PUSH1 0x0 KECCAK256 PUSH1 0x0 PUSH2 0x100 EXP DUP2 SLOAD DUP2 PUSH1 0xFF MUL NOT AND SWAP1 DUP4 ISZERO ISZERO MUL OR SWAP1 SSTORE POP PUSH1 0x8 DUP1 SLOAD DUP1 PUSH2 0x149F JUMPI INVALID JUMPDEST PUSH1 0x1 SWAP1 SUB DUP2 DUP2 SWAP1 PUSH1 0x0 MSTORE PUSH1 0x20 PUSH1 0x0 KECCAK256 ADD PUSH1 0x0 PUSH2 0x100 EXP DUP2 SLOAD SWAP1 PUSH20 0xFFFFFFFFFFFFFFFFFFFFFFFFFFFFFFFFFFFFFFFF MUL NOT AND SWAP1 SSTORE SWAP1 SSTORE PUSH2 0x14E6 JUMP JUMPDEST DUP1 DUP1 PUSH1 0x1 ADD SWAP2 POP POP PUSH2 0x12EA JUMP JUMPDEST POP POP JUMP JUMPDEST PUSH1 0x0 PUSH2 0x1593 PUSH2 0x14F7 PUSH2 0x2E08 JUMP JUMPDEST DUP5 PUSH2 0x158E DUP6 PUSH1 0x5 PUSH1 0x0 PUSH2 0x1508 PUSH2 0x2E08 JUMP JUMPDEST PUSH20 0xFFFFFFFFFFFFFFFFFFFFFFFFFFFFFFFFFFFFFFFF AND PUSH20 0xFFFFFFFFFFFFFFFFFFFFFFFFFFFFFFFFFFFFFFFF AND DUP2 MSTORE PUSH1 0x20 ADD SWAP1 DUP2 MSTORE PUSH1 0x20 ADD PUSH1 0x0 KECCAK256 PUSH1 0x0 DUP10 PUSH20 0xFFFFFFFFFFFFFFFFFFFFFFFFFFFFFFFFFFFFFFFF AND PUSH20 0xFFFFFFFFFFFFFFFFFFFFFFFFFFFFFFFFFFFFFFFF AND DUP2 MSTORE PUSH1 0x20 ADD SWAP1 DUP2 MSTORE PUSH1 0x20 ADD PUSH1 0x0 KECCAK256 SLOAD PUSH2 0x3501 SWAP1 SWAP2 SWAP1 PUSH4 0xFFFFFFFF AND JUMP JUMPDEST PUSH2 0x2E10 JUMP JUMPDEST PUSH1 0x1 SWAP1 POP SWAP3 SWAP2 POP POP JUMP JUMPDEST PUSH1 0xF SLOAD DUP2 JUMP JUMPDEST PUSH1 0x0 PUSH2 0x15AD PUSH2 0x2E08 JUMP JUMPDEST SWAP1 POP PUSH1 0x7 PUSH1 0x0 DUP3 PUSH20 0xFFFFFFFFFFFFFFFFFFFFFFFFFFFFFFFFFFFFFFFF AND PUSH20 0xFFFFFFFFFFFFFFFFFFFFFFFFFFFFFFFFFFFFFFFF AND DUP2 MSTORE PUSH1 0x20 ADD SWAP1 DUP2 MSTORE PUSH1 0x20 ADD PUSH1 0x0 KECCAK256 PUSH1 0x0 SWAP1 SLOAD SWAP1 PUSH2 0x100 EXP SWAP1 DIV PUSH1 0xFF AND ISZERO PUSH2 0x1652 JUMPI PUSH1 0x40 MLOAD PUSH32 0x8C379A000000000000000000000000000000000000000000000000000000000 DUP2 MSTORE PUSH1 0x4 ADD DUP1 DUP1 PUSH1 0x20 ADD DUP3 DUP2 SUB DUP3 MSTORE PUSH1 0x2C DUP2 MSTORE PUSH1 0x20 ADD DUP1 PUSH2 0x5072 PUSH1 0x2C SWAP2 CODECOPY PUSH1 0x40 ADD SWAP2 POP POP PUSH1 0x40 MLOAD DUP1 SWAP2 SUB SWAP1 REVERT JUMPDEST PUSH1 0x0 PUSH2 0x165D DUP4 PUSH2 0x3589 JUMP JUMPDEST POP POP POP POP POP SWAP1 POP PUSH2 0x16B6 DUP2 PUSH1 0x3 PUSH1 0x0 DUP6 PUSH20 0xFFFFFFFFFFFFFFFFFFFFFFFFFFFFFFFFFFFFFFFF AND PUSH20 0xFFFFFFFFFFFFFFFFFFFFFFFFFFFFFFFFFFFFFFFF AND DUP2 MSTORE PUSH1 0x20 ADD SWAP1 DUP2 MSTORE PUSH1 0x20 ADD PUSH1 0x0 KECCAK256 SLOAD PUSH2 0x35E5 SWAP1 SWAP2 SWAP1 PUSH4 0xFFFFFFFF AND JUMP JUMPDEST PUSH1 0x3 PUSH1 0x0 DUP5 PUSH20 0xFFFFFFFFFFFFFFFFFFFFFFFFFFFFFFFFFFFFFFFF AND PUSH20 0xFFFFFFFFFFFFFFFFFFFFFFFFFFFFFFFFFFFFFFFF AND DUP2 MSTORE PUSH1 0x20 ADD SWAP1 DUP2 MSTORE PUSH1 0x20 ADD PUSH1 0x0 KECCAK256 DUP2 SWAP1 SSTORE POP PUSH2 0x170E DUP2 PUSH1 0xA SLOAD PUSH2 0x35E5 SWAP1 SWAP2 SWAP1 PUSH4 0xFFFFFFFF AND JUMP JUMPDEST PUSH1 0xA DUP2 SWAP1 SSTORE POP PUSH2 0x1729 DUP4 PUSH1 0xB SLOAD PUSH2 0x3501 SWAP1 SWAP2 SWAP1 PUSH4 0xFFFFFFFF AND JUMP JUMPDEST PUSH1 0xB DUP2 SWAP1 SSTORE POP POP POP POP JUMP JUMPDEST PUSH2 0x173C PUSH2 0x2E08 JUMP JUMPDEST PUSH20 0xFFFFFFFFFFFFFFFFFFFFFFFFFFFFFFFFFFFFFFFF AND PUSH1 0x0 DUP1 SLOAD SWAP1 PUSH2 0x100 EXP SWAP1 DIV PUSH20 0xFFFFFFFFFFFFFFFFFFFFFFFFFFFFFFFFFFFFFFFF AND PUSH20 0xFFFFFFFFFFFFFFFFFFFFFFFFFFFFFFFFFFFFFFFF AND EQ PUSH2 0x17FC JUMPI PUSH1 0x40 MLOAD PUSH32 0x8C379A000000000000000000000000000000000000000000000000000000000 DUP2 MSTORE PUSH1 0x4 ADD DUP1 DUP1 PUSH1 0x20 ADD DUP3 DUP2 SUB DUP3 MSTORE PUSH1 0x20 DUP2 MSTORE PUSH1 0x20 ADD DUP1 PUSH32 0x4F776E61626C653A2063616C6C6572206973206E6F7420746865206F776E6572 DUP2 MSTORE POP PUSH1 0x20 ADD SWAP2 POP POP PUSH1 0x40 MLOAD DUP1 SWAP2 SUB SWAP1 REVERT JUMPDEST PUSH1 0x1 PUSH1 0x6 PUSH1 0x0 DUP4 PUSH20 0xFFFFFFFFFFFFFFFFFFFFFFFFFFFFFFFFFFFFFFFF AND PUSH20 0xFFFFFFFFFFFFFFFFFFFFFFFFFFFFFFFFFFFFFFFF AND DUP2 MSTORE PUSH1 0x20 ADD SWAP1 DUP2 MSTORE PUSH1 0x20 ADD PUSH1 0x0 KECCAK256 PUSH1 0x0 PUSH2 0x100 EXP DUP2 SLOAD DUP2 PUSH1 0xFF MUL NOT AND SWAP1 DUP4 ISZERO ISZERO MUL OR SWAP1 SSTORE POP POP JUMP JUMPDEST PUSH1 0x0 PUSH1 0x9 SLOAD DUP4 GT ISZERO PUSH2 0x18D1 JUMPI PUSH1 0x40 MLOAD PUSH32 0x8C379A000000000000000000000000000000000000000000000000000000000 DUP2 MSTORE PUSH1 0x4 ADD DUP1 DUP1 PUSH1 0x20 ADD DUP3 DUP2 SUB DUP3 MSTORE PUSH1 0x1F DUP2 MSTORE PUSH1 0x20 ADD DUP1 PUSH32 0x416D6F756E74206D757374206265206C657373207468616E20737570706C7900 DUP2 MSTORE POP PUSH1 0x20 ADD SWAP2 POP POP PUSH1 0x40 MLOAD DUP1 SWAP2 SUB SWAP1 REVERT JUMPDEST DUP2 PUSH2 0x18F1 JUMPI PUSH1 0x0 PUSH2 0x18E1 DUP5 PUSH2 0x3589 JUMP JUMPDEST POP POP POP POP POP SWAP1 POP DUP1 SWAP2 POP POP PUSH2 0x1908 JUMP JUMPDEST PUSH1 0x0 PUSH2 0x18FC DUP5 PUSH2 0x3589 JUMP JUMPDEST POP POP POP POP SWAP2 POP POP DUP1 SWAP2 POP POP JUMPDEST SWAP3 SWAP2 POP POP JUMP JUMPDEST PUSH2 0x1916 PUSH2 0x2E08 JUMP JUMPDEST PUSH20 0xFFFFFFFFFFFFFFFFFFFFFFFFFFFFFFFFFFFFFFFF AND PUSH1 0x0 DUP1 SLOAD SWAP1 PUSH2 0x100 EXP SWAP1 DIV PUSH20 0xFFFFFFFFFFFFFFFFFFFFFFFFFFFFFFFFFFFFFFFF AND PUSH20 0xFFFFFFFFFFFFFFFFFFFFFFFFFFFFFFFFFFFFFFFF AND EQ PUSH2 0x19D6 JUMPI PUSH1 0x40 MLOAD PUSH32 0x8C379A000000000000000000000000000000000000000000000000000000000 DUP2 MSTORE PUSH1 0x4 ADD DUP1 DUP1 PUSH1 0x20 ADD DUP3 DUP2 SUB DUP3 MSTORE PUSH1 0x20 DUP2 MSTORE PUSH1 0x20 ADD DUP1 PUSH32 0x4F776E61626C653A2063616C6C6572206973206E6F7420746865206F776E6572 DUP2 MSTORE POP PUSH1 0x20 ADD SWAP2 POP POP PUSH1 0x40 MLOAD DUP1 SWAP2 SUB SWAP1 REVERT JUMPDEST PUSH1 0x0 DUP1 SLOAD SWAP1 PUSH2 0x100 EXP SWAP1 DIV PUSH20 0xFFFFFFFFFFFFFFFFFFFFFFFFFFFFFFFFFFFFFFFF AND PUSH20 0xFFFFFFFFFFFFFFFFFFFFFFFFFFFFFFFFFFFFFFFF AND PUSH2 0x8FC SELFBALANCE SWAP1 DUP2 ISZERO MUL SWAP1 PUSH1 0x40 MLOAD PUSH1 0x0 PUSH1 0x40 MLOAD DUP1 DUP4 SUB DUP2 DUP6 DUP9 DUP9 CALL SWAP4 POP POP POP POP ISZERO DUP1 ISZERO PUSH2 0x1A3C JUMPI RETURNDATASIZE PUSH1 0x0 DUP1 RETURNDATACOPY RETURNDATASIZE PUSH1 0x0 REVERT JUMPDEST POP JUMP JUMPDEST PUSH32 0x0 DUP2 JUMP JUMPDEST PUSH1 0x13 PUSH1 0x1 SWAP1 SLOAD SWAP1 PUSH2 0x100 EXP SWAP1 DIV PUSH1 0xFF AND DUP2 JUMP JUMPDEST PUSH2 0x1A7E PUSH2 0x2E08 JUMP JUMPDEST PUSH20 0xFFFFFFFFFFFFFFFFFFFFFFFFFFFFFFFFFFFFFFFF AND PUSH1 0x0 DUP1 SLOAD SWAP1 PUSH2 0x100 EXP SWAP1 DIV PUSH20 0xFFFFFFFFFFFFFFFFFFFFFFFFFFFFFFFFFFFFFFFF AND PUSH20 0xFFFFFFFFFFFFFFFFFFFFFFFFFFFFFFFFFFFFFFFF AND EQ PUSH2 0x1B3E JUMPI PUSH1 0x40 MLOAD PUSH32 0x8C379A000000000000000000000000000000000000000000000000000000000 DUP2 MSTORE PUSH1 0x4 ADD DUP1 DUP1 PUSH1 0x20 ADD DUP3 DUP2 SUB DUP3 MSTORE PUSH1 0x20 DUP2 MSTORE PUSH1 0x20 ADD DUP1 PUSH32 0x4F776E61626C653A2063616C6C6572206973206E6F7420746865206F776E6572 DUP2 MSTORE POP PUSH1 0x20 ADD SWAP2 POP POP PUSH1 0x40 MLOAD DUP1 SWAP2 SUB SWAP1 REVERT JUMPDEST PUSH1 0x7 PUSH1 0x0 DUP3 PUSH20 0xFFFFFFFFFFFFFFFFFFFFFFFFFFFFFFFFFFFFFFFF AND PUSH20 0xFFFFFFFFFFFFFFFFFFFFFFFFFFFFFFFFFFFFFFFF AND DUP2 MSTORE PUSH1 0x20 ADD SWAP1 DUP2 MSTORE PUSH1 0x20 ADD PUSH1 0x0 KECCAK256 PUSH1 0x0 SWAP1 SLOAD SWAP1 PUSH2 0x100 EXP SWAP1 DIV PUSH1 0xFF AND ISZERO PUSH2 0x1BFE JUMPI PUSH1 0x40 MLOAD PUSH32 0x8C379A000000000000000000000000000000000000000000000000000000000 DUP2 MSTORE PUSH1 0x4 ADD DUP1 DUP1 PUSH1 0x20 ADD DUP3 DUP2 SUB DUP3 MSTORE PUSH1 0x1B DUP2 MSTORE PUSH1 0x20 ADD DUP1 PUSH32 0x4163636F756E7420697320616C7265616479206578636C756465640000000000 DUP2 MSTORE POP PUSH1 0x20 ADD SWAP2 POP POP PUSH1 0x40 MLOAD DUP1 SWAP2 SUB SWAP1 REVERT JUMPDEST PUSH1 0x0 PUSH1 0x3 PUSH1 0x0 DUP4 PUSH20 0xFFFFFFFFFFFFFFFFFFFFFFFFFFFFFFFFFFFFFFFF AND PUSH20 0xFFFFFFFFFFFFFFFFFFFFFFFFFFFFFFFFFFFFFFFF AND DUP2 MSTORE PUSH1 0x20 ADD SWAP1 DUP2 MSTORE PUSH1 0x20 ADD PUSH1 0x0 KECCAK256 SLOAD GT ISZERO PUSH2 0x1CD2 JUMPI PUSH2 0x1C8E PUSH1 0x3 PUSH1 0x0 DUP4 PUSH20 0xFFFFFFFFFFFFFFFFFFFFFFFFFFFFFFFFFFFFFFFF AND PUSH20 0xFFFFFFFFFFFFFFFFFFFFFFFFFFFFFFFFFFFFFFFF AND DUP2 MSTORE PUSH1 0x20 ADD SWAP1 DUP2 MSTORE PUSH1 0x20 ADD PUSH1 0x0 KECCAK256 SLOAD PUSH2 0x10D2 JUMP JUMPDEST PUSH1 0x4 PUSH1 0x0 DUP4 PUSH20 0xFFFFFFFFFFFFFFFFFFFFFFFFFFFFFFFFFFFFFFFF AND PUSH20 0xFFFFFFFFFFFFFFFFFFFFFFFFFFFFFFFFFFFFFFFF AND DUP2 MSTORE PUSH1 0x20 ADD SWAP1 DUP2 MSTORE PUSH1 0x20 ADD PUSH1 0x0 KECCAK256 DUP2 SWAP1 SSTORE POP JUMPDEST PUSH1 0x1 PUSH1 0x7 PUSH1 0x0 DUP4 PUSH20 0xFFFFFFFFFFFFFFFFFFFFFFFFFFFFFFFFFFFFFFFF AND PUSH20 0xFFFFFFFFFFFFFFFFFFFFFFFFFFFFFFFFFFFFFFFF AND DUP2 MSTORE PUSH1 0x20 ADD SWAP1 DUP2 MSTORE PUSH1 0x20 ADD PUSH1 0x0 KECCAK256 PUSH1 0x0 PUSH2 0x100 EXP DUP2 SLOAD DUP2 PUSH1 0xFF MUL NOT AND SWAP1 DUP4 ISZERO ISZERO MUL OR SWAP1 SSTORE POP PUSH1 0x8 DUP2 SWAP1 DUP1 PUSH1 0x1 DUP2 SLOAD ADD DUP1 DUP3 SSTORE DUP1 SWAP2 POP POP PUSH1 0x1 SWAP1 SUB SWAP1 PUSH1 0x0 MSTORE PUSH1 0x20 PUSH1 0x0 KECCAK256 ADD PUSH1 0x0 SWAP1 SWAP2 SWAP1 SWAP2 SWAP1 SWAP2 PUSH2 0x100 EXP DUP2 SLOAD DUP2 PUSH20 0xFFFFFFFFFFFFFFFFFFFFFFFFFFFFFFFFFFFFFFFF MUL NOT AND SWAP1 DUP4 PUSH20 0xFFFFFFFFFFFFFFFFFFFFFFFFFFFFFFFFFFFFFFFF AND MUL OR SWAP1 SSTORE POP POP JUMP JUMPDEST PUSH1 0x0 PUSH1 0x6 PUSH1 0x0 DUP4 PUSH20 0xFFFFFFFFFFFFFFFFFFFFFFFFFFFFFFFFFFFFFFFF AND PUSH20 0xFFFFFFFFFFFFFFFFFFFFFFFFFFFFFFFFFFFFFFFF AND DUP2 MSTORE PUSH1 0x20 ADD SWAP1 DUP2 MSTORE PUSH1 0x20 ADD PUSH1 0x0 KECCAK256 PUSH1 0x0 SWAP1 SLOAD SWAP1 PUSH2 0x100 EXP SWAP1 DIV PUSH1 0xFF AND SWAP1 POP SWAP2 SWAP1 POP JUMP JUMPDEST PUSH1 0x11 SLOAD DUP2 JUMP JUMPDEST PUSH1 0x0 PUSH1 0x7 PUSH1 0x0 DUP4 PUSH20 0xFFFFFFFFFFFFFFFFFFFFFFFFFFFFFFFFFFFFFFFF AND PUSH20 0xFFFFFFFFFFFFFFFFFFFFFFFFFFFFFFFFFFFFFFFF AND DUP2 MSTORE PUSH1 0x20 ADD SWAP1 DUP2 MSTORE PUSH1 0x20 ADD PUSH1 0x0 KECCAK256 PUSH1 0x0 SWAP1 SLOAD SWAP1 PUSH2 0x100 EXP SWAP1 DIV PUSH1 0xFF AND ISZERO PUSH2 0x1E87 JUMPI PUSH1 0x4 PUSH1 0x0 DUP4 PUSH20 0xFFFFFFFFFFFFFFFFFFFFFFFFFFFFFFFFFFFFFFFF AND PUSH20 0xFFFFFFFFFFFFFFFFFFFFFFFFFFFFFFFFFFFFFFFF AND DUP2 MSTORE PUSH1 0x20 ADD SWAP1 DUP2 MSTORE PUSH1 0x20 ADD PUSH1 0x0 KECCAK256 SLOAD SWAP1 POP PUSH2 0x1ED2 JUMP JUMPDEST PUSH2 0x1ECF PUSH1 0x3 PUSH1 0x0 DUP5 PUSH20 0xFFFFFFFFFFFFFFFFFFFFFFFFFFFFFFFFFFFFFFFF AND PUSH20 0xFFFFFFFFFFFFFFFFFFFFFFFFFFFFFFFFFFFFFFFF AND DUP2 MSTORE PUSH1 0x20 ADD SWAP1 DUP2 MSTORE PUSH1 0x20 ADD PUSH1 0x0 KECCAK256 SLOAD PUSH2 0x10D2 JUMP JUMPDEST SWAP1 POP JUMPDEST SWAP2 SWAP1 POP JUMP JUMPDEST PUSH2 0x1EDF PUSH2 0x2E08 JUMP JUMPDEST PUSH20 0xFFFFFFFFFFFFFFFFFFFFFFFFFFFFFFFFFFFFFFFF AND PUSH1 0x0 DUP1 SLOAD SWAP1 PUSH2 0x100 EXP SWAP1 DIV PUSH20 0xFFFFFFFFFFFFFFFFFFFFFFFFFFFFFFFFFFFFFFFF AND PUSH20 0xFFFFFFFFFFFFFFFFFFFFFFFFFFFFFFFFFFFFFFFF AND EQ PUSH2 0x1F9F JUMPI PUSH1 0x40 MLOAD PUSH32 0x8C379A000000000000000000000000000000000000000000000000000000000 DUP2 MSTORE PUSH1 0x4 ADD DUP1 DUP1 PUSH1 0x20 ADD DUP3 DUP2 SUB DUP3 MSTORE PUSH1 0x20 DUP2 MSTORE PUSH1 0x20 ADD DUP1 PUSH32 0x4F776E61626C653A2063616C6C6572206973206E6F7420746865206F776E6572 DUP2 MSTORE POP PUSH1 0x20 ADD SWAP2 POP POP PUSH1 0x40 MLOAD DUP1 SWAP2 SUB SWAP1 REVERT JUMPDEST PUSH1 0x0 PUSH20 0xFFFFFFFFFFFFFFFFFFFFFFFFFFFFFFFFFFFFFFFF AND PUSH1 0x0 DUP1 SLOAD SWAP1 PUSH2 0x100 EXP SWAP1 DIV PUSH20 0xFFFFFFFFFFFFFFFFFFFFFFFFFFFFFFFFFFFFFFFF AND PUSH20 0xFFFFFFFFFFFFFFFFFFFFFFFFFFFFFFFFFFFFFFFF AND PUSH32 0x8BE0079C531659141344CD1FD0A4F28419497F9722A3DAAFE3B4186F6B6457E0 PUSH1 0x40 MLOAD PUSH1 0x40 MLOAD DUP1 SWAP2 SUB SWAP1 LOG3 PUSH1 0x0 DUP1 PUSH1 0x0 PUSH2 0x100 EXP DUP2 SLOAD DUP2 PUSH20 0xFFFFFFFFFFFFFFFFFFFFFFFFFFFFFFFFFFFFFFFF MUL NOT AND SWAP1 DUP4 PUSH20 0xFFFFFFFFFFFFFFFFFFFFFFFFFFFFFFFFFFFFFFFF AND MUL OR SWAP1 SSTORE POP JUMP JUMPDEST PUSH1 0x14 SLOAD DUP2 JUMP JUMPDEST PUSH1 0x0 PUSH1 0x7 PUSH1 0x0 DUP4 PUSH20 0xFFFFFFFFFFFFFFFFFFFFFFFFFFFFFFFFFFFFFFFF AND PUSH20 0xFFFFFFFFFFFFFFFFFFFFFFFFFFFFFFFFFFFFFFFF AND DUP2 MSTORE PUSH1 0x20 ADD SWAP1 DUP2 MSTORE PUSH1 0x20 ADD PUSH1 0x0 KECCAK256 PUSH1 0x0 SWAP1 SLOAD SWAP1 PUSH2 0x100 EXP SWAP1 DIV PUSH1 0xFF AND SWAP1 POP SWAP2 SWAP1 POP JUMP JUMPDEST PUSH1 0x0 DUP1 PUSH1 0x0 SWAP1 SLOAD SWAP1 PUSH2 0x100 EXP SWAP1 DIV PUSH20 0xFFFFFFFFFFFFFFFFFFFFFFFFFFFFFFFFFFFFFFFF AND SWAP1 POP SWAP1 JUMP JUMPDEST PUSH2 0x20EA PUSH2 0x2E08 JUMP JUMPDEST PUSH20 0xFFFFFFFFFFFFFFFFFFFFFFFFFFFFFFFFFFFFFFFF AND PUSH1 0x0 DUP1 SLOAD SWAP1 PUSH2 0x100 EXP SWAP1 DIV PUSH20 0xFFFFFFFFFFFFFFFFFFFFFFFFFFFFFFFFFFFFFFFF AND PUSH20 0xFFFFFFFFFFFFFFFFFFFFFFFFFFFFFFFFFFFFFFFF AND EQ PUSH2 0x21AA JUMPI PUSH1 0x40 MLOAD PUSH32 0x8C379A000000000000000000000000000000000000000000000000000000000 DUP2 MSTORE PUSH1 0x4 ADD DUP1 DUP1 PUSH1 0x20 ADD DUP3 DUP2 SUB DUP3 MSTORE PUSH1 0x20 DUP2 MSTORE PUSH1 0x20 ADD DUP1 PUSH32 0x4F776E61626C653A2063616C6C6572206973206E6F7420746865206F776E6572 DUP2 MSTORE POP PUSH1 0x20 ADD SWAP2 POP POP PUSH1 0x40 MLOAD DUP1 SWAP2 SUB SWAP1 REVERT JUMPDEST DUP1 PUSH1 0x11 DUP2 SWAP1 SSTORE POP POP JUMP JUMPDEST PUSH1 0x60 PUSH1 0xD DUP1 SLOAD PUSH1 0x1 DUP2 PUSH1 0x1 AND ISZERO PUSH2 0x100 MUL SUB AND PUSH1 0x2 SWAP1 DIV DUP1 PUSH1 0x1F ADD PUSH1 0x20 DUP1 SWAP2 DIV MUL PUSH1 0x20 ADD PUSH1 0x40 MLOAD SWAP1 DUP2 ADD PUSH1 0x40 MSTORE DUP1 SWAP3 SWAP2 SWAP1 DUP2 DUP2 MSTORE PUSH1 0x20 ADD DUP3 DUP1 SLOAD PUSH1 0x1 DUP2 PUSH1 0x1 AND ISZERO PUSH2 0x100 MUL SUB AND PUSH1 0x2 SWAP1 DIV DUP1 ISZERO PUSH2 0x224C JUMPI DUP1 PUSH1 0x1F LT PUSH2 0x2221 JUMPI PUSH2 0x100 DUP1 DUP4 SLOAD DIV MUL DUP4 MSTORE SWAP2 PUSH1 0x20 ADD SWAP2 PUSH2 0x224C JUMP JUMPDEST DUP3 ADD SWAP2 SWAP1 PUSH1 0x0 MSTORE PUSH1 0x20 PUSH1 0x0 KECCAK256 SWAP1 JUMPDEST DUP2 SLOAD DUP2 MSTORE SWAP1 PUSH1 0x1 ADD SWAP1 PUSH1 0x20 ADD DUP1 DUP4 GT PUSH2 0x222F JUMPI DUP3 SWAP1 SUB PUSH1 0x1F AND DUP3 ADD SWAP2 JUMPDEST POP POP POP POP POP SWAP1 POP SWAP1 JUMP JUMPDEST PUSH1 0x0 PUSH2 0x2319 PUSH2 0x2263 PUSH2 0x2E08 JUMP JUMPDEST DUP5 PUSH2 0x2314 DUP6 PUSH1 0x40 MLOAD DUP1 PUSH1 0x60 ADD PUSH1 0x40 MSTORE DUP1 PUSH1 0x25 DUP2 MSTORE PUSH1 0x20 ADD PUSH2 0x50C1 PUSH1 0x25 SWAP2 CODECOPY PUSH1 0x5 PUSH1 0x0 PUSH2 0x228D PUSH2 0x2E08 JUMP JUMPDEST PUSH20 0xFFFFFFFFFFFFFFFFFFFFFFFFFFFFFFFFFFFFFFFF AND PUSH20 0xFFFFFFFFFFFFFFFFFFFFFFFFFFFFFFFFFFFFFFFF AND DUP2 MSTORE PUSH1 0x20 ADD SWAP1 DUP2 MSTORE PUSH1 0x20 ADD PUSH1 0x0 KECCAK256 PUSH1 0x0 DUP11 PUSH20 0xFFFFFFFFFFFFFFFFFFFFFFFFFFFFFFFFFFFFFFFF AND PUSH20 0xFFFFFFFFFFFFFFFFFFFFFFFFFFFFFFFFFFFFFFFF AND DUP2 MSTORE PUSH1 0x20 ADD SWAP1 DUP2 MSTORE PUSH1 0x20 ADD PUSH1 0x0 KECCAK256 SLOAD PUSH2 0x33CC SWAP1 SWAP3 SWAP2 SWAP1 PUSH4 0xFFFFFFFF AND JUMP JUMPDEST PUSH2 0x2E10 JUMP JUMPDEST PUSH1 0x1 SWAP1 POP SWAP3 SWAP2 POP POP JUMP JUMPDEST CALLER PUSH20 0xFFFFFFFFFFFFFFFFFFFFFFFFFFFFFFFFFFFFFFFF AND PUSH1 0x1 PUSH1 0x0 SWAP1 SLOAD SWAP1 PUSH2 0x100 EXP SWAP1 DIV PUSH20 0xFFFFFFFFFFFFFFFFFFFFFFFFFFFFFFFFFFFFFFFF AND PUSH20 0xFFFFFFFFFFFFFFFFFFFFFFFFFFFFFFFFFFFFFFFF AND EQ PUSH2 0x23C9 JUMPI PUSH1 0x40 MLOAD PUSH32 0x8C379A000000000000000000000000000000000000000000000000000000000 DUP2 MSTORE PUSH1 0x4 ADD DUP1 DUP1 PUSH1 0x20 ADD DUP3 DUP2 SUB DUP3 MSTORE PUSH1 0x23 DUP2 MSTORE PUSH1 0x20 ADD DUP1 PUSH2 0x509E PUSH1 0x23 SWAP2 CODECOPY PUSH1 0x40 ADD SWAP2 POP POP PUSH1 0x40 MLOAD DUP1 SWAP2 SUB SWAP1 REVERT JUMPDEST PUSH1 0x2 SLOAD TIMESTAMP GT PUSH2 0x2440 JUMPI PUSH1 0x40 MLOAD PUSH32 0x8C379A000000000000000000000000000000000000000000000000000000000 DUP2 MSTORE PUSH1 0x4 ADD DUP1 DUP1 PUSH1 0x20 ADD DUP3 DUP2 SUB DUP3 MSTORE PUSH1 0x1F DUP2 MSTORE PUSH1 0x20 ADD DUP1 PUSH32 0x436F6E7472616374206973206C6F636B656420756E74696C2037206461797300 DUP2 MSTORE POP PUSH1 0x20 ADD SWAP2 POP POP PUSH1 0x40 MLOAD DUP1 SWAP2 SUB SWAP1 REVERT JUMPDEST PUSH1 0x1 PUSH1 0x0 SWAP1 SLOAD SWAP1 PUSH2 0x100 EXP SWAP1 DIV PUSH20 0xFFFFFFFFFFFFFFFFFFFFFFFFFFFFFFFFFFFFFFFF AND PUSH20 0xFFFFFFFFFFFFFFFFFFFFFFFFFFFFFFFFFFFFFFFF AND PUSH1 0x0 DUP1 SLOAD SWAP1 PUSH2 0x100 EXP SWAP1 DIV PUSH20 0xFFFFFFFFFFFFFFFFFFFFFFFFFFFFFFFFFFFFFFFF AND PUSH20 0xFFFFFFFFFFFFFFFFFFFFFFFFFFFFFFFFFFFFFFFF AND PUSH32 0x8BE0079C531659141344CD1FD0A4F28419497F9722A3DAAFE3B4186F6B6457E0 PUSH1 0x40 MLOAD PUSH1 0x40 MLOAD DUP1 SWAP2 SUB SWAP1 LOG3 PUSH1 0x1 PUSH1 0x0 SWAP1 SLOAD SWAP1 PUSH2 0x100 EXP SWAP1 DIV PUSH20 0xFFFFFFFFFFFFFFFFFFFFFFFFFFFFFFFFFFFFFFFF AND PUSH1 0x0 DUP1 PUSH2 0x100 EXP DUP2 SLOAD DUP2 PUSH20 0xFFFFFFFFFFFFFFFFFFFFFFFFFFFFFFFFFFFFFFFF MUL NOT AND SWAP1 DUP4 PUSH20 0xFFFFFFFFFFFFFFFFFFFFFFFFFFFFFFFFFFFFFFFF AND MUL OR SWAP1 SSTORE POP JUMP JUMPDEST PUSH1 0x0 PUSH2 0x2554 PUSH2 0x254D PUSH2 0x2E08 JUMP JUMPDEST DUP5 DUP5 PUSH2 0x3007 JUMP JUMPDEST PUSH1 0x1 SWAP1 POP SWAP3 SWAP2 POP POP JUMP JUMPDEST PUSH1 0x0 DUP1 SLOAD SWAP1 PUSH2 0x100 EXP SWAP1 DIV PUSH20 0xFFFFFFFFFFFFFFFFFFFFFFFFFFFFFFFFFFFFFFFF AND DUP2 JUMP JUMPDEST PUSH1 0x0 PUSH1 0x2 SLOAD SWAP1 POP SWAP1 JUMP JUMPDEST PUSH2 0x2594 PUSH2 0x2E08 JUMP JUMPDEST PUSH20 0xFFFFFFFFFFFFFFFFFFFFFFFFFFFFFFFFFFFFFFFF AND PUSH1 0x0 DUP1 SLOAD SWAP1 PUSH2 0x100 EXP SWAP1 DIV PUSH20 0xFFFFFFFFFFFFFFFFFFFFFFFFFFFFFFFFFFFFFFFF AND PUSH20 0xFFFFFFFFFFFFFFFFFFFFFFFFFFFFFFFFFFFFFFFF AND EQ PUSH2 0x2654 JUMPI PUSH1 0x40 MLOAD PUSH32 0x8C379A000000000000000000000000000000000000000000000000000000000 DUP2 MSTORE PUSH1 0x4 ADD DUP1 DUP1 PUSH1 0x20 ADD DUP3 DUP2 SUB DUP3 MSTORE PUSH1 0x20 DUP2 MSTORE PUSH1 0x20 ADD DUP1 PUSH32 0x4F776E61626C653A2063616C6C6572206973206E6F7420746865206F776E6572 DUP2 MSTORE POP PUSH1 0x20 ADD SWAP2 POP POP PUSH1 0x40 MLOAD DUP1 SWAP2 SUB SWAP1 REVERT JUMPDEST DUP1 PUSH1 0x13 PUSH1 0x1 PUSH2 0x100 EXP DUP2 SLOAD DUP2 PUSH1 0xFF MUL NOT AND SWAP1 DUP4 ISZERO ISZERO MUL OR SWAP1 SSTORE POP PUSH32 0x53726DFCAF90650AA7EB35524F4D3220F07413C8D6CB404CC8C18BF5591BC159 DUP2 PUSH1 0x40 MLOAD DUP1 DUP3 ISZERO ISZERO DUP2 MSTORE PUSH1 0x20 ADD SWAP2 POP POP PUSH1 0x40 MLOAD DUP1 SWAP2 SUB SWAP1 LOG1 POP JUMP JUMPDEST PUSH1 0x15 SLOAD DUP2 JUMP JUMPDEST PUSH2 0x26B8 PUSH2 0x2E08 JUMP JUMPDEST PUSH20 0xFFFFFFFFFFFFFFFFFFFFFFFFFFFFFFFFFFFFFFFF AND PUSH1 0x0 DUP1 SLOAD SWAP1 PUSH2 0x100 EXP SWAP1 DIV PUSH20 0xFFFFFFFFFFFFFFFFFFFFFFFFFFFFFFFFFFFFFFFF AND PUSH20 0xFFFFFFFFFFFFFFFFFFFFFFFFFFFFFFFFFFFFFFFF AND EQ PUSH2 0x2778 JUMPI PUSH1 0x40 MLOAD PUSH32 0x8C379A000000000000000000000000000000000000000000000000000000000 DUP2 MSTORE PUSH1 0x4 ADD DUP1 DUP1 PUSH1 0x20 ADD DUP3 DUP2 SUB DUP3 MSTORE PUSH1 0x20 DUP2 MSTORE PUSH1 0x20 ADD DUP1 PUSH32 0x4F776E61626C653A2063616C6C6572206973206E6F7420746865206F776E6572 DUP2 MSTORE POP PUSH1 0x20 ADD SWAP2 POP POP PUSH1 0x40 MLOAD DUP1 SWAP2 SUB SWAP1 REVERT JUMPDEST PUSH1 0xE SLOAD PUSH1 0xA EXP DUP2 MUL PUSH1 0x14 DUP2 SWAP1 SSTORE POP POP JUMP JUMPDEST PUSH2 0x2791 PUSH2 0x2E08 JUMP JUMPDEST PUSH20 0xFFFFFFFFFFFFFFFFFFFFFFFFFFFFFFFFFFFFFFFF AND PUSH1 0x0 DUP1 SLOAD SWAP1 PUSH2 0x100 EXP SWAP1 DIV PUSH20 0xFFFFFFFFFFFFFFFFFFFFFFFFFFFFFFFFFFFFFFFF AND PUSH20 0xFFFFFFFFFFFFFFFFFFFFFFFFFFFFFFFFFFFFFFFF AND EQ PUSH2 0x2851 JUMPI PUSH1 0x40 MLOAD PUSH32 0x8C379A000000000000000000000000000000000000000000000000000000000 DUP2 MSTORE PUSH1 0x4 ADD DUP1 DUP1 PUSH1 0x20 ADD DUP3 DUP2 SUB DUP3 MSTORE PUSH1 0x20 DUP2 MSTORE PUSH1 0x20 ADD DUP1 PUSH32 0x4F776E61626C653A2063616C6C6572206973206E6F7420746865206F776E6572 DUP2 MSTORE POP PUSH1 0x20 ADD SWAP2 POP POP PUSH1 0x40 MLOAD DUP1 SWAP2 SUB SWAP1 REVERT JUMPDEST PUSH1 0x0 DUP1 SLOAD SWAP1 PUSH2 0x100 EXP SWAP1 DIV PUSH20 0xFFFFFFFFFFFFFFFFFFFFFFFFFFFFFFFFFFFFFFFF AND PUSH1 0x1 PUSH1 0x0 PUSH2 0x100 EXP DUP2 SLOAD DUP2 PUSH20 0xFFFFFFFFFFFFFFFFFFFFFFFFFFFFFFFFFFFFFFFF MUL NOT AND SWAP1 DUP4 PUSH20 0xFFFFFFFFFFFFFFFFFFFFFFFFFFFFFFFFFFFFFFFF AND MUL OR SWAP1 SSTORE POP PUSH1 0x0 DUP1 PUSH1 0x0 PUSH2 0x100 EXP DUP2 SLOAD DUP2 PUSH20 0xFFFFFFFFFFFFFFFFFFFFFFFFFFFFFFFFFFFFFFFF MUL NOT AND SWAP1 DUP4 PUSH20 0xFFFFFFFFFFFFFFFFFFFFFFFFFFFFFFFFFFFFFFFF AND MUL OR SWAP1 SSTORE POP DUP1 TIMESTAMP ADD PUSH1 0x2 DUP2 SWAP1 SSTORE POP PUSH1 0x0 PUSH20 0xFFFFFFFFFFFFFFFFFFFFFFFFFFFFFFFFFFFFFFFF AND PUSH1 0x0 DUP1 SLOAD SWAP1 PUSH2 0x100 EXP SWAP1 DIV PUSH20 0xFFFFFFFFFFFFFFFFFFFFFFFFFFFFFFFFFFFFFFFF AND PUSH20 0xFFFFFFFFFFFFFFFFFFFFFFFFFFFFFFFFFFFFFFFF AND PUSH32 0x8BE0079C531659141344CD1FD0A4F28419497F9722A3DAAFE3B4186F6B6457E0 PUSH1 0x40 MLOAD PUSH1 0x40 MLOAD DUP1 SWAP2 SUB SWAP1 LOG3 POP JUMP JUMPDEST PUSH1 0x0 PUSH1 0x5 PUSH1 0x0 DUP5 PUSH20 0xFFFFFFFFFFFFFFFFFFFFFFFFFFFFFFFFFFFFFFFF AND PUSH20 0xFFFFFFFFFFFFFFFFFFFFFFFFFFFFFFFFFFFFFFFF AND DUP2 MSTORE PUSH1 0x20 ADD SWAP1 DUP2 MSTORE PUSH1 0x20 ADD PUSH1 0x0 KECCAK256 PUSH1 0x0 DUP4 PUSH20 0xFFFFFFFFFFFFFFFFFFFFFFFFFFFFFFFFFFFFFFFF AND PUSH20 0xFFFFFFFFFFFFFFFFFFFFFFFFFFFFFFFFFFFFFFFF AND DUP2 MSTORE PUSH1 0x20 ADD SWAP1 DUP2 MSTORE PUSH1 0x20 ADD PUSH1 0x0 KECCAK256 SLOAD SWAP1 POP SWAP3 SWAP2 POP POP JUMP JUMPDEST PUSH2 0x2A09 PUSH2 0x2E08 JUMP JUMPDEST PUSH20 0xFFFFFFFFFFFFFFFFFFFFFFFFFFFFFFFFFFFFFFFF AND PUSH1 0x0 DUP1 SLOAD SWAP1 PUSH2 0x100 EXP SWAP1 DIV PUSH20 0xFFFFFFFFFFFFFFFFFFFFFFFFFFFFFFFFFFFFFFFF AND PUSH20 0xFFFFFFFFFFFFFFFFFFFFFFFFFFFFFFFFFFFFFFFF AND EQ PUSH2 0x2AC9 JUMPI PUSH1 0x40 MLOAD PUSH32 0x8C379A000000000000000000000000000000000000000000000000000000000 DUP2 MSTORE PUSH1 0x4 ADD DUP1 DUP1 PUSH1 0x20 ADD DUP3 DUP2 SUB DUP3 MSTORE PUSH1 0x20 DUP2 MSTORE PUSH1 0x20 ADD DUP1 PUSH32 0x4F776E61626C653A2063616C6C6572206973206E6F7420746865206F776E6572 DUP2 MSTORE POP PUSH1 0x20 ADD SWAP2 POP POP PUSH1 0x40 MLOAD DUP1 SWAP2 SUB SWAP1 REVERT JUMPDEST PUSH1 0x0 PUSH1 0x6 PUSH1 0x0 DUP4 PUSH20 0xFFFFFFFFFFFFFFFFFFFFFFFFFFFFFFFFFFFFFFFF AND PUSH20 0xFFFFFFFFFFFFFFFFFFFFFFFFFFFFFFFFFFFFFFFF AND DUP2 MSTORE PUSH1 0x20 ADD SWAP1 DUP2 MSTORE PUSH1 0x20 ADD PUSH1 0x0 KECCAK256 PUSH1 0x0 PUSH2 0x100 EXP DUP2 SLOAD DUP2 PUSH1 0xFF MUL NOT AND SWAP1 DUP4 ISZERO ISZERO MUL OR SWAP1 SSTORE POP POP JUMP JUMPDEST PUSH2 0x2B2C PUSH2 0x2E08 JUMP JUMPDEST PUSH20 0xFFFFFFFFFFFFFFFFFFFFFFFFFFFFFFFFFFFFFFFF AND PUSH1 0x0 DUP1 SLOAD SWAP1 PUSH2 0x100 EXP SWAP1 DIV PUSH20 0xFFFFFFFFFFFFFFFFFFFFFFFFFFFFFFFFFFFFFFFF AND PUSH20 0xFFFFFFFFFFFFFFFFFFFFFFFFFFFFFFFFFFFFFFFF AND EQ PUSH2 0x2BEC JUMPI PUSH1 0x40 MLOAD PUSH32 0x8C379A000000000000000000000000000000000000000000000000000000000 DUP2 MSTORE PUSH1 0x4 ADD DUP1 DUP1 PUSH1 0x20 ADD DUP3 DUP2 SUB DUP3 MSTORE PUSH1 0x20 DUP2 MSTORE PUSH1 0x20 ADD DUP1 PUSH32 0x4F776E61626C653A2063616C6C6572206973206E6F7420746865206F776E6572 DUP2 MSTORE POP PUSH1 0x20 ADD SWAP2 POP POP PUSH1 0x40 MLOAD DUP1 SWAP2 SUB SWAP1 REVERT JUMPDEST PUSH1 0xE SLOAD PUSH1 0xA EXP DUP2 MUL PUSH1 0x15 DUP2 SWAP1 SSTORE POP POP JUMP JUMPDEST PUSH2 0x2C05 PUSH2 0x2E08 JUMP JUMPDEST PUSH20 0xFFFFFFFFFFFFFFFFFFFFFFFFFFFFFFFFFFFFFFFF AND PUSH1 0x0 DUP1 SLOAD SWAP1 PUSH2 0x100 EXP SWAP1 DIV PUSH20 0xFFFFFFFFFFFFFFFFFFFFFFFFFFFFFFFFFFFFFFFF AND PUSH20 0xFFFFFFFFFFFFFFFFFFFFFFFFFFFFFFFFFFFFFFFF AND EQ PUSH2 0x2CC5 JUMPI PUSH1 0x40 MLOAD PUSH32 0x8C379A000000000000000000000000000000000000000000000000000000000 DUP2 MSTORE PUSH1 0x4 ADD DUP1 DUP1 PUSH1 0x20 ADD DUP3 DUP2 SUB DUP3 MSTORE PUSH1 0x20 DUP2 MSTORE PUSH1 0x20 ADD DUP1 PUSH32 0x4F776E61626C653A2063616C6C6572206973206E6F7420746865206F776E6572 DUP2 MSTORE POP PUSH1 0x20 ADD SWAP2 POP POP PUSH1 0x40 MLOAD DUP1 SWAP2 SUB SWAP1 REVERT JUMPDEST PUSH1 0x0 PUSH20 0xFFFFFFFFFFFFFFFFFFFFFFFFFFFFFFFFFFFFFFFF AND DUP2 PUSH20 0xFFFFFFFFFFFFFFFFFFFFFFFFFFFFFFFFFFFFFFFF AND EQ ISZERO PUSH2 0x2D4B JUMPI PUSH1 0x40 MLOAD PUSH32 0x8C379A000000000000000000000000000000000000000000000000000000000 DUP2 MSTORE PUSH1 0x4 ADD DUP1 DUP1 PUSH1 0x20 ADD DUP3 DUP2 SUB DUP3 MSTORE PUSH1 0x26 DUP2 MSTORE PUSH1 0x20 ADD DUP1 PUSH2 0x4F47 PUSH1 0x26 SWAP2 CODECOPY PUSH1 0x40 ADD SWAP2 POP POP PUSH1 0x40 MLOAD DUP1 SWAP2 SUB SWAP1 REVERT JUMPDEST DUP1 PUSH20 0xFFFFFFFFFFFFFFFFFFFFFFFFFFFFFFFFFFFFFFFF AND PUSH1 0x0 DUP1 SLOAD SWAP1 PUSH2 0x100 EXP SWAP1 DIV PUSH20 0xFFFFFFFFFFFFFFFFFFFFFFFFFFFFFFFFFFFFFFFF AND PUSH20 0xFFFFFFFFFFFFFFFFFFFFFFFFFFFFFFFFFFFFFFFF AND PUSH32 0x8BE0079C531659141344CD1FD0A4F28419497F9722A3DAAFE3B4186F6B6457E0 PUSH1 0x40 MLOAD PUSH1 0x40 MLOAD DUP1 SWAP2 SUB SWAP1 LOG3 DUP1 PUSH1 0x0 DUP1 PUSH2 0x100 EXP DUP2 SLOAD DUP2 PUSH20 0xFFFFFFFFFFFFFFFFFFFFFFFFFFFFFFFFFFFFFFFF MUL NOT AND SWAP1 DUP4 PUSH20 0xFFFFFFFFFFFFFFFFFFFFFFFFFFFFFFFFFFFFFFFF AND MUL OR SWAP1 SSTORE POP POP JUMP JUMPDEST PUSH1 0x0 CALLER SWAP1 POP SWAP1 JUMP JUMPDEST PUSH1 0x0 PUSH20 0xFFFFFFFFFFFFFFFFFFFFFFFFFFFFFFFFFFFFFFFF AND DUP4 PUSH20 0xFFFFFFFFFFFFFFFFFFFFFFFFFFFFFFFFFFFFFFFF AND EQ ISZERO PUSH2 0x2E96 JUMPI PUSH1 0x40 MLOAD PUSH32 0x8C379A000000000000000000000000000000000000000000000000000000000 DUP2 MSTORE PUSH1 0x4 ADD DUP1 DUP1 PUSH1 0x20 ADD DUP3 DUP2 SUB DUP3 MSTORE PUSH1 0x24 DUP2 MSTORE PUSH1 0x20 ADD DUP1 PUSH2 0x504E PUSH1 0x24 SWAP2 CODECOPY PUSH1 0x40 ADD SWAP2 POP POP PUSH1 0x40 MLOAD DUP1 SWAP2 SUB SWAP1 REVERT JUMPDEST PUSH1 0x0 PUSH20 0xFFFFFFFFFFFFFFFFFFFFFFFFFFFFFFFFFFFFFFFF AND DUP3 PUSH20 0xFFFFFFFFFFFFFFFFFFFFFFFFFFFFFFFFFFFFFFFF AND EQ ISZERO PUSH2 0x2F1C JUMPI PUSH1 0x40 MLOAD PUSH32 0x8C379A000000000000000000000000000000000000000000000000000000000 DUP2 MSTORE PUSH1 0x4 ADD DUP1 DUP1 PUSH1 0x20 ADD DUP3 DUP2 SUB DUP3 MSTORE PUSH1 0x22 DUP2 MSTORE PUSH1 0x20 ADD DUP1 PUSH2 0x4F6D PUSH1 0x22 SWAP2 CODECOPY PUSH1 0x40 ADD SWAP2 POP POP PUSH1 0x40 MLOAD DUP1 SWAP2 SUB SWAP1 REVERT JUMPDEST DUP1 PUSH1 0x5 PUSH1 0x0 DUP6 PUSH20 0xFFFFFFFFFFFFFFFFFFFFFFFFFFFFFFFFFFFFFFFF AND PUSH20 0xFFFFFFFFFFFFFFFFFFFFFFFFFFFFFFFFFFFFFFFF AND DUP2 MSTORE PUSH1 0x20 ADD SWAP1 DUP2 MSTORE PUSH1 0x20 ADD PUSH1 0x0 KECCAK256 PUSH1 0x0 DUP5 PUSH20 0xFFFFFFFFFFFFFFFFFFFFFFFFFFFFFFFFFFFFFFFF AND PUSH20 0xFFFFFFFFFFFFFFFFFFFFFFFFFFFFFFFFFFFFFFFF AND DUP2 MSTORE PUSH1 0x20 ADD SWAP1 DUP2 MSTORE PUSH1 0x20 ADD PUSH1 0x0 KECCAK256 DUP2 SWAP1 SSTORE POP DUP2 PUSH20 0xFFFFFFFFFFFFFFFFFFFFFFFFFFFFFFFFFFFFFFFF AND DUP4 PUSH20 0xFFFFFFFFFFFFFFFFFFFFFFFFFFFFFFFFFFFFFFFF AND PUSH32 0x8C5BE1E5EBEC7D5BD14F71427D1E84F3DD0314C0F7B2291E5B200AC8C7C3B925 DUP4 PUSH1 0x40 MLOAD DUP1 DUP3 DUP2 MSTORE PUSH1 0x20 ADD SWAP2 POP POP PUSH1 0x40 MLOAD DUP1 SWAP2 SUB SWAP1 LOG3 POP POP POP JUMP JUMPDEST PUSH1 0x0 PUSH20 0xFFFFFFFFFFFFFFFFFFFFFFFFFFFFFFFFFFFFFFFF AND DUP4 PUSH20 0xFFFFFFFFFFFFFFFFFFFFFFFFFFFFFFFFFFFFFFFF AND EQ ISZERO PUSH2 0x308D JUMPI PUSH1 0x40 MLOAD PUSH32 0x8C379A000000000000000000000000000000000000000000000000000000000 DUP2 MSTORE PUSH1 0x4 ADD DUP1 DUP1 PUSH1 0x20 ADD DUP3 DUP2 SUB DUP3 MSTORE PUSH1 0x25 DUP2 MSTORE PUSH1 0x20 ADD DUP1 PUSH2 0x5029 PUSH1 0x25 SWAP2 CODECOPY PUSH1 0x40 ADD SWAP2 POP POP PUSH1 0x40 MLOAD DUP1 SWAP2 SUB SWAP1 REVERT JUMPDEST PUSH1 0x0 PUSH20 0xFFFFFFFFFFFFFFFFFFFFFFFFFFFFFFFFFFFFFFFF AND DUP3 PUSH20 0xFFFFFFFFFFFFFFFFFFFFFFFFFFFFFFFFFFFFFFFF AND EQ ISZERO PUSH2 0x3113 JUMPI PUSH1 0x40 MLOAD PUSH32 0x8C379A000000000000000000000000000000000000000000000000000000000 DUP2 MSTORE PUSH1 0x4 ADD DUP1 DUP1 PUSH1 0x20 ADD DUP3 DUP2 SUB DUP3 MSTORE PUSH1 0x23 DUP2 MSTORE PUSH1 0x20 ADD DUP1 PUSH2 0x4EFA PUSH1 0x23 SWAP2 CODECOPY PUSH1 0x40 ADD SWAP2 POP POP PUSH1 0x40 MLOAD DUP1 SWAP2 SUB SWAP1 REVERT JUMPDEST PUSH1 0x0 DUP2 GT PUSH2 0x316C JUMPI PUSH1 0x40 MLOAD PUSH32 0x8C379A000000000000000000000000000000000000000000000000000000000 DUP2 MSTORE PUSH1 0x4 ADD DUP1 DUP1 PUSH1 0x20 ADD DUP3 DUP2 SUB DUP3 MSTORE PUSH1 0x29 DUP2 MSTORE PUSH1 0x20 ADD DUP1 PUSH2 0x5000 PUSH1 0x29 SWAP2 CODECOPY PUSH1 0x40 ADD SWAP2 POP POP PUSH1 0x40 MLOAD DUP1 SWAP2 SUB SWAP1 REVERT JUMPDEST PUSH2 0x3174 PUSH2 0x20B9 JUMP JUMPDEST PUSH20 0xFFFFFFFFFFFFFFFFFFFFFFFFFFFFFFFFFFFFFFFF AND DUP4 PUSH20 0xFFFFFFFFFFFFFFFFFFFFFFFFFFFFFFFFFFFFFFFF AND EQ ISZERO DUP1 ISZERO PUSH2 0x31E2 JUMPI POP PUSH2 0x31B2 PUSH2 0x20B9 JUMP JUMPDEST PUSH20 0xFFFFFFFFFFFFFFFFFFFFFFFFFFFFFFFFFFFFFFFF AND DUP3 PUSH20 0xFFFFFFFFFFFFFFFFFFFFFFFFFFFFFFFFFFFFFFFF AND EQ ISZERO JUMPDEST ISZERO PUSH2 0x3243 JUMPI PUSH1 0x14 SLOAD DUP2 GT ISZERO PUSH2 0x3242 JUMPI PUSH1 0x40 MLOAD PUSH32 0x8C379A000000000000000000000000000000000000000000000000000000000 DUP2 MSTORE PUSH1 0x4 ADD DUP1 DUP1 PUSH1 0x20 ADD DUP3 DUP2 SUB DUP3 MSTORE PUSH1 0x28 DUP2 MSTORE PUSH1 0x20 ADD DUP1 PUSH2 0x4F8F PUSH1 0x28 SWAP2 CODECOPY PUSH1 0x40 ADD SWAP2 POP POP PUSH1 0x40 MLOAD DUP1 SWAP2 SUB SWAP1 REVERT JUMPDEST JUMPDEST PUSH1 0x0 PUSH2 0x324E ADDRESS PUSH2 0x1DEC JUMP JUMPDEST SWAP1 POP PUSH1 0x14 SLOAD DUP2 LT PUSH2 0x325F JUMPI PUSH1 0x14 SLOAD SWAP1 POP JUMPDEST PUSH1 0x0 PUSH1 0x15 SLOAD DUP3 LT ISZERO SWAP1 POP DUP1 DUP1 ISZERO PUSH2 0x3283 JUMPI POP PUSH1 0x13 PUSH1 0x0 SWAP1 SLOAD SWAP1 PUSH2 0x100 EXP SWAP1 DIV PUSH1 0xFF AND ISZERO JUMPDEST DUP1 ISZERO PUSH2 0x32DB JUMPI POP PUSH32 0x0 PUSH20 0xFFFFFFFFFFFFFFFFFFFFFFFFFFFFFFFFFFFFFFFF AND DUP6 PUSH20 0xFFFFFFFFFFFFFFFFFFFFFFFFFFFFFFFFFFFFFFFF AND EQ ISZERO JUMPDEST DUP1 ISZERO PUSH2 0x32F3 JUMPI POP PUSH1 0x13 PUSH1 0x1 SWAP1 SLOAD SWAP1 PUSH2 0x100 EXP SWAP1 DIV PUSH1 0xFF AND JUMPDEST ISZERO PUSH2 0x3307 JUMPI PUSH1 0x15 SLOAD SWAP2 POP PUSH2 0x3306 DUP3 PUSH2 0x362F JUMP JUMPDEST JUMPDEST PUSH1 0x0 PUSH1 0x1 SWAP1 POP PUSH1 0x6 PUSH1 0x0 DUP8 PUSH20 0xFFFFFFFFFFFFFFFFFFFFFFFFFFFFFFFFFFFFFFFF AND PUSH20 0xFFFFFFFFFFFFFFFFFFFFFFFFFFFFFFFFFFFFFFFF AND DUP2 MSTORE PUSH1 0x20 ADD SWAP1 DUP2 MSTORE PUSH1 0x20 ADD PUSH1 0x0 KECCAK256 PUSH1 0x0 SWAP1 SLOAD SWAP1 PUSH2 0x100 EXP SWAP1 DIV PUSH1 0xFF AND DUP1 PUSH2 0x33AE JUMPI POP PUSH1 0x6 PUSH1 0x0 DUP7 PUSH20 0xFFFFFFFFFFFFFFFFFFFFFFFFFFFFFFFFFFFFFFFF AND PUSH20 0xFFFFFFFFFFFFFFFFFFFFFFFFFFFFFFFFFFFFFFFF AND DUP2 MSTORE PUSH1 0x20 ADD SWAP1 DUP2 MSTORE PUSH1 0x20 ADD PUSH1 0x0 KECCAK256 PUSH1 0x0 SWAP1 SLOAD SWAP1 PUSH2 0x100 EXP SWAP1 DIV PUSH1 0xFF AND JUMPDEST ISZERO PUSH2 0x33B8 JUMPI PUSH1 0x0 SWAP1 POP JUMPDEST PUSH2 0x33C4 DUP7 DUP7 DUP7 DUP5 PUSH2 0x3711 JUMP JUMPDEST POP POP POP POP POP POP JUMP JUMPDEST PUSH1 0x0 DUP4 DUP4 GT ISZERO DUP3 SWAP1 PUSH2 0x3479 JUMPI PUSH1 0x40 MLOAD PUSH32 0x8C379A000000000000000000000000000000000000000000000000000000000 DUP2 MSTORE PUSH1 0x4 ADD DUP1 DUP1 PUSH1 0x20 ADD DUP3 DUP2 SUB DUP3 MSTORE DUP4 DUP2 DUP2 MLOAD DUP2 MSTORE PUSH1 0x20 ADD SWAP2 POP DUP1 MLOAD SWAP1 PUSH1 0x20 ADD SWAP1 DUP1 DUP4 DUP4 PUSH1 0x0 JUMPDEST DUP4 DUP2 LT ISZERO PUSH2 0x343E JUMPI DUP1 DUP3 ADD MLOAD DUP2 DUP5 ADD MSTORE PUSH1 0x20 DUP2 ADD SWAP1 POP PUSH2 0x3423 JUMP JUMPDEST POP POP POP POP SWAP1 POP SWAP1 DUP2 ADD SWAP1 PUSH1 0x1F AND DUP1 ISZERO PUSH2 0x346B JUMPI DUP1 DUP3 SUB DUP1 MLOAD PUSH1 0x1 DUP4 PUSH1 0x20 SUB PUSH2 0x100 EXP SUB NOT AND DUP2 MSTORE PUSH1 0x20 ADD SWAP2 POP JUMPDEST POP SWAP3 POP POP POP PUSH1 0x40 MLOAD DUP1 SWAP2 SUB SWAP1 REVERT JUMPDEST POP PUSH1 0x0 DUP4 DUP6 SUB SWAP1 POP DUP1 SWAP2 POP POP SWAP4 SWAP3 POP POP POP JUMP JUMPDEST PUSH1 0x0 DUP1 PUSH1 0x0 PUSH2 0x3499 PUSH2 0x3A22 JUMP JUMPDEST SWAP2 POP SWAP2 POP PUSH2 0x34B0 DUP2 DUP4 PUSH2 0x34B7 SWAP1 SWAP2 SWAP1 PUSH4 0xFFFFFFFF AND JUMP JUMPDEST SWAP3 POP POP POP SWAP1 JUMP JUMPDEST PUSH1 0x0 PUSH2 0x34F9 DUP4 DUP4 PUSH1 0x40 MLOAD DUP1 PUSH1 0x40 ADD PUSH1 0x40 MSTORE DUP1 PUSH1 0x1A DUP2 MSTORE PUSH1 0x20 ADD PUSH32 0x536166654D6174683A206469766973696F6E206279207A65726F000000000000 DUP2 MSTORE POP PUSH2 0x3CB3 JUMP JUMPDEST SWAP1 POP SWAP3 SWAP2 POP POP JUMP JUMPDEST PUSH1 0x0 DUP1 DUP3 DUP5 ADD SWAP1 POP DUP4 DUP2 LT ISZERO PUSH2 0x357F JUMPI PUSH1 0x40 MLOAD PUSH32 0x8C379A000000000000000000000000000000000000000000000000000000000 DUP2 MSTORE PUSH1 0x4 ADD DUP1 DUP1 PUSH1 0x20 ADD DUP3 DUP2 SUB DUP3 MSTORE PUSH1 0x1B DUP2 MSTORE PUSH1 0x20 ADD DUP1 PUSH32 0x536166654D6174683A206164646974696F6E206F766572666C6F770000000000 DUP2 MSTORE POP PUSH1 0x20 ADD SWAP2 POP POP PUSH1 0x40 MLOAD DUP1 SWAP2 SUB SWAP1 REVERT JUMPDEST DUP1 SWAP2 POP POP SWAP3 SWAP2 POP POP JUMP JUMPDEST PUSH1 0x0 DUP1 PUSH1 0x0 DUP1 PUSH1 0x0 DUP1 PUSH1 0x0 DUP1 PUSH1 0x0 PUSH2 0x35A0 DUP11 PUSH2 0x3D79 JUMP JUMPDEST SWAP3 POP SWAP3 POP SWAP3 POP PUSH1 0x0 DUP1 PUSH1 0x0 PUSH2 0x35BE DUP14 DUP7 DUP7 PUSH2 0x35B9 PUSH2 0x348C JUMP JUMPDEST PUSH2 0x3DD3 JUMP JUMPDEST SWAP3 POP SWAP3 POP SWAP3 POP DUP3 DUP3 DUP3 DUP9 DUP9 DUP9 SWAP12 POP SWAP12 POP SWAP12 POP SWAP12 POP SWAP12 POP SWAP12 POP POP POP POP POP POP POP SWAP2 SWAP4 SWAP6 POP SWAP2 SWAP4 SWAP6 JUMP JUMPDEST PUSH1 0x0 PUSH2 0x3627 DUP4 DUP4 PUSH1 0x40 MLOAD DUP1 PUSH1 0x40 ADD PUSH1 0x40 MSTORE DUP1 PUSH1 0x1E DUP2 MSTORE PUSH1 0x20 ADD PUSH32 0x536166654D6174683A207375627472616374696F6E206F766572666C6F770000 DUP2 MSTORE POP PUSH2 0x33CC JUMP JUMPDEST SWAP1 POP SWAP3 SWAP2 POP POP JUMP JUMPDEST PUSH1 0x1 PUSH1 0x13 PUSH1 0x0 PUSH2 0x100 EXP DUP2 SLOAD DUP2 PUSH1 0xFF MUL NOT AND SWAP1 DUP4 ISZERO ISZERO MUL OR SWAP1 SSTORE POP PUSH1 0x0 PUSH2 0x3660 PUSH1 0x2 DUP4 PUSH2 0x34B7 SWAP1 SWAP2 SWAP1 PUSH4 0xFFFFFFFF AND JUMP JUMPDEST SWAP1 POP PUSH1 0x0 PUSH2 0x3677 DUP3 DUP5 PUSH2 0x35E5 SWAP1 SWAP2 SWAP1 PUSH4 0xFFFFFFFF AND JUMP JUMPDEST SWAP1 POP PUSH1 0x0 SELFBALANCE SWAP1 POP PUSH2 0x3687 DUP4 PUSH2 0x3E5C JUMP JUMPDEST PUSH1 0x0 PUSH2 0x369C DUP3 SELFBALANCE PUSH2 0x35E5 SWAP1 SWAP2 SWAP1 PUSH4 0xFFFFFFFF AND JUMP JUMPDEST SWAP1 POP PUSH2 0x36A8 DUP4 DUP3 PUSH2 0x410A JUMP JUMPDEST PUSH32 0x17BBFB9A6069321B6DED73BD96327C9E6B7212A5CD51FF219CD61370ACAFB561 DUP5 DUP3 DUP6 PUSH1 0x40 MLOAD DUP1 DUP5 DUP2 MSTORE PUSH1 0x20 ADD DUP4 DUP2 MSTORE PUSH1 0x20 ADD DUP3 DUP2 MSTORE PUSH1 0x20 ADD SWAP4 POP POP POP POP PUSH1 0x40 MLOAD DUP1 SWAP2 SUB SWAP1 LOG1 POP POP POP POP PUSH1 0x0 PUSH1 0x13 PUSH1 0x0 PUSH2 0x100 EXP DUP2 SLOAD DUP2 PUSH1 0xFF MUL NOT AND SWAP1 DUP4 ISZERO ISZERO MUL OR SWAP1 SSTORE POP POP JUMP JUMPDEST DUP1 PUSH2 0x371F JUMPI PUSH2 0x371E PUSH2 0x425B JUMP JUMPDEST JUMPDEST PUSH1 0x7 PUSH1 0x0 DUP6 PUSH20 0xFFFFFFFFFFFFFFFFFFFFFFFFFFFFFFFFFFFFFFFF AND PUSH20 0xFFFFFFFFFFFFFFFFFFFFFFFFFFFFFFFFFFFFFFFF AND DUP2 MSTORE PUSH1 0x20 ADD SWAP1 DUP2 MSTORE PUSH1 0x20 ADD PUSH1 0x0 KECCAK256 PUSH1 0x0 SWAP1 SLOAD SWAP1 PUSH2 0x100 EXP SWAP1 DIV PUSH1 0xFF AND DUP1 ISZERO PUSH2 0x37C2 JUMPI POP PUSH1 0x7 PUSH1 0x0 DUP5 PUSH20 0xFFFFFFFFFFFFFFFFFFFFFFFFFFFFFFFFFFFFFFFF AND PUSH20 0xFFFFFFFFFFFFFFFFFFFFFFFFFFFFFFFFFFFFFFFF AND DUP2 MSTORE PUSH1 0x20 ADD SWAP1 DUP2 MSTORE PUSH1 0x20 ADD PUSH1 0x0 KECCAK256 PUSH1 0x0 SWAP1 SLOAD SWAP1 PUSH2 0x100 EXP SWAP1 DIV PUSH1 0xFF AND ISZERO JUMPDEST ISZERO PUSH2 0x37D7 JUMPI PUSH2 0x37D2 DUP5 DUP5 DUP5 PUSH2 0x429E JUMP JUMPDEST PUSH2 0x3A0E JUMP JUMPDEST PUSH1 0x7 PUSH1 0x0 DUP6 PUSH20 0xFFFFFFFFFFFFFFFFFFFFFFFFFFFFFFFFFFFFFFFF AND PUSH20 0xFFFFFFFFFFFFFFFFFFFFFFFFFFFFFFFFFFFFFFFF AND DUP2 MSTORE PUSH1 0x20 ADD SWAP1 DUP2 MSTORE PUSH1 0x20 ADD PUSH1 0x0 KECCAK256 PUSH1 0x0 SWAP1 SLOAD SWAP1 PUSH2 0x100 EXP SWAP1 DIV PUSH1 0xFF AND ISZERO DUP1 ISZERO PUSH2 0x387A JUMPI POP PUSH1 0x7 PUSH1 0x0 DUP5 PUSH20 0xFFFFFFFFFFFFFFFFFFFFFFFFFFFFFFFFFFFFFFFF AND PUSH20 0xFFFFFFFFFFFFFFFFFFFFFFFFFFFFFFFFFFFFFFFF AND DUP2 MSTORE PUSH1 0x20 ADD SWAP1 DUP2 MSTORE PUSH1 0x20 ADD PUSH1 0x0 KECCAK256 PUSH1 0x0 SWAP1 SLOAD SWAP1 PUSH2 0x100 EXP SWAP1 DIV PUSH1 0xFF AND JUMPDEST ISZERO PUSH2 0x388F JUMPI PUSH2 0x388A DUP5 DUP5 DUP5 PUSH2 0x44FE JUMP JUMPDEST PUSH2 0x3A0D JUMP JUMPDEST PUSH1 0x7 PUSH1 0x0 DUP6 PUSH20 0xFFFFFFFFFFFFFFFFFFFFFFFFFFFFFFFFFFFFFFFF AND PUSH20 0xFFFFFFFFFFFFFFFFFFFFFFFFFFFFFFFFFFFFFFFF AND DUP2 MSTORE PUSH1 0x20 ADD SWAP1 DUP2 MSTORE PUSH1 0x20 ADD PUSH1 0x0 KECCAK256 PUSH1 0x0 SWAP1 SLOAD SWAP1 PUSH2 0x100 EXP SWAP1 DIV PUSH1 0xFF AND ISZERO DUP1 ISZERO PUSH2 0x3933 JUMPI POP PUSH1 0x7 PUSH1 0x0 DUP5 PUSH20 0xFFFFFFFFFFFFFFFFFFFFFFFFFFFFFFFFFFFFFFFF AND PUSH20 0xFFFFFFFFFFFFFFFFFFFFFFFFFFFFFFFFFFFFFFFF AND DUP2 MSTORE PUSH1 0x20 ADD SWAP1 DUP2 MSTORE PUSH1 0x20 ADD PUSH1 0x0 KECCAK256 PUSH1 0x0 SWAP1 SLOAD SWAP1 PUSH2 0x100 EXP SWAP1 DIV PUSH1 0xFF AND ISZERO JUMPDEST ISZERO PUSH2 0x3948 JUMPI PUSH2 0x3943 DUP5 DUP5 DUP5 PUSH2 0x475E JUMP JUMPDEST PUSH2 0x3A0C JUMP JUMPDEST PUSH1 0x7 PUSH1 0x0 DUP6 PUSH20 0xFFFFFFFFFFFFFFFFFFFFFFFFFFFFFFFFFFFFFFFF AND PUSH20 0xFFFFFFFFFFFFFFFFFFFFFFFFFFFFFFFFFFFFFFFF AND DUP2 MSTORE PUSH1 0x20 ADD SWAP1 DUP2 MSTORE PUSH1 0x20 ADD PUSH1 0x0 KECCAK256 PUSH1 0x0 SWAP1 SLOAD SWAP1 PUSH2 0x100 EXP SWAP1 DIV PUSH1 0xFF AND DUP1 ISZERO PUSH2 0x39EA JUMPI POP PUSH1 0x7 PUSH1 0x0 DUP5 PUSH20 0xFFFFFFFFFFFFFFFFFFFFFFFFFFFFFFFFFFFFFFFF AND PUSH20 0xFFFFFFFFFFFFFFFFFFFFFFFFFFFFFFFFFFFFFFFF AND DUP2 MSTORE PUSH1 0x20 ADD SWAP1 DUP2 MSTORE PUSH1 0x20 ADD PUSH1 0x0 KECCAK256 PUSH1 0x0 SWAP1 SLOAD SWAP1 PUSH2 0x100 EXP SWAP1 DIV PUSH1 0xFF AND JUMPDEST ISZERO PUSH2 0x39FF JUMPI PUSH2 0x39FA DUP5 DUP5 DUP5 PUSH2 0x4929 JUMP JUMPDEST PUSH2 0x3A0B JUMP JUMPDEST PUSH2 0x3A0A DUP5 DUP5 DUP5 PUSH2 0x475E JUMP JUMPDEST JUMPDEST JUMPDEST JUMPDEST JUMPDEST DUP1 PUSH2 0x3A1C JUMPI PUSH2 0x3A1B PUSH2 0x4C1E JUMP JUMPDEST JUMPDEST POP POP POP POP JUMP JUMPDEST PUSH1 0x0 DUP1 PUSH1 0x0 PUSH1 0xA SLOAD SWAP1 POP PUSH1 0x0 PUSH1 0x9 SLOAD SWAP1 POP PUSH1 0x0 JUMPDEST PUSH1 0x8 DUP1 SLOAD SWAP1 POP DUP2 LT ISZERO PUSH2 0x3C76 JUMPI DUP3 PUSH1 0x3 PUSH1 0x0 PUSH1 0x8 DUP5 DUP2 SLOAD DUP2 LT PUSH2 0x3A55 JUMPI INVALID JUMPDEST SWAP1 PUSH1 0x0 MSTORE PUSH1 0x20 PUSH1 0x0 KECCAK256 ADD PUSH1 0x0 SWAP1 SLOAD SWAP1 PUSH2 0x100 EXP SWAP1 DIV PUSH20 0xFFFFFFFFFFFFFFFFFFFFFFFFFFFFFFFFFFFFFFFF AND PUSH20 0xFFFFFFFFFFFFFFFFFFFFFFFFFFFFFFFFFFFFFFFF AND PUSH20 0xFFFFFFFFFFFFFFFFFFFFFFFFFFFFFFFFFFFFFFFF AND DUP2 MSTORE PUSH1 0x20 ADD SWAP1 DUP2 MSTORE PUSH1 0x20 ADD PUSH1 0x0 KECCAK256 SLOAD GT DUP1 PUSH2 0x3B3C JUMPI POP DUP2 PUSH1 0x4 PUSH1 0x0 PUSH1 0x8 DUP5 DUP2 SLOAD DUP2 LT PUSH2 0x3AD4 JUMPI INVALID JUMPDEST SWAP1 PUSH1 0x0 MSTORE PUSH1 0x20 PUSH1 0x0 KECCAK256 ADD PUSH1 0x0 SWAP1 SLOAD SWAP1 PUSH2 0x100 EXP SWAP1 DIV PUSH20 0xFFFFFFFFFFFFFFFFFFFFFFFFFFFFFFFFFFFFFFFF AND PUSH20 0xFFFFFFFFFFFFFFFFFFFFFFFFFFFFFFFFFFFFFFFF AND PUSH20 0xFFFFFFFFFFFFFFFFFFFFFFFFFFFFFFFFFFFFFFFF AND DUP2 MSTORE PUSH1 0x20 ADD SWAP1 DUP2 MSTORE PUSH1 0x20 ADD PUSH1 0x0 KECCAK256 SLOAD GT JUMPDEST ISZERO PUSH2 0x3B53 JUMPI PUSH1 0xA SLOAD PUSH1 0x9 SLOAD SWAP5 POP SWAP5 POP POP POP POP PUSH2 0x3CAF JUMP JUMPDEST PUSH2 0x3BDC PUSH1 0x3 PUSH1 0x0 PUSH1 0x8 DUP5 DUP2 SLOAD DUP2 LT PUSH2 0x3B67 JUMPI INVALID JUMPDEST SWAP1 PUSH1 0x0 MSTORE PUSH1 0x20 PUSH1 0x0 KECCAK256 ADD PUSH1 0x0 SWAP1 SLOAD SWAP1 PUSH2 0x100 EXP SWAP1 DIV PUSH20 0xFFFFFFFFFFFFFFFFFFFFFFFFFFFFFFFFFFFFFFFF AND PUSH20 0xFFFFFFFFFFFFFFFFFFFFFFFFFFFFFFFFFFFFFFFF AND PUSH20 0xFFFFFFFFFFFFFFFFFFFFFFFFFFFFFFFFFFFFFFFF AND DUP2 MSTORE PUSH1 0x20 ADD SWAP1 DUP2 MSTORE PUSH1 0x20 ADD PUSH1 0x0 KECCAK256 SLOAD DUP5 PUSH2 0x35E5 SWAP1 SWAP2 SWAP1 PUSH4 0xFFFFFFFF AND JUMP JUMPDEST SWAP3 POP PUSH2 0x3C67 PUSH1 0x4 PUSH1 0x0 PUSH1 0x8 DUP5 DUP2 SLOAD DUP2 LT PUSH2 0x3BF2 JUMPI INVALID JUMPDEST SWAP1 PUSH1 0x0 MSTORE PUSH1 0x20 PUSH1 0x0 KECCAK256 ADD PUSH1 0x0 SWAP1 SLOAD SWAP1 PUSH2 0x100 EXP SWAP1 DIV PUSH20 0xFFFFFFFFFFFFFFFFFFFFFFFFFFFFFFFFFFFFFFFF AND PUSH20 0xFFFFFFFFFFFFFFFFFFFFFFFFFFFFFFFFFFFFFFFF AND PUSH20 0xFFFFFFFFFFFFFFFFFFFFFFFFFFFFFFFFFFFFFFFF AND DUP2 MSTORE PUSH1 0x20 ADD SWAP1 DUP2 MSTORE PUSH1 0x20 ADD PUSH1 0x0 KECCAK256 SLOAD DUP4 PUSH2 0x35E5 SWAP1 SWAP2 SWAP1 PUSH4 0xFFFFFFFF AND JUMP JUMPDEST SWAP2 POP DUP1 DUP1 PUSH1 0x1 ADD SWAP2 POP POP PUSH2 0x3A36 JUMP JUMPDEST POP PUSH2 0x3C8E PUSH1 0x9 SLOAD PUSH1 0xA SLOAD PUSH2 0x34B7 SWAP1 SWAP2 SWAP1 PUSH4 0xFFFFFFFF AND JUMP JUMPDEST DUP3 LT ISZERO PUSH2 0x3CA6 JUMPI PUSH1 0xA SLOAD PUSH1 0x9 SLOAD SWAP4 POP SWAP4 POP POP POP PUSH2 0x3CAF JUMP JUMPDEST DUP2 DUP2 SWAP4 POP SWAP4 POP POP POP JUMPDEST SWAP1 SWAP2 JUMP JUMPDEST PUSH1 0x0 DUP1 DUP4 GT DUP3 SWAP1 PUSH2 0x3D5F JUMPI PUSH1 0x40 MLOAD PUSH32 0x8C379A000000000000000000000000000000000000000000000000000000000 DUP2 MSTORE PUSH1 0x4 ADD DUP1 DUP1 PUSH1 0x20 ADD DUP3 DUP2 SUB DUP3 MSTORE DUP4 DUP2 DUP2 MLOAD DUP2 MSTORE PUSH1 0x20 ADD SWAP2 POP DUP1 MLOAD SWAP1 PUSH1 0x20 ADD SWAP1 DUP1 DUP4 DUP4 PUSH1 0x0 JUMPDEST DUP4 DUP2 LT ISZERO PUSH2 0x3D24 JUMPI DUP1 DUP3 ADD MLOAD DUP2 DUP5 ADD MSTORE PUSH1 0x20 DUP2 ADD SWAP1 POP PUSH2 0x3D09 JUMP JUMPDEST POP POP POP POP SWAP1 POP SWAP1 DUP2 ADD SWAP1 PUSH1 0x1F AND DUP1 ISZERO PUSH2 0x3D51 JUMPI DUP1 DUP3 SUB DUP1 MLOAD PUSH1 0x1 DUP4 PUSH1 0x20 SUB PUSH2 0x100 EXP SUB NOT AND DUP2 MSTORE PUSH1 0x20 ADD SWAP2 POP JUMPDEST POP SWAP3 POP POP POP PUSH1 0x40 MLOAD DUP1 SWAP2 SUB SWAP1 REVERT JUMPDEST POP PUSH1 0x0 DUP4 DUP6 DUP2 PUSH2 0x3D6B JUMPI INVALID JUMPDEST DIV SWAP1 POP DUP1 SWAP2 POP POP SWAP4 SWAP3 POP POP POP JUMP JUMPDEST PUSH1 0x0 DUP1 PUSH1 0x0 DUP1 PUSH2 0x3D88 DUP6 PUSH2 0x4C32 JUMP JUMPDEST SWAP1 POP PUSH1 0x0 PUSH2 0x3D95 DUP7 PUSH2 0x4C63 JUMP JUMPDEST SWAP1 POP PUSH1 0x0 PUSH2 0x3DBE DUP3 PUSH2 0x3DB0 DUP6 DUP11 PUSH2 0x35E5 SWAP1 SWAP2 SWAP1 PUSH4 0xFFFFFFFF AND JUMP JUMPDEST PUSH2 0x35E5 SWAP1 SWAP2 SWAP1 PUSH4 0xFFFFFFFF AND JUMP JUMPDEST SWAP1 POP DUP1 DUP4 DUP4 SWAP6 POP SWAP6 POP SWAP6 POP POP POP POP SWAP2 SWAP4 SWAP1 SWAP3 POP JUMP JUMPDEST PUSH1 0x0 DUP1 PUSH1 0x0 DUP1 PUSH2 0x3DEC DUP6 DUP10 PUSH2 0x4C94 SWAP1 SWAP2 SWAP1 PUSH4 0xFFFFFFFF AND JUMP JUMPDEST SWAP1 POP PUSH1 0x0 PUSH2 0x3E03 DUP7 DUP10 PUSH2 0x4C94 SWAP1 SWAP2 SWAP1 PUSH4 0xFFFFFFFF AND JUMP JUMPDEST SWAP1 POP PUSH1 0x0 PUSH2 0x3E1A DUP8 DUP10 PUSH2 0x4C94 SWAP1 SWAP2 SWAP1 PUSH4 0xFFFFFFFF AND JUMP JUMPDEST SWAP1 POP PUSH1 0x0 PUSH2 0x3E43 DUP3 PUSH2 0x3E35 DUP6 DUP8 PUSH2 0x35E5 SWAP1 SWAP2 SWAP1 PUSH4 0xFFFFFFFF AND JUMP JUMPDEST PUSH2 0x35E5 SWAP1 SWAP2 SWAP1 PUSH4 0xFFFFFFFF AND JUMP JUMPDEST SWAP1 POP DUP4 DUP2 DUP5 SWAP7 POP SWAP7 POP SWAP7 POP POP POP POP POP SWAP5 POP SWAP5 POP SWAP5 SWAP2 POP POP JUMP JUMPDEST PUSH1 0x60 PUSH1 0x2 PUSH8 0xFFFFFFFFFFFFFFFF DUP2 GT DUP1 ISZERO PUSH2 0x3E76 JUMPI PUSH1 0x0 DUP1 REVERT JUMPDEST POP PUSH1 0x40 MLOAD SWAP1 DUP1 DUP3 MSTORE DUP1 PUSH1 0x20 MUL PUSH1 0x20 ADD DUP3 ADD PUSH1 0x40 MSTORE DUP1 ISZERO PUSH2 0x3EA5 JUMPI DUP2 PUSH1 0x20 ADD PUSH1 0x20 DUP3 MUL DUP1 CALLDATASIZE DUP4 CALLDATACOPY DUP1 DUP3 ADD SWAP2 POP POP SWAP1 POP JUMPDEST POP SWAP1 POP ADDRESS DUP2 PUSH1 0x0 DUP2 MLOAD DUP2 LT PUSH2 0x3EB6 JUMPI INVALID JUMPDEST PUSH1 0x20 MUL PUSH1 0x20 ADD ADD SWAP1 PUSH20 0xFFFFFFFFFFFFFFFFFFFFFFFFFFFFFFFFFFFFFFFF AND SWAP1 DUP2 PUSH20 0xFFFFFFFFFFFFFFFFFFFFFFFFFFFFFFFFFFFFFFFF AND DUP2 MSTORE POP POP PUSH32 0x0 PUSH20 0xFFFFFFFFFFFFFFFFFFFFFFFFFFFFFFFFFFFFFFFF AND PUSH4 0xAD5C4648 PUSH1 0x40 MLOAD DUP2 PUSH4 0xFFFFFFFF AND PUSH1 0xE0 SHL DUP2 MSTORE PUSH1 0x4 ADD PUSH1 0x20 PUSH1 0x40 MLOAD DUP1 DUP4 SUB DUP2 DUP7 DUP1 EXTCODESIZE ISZERO DUP1 ISZERO PUSH2 0x3F56 JUMPI PUSH1 0x0 DUP1 REVERT JUMPDEST POP GAS STATICCALL ISZERO DUP1 ISZERO PUSH2 0x3F6A JUMPI RETURNDATASIZE PUSH1 0x0 DUP1 RETURNDATACOPY RETURNDATASIZE PUSH1 0x0 REVERT JUMPDEST POP POP POP POP PUSH1 0x40 MLOAD RETURNDATASIZE PUSH1 0x20 DUP2 LT ISZERO PUSH2 0x3F80 JUMPI PUSH1 0x0 DUP1 REVERT JUMPDEST DUP2 ADD SWAP1 DUP1 DUP1 MLOAD SWAP1 PUSH1 0x20 ADD SWAP1 SWAP3 SWAP2 SWAP1 POP POP POP DUP2 PUSH1 0x1 DUP2 MLOAD DUP2 LT PUSH2 0x3F9E JUMPI INVALID JUMPDEST PUSH1 0x20 MUL PUSH1 0x20 ADD ADD SWAP1 PUSH20 0xFFFFFFFFFFFFFFFFFFFFFFFFFFFFFFFFFFFFFFFF AND SWAP1 DUP2 PUSH20 0xFFFFFFFFFFFFFFFFFFFFFFFFFFFFFFFFFFFFFFFF AND DUP2 MSTORE POP POP PUSH2 0x4003 ADDRESS PUSH32 0x0 DUP5 PUSH2 0x2E10 JUMP JUMPDEST PUSH32 0x0 PUSH20 0xFFFFFFFFFFFFFFFFFFFFFFFFFFFFFFFFFFFFFFFF AND PUSH4 0x791AC947 DUP4 PUSH1 0x0 DUP5 ADDRESS TIMESTAMP PUSH1 0x40 MLOAD DUP7 PUSH4 0xFFFFFFFF AND PUSH1 0xE0 SHL DUP2 MSTORE PUSH1 0x4 ADD DUP1 DUP7 DUP2 MSTORE PUSH1 0x20 ADD DUP6 DUP2 MSTORE PUSH1 0x20 ADD DUP1 PUSH1 0x20 ADD DUP5 PUSH20 0xFFFFFFFFFFFFFFFFFFFFFFFFFFFFFFFFFFFFFFFF AND DUP2 MSTORE PUSH1 0x20 ADD DUP4 DUP2 MSTORE PUSH1 0x20 ADD DUP3 DUP2 SUB DUP3 MSTORE DUP6 DUP2 DUP2 MLOAD DUP2 MSTORE PUSH1 0x20 ADD SWAP2 POP DUP1 MLOAD SWAP1 PUSH1 0x20 ADD SWAP1 PUSH1 0x20 MUL DUP1 DUP4 DUP4 PUSH1 0x0 JUMPDEST DUP4 DUP2 LT ISZERO PUSH2 0x40C5 JUMPI DUP1 DUP3 ADD MLOAD DUP2 DUP5 ADD MSTORE PUSH1 0x20 DUP2 ADD SWAP1 POP PUSH2 0x40AA JUMP JUMPDEST POP POP POP POP SWAP1 POP ADD SWAP7 POP POP POP POP POP POP POP PUSH1 0x0 PUSH1 0x40 MLOAD DUP1 DUP4 SUB DUP2 PUSH1 0x0 DUP8 DUP1 EXTCODESIZE ISZERO DUP1 ISZERO PUSH2 0x40EE JUMPI PUSH1 0x0 DUP1 REVERT JUMPDEST POP GAS CALL ISZERO DUP1 ISZERO PUSH2 0x4102 JUMPI RETURNDATASIZE PUSH1 0x0 DUP1 RETURNDATACOPY RETURNDATASIZE PUSH1 0x0 REVERT JUMPDEST POP POP POP POP POP POP JUMP JUMPDEST PUSH2 0x4135 ADDRESS PUSH32 0x0 DUP5 PUSH2 0x2E10 JUMP JUMPDEST PUSH32 0x0 PUSH20 0xFFFFFFFFFFFFFFFFFFFFFFFFFFFFFFFFFFFFFFFF AND PUSH4 0xF305D719 DUP3 ADDRESS DUP6 PUSH1 0x0 DUP1 PUSH2 0x417F PUSH2 0x20B9 JUMP JUMPDEST TIMESTAMP PUSH1 0x40 MLOAD DUP9 PUSH4 0xFFFFFFFF AND PUSH1 0xE0 SHL DUP2 MSTORE PUSH1 0x4 ADD DUP1 DUP8 PUSH20 0xFFFFFFFFFFFFFFFFFFFFFFFFFFFFFFFFFFFFFFFF AND DUP2 MSTORE PUSH1 0x20 ADD DUP7 DUP2 MSTORE PUSH1 0x20 ADD DUP6 DUP2 MSTORE PUSH1 0x20 ADD DUP5 DUP2 MSTORE PUSH1 0x20 ADD DUP4 PUSH20 0xFFFFFFFFFFFFFFFFFFFFFFFFFFFFFFFFFFFFFFFF AND DUP2 MSTORE PUSH1 0x20 ADD DUP3 DUP2 MSTORE PUSH1 0x20 ADD SWAP7 POP POP POP POP POP POP POP PUSH1 0x60 PUSH1 0x40 MLOAD DUP1 DUP4 SUB DUP2 DUP6 DUP9 DUP1 EXTCODESIZE ISZERO DUP1 ISZERO PUSH2 0x4204 JUMPI PUSH1 0x0 DUP1 REVERT JUMPDEST POP GAS CALL ISZERO DUP1 ISZERO PUSH2 0x4218 JUMPI RETURNDATASIZE PUSH1 0x0 DUP1 RETURNDATACOPY RETURNDATASIZE PUSH1 0x0 REVERT JUMPDEST POP POP POP POP POP PUSH1 0x40 MLOAD RETURNDATASIZE PUSH1 0x60 DUP2 LT ISZERO PUSH2 0x422F JUMPI PUSH1 0x0 DUP1 REVERT JUMPDEST DUP2 ADD SWAP1 DUP1 DUP1 MLOAD SWAP1 PUSH1 0x20 ADD SWAP1 SWAP3 SWAP2 SWAP1 DUP1 MLOAD SWAP1 PUSH1 0x20 ADD SWAP1 SWAP3 SWAP2 SWAP1 DUP1 MLOAD SWAP1 PUSH1 0x20 ADD SWAP1 SWAP3 SWAP2 SWAP1 POP POP POP POP POP POP POP POP JUMP JUMPDEST PUSH1 0x0 PUSH1 0xF SLOAD EQ DUP1 ISZERO PUSH2 0x426F JUMPI POP PUSH1 0x0 PUSH1 0x11 SLOAD EQ JUMPDEST ISZERO PUSH2 0x4279 JUMPI PUSH2 0x429C JUMP JUMPDEST PUSH1 0xF SLOAD PUSH1 0x10 DUP2 SWAP1 SSTORE POP PUSH1 0x11 SLOAD PUSH1 0x12 DUP2 SWAP1 SSTORE POP PUSH1 0x0 PUSH1 0xF DUP2 SWAP1 SSTORE POP PUSH1 0x0 PUSH1 0x11 DUP2 SWAP1 SSTORE POP JUMPDEST JUMP JUMPDEST PUSH1 0x0 DUP1 PUSH1 0x0 DUP1 PUSH1 0x0 DUP1 PUSH2 0x42B0 DUP8 PUSH2 0x3589 JUMP JUMPDEST SWAP6 POP SWAP6 POP SWAP6 POP SWAP6 POP SWAP6 POP SWAP6 POP PUSH2 0x430E DUP8 PUSH1 0x4 PUSH1 0x0 DUP13 PUSH20 0xFFFFFFFFFFFFFFFFFFFFFFFFFFFFFFFFFFFFFFFF AND PUSH20 0xFFFFFFFFFFFFFFFFFFFFFFFFFFFFFFFFFFFFFFFF AND DUP2 MSTORE PUSH1 0x20 ADD SWAP1 DUP2 MSTORE PUSH1 0x20 ADD PUSH1 0x0 KECCAK256 SLOAD PUSH2 0x35E5 SWAP1 SWAP2 SWAP1 PUSH4 0xFFFFFFFF AND JUMP JUMPDEST PUSH1 0x4 PUSH1 0x0 DUP12 PUSH20 0xFFFFFFFFFFFFFFFFFFFFFFFFFFFFFFFFFFFFFFFF AND PUSH20 0xFFFFFFFFFFFFFFFFFFFFFFFFFFFFFFFFFFFFFFFF AND DUP2 MSTORE PUSH1 0x20 ADD SWAP1 DUP2 MSTORE PUSH1 0x20 ADD PUSH1 0x0 KECCAK256 DUP2 SWAP1 SSTORE POP PUSH2 0x43A3 DUP7 PUSH1 0x3 PUSH1 0x0 DUP13 PUSH20 0xFFFFFFFFFFFFFFFFFFFFFFFFFFFFFFFFFFFFFFFF AND PUSH20 0xFFFFFFFFFFFFFFFFFFFFFFFFFFFFFFFFFFFFFFFF AND DUP2 MSTORE PUSH1 0x20 ADD SWAP1 DUP2 MSTORE PUSH1 0x20 ADD PUSH1 0x0 KECCAK256 SLOAD PUSH2 0x35E5 SWAP1 SWAP2 SWAP1 PUSH4 0xFFFFFFFF AND JUMP JUMPDEST PUSH1 0x3 PUSH1 0x0 DUP12 PUSH20 0xFFFFFFFFFFFFFFFFFFFFFFFFFFFFFFFFFFFFFFFF AND PUSH20 0xFFFFFFFFFFFFFFFFFFFFFFFFFFFFFFFFFFFFFFFF AND DUP2 MSTORE PUSH1 0x20 ADD SWAP1 DUP2 MSTORE PUSH1 0x20 ADD PUSH1 0x0 KECCAK256 DUP2 SWAP1 SSTORE POP PUSH2 0x4438 DUP6 PUSH1 0x3 PUSH1 0x0 DUP12 PUSH20 0xFFFFFFFFFFFFFFFFFFFFFFFFFFFFFFFFFFFFFFFF AND PUSH20 0xFFFFFFFFFFFFFFFFFFFFFFFFFFFFFFFFFFFFFFFF AND DUP2 MSTORE PUSH1 0x20 ADD SWAP1 DUP2 MSTORE PUSH1 0x20 ADD PUSH1 0x0 KECCAK256 SLOAD PUSH2 0x3501 SWAP1 SWAP2 SWAP1 PUSH4 0xFFFFFFFF AND JUMP JUMPDEST PUSH1 0x3 PUSH1 0x0 DUP11 PUSH20 0xFFFFFFFFFFFFFFFFFFFFFFFFFFFFFFFFFFFFFFFF AND PUSH20 0xFFFFFFFFFFFFFFFFFFFFFFFFFFFFFFFFFFFFFFFF AND DUP2 MSTORE PUSH1 0x20 ADD SWAP1 DUP2 MSTORE PUSH1 0x20 ADD PUSH1 0x0 KECCAK256 DUP2 SWAP1 SSTORE POP PUSH2 0x4484 DUP2 PUSH2 0x4D1A JUMP JUMPDEST PUSH2 0x448E DUP5 DUP4 PUSH2 0x4EBF JUMP JUMPDEST DUP8 PUSH20 0xFFFFFFFFFFFFFFFFFFFFFFFFFFFFFFFFFFFFFFFF AND DUP10 PUSH20 0xFFFFFFFFFFFFFFFFFFFFFFFFFFFFFFFFFFFFFFFF AND PUSH32 0xDDF252AD1BE2C89B69C2B068FC378DAA952BA7F163C4A11628F55A4DF523B3EF DUP6 PUSH1 0x40 MLOAD DUP1 DUP3 DUP2 MSTORE PUSH1 0x20 ADD SWAP2 POP POP PUSH1 0x40 MLOAD DUP1 SWAP2 SUB SWAP1 LOG3 POP POP POP POP POP POP POP POP POP JUMP JUMPDEST PUSH1 0x0 DUP1 PUSH1 0x0 DUP1 PUSH1 0x0 DUP1 PUSH2 0x4510 DUP8 PUSH2 0x3589 JUMP JUMPDEST SWAP6 POP SWAP6 POP SWAP6 POP SWAP6 POP SWAP6 POP SWAP6 POP PUSH2 0x456E DUP7 PUSH1 0x3 PUSH1 0x0 DUP13 PUSH20 0xFFFFFFFFFFFFFFFFFFFFFFFFFFFFFFFFFFFFFFFF AND PUSH20 0xFFFFFFFFFFFFFFFFFFFFFFFFFFFFFFFFFFFFFFFF AND DUP2 MSTORE PUSH1 0x20 ADD SWAP1 DUP2 MSTORE PUSH1 0x20 ADD PUSH1 0x0 KECCAK256 SLOAD PUSH2 0x35E5 SWAP1 SWAP2 SWAP1 PUSH4 0xFFFFFFFF AND JUMP JUMPDEST PUSH1 0x3 PUSH1 0x0 DUP12 PUSH20 0xFFFFFFFFFFFFFFFFFFFFFFFFFFFFFFFFFFFFFFFF AND PUSH20 0xFFFFFFFFFFFFFFFFFFFFFFFFFFFFFFFFFFFFFFFF AND DUP2 MSTORE PUSH1 0x20 ADD SWAP1 DUP2 MSTORE PUSH1 0x20 ADD PUSH1 0x0 KECCAK256 DUP2 SWAP1 SSTORE POP PUSH2 0x4603 DUP4 PUSH1 0x4 PUSH1 0x0 DUP12 PUSH20 0xFFFFFFFFFFFFFFFFFFFFFFFFFFFFFFFFFFFFFFFF AND PUSH20 0xFFFFFFFFFFFFFFFFFFFFFFFFFFFFFFFFFFFFFFFF AND DUP2 MSTORE PUSH1 0x20 ADD SWAP1 DUP2 MSTORE PUSH1 0x20 ADD PUSH1 0x0 KECCAK256 SLOAD PUSH2 0x3501 SWAP1 SWAP2 SWAP1 PUSH4 0xFFFFFFFF AND JUMP JUMPDEST PUSH1 0x4 PUSH1 0x0 DUP11 PUSH20 0xFFFFFFFFFFFFFFFFFFFFFFFFFFFFFFFFFFFFFFFF AND PUSH20 0xFFFFFFFFFFFFFFFFFFFFFFFFFFFFFFFFFFFFFFFF AND DUP2 MSTORE PUSH1 0x20 ADD SWAP1 DUP2 MSTORE PUSH1 0x20 ADD PUSH1 0x0 KECCAK256 DUP2 SWAP1 SSTORE POP PUSH2 0x4698 DUP6 PUSH1 0x3 PUSH1 0x0 DUP12 PUSH20 0xFFFFFFFFFFFFFFFFFFFFFFFFFFFFFFFFFFFFFFFF AND PUSH20 0xFFFFFFFFFFFFFFFFFFFFFFFFFFFFFFFFFFFFFFFF AND DUP2 MSTORE PUSH1 0x20 ADD SWAP1 DUP2 MSTORE PUSH1 0x20 ADD PUSH1 0x0 KECCAK256 SLOAD PUSH2 0x3501 SWAP1 SWAP2 SWAP1 PUSH4 0xFFFFFFFF AND JUMP JUMPDEST PUSH1 0x3 PUSH1 0x0 DUP11 PUSH20 0xFFFFFFFFFFFFFFFFFFFFFFFFFFFFFFFFFFFFFFFF AND PUSH20 0xFFFFFFFFFFFFFFFFFFFFFFFFFFFFFFFFFFFFFFFF AND DUP2 MSTORE PUSH1 0x20 ADD SWAP1 DUP2 MSTORE PUSH1 0x20 ADD PUSH1 0x0 KECCAK256 DUP2 SWAP1 SSTORE POP PUSH2 0x46E4 DUP2 PUSH2 0x4D1A JUMP JUMPDEST PUSH2 0x46EE DUP5 DUP4 PUSH2 0x4EBF JUMP JUMPDEST DUP8 PUSH20 0xFFFFFFFFFFFFFFFFFFFFFFFFFFFFFFFFFFFFFFFF AND DUP10 PUSH20 0xFFFFFFFFFFFFFFFFFFFFFFFFFFFFFFFFFFFFFFFF AND PUSH32 0xDDF252AD1BE2C89B69C2B068FC378DAA952BA7F163C4A11628F55A4DF523B3EF DUP6 PUSH1 0x40 MLOAD DUP1 DUP3 DUP2 MSTORE PUSH1 0x20 ADD SWAP2 POP POP PUSH1 0x40 MLOAD DUP1 SWAP2 SUB SWAP1 LOG3 POP POP POP POP POP POP POP POP POP JUMP JUMPDEST PUSH1 0x0 DUP1 PUSH1 0x0 DUP1 PUSH1 0x0 DUP1 PUSH2 0x4770 DUP8 PUSH2 0x3589 JUMP JUMPDEST SWAP6 POP SWAP6 POP SWAP6 POP SWAP6 POP SWAP6 POP SWAP6 POP PUSH2 0x47CE DUP7 PUSH1 0x3 PUSH1 0x0 DUP13 PUSH20 0xFFFFFFFFFFFFFFFFFFFFFFFFFFFFFFFFFFFFFFFF AND PUSH20 0xFFFFFFFFFFFFFFFFFFFFFFFFFFFFFFFFFFFFFFFF AND DUP2 MSTORE PUSH1 0x20 ADD SWAP1 DUP2 MSTORE PUSH1 0x20 ADD PUSH1 0x0 KECCAK256 SLOAD PUSH2 0x35E5 SWAP1 SWAP2 SWAP1 PUSH4 0xFFFFFFFF AND JUMP JUMPDEST PUSH1 0x3 PUSH1 0x0 DUP12 PUSH20 0xFFFFFFFFFFFFFFFFFFFFFFFFFFFFFFFFFFFFFFFF AND PUSH20 0xFFFFFFFFFFFFFFFFFFFFFFFFFFFFFFFFFFFFFFFF AND DUP2 MSTORE PUSH1 0x20 ADD SWAP1 DUP2 MSTORE PUSH1 0x20 ADD PUSH1 0x0 KECCAK256 DUP2 SWAP1 SSTORE POP PUSH2 0x4863 DUP6 PUSH1 0x3 PUSH1 0x0 DUP12 PUSH20 0xFFFFFFFFFFFFFFFFFFFFFFFFFFFFFFFFFFFFFFFF AND PUSH20 0xFFFFFFFFFFFFFFFFFFFFFFFFFFFFFFFFFFFFFFFF AND DUP2 MSTORE PUSH1 0x20 ADD SWAP1 DUP2 MSTORE PUSH1 0x20 ADD PUSH1 0x0 KECCAK256 SLOAD PUSH2 0x3501 SWAP1 SWAP2 SWAP1 PUSH4 0xFFFFFFFF AND JUMP JUMPDEST PUSH1 0x3 PUSH1 0x0 DUP11 PUSH20 0xFFFFFFFFFFFFFFFFFFFFFFFFFFFFFFFFFFFFFFFF AND PUSH20 0xFFFFFFFFFFFFFFFFFFFFFFFFFFFFFFFFFFFFFFFF AND DUP2 MSTORE PUSH1 0x20 ADD SWAP1 DUP2 MSTORE PUSH1 0x20 ADD PUSH1 0x0 KECCAK256 DUP2 SWAP1 SSTORE POP PUSH2 0x48AF DUP2 PUSH2 0x4D1A JUMP JUMPDEST PUSH2 0x48B9 DUP5 DUP4 PUSH2 0x4EBF JUMP JUMPDEST DUP8 PUSH20 0xFFFFFFFFFFFFFFFFFFFFFFFFFFFFFFFFFFFFFFFF AND DUP10 PUSH20 0xFFFFFFFFFFFFFFFFFFFFFFFFFFFFFFFFFFFFFFFF AND PUSH32 0xDDF252AD1BE2C89B69C2B068FC378DAA952BA7F163C4A11628F55A4DF523B3EF DUP6 PUSH1 0x40 MLOAD DUP1 DUP3 DUP2 MSTORE PUSH1 0x20 ADD SWAP2 POP POP PUSH1 0x40 MLOAD DUP1 SWAP2 SUB SWAP1 LOG3 POP POP POP POP POP POP POP POP POP JUMP JUMPDEST PUSH1 0x0 DUP1 PUSH1 0x0 DUP1 PUSH1 0x0 DUP1 PUSH2 0x493B DUP8 PUSH2 0x3589 JUMP JUMPDEST SWAP6 POP SWAP6 POP SWAP6 POP SWAP6 POP SWAP6 POP SWAP6 POP PUSH2 0x4999 DUP8 PUSH1 0x4 PUSH1 0x0 DUP13 PUSH20 0xFFFFFFFFFFFFFFFFFFFFFFFFFFFFFFFFFFFFFFFF AND PUSH20 0xFFFFFFFFFFFFFFFFFFFFFFFFFFFFFFFFFFFFFFFF AND DUP2 MSTORE PUSH1 0x20 ADD SWAP1 DUP2 MSTORE PUSH1 0x20 ADD PUSH1 0x0 KECCAK256 SLOAD PUSH2 0x35E5 SWAP1 SWAP2 SWAP1 PUSH4 0xFFFFFFFF AND JUMP JUMPDEST PUSH1 0x4 PUSH1 0x0 DUP12 PUSH20 0xFFFFFFFFFFFFFFFFFFFFFFFFFFFFFFFFFFFFFFFF AND PUSH20 0xFFFFFFFFFFFFFFFFFFFFFFFFFFFFFFFFFFFFFFFF AND DUP2 MSTORE PUSH1 0x20 ADD SWAP1 DUP2 MSTORE PUSH1 0x20 ADD PUSH1 0x0 KECCAK256 DUP2 SWAP1 SSTORE POP PUSH2 0x4A2E DUP7 PUSH1 0x3 PUSH1 0x0 DUP13 PUSH20 0xFFFFFFFFFFFFFFFFFFFFFFFFFFFFFFFFFFFFFFFF AND PUSH20 0xFFFFFFFFFFFFFFFFFFFFFFFFFFFFFFFFFFFFFFFF AND DUP2 MSTORE PUSH1 0x20 ADD SWAP1 DUP2 MSTORE PUSH1 0x20 ADD PUSH1 0x0 KECCAK256 SLOAD PUSH2 0x35E5 SWAP1 SWAP2 SWAP1 PUSH4 0xFFFFFFFF AND JUMP JUMPDEST PUSH1 0x3 PUSH1 0x0 DUP12 PUSH20 0xFFFFFFFFFFFFFFFFFFFFFFFFFFFFFFFFFFFFFFFF AND PUSH20 0xFFFFFFFFFFFFFFFFFFFFFFFFFFFFFFFFFFFFFFFF AND DUP2 MSTORE PUSH1 0x20 ADD SWAP1 DUP2 MSTORE PUSH1 0x20 ADD PUSH1 0x0 KECCAK256 DUP2 SWAP1 SSTORE POP PUSH2 0x4AC3 DUP4 PUSH1 0x4 PUSH1 0x0 DUP12 PUSH20 0xFFFFFFFFFFFFFFFFFFFFFFFFFFFFFFFFFFFFFFFF AND PUSH20 0xFFFFFFFFFFFFFFFFFFFFFFFFFFFFFFFFFFFFFFFF AND DUP2 MSTORE PUSH1 0x20 ADD SWAP1 DUP2 MSTORE PUSH1 0x20 ADD PUSH1 0x0 KECCAK256 SLOAD PUSH2 0x3501 SWAP1 SWAP2 SWAP1 PUSH4 0xFFFFFFFF AND JUMP JUMPDEST PUSH1 0x4 PUSH1 0x0 DUP11 PUSH20 0xFFFFFFFFFFFFFFFFFFFFFFFFFFFFFFFFFFFFFFFF AND PUSH20 0xFFFFFFFFFFFFFFFFFFFFFFFFFFFFFFFFFFFFFFFF AND DUP2 MSTORE PUSH1 0x20 ADD SWAP1 DUP2 MSTORE PUSH1 0x20 ADD PUSH1 0x0 KECCAK256 DUP2 SWAP1 SSTORE POP PUSH2 0x4B58 DUP6 PUSH1 0x3 PUSH1 0x0 DUP12 PUSH20 0xFFFFFFFFFFFFFFFFFFFFFFFFFFFFFFFFFFFFFFFF AND PUSH20 0xFFFFFFFFFFFFFFFFFFFFFFFFFFFFFFFFFFFFFFFF AND DUP2 MSTORE PUSH1 0x20 ADD SWAP1 DUP2 MSTORE PUSH1 0x20 ADD PUSH1 0x0 KECCAK256 SLOAD PUSH2 0x3501 SWAP1 SWAP2 SWAP1 PUSH4 0xFFFFFFFF AND JUMP JUMPDEST PUSH1 0x3 PUSH1 0x0 DUP11 PUSH20 0xFFFFFFFFFFFFFFFFFFFFFFFFFFFFFFFFFFFFFFFF AND PUSH20 0xFFFFFFFFFFFFFFFFFFFFFFFFFFFFFFFFFFFFFFFF AND DUP2 MSTORE PUSH1 0x20 ADD SWAP1 DUP2 MSTORE PUSH1 0x20 ADD PUSH1 0x0 KECCAK256 DUP2 SWAP1 SSTORE POP PUSH2 0x4BA4 DUP2 PUSH2 0x4D1A JUMP JUMPDEST PUSH2 0x4BAE DUP5 DUP4 PUSH2 0x4EBF JUMP JUMPDEST DUP8 PUSH20 0xFFFFFFFFFFFFFFFFFFFFFFFFFFFFFFFFFFFFFFFF AND DUP10 PUSH20 0xFFFFFFFFFFFFFFFFFFFFFFFFFFFFFFFFFFFFFFFF AND PUSH32 0xDDF252AD1BE2C89B69C2B068FC378DAA952BA7F163C4A11628F55A4DF523B3EF DUP6 PUSH1 0x40 MLOAD DUP1 DUP3 DUP2 MSTORE PUSH1 0x20 ADD SWAP2 POP POP PUSH1 0x40 MLOAD DUP1 SWAP2 SUB SWAP1 LOG3 POP POP POP POP POP POP POP POP POP JUMP JUMPDEST PUSH1 0x10 SLOAD PUSH1 0xF DUP2 SWAP1 SSTORE POP PUSH1 0x12 SLOAD PUSH1 0x11 DUP2 SWAP1 SSTORE POP JUMP JUMPDEST PUSH1 0x0 PUSH2 0x4C5C PUSH1 0x64 PUSH2 0x4C4E PUSH1 0xF SLOAD DUP6 PUSH2 0x4C94 SWAP1 SWAP2 SWAP1 PUSH4 0xFFFFFFFF AND JUMP JUMPDEST PUSH2 0x34B7 SWAP1 SWAP2 SWAP1 PUSH4 0xFFFFFFFF AND JUMP JUMPDEST SWAP1 POP SWAP2 SWAP1 POP JUMP JUMPDEST PUSH1 0x0 PUSH2 0x4C8D PUSH1 0x64 PUSH2 0x4C7F PUSH1 0x11 SLOAD DUP6 PUSH2 0x4C94 SWAP1 SWAP2 SWAP1 PUSH4 0xFFFFFFFF AND JUMP JUMPDEST PUSH2 0x34B7 SWAP1 SWAP2 SWAP1 PUSH4 0xFFFFFFFF AND JUMP JUMPDEST SWAP1 POP SWAP2 SWAP1 POP JUMP JUMPDEST PUSH1 0x0 DUP1 DUP4 EQ ISZERO PUSH2 0x4CA7 JUMPI PUSH1 0x0 SWAP1 POP PUSH2 0x4D14 JUMP JUMPDEST PUSH1 0x0 DUP3 DUP5 MUL SWAP1 POP DUP3 DUP5 DUP3 DUP2 PUSH2 0x4CB8 JUMPI INVALID JUMPDEST DIV EQ PUSH2 0x4D0F JUMPI PUSH1 0x40 MLOAD PUSH32 0x8C379A000000000000000000000000000000000000000000000000000000000 DUP2 MSTORE PUSH1 0x4 ADD DUP1 DUP1 PUSH1 0x20 ADD DUP3 DUP2 SUB DUP3 MSTORE PUSH1 0x21 DUP2 MSTORE PUSH1 0x20 ADD DUP1 PUSH2 0x4FB7 PUSH1 0x21 SWAP2 CODECOPY PUSH1 0x40 ADD SWAP2 POP POP PUSH1 0x40 MLOAD DUP1 SWAP2 SUB SWAP1 REVERT JUMPDEST DUP1 SWAP2 POP POP JUMPDEST SWAP3 SWAP2 POP POP JUMP JUMPDEST PUSH1 0x0 PUSH2 0x4D24 PUSH2 0x348C JUMP JUMPDEST SWAP1 POP PUSH1 0x0 PUSH2 0x4D3B DUP3 DUP5 PUSH2 0x4C94 SWAP1 SWAP2 SWAP1 PUSH4 0xFFFFFFFF AND JUMP JUMPDEST SWAP1 POP PUSH2 0x4D8F DUP2 PUSH1 0x3 PUSH1 0x0 ADDRESS PUSH20 0xFFFFFFFFFFFFFFFFFFFFFFFFFFFFFFFFFFFFFFFF AND PUSH20 0xFFFFFFFFFFFFFFFFFFFFFFFFFFFFFFFFFFFFFFFF AND DUP2 MSTORE PUSH1 0x20 ADD SWAP1 DUP2 MSTORE PUSH1 0x20 ADD PUSH1 0x0 KECCAK256 SLOAD PUSH2 0x3501 SWAP1 SWAP2 SWAP1 PUSH4 0xFFFFFFFF AND JUMP JUMPDEST PUSH1 0x3 PUSH1 0x0 ADDRESS PUSH20 0xFFFFFFFFFFFFFFFFFFFFFFFFFFFFFFFFFFFFFFFF AND PUSH20 0xFFFFFFFFFFFFFFFFFFFFFFFFFFFFFFFFFFFFFFFF AND DUP2 MSTORE PUSH1 0x20 ADD SWAP1 DUP2 MSTORE PUSH1 0x20 ADD PUSH1 0x0 KECCAK256 DUP2 SWAP1 SSTORE POP PUSH1 0x7 PUSH1 0x0 ADDRESS PUSH20 0xFFFFFFFFFFFFFFFFFFFFFFFFFFFFFFFFFFFFFFFF AND PUSH20 0xFFFFFFFFFFFFFFFFFFFFFFFFFFFFFFFFFFFFFFFF AND DUP2 MSTORE PUSH1 0x20 ADD SWAP1 DUP2 MSTORE PUSH1 0x20 ADD PUSH1 0x0 KECCAK256 PUSH1 0x0 SWAP1 SLOAD SWAP1 PUSH2 0x100 EXP SWAP1 DIV PUSH1 0xFF AND ISZERO PUSH2 0x4EBA JUMPI PUSH2 0x4E76 DUP4 PUSH1 0x4 PUSH1 0x0 ADDRESS PUSH20 0xFFFFFFFFFFFFFFFFFFFFFFFFFFFFFFFFFFFFFFFF AND PUSH20 0xFFFFFFFFFFFFFFFFFFFFFFFFFFFFFFFFFFFFFFFF AND DUP2 MSTORE PUSH1 0x20 ADD SWAP1 DUP2 MSTORE PUSH1 0x20 ADD PUSH1 0x0 KECCAK256 SLOAD PUSH2 0x3501 SWAP1 SWAP2 SWAP1 PUSH4 0xFFFFFFFF AND JUMP JUMPDEST PUSH1 0x4 PUSH1 0x0 ADDRESS PUSH20 0xFFFFFFFFFFFFFFFFFFFFFFFFFFFFFFFFFFFFFFFF AND PUSH20 0xFFFFFFFFFFFFFFFFFFFFFFFFFFFFFFFFFFFFFFFF AND DUP2 MSTORE PUSH1 0x20 ADD SWAP1 DUP2 MSTORE PUSH1 0x20 ADD PUSH1 0x0 KECCAK256 DUP2 SWAP1 SSTORE POP JUMPDEST POP POP POP JUMP JUMPDEST PUSH2 0x4ED4 DUP3 PUSH1 0xA SLOAD PUSH2 0x35E5 SWAP1 SWAP2 SWAP1 PUSH4 0xFFFFFFFF AND JUMP JUMPDEST PUSH1 0xA DUP2 SWAP1 SSTORE POP PUSH2 0x4EEF DUP2 PUSH1 0xB SLOAD PUSH2 0x3501 SWAP1 SWAP2 SWAP1 PUSH4 0xFFFFFFFF AND JUMP JUMPDEST PUSH1 0xB DUP2 SWAP1 SSTORE POP POP POP JUMP INVALID GASLIMIT MSTORE NUMBER ORIGIN ADDRESS GASPRICE KECCAK256 PUSH21 0x72616E7366657220746F20746865207A65726F2061 PUSH5 0x6472657373 COINBASE PUSH14 0x6F756E74206D757374206265206C PUSH6 0x737320746861 PUSH15 0x20746F74616C207265666C65637469 PUSH16 0x6E734F776E61626C653A206E6577206F PUSH24 0x6E657220697320746865207A65726F206164647265737345 MSTORE NUMBER ORIGIN ADDRESS GASPRICE KECCAK256 PUSH2 0x7070 PUSH19 0x6F766520746F20746865207A65726F20616464 PUSH19 0x6573735472616E7366657220616D6F756E7420 PUSH6 0x786365656473 KECCAK256 PUSH21 0x6865206D61785478416D6F756E742E536166654D61 PUSH21 0x683A206D756C7469706C69636174696F6E206F7665 PUSH19 0x666C6F7745524332303A207472616E73666572 KECCAK256 PUSH2 0x6D6F PUSH22 0x6E74206578636565647320616C6C6F77616E63655472 PUSH2 0x6E73 PUSH7 0x657220616D6F75 PUSH15 0x74206D757374206265206772656174 PUSH6 0x72207468616E KECCAK256 PUSH27 0x65726F45524332303A207472616E736665722066726F6D20746865 KECCAK256 PUSH27 0x65726F206164647265737345524332303A20617070726F76652066 PUSH19 0x6F6D20746865207A65726F2061646472657373 GASLIMIT PUSH25 0x636C75646564206164647265737365732063616E6E6F742063 PUSH2 0x6C6C KECCAK256 PUSH21 0x6869732066756E6374696F6E596F7520646F6E2774 KECCAK256 PUSH9 0x617665207065726D69 PUSH20 0x73696F6E20746F20756E6C6F636B45524332303A KECCAK256 PUSH5 0x6563726561 PUSH20 0x656420616C6C6F77616E63652062656C6F77207A PUSH6 0x726FA2646970 PUSH7 0x7358221220BD89 0x4F 0x2D DUP11 ORIGIN LT DUP15 SDIV DUP8 0x27 0xBF SWAP2 0xE7 0x29 MUL LOG0 0xD SWAP13 0x27 GAS SELFBALANCE EXTCODECOPY PC 0xBE LOG3 0xF7 0x24 SWAP11 PUSH25 0x233264736F6C634300060C0033000000000000000000000000 "
				},
				"gasEstimates": {
					"creation": {
						"codeDepositCost": "4152600",
						"executionCost": "infinite",
						"totalCost": "infinite"
					},
					"external": {
						"_liquidityFee()": "1051",
						"_maxTxAmount()": "1117",
						"_owner()": "1111",
						"_taxFee()": "1073",
						"allowance(address,address)": "1409",
						"approve(address,uint256)": "infinite",
						"balanceOf(address)": "infinite",
						"claimTokens()": "infinite",
						"decimals()": "1125",
						"decreaseAllowance(address,uint256)": "infinite",
						"deliver(uint256)": "infinite",
						"excludeFromFee(address)": "22205",
						"excludeFromReward(address)": "infinite",
						"geUnlockTime()": "1102",
						"includeInFee(address)": "22203",
						"includeInReward(address)": "infinite",
						"increaseAllowance(address,uint256)": "infinite",
						"isExcludedFromFee(address)": "1371",
						"isExcludedFromReward(address)": "1372",
						"lock(uint256)": "66160",
						"name()": "infinite",
						"numTokensSellToAddToLiquidity()": "1138",
						"owner()": "1100",
						"reflectionFromToken(uint256,bool)": "infinite",
						"renounceOwnership()": "24381",
						"setLiquidityFeePercent(uint256)": "21211",
						"setMaxTxPercent(uint256)": "23609",
						"setNumTokensSellToAddToLiquidity(uint256)": "23697",
						"setSwapAndLiquifyEnabled(bool)": "23237",
						"setTaxFeePercent(uint256)": "21191",
						"swapAndLiquifyEnabled()": "1186",
						"symbol()": "infinite",
						"tokenFromReflection(uint256)": "infinite",
						"totalFees()": "1126",
						"totalSupply()": "1059",
						"transfer(address,uint256)": "infinite",
						"transferFrom(address,address,uint256)": "infinite",
						"transferOwnership(address)": "infinite",
						"uniswapV2Pair()": "infinite",
						"uniswapV2Router()": "infinite",
						"unlock()": "infinite"
					},
					"internal": {
						"_approve(address,address,uint256)": "infinite",
						"_getCurrentSupply()": "infinite",
						"_getRValues(uint256,uint256,uint256,uint256)": "infinite",
						"_getRate()": "infinite",
						"_getTValues(uint256)": "infinite",
						"_getValues(uint256)": "infinite",
						"_reflectFee(uint256,uint256)": "infinite",
						"_takeLiquidity(uint256)": "infinite",
						"_tokenTransfer(address,address,uint256,bool)": "infinite",
						"_transfer(address,address,uint256)": "infinite",
						"_transferBothExcluded(address,address,uint256)": "infinite",
						"_transferFromExcluded(address,address,uint256)": "infinite",
						"_transferStandard(address,address,uint256)": "infinite",
						"_transferToExcluded(address,address,uint256)": "infinite",
						"addLiquidity(uint256,uint256)": "infinite",
						"calculateLiquidityFee(uint256)": "infinite",
						"calculateTaxFee(uint256)": "infinite",
						"removeAllFee()": "53323",
						"restoreAllFee()": "41637",
						"swapAndLiquify(uint256)": "infinite",
						"swapTokensForEth(uint256)": "infinite"
					}
				},
				"methodIdentifiers": {
					"_liquidityFee()": "6bc87c3a",
					"_maxTxAmount()": "7d1db4a5",
					"_owner()": "b2bdfa7b",
					"_taxFee()": "3b124fe7",
					"allowance(address,address)": "dd62ed3e",
					"approve(address,uint256)": "095ea7b3",
					"balanceOf(address)": "70a08231",
					"claimTokens()": "48c54b9d",
					"decimals()": "313ce567",
					"decreaseAllowance(address,uint256)": "a457c2d7",
					"deliver(uint256)": "3bd5d173",
					"excludeFromFee(address)": "437823ec",
					"excludeFromReward(address)": "52390c02",
					"geUnlockTime()": "b6c52324",
					"includeInFee(address)": "ea2f0b37",
					"includeInReward(address)": "3685d419",
					"increaseAllowance(address,uint256)": "39509351",
					"isExcludedFromFee(address)": "5342acb4",
					"isExcludedFromReward(address)": "88f82020",
					"lock(uint256)": "dd467064",
					"name()": "06fdde03",
					"numTokensSellToAddToLiquidity()": "d12a7688",
					"owner()": "8da5cb5b",
					"reflectionFromToken(uint256,bool)": "4549b039",
					"renounceOwnership()": "715018a6",
					"setLiquidityFeePercent(uint256)": "8ee88c53",
					"setMaxTxPercent(uint256)": "d543dbeb",
					"setNumTokensSellToAddToLiquidity(uint256)": "f0f165af",
					"setSwapAndLiquifyEnabled(bool)": "c49b9a80",
					"setTaxFeePercent(uint256)": "061c82d0",
					"swapAndLiquifyEnabled()": "4a74bb02",
					"symbol()": "95d89b41",
					"tokenFromReflection(uint256)": "2d838119",
					"totalFees()": "13114a9d",
					"totalSupply()": "18160ddd",
					"transfer(address,uint256)": "a9059cbb",
					"transferFrom(address,address,uint256)": "23b872dd",
					"transferOwnership(address)": "f2fde38b",
					"uniswapV2Pair()": "49bd5a5e",
					"uniswapV2Router()": "1694505e",
					"unlock()": "a69df4b5"
				}
			},
			"storageLayout": {
				"storage": [
					{
						"astId": 497,
						"contract": "ClubAi.sol:ClubAI",
						"label": "_owner",
						"offset": 0,
						"slot": "0",
						"type": "t_address"
					},
					{
						"astId": 499,
						"contract": "ClubAi.sol:ClubAI",
						"label": "_previousOwner",
						"offset": 0,
						"slot": "1",
						"type": "t_address"
					},
					{
						"astId": 501,
						"contract": "ClubAi.sol:ClubAI",
						"label": "_lockTime",
						"offset": 0,
						"slot": "2",
						"type": "t_uint256"
					},
					{
						"astId": 1357,
						"contract": "ClubAi.sol:ClubAI",
						"label": "_rOwned",
						"offset": 0,
						"slot": "3",
						"type": "t_mapping(t_address,t_uint256)"
					},
					{
						"astId": 1361,
						"contract": "ClubAi.sol:ClubAI",
						"label": "_tOwned",
						"offset": 0,
						"slot": "4",
						"type": "t_mapping(t_address,t_uint256)"
					},
					{
						"astId": 1367,
						"contract": "ClubAi.sol:ClubAI",
						"label": "_allowances",
						"offset": 0,
						"slot": "5",
						"type": "t_mapping(t_address,t_mapping(t_address,t_uint256))"
					},
					{
						"astId": 1371,
						"contract": "ClubAi.sol:ClubAI",
						"label": "_isExcludedFromFee",
						"offset": 0,
						"slot": "6",
						"type": "t_mapping(t_address,t_bool)"
					},
					{
						"astId": 1375,
						"contract": "ClubAi.sol:ClubAI",
						"label": "_isExcluded",
						"offset": 0,
						"slot": "7",
						"type": "t_mapping(t_address,t_bool)"
					},
					{
						"astId": 1378,
						"contract": "ClubAi.sol:ClubAI",
						"label": "_excluded",
						"offset": 0,
						"slot": "8",
						"type": "t_array(t_address)dyn_storage"
					},
					{
						"astId": 1387,
						"contract": "ClubAi.sol:ClubAI",
						"label": "_tTotal",
						"offset": 0,
						"slot": "9",
						"type": "t_uint256"
					},
					{
						"astId": 1389,
						"contract": "ClubAi.sol:ClubAI",
						"label": "_rTotal",
						"offset": 0,
						"slot": "10",
						"type": "t_uint256"
					},
					{
						"astId": 1391,
						"contract": "ClubAi.sol:ClubAI",
						"label": "_tFeeTotal",
						"offset": 0,
						"slot": "11",
						"type": "t_uint256"
					},
					{
						"astId": 1393,
						"contract": "ClubAi.sol:ClubAI",
						"label": "_name",
						"offset": 0,
						"slot": "12",
						"type": "t_string_storage"
					},
					{
						"astId": 1395,
						"contract": "ClubAi.sol:ClubAI",
						"label": "_symbol",
						"offset": 0,
						"slot": "13",
						"type": "t_string_storage"
					},
					{
						"astId": 1397,
						"contract": "ClubAi.sol:ClubAI",
						"label": "_decimals",
						"offset": 0,
						"slot": "14",
						"type": "t_uint256"
					},
					{
						"astId": 1399,
						"contract": "ClubAi.sol:ClubAI",
						"label": "_taxFee",
						"offset": 0,
						"slot": "15",
						"type": "t_uint256"
					},
					{
						"astId": 1401,
						"contract": "ClubAi.sol:ClubAI",
						"label": "_previousTaxFee",
						"offset": 0,
						"slot": "16",
						"type": "t_uint256"
					},
					{
						"astId": 1403,
						"contract": "ClubAi.sol:ClubAI",
						"label": "_liquidityFee",
						"offset": 0,
						"slot": "17",
						"type": "t_uint256"
					},
					{
						"astId": 1405,
						"contract": "ClubAi.sol:ClubAI",
						"label": "_previousLiquidityFee",
						"offset": 0,
						"slot": "18",
						"type": "t_uint256"
					},
					{
						"astId": 1411,
						"contract": "ClubAi.sol:ClubAI",
						"label": "inSwapAndLiquify",
						"offset": 0,
						"slot": "19",
						"type": "t_bool"
					},
					{
						"astId": 1414,
						"contract": "ClubAi.sol:ClubAI",
						"label": "swapAndLiquifyEnabled",
						"offset": 1,
						"slot": "19",
						"type": "t_bool"
					},
					{
						"astId": 1416,
						"contract": "ClubAi.sol:ClubAI",
						"label": "_maxTxAmount",
						"offset": 0,
						"slot": "20",
						"type": "t_uint256"
					},
					{
						"astId": 1418,
						"contract": "ClubAi.sol:ClubAI",
						"label": "numTokensSellToAddToLiquidity",
						"offset": 0,
						"slot": "21",
						"type": "t_uint256"
					}
				],
				"types": {
					"t_address": {
						"encoding": "inplace",
						"label": "address",
						"numberOfBytes": "20"
					},
					"t_array(t_address)dyn_storage": {
						"base": "t_address",
						"encoding": "dynamic_array",
						"label": "address[]",
						"numberOfBytes": "32"
					},
					"t_bool": {
						"encoding": "inplace",
						"label": "bool",
						"numberOfBytes": "1"
					},
					"t_mapping(t_address,t_bool)": {
						"encoding": "mapping",
						"key": "t_address",
						"label": "mapping(address => bool)",
						"numberOfBytes": "32",
						"value": "t_bool"
					},
					"t_mapping(t_address,t_mapping(t_address,t_uint256))": {
						"encoding": "mapping",
						"key": "t_address",
						"label": "mapping(address => mapping(address => uint256))",
						"numberOfBytes": "32",
						"value": "t_mapping(t_address,t_uint256)"
					},
					"t_mapping(t_address,t_uint256)": {
						"encoding": "mapping",
						"key": "t_address",
						"label": "mapping(address => uint256)",
						"numberOfBytes": "32",
						"value": "t_uint256"
					},
					"t_string_storage": {
						"encoding": "bytes",
						"label": "string",
						"numberOfBytes": "32"
					},
					"t_uint256": {
						"encoding": "inplace",
						"label": "uint256",
						"numberOfBytes": "32"
					}
				}
			},
			"userdoc": {
				"kind": "user",
				"methods": {},
				"version": 1
			}
		}
	}
}